:1000000015C100000C94514E0C947C4E0C94A74EDC
:100010000C94D24E0C94FD4E0C94284F0C94534FDC
:100020000C947E4F34C1000032C1000030C100008A
:100030002EC100002CC100002AC1000028C1000010
:1000400026C1000024C1000022C1000020C1000020
:100050001EC100001CC100001AC100000C94A94F71
:1000600016C100000C94D4530C940A5410C1000023
:100070000EC100000CC100000AC1000008C1000050
:1000800006C1000004C1000002C1000000C1000060
:100090000C9460540C949654FAC000000C94E93F00
:1000A000F6C00000F4C00000F2C00000F0C0000084
:1000B000EEC00000ECC00000EAC00000E8C0000094
:1000C000E6C00000E4C000000C9417490C94EC5406
:1000D0000C942255DCC000000C9478550C94AE555D
:1000E000D6C0000005A84CCDB2D44EB93836A9020E
:1000F0000C50B9918688083CA6AAAA2ABE00000026
:10010000803F00000A0B02090C0D0E0807030401D2
:1001100000000000000000000000000000000000DF
:1001200000000000000000000000000000001211AC
:1001300010000000000000000000000000000000AF
:10014000000000000000000001021020200808103C
:100150002040102040800201020108040201010237
:100160000408102040808040201008040201800410
:10017000020180402010080402010804020101026B
:10018000040810204080010204081020408005056A
:100190000505070508080808020202020A0A0808FD
:1001A000040404040101010101010101030303032B
:1001B00003030303040707070C0C0C0C0C0C0C0CBA
:1001C0000202020206060606060606060B0B0B0BCB
:1001D0000B0B0B0B000020002300260029002C0035
:1001E0002F00320000010000030106010901000098
:1001F0002200250028002B002E00310034000201CF
:100200000000050108010B01000021002400270067
:100210002A002D0030003300010100000401070115
:100220000A01DC483354BF544B55D75511241FBE27
:10023000CFEFD1E2DEBFCDBF00E00CBF1DE0A0E0FC
:10024000B2E0ECE2FDEA00E00BBF02C007900D92C5
:10025000A63CB107D9F720E2A6ECBDE001C01D9293
:10026000AC3CB207E1F711E0C6E1D1E000E006C026
:1002700021970109802FFE010E946356C131D107E9
:1002800080E00807A9F70E94384A0C949456B8CE2B
:10029000CF92DF92EF92FF92CF93882351F16A01C0
:1002A0007B01CFEFC80F20E030E0A901CB01B60100
:1002B0000E94394B87FF11C0C701B60190580E94B8
:1002C000454B9B01AC016C2F70E090E080E0CF913A
:1002D000FF90EF90DF90CF90B2C0C701B6010E94AF
:1002E000404B8C2FCF91FF90EF90DF90CF900C94EC
:1002F000DF50CF91FF90EF90DF90CF9008950F9354
:100300001F938B019C0183E03695279517950795E0
:100310008A95D1F70A53124F462F477021E030E0FB
:10032000F90102C0EE0FFF1F4A95E2F7AF01F80195
:1003300020812423CB010196211102C090E080E0AE
:100340001F910F9108950F931F938B019C0183E0E0
:1003500036952795179507958A95D1F7677081E0AF
:1003600090E001C0880F6A95EAF7F801EA53F24F6E
:100370002081452B31F48095822380831F910F913A
:100380000895822BFACF2F923F924F925F926F92F5
:100390007F928F929F92AF92BF92CF92DF92EF9215
:1003A000FF920F931F93CF93DF93D62EC72E782EF5
:1003B000692E49015A01280161E08D2D0E941952D0
:1003C000CD2DDC2D8E010F5F1F4FA8016D2D7C2DD3
:1003D000872D962DB8DF20E030E0A901C201B701DA
:1003E0000E94FD4C181664F4C201B7010E94454BEF
:1003F0002B01C501B4010E94454BA201CE0123D0BF
:10040000C801DF91CF911F910F91FF90EF90DF9086
:10041000CF90BF90AF909F908F907F906F905F90A4
:100420004F903F902F900895882341F08150682F7E
:1004300070E090E080E050E040E085CF0895862FA6
:10044000B9010C94DF509C01FC01EE5FFE4FE4917A
:10045000E150E231E0F4F0E08827EE5CFD4F8F4F91
:100460000C94635644024B024E0265027A02470224
:100470008F029B029F02B602CB02E002F7020C033E
:100480004702210338034D0384B5806884BD60E0D2
:10049000822F0C94555284B58062F8CF80918000F1
:1004A0008C7F82608093800080918100807E80615B
:1004B000682B609381005093870040938600809161
:1004C0008000806880938000E2CF809180008C7FE4
:1004D00082608093800080918100807E8061682BA3
:1004E0006093810050938700409386008091800044
:1004F0008062E8CF809180008C7F82608093800052
:1005000080918100807E8061682B60938100509390
:10051000870040938600809180008860D3CF8091CF
:10052000B00080688093B0008091B100887F682B14
:100530006093B100ACCF8091B0008062F3CF809126
:1005400090008C7F82608093900080919100807EEB
:100550008061682B609391005093970040939600C0
:100560008091900080688093900091CF809190005E
:100570008C7F82608093900080919100807E80616A
:10058000682B609391005093970040939600809160
:1005900090008062E8CF809190008C7F8260809391
:1005A000900080919100807E8061682B6093910023
:1005B0005093970040939600809190008860D3CF2D
:1005C0008091A0008C7F82608093A0008091A10028
:1005D000807E8061682B6093A1005093A7004093B8
:1005E000A6008091A00080688093A00050CF8091E9
:1005F000A0008C7F82608093A0008091A100807E0B
:100600008061682B6093A1005093A7004093A600DF
:100610008091A0008062E8CF8091A0008C7F8260F2
:100620008093A0008091A100807E8061682B609300
:10063000A1005093A7004093A6008091A00088607D
:10064000D3CF809120018C7F8260809320018091A4
:100650002101807E8061682B6093210150932701E6
:1006600040932601809120018068809320010FCF64
:10067000809120018C7F82608093200180912101F4
:10068000807E8061682B6093210150932701409305
:100690002601809120018062E8CF809120018C7F2B
:1006A00082608093200180912101807E8061682B8F
:1006B00060932101509327014093260180912001EE
:1006C0008860D3CF611102C00C9419526130E1F3FC
:1006D00062E0FACF662319F061E00C94555260E0B5
:1006E000FCCFCF93DF93882349F0EB0181500E9428
:1006F000BC5099838883DF91CF910895FB011182CB
:100700001082F9CF0F931F938B019C0183E03695E4
:100710002795179507958A95D1F70153124F462FC4
:10072000477021E030E0F90102C0EE0FFF1F4A954B
:10073000E2F7AF01F80120812423CB0101962111BA
:1007400002C090E080E01F910F9108950F931F93D6
:100750008B019C0183E036952795179507958A951F
:10076000D1F7677081E090E001C0880F6A95EAF7E1
:10077000F801E153F24F2081452B31F4809582231B
:1007800080831F910F910895822BFACFCF92DF9231
:10079000EF92FF92CF93DF936B017C0160E086E3E1
:1007A000C816D104E104F10490F486E38C0D0E9494
:1007B0001952E6012196AE01C701B601C7DFCE018D
:1007C000DF91CF91FF90EF90DF90CF9008958C2D27
:1007D000EECF882341F08150682F70E090E080E0F8
:1007E00050E040E0B3CF089590E080E008950F938B
:1007F0001F93009709F489C06115710509F485C03C
:100800000091FC021091FD022091FE023091FF0246
:100810000E3F1F4F2F4F3F4F09F068C04FEF5FEF64
:10082000BA014093FC025093FD026093FE02709364
:10083000FF024091FC025091FD026091FE02709116
:10084000FF02DC011296ED91FC9180819181A281E1
:10085000B3818093720E9093730EA093740EB09335
:10086000750E84819581A681B78180936E0E9093D9
:100870006F0EA093700EB093710E80859185A28546
:10088000B38580936A0E90936B0EA0936C0EB09319
:100890006D0E84859585A685B7858093660E9093A9
:1008A000670EA093680EB093690E1092620E1092BC
:1008B000630E1092640E1092650E0E94D12086EF96
:1008C00090E29093D90D8093D80D9093DB0D809397
:1008D000DA0D0E94C01F009731F421E030E0309320
:1008E000770E2093760E1F910F9108950091FC02D0
:1008F0001091FD022091FE023091FF02DB010D9369
:100900001D932D933C93139794CF8FEF9FEFEBCFD5
:100910008F929F92AF92BF92CF92DF92EF92FF920F
:100920001F93CF93DF934B015C011091790E82E00E
:1009300090E09093770E8093760E81149104A10439
:10094000B10441F48091790E811104C08091780E38
:10095000C1E08111C0E0C12CD12C76018091790ECB
:10096000811106C08091780E811102C0CC23D9F08C
:1009700083E090E09093770E8093760ECC2381F104
:10098000CCE9DFEF111102C00E945A24CE01DF91A1
:10099000CF911F91FF90EF90DF90CF90BF90AF90DD
:1009A0009F908F9008956AE070E080E090E00E9450
:1009B000245080E1C80E87E2D81EE11CF11C8FEFA5
:1009C00088169806A806B80631F0C1E08C149D047C
:1009D000AE04BF0408F0C0E080E00E94F41FBECF68
:1009E000D0E0C0E0CFCFCF92DF92EF92FF920F9393
:1009F0001F93CF93DF938F3F910511F008F051C003
:100A00002091760E3091770E2330310539F0209108
:100A1000760E3091770E2130310531F424E030E04C
:100A20003093770E2093760E6A017B01EC018230C1
:100A30009105A8F011E0AE01C701B6010E94BF1FE9
:100A4000AB01BC01CE011123F9F0DF91CF911F91D1
:100A50000F91FF90EF90DF90CF900C9483268C0144
:100A6000000F111F0852124FD8018D919C91892BB4
:100A700009F30E948D260297E9F6D801ED91FC91C9
:100A8000CE011995182FD7CF0E94A52690E080E0BF
:100A9000DF91CF911F910F91FF90EF90DF90CF905A
:100AA00008958FEF9FEFF4CF80E00C94F41FCF9365
:100AB000DF9386E090E09093770E8093760E0E940D
:100AC0004D20EC01E8EDFDE084E0DF011D928A9508
:100AD000E9F70E94F2231092770E1092760ECE0163
:100AE000DF91CF9108958091780E08958091610EE5
:100AF00008956093FC027093FD028093FE02909330
:100B0000FF0290E080E008952F923F924F925F9213
:100B10006F927F928F929F92AF92BF92CF92DF920D
:100B2000EF92FF920F931F93CF93DF9300D000D0EB
:100B300000D01F92CDB7DEB780912E1690912F1660
:100B4000A0913016B091311684309105A105B10500
:100B500009F06EC060913216709133168091341690
:100B6000909135162DE133EF41E050E00E9441565F
:100B700049015A019B01AC01A7EAB1E40E946B56FE
:100B80006B017C01A4E1BBE0A50194010E946B56BE
:100B9000C616D706E806F906F0F56C197D098E0928
:100BA0009F0960957095809590959F776093321618
:100BB00070933316809334169093351660913216E5
:100BC0007091331680913416909135160E94714BB6
:100BD00020E030E040E050E30E94374D4B015C01E3
:100BE000C501B4012A960FB6F894DEBF0FBECDBF83
:100BF000DF91CF911F910F91FF90EF90DF90CF90F9
:100C0000BF90AF909F908F907F906F905F904F902C
:100C10003F902F900895C61AD70AE80AF90AC092A1
:100C20003216D0923316E0923416F0923516C6CFB3
:100C30000597A105B10509F4DAC11E0129E0220ECC
:100C4000311C0EEF1FE181E7482E85E1582E612C03
:100C5000712CCE0101969A878987C090FE1FD09093
:100C6000FF1FE0900020F09001209FEFC91AD90AE1
:100C7000E90AF90AA1E7CA16A2E0DA06E104F104DA
:100C800008F4C4C02EE336E1D90114964D915D916C
:100C90006D917C9117972C5F3F4F7F778D919D9140
:100CA0000D90BC91A02D88279927AA27B078842B76
:100CB000952BA62BB72BAC01BD0176956795579563
:100CC000479581709927892B41F0BFED4B27B0EBF9
:100CD0005B27B8E06B27B9E97B27F9013497C90195
:100CE000805D994FDC01CD90DD90ED90FC904C251E
:100CF0005D256E257F254083518362837383EAECF3
:100D0000F9E1E217F30709F0BFCFDF01CD90DD90E5
:100D1000ED90FC901397CC24DD24EE24F0E8FF2224
:100D200014964D915D916D917C9117977F77C42AB0
:100D3000D52AE62AF72AB701A60176956795579531
:100D4000479521E0C222DD24CD2841F08FED4827D0
:100D500080EB582788E0682789E97827CD018C58EF
:100D60009340FC01C080D180E280F3804C255D255A
:100D70006E257F254D935D936D937D938AEF9FE163
:100D80008A179B0719F68091FA1F9091FB1FA0917B
:100D9000FC1FB091FD1F88279927AA27B0784091A2
:100DA0003E1650913F1660914016709141167F7724
:100DB000842B952BA62BB72BAC01BD01769567959F
:100DC0005795479581709927892B41F09FED4927C9
:100DD00090EB592798E0692799E9792780916E1C53
:100DE00090916F1CA091701CB091711C8427952765
:100DF000A627B7278093FA1F9093FB1FA093FC1F91
:100E0000B093FD1FC12CD12C7601C394D60111974C
:100E1000AA0FBB1FAA0FBB1FA25CB94E8D909D905D
:100E2000AD90BC90C092FE1FD092FF1FE0920020B8
:100E3000F0920120B501A4019BE076956795579546
:100E400047959A95D1F784269526A626B726D501EB
:100E5000C40127E0880F991FAA1FBB1F2A95D1F74D
:100E600080789675AC72BD7988269926AA26BB260D
:100E7000D501C4013FE0880F991FAA1FBB1F3A95F7
:100E8000D1F788279927A67CBF7E88259925AA2592
:100E9000BB25AC01BD01E2E1769567955795479575
:100EA000EA95D1F784279527A627B727E985FA85FC
:100EB00081939193A193B193FA87E9872E163F0608
:100EC00009F0CBCE69817A818B819C81E5E0969592
:100ED000879577956795EA95D1F70E94714B20E049
:100EE00030E040E85CE40E94374D4B015C016D81CD
:100EF0007E818F819885F6E09695879577956795A1
:100F0000FA95D1F70E94714B9B01AC01C501B40168
:100F10000E94C24A20E030E040E055E20E94374D96
:100F20004B015C0120E030E0A9010E94394B8111A6
:100F300057CEF1E0CF1AD108E108F10820E7C21638
:100F400022E0D206E104F10470F4EEE3F6E18191CF
:100F50009191A191B191892B8A2B8B2B09F079CE9C
:100F60000E171F07A1F740923E1650923F1660924F
:100F7000401670924116E2E4F6E1C12CD12C7601C4
:100F8000C39481E795E1A0E0B0E09C01AD016EE182
:100F900056954795379527956A95D1F7282739278C
:100FA0004A275B2765E679E887E09CE60E9432568F
:100FB000DC01CB018C0D9D1DAE1DBF1D8193919356
:100FC000A193B1932FEFC21AD20AE20AF20A20E7E4
:100FD000C21622E0D206E104F104B9F6C092FE1F67
:100FE000D092FF1FE0920020F092012032CE20919B
:100FF00036163091371640913816509139166DECEF
:101000007DE081E090E00E943256695779428D4E32
:101010009F4F00913A1610913B1620913C1630914B
:101020003D1668017901FDE0CC0CDD1CEE1CFF1CB7
:10103000FA95D1F7C026D126E226F326970186013C
:10104000A1E13695279517950795AA95D1F7C02662
:10105000D126E226F32697018601B5E0000F111F85
:10106000221F331FBA95D1F70C251D252E253F25AC
:10107000609336167093371680933816909339160E
:1010800000933A1610933B1620933C1630933D166E
:10109000600F711F821F931F0E94714B20E030E090
:1010A00040E85FE299CD2F923F924F925F926F920C
:1010B0007F928F929F92AF92BF92CF92DF92EF92E8
:1010C000FF920F931F93CF93DF93CDB7DEB7CB542F
:1010D000D1090FB6F894DEBF0FBECDBF26967FAF05
:1010E0006EAF269728965FAF4EAF28973E8B2D8B1D
:1010F0002C96FFAEEEAE2C97FB01E150F04CEE0FBC
:10110000FF1FEE0FFF1FE80FF91F80809180A28064
:10111000B3808F8A988EA98EBA8EB501A401442718
:1011200077FD439555276627772729964FAF29974F
:10113000F901E150F04CEE0FFF1FEE0FFF1F289654
:10114000AEACBFAC2897EA0DFB1DC080D180E28019
:10115000F380CB8EDC8EED8EFE8EB701A601442788
:1011600077FD43955527662777272A964FAF2A970D
:10117000188B0F87F80130E020E02C96EEACFFAC26
:101180002C972E153F050CF43FC022969FAF8EAFD3
:1011900022971A8B098B312C212C812C912C5401F4
:1011A00083948D829E82AF82B88626968EAC9FAC49
:1011B0002697281439047CF129969FAC29972A9602
:1011C000AFAC2A9730E020E041E050E060E070E012
:1011D0009A10F5C1C55BDF4F0FB6F894DEBF0FBEA6
:1011E000CDBFDF91CF911F910F91FF90EF90DF90D6
:1011F000CF90BF90AF909F908F907F906F905F90B7
:101200004F903F902F900895119211921192119248
:101210002F5F3F4FB2CF2296EEADFFAD2297819167
:101220009191A191B1912296FFAFEEAF22978F8855
:10123000988CA98CBA8CB7FE23C04D815E816F81DA
:10124000788541505109610971095A016B01A81A49
:10125000B90ACA0ADB0AD601C50121E0CD80DE80C9
:10126000EF80F8848C159D05AE05BF0508F020E0E1
:10127000822E912CB12CA12C8D829E82AF82B886B9
:101280005D01CC24DD24A8A2B9A2CAA2DBA29C01E4
:10129000AD01442755272CA33DA34EA35FA32C9655
:1012A000EEADFFAD2C97E219F3098D889E888E165E
:1012B0009F060CF4F4012896AEACBFAC2897249698
:1012C000BFAEAEAE2497C988DA88DC8ACB8A1E8688
:1012D0001D86812C912C5401839489869A86AB8635
:1012E000BC86812C912C5401CD84DE84CE16DF0681
:1012F00004F1F7FF02C0F0E0E0E0E20DF31D2C96F0
:10130000EEACFFAC2C97EE15FF0554F4EE0FFF1F6B
:10131000EE0FFF1FE00FF11F80829182A282B38245
:101320002FEF221A320AE989FA893496FA8BE98B6F
:101330003CCF2496AEADBFAD2497CD90DD90ED901F
:10134000FD902496BFAFAEAF24972B8D3C8D4D8D75
:101350005E8D57FF22C089859A85AB85BC85019734
:10136000A109B109AC01BD014C195D096E097F09E4
:101370006A017B0181E029853A854B855C85C2162F
:10138000D306E406F50608F080E0482F50E070E050
:1013900060E049875A876B877C87B7018827992740
:1013A00068A779A78AA79BA7EE24FF2428A139A1C3
:1013B0004AA15BA1C701B6010E9432562B013C0134
:1013C0002CA13DA14EA15FA168A579A58AA59BA5E9
:1013D0000E9432566CA77DA78EA79FA7AB89BC89B8
:1013E0004D915D916D917D91BC8BAB8BDB01CA0101
:1013F000880D991DAA1DBB1D89839A83AB83BC836D
:1014000091E09F8F29813A814B815C8128153905B4
:101410004A055B0508F01F8E2CA13DA14EA15FA1DE
:10142000C701B6010E9432566B017C0189809A8007
:10143000AB80BC808C0C9D1CAE1CBF1C89829A8228
:10144000AB82BC8252019924882488AA99AAAAAAAC
:10145000BBAA29813A814B815C81280D391D4A1D27
:101460005B1D2CAB3DAB4EAB5FAB8CA49DA4AEA47F
:10147000BFA454019924882488AE99AEAAAEBBAE0D
:10148000280D391D4A1D5B1D2CAF3DAF4EAF5FAF20
:10149000AB89BC8914972D933D934D935C9313971F
:1014A00028A139A14AA15BA168A579A58AA59BA518
:1014B0000E9432569F8C690D711D811D911D230163
:1014C00066247724460E571E681E791E2CA53DA55E
:1014D0004EA55FA54A01AA24BB24840C951CA61C1A
:1014E000B71C81E090E0A0E0B0E049815A816B81B7
:1014F0007C814C155D056E057F0518F080E090E05D
:10150000DC01880D991DAA1DBB1D41E050E060E083
:1015100070E088A899A8AAA8BBA8CCA8DDA8EEA8C6
:10152000FFA8C814D904EA04FB0418F040E050E016
:10153000BA01840F951FA61FB71F812C912C54014F
:101540008394C8ACD9ACEAACFBAC2CAD3DAD4EAD90
:101550005FAD2C153D054E055F0518F0812C912CD3
:101560005401880E991EAA1EBB1E4D855E854F5FD5
:101570005F4F5E874D87B8CEEF85F889C190D190D7
:10158000E190F190F88BEF87DB01CA010197A10987
:10159000B1098C199D09AE09BF09349780839183E5
:1015A000A283B383E1E084179507A607B70708F085
:1015B000E0E04E2F50E070E060E02F5F3F4F2C9650
:1015C0008EAC9FAC2C9728153905B4F203CE2F9220
:1015D0003F924F925F926F927F928F929F92AF92C3
:1015E000BF92CF92DF92EF92FF920F931F93CF9310
:1015F000DF9300D01F92CDB7DEB78B015C834B83A6
:10160000FB01E150F04CEE0FFF1FEE0FFF1FE80F44
:10161000F91F408151816281738177FD27C04C01A0
:10162000B12CA12CC12CD12C7601A016B10664F5E9
:10163000F40161917191819191914F010E94714BDF
:101640004B815C810E94034D9B01AC01C701B60137
:101650000E94C24A6B017C012B813C81205E3F4F7E
:101660003C832B833FEFA31AB30ADFCF9A8389838E
:10167000312C212C81E090E0A0E0B0E0C12CD12CF5
:10168000760120163106CCF0C701B6010F900F90FD
:101690000F900F90DF91CF911F910F91FF90EF90DE
:1016A000DF90CF90BF90AF909F908F907F906F9082
:1016B0005F904F903F902F900895E981FA8141907B
:1016C000519061907190FA83E983409450946094B2
:1016D000709453014201880E991EAA1EBB1EC501BB
:1016E000B4010E94714B4B815C810E94034D9B01B0
:1016F000AC01C701B6010E94C14A6B017C0181E0C7
:1017000084149504A604B70408F080E090E0B0E0EB
:10171000A0E02B813C81205E3F4F3C832B833FEF39
:10172000231A330AAECFCF92DF92EF92FF926B0172
:101730007C019F7720E030E040E859E50E94394B7A
:1017400087FF2BC020E030E040E05FE3C701B60137
:101750000E94FD4C87FD0EC020E030E040E05FE3DA
:10176000C701B6010E94C24AFF90EF90DF90CF9070
:101770000C94AE4B20E030E040E05FEBC701B601D7
:101780000E94FD4C181684F420E030E0A901C70146
:10179000B6010E94374D6B017C01C701B601FF9075
:1017A000EF90DF90CF90089520E030E040E05FE3DD
:1017B000C701B6010E94C14AFF90EF90DF90CF9021
:1017C0000C94264B2F923F924F925F926F927F9292
:1017D0008F929F92AF92BF92CF92DF92EF92FF9241
:1017E0000F931F93CF93DF93CDB7DEB766970FB6F6
:1017F000F894DEBF0FBECDBF8091E8159091E9153A
:10180000A091EA15B091EB158093202090932120B0
:10181000A0932220B09323208091EC159091ED1598
:10182000A091EE15B091EF15809324209093252080
:10183000A0932620B09327208091F0159091F11568
:10184000A091F215B091F315809328209093292050
:10185000A0932A20B0932B2044EF55E162E570E27B
:101860008EE490E20E94BA1E68EF75E18AEA90E287
:101870000E94B03D8091D8029091D902A091DA02E5
:10188000B091DB028D839E83AF83B8878091AA20BD
:101890009091AB20A091AC20B091AD2089839A8328
:1018A000AB83BC8382E0E82EF12C0EE310E221E052
:1018B00030E0AE014F5F5F4F61E070E0CE01059612
:1018C000F2DB8091DC029091DD02A091DE02B0910A
:1018D000DF028D839E83AF83B8878091AE20909185
:1018E000AF20A091B020B091B12089839A83AB83BF
:1018F000BC8306E410E221E030E0AE014F5F5F4FB1
:1019000061E070E0CE010596CEDB88E0EEE3F0E228
:10191000A0E1B0E201900D928A95E1F788E0F8012C
:10192000A8E1B0E201900D928A95E1F750E040E025
:1019300062E070E080ED92E04ADE20E030E040E8D6
:1019400050E40E94374D6B017C01C0928220D092FE
:101950008320E0928420F092852050E040E062E015
:1019600070E080E190E233DE20E030E040E05AE2D7
:101970000E94374DA70196010E94374D2B013C0173
:1019800040929A2050929B2060929C2070929D20C1
:101990002091FC153091FD154091FE155091FF15D9
:1019A0000E94C14A4B015C0180922C2090922D2014
:1019B000A0922E20B0922F2040929E2050929F20E5
:1019C0006092A0207092A12050E040E062E070E0C0
:1019D00088E190E2FCDD20E030E040E05AE20E9445
:1019E000374DA70196010E94374D60939A2070935E
:1019F0009B2080939C2090939D20209100163091F5
:101A0000011640910216509103160E94C14A6B01C3
:101A10007C01C0923020D0923120E0923220F092AE
:101A20003320209178023091790240917A025091CE
:101A30007B02C501B4010E94374D20E030E0A901CE
:101A40000E94C24A2B013C01209180023091810208
:101A50004091820250918302C701B6010E94374D26
:101A60009B01AC01C301B2010E94C24A60933420C1
:101A700070933520809336209093372020917C02FC
:101A800030917D0240917E0250917F02C501B401E8
:101A90000E94374D20E030E0A9010E94C24A4B016C
:101AA0005C01209184023091850240918602509120
:101AB0008702C701B6010E94374D9B01AC01C501E9
:101AC000B4010E94C24A60933820709339208093F9
:101AD0003A2090933B20C0905C02D0905D02E09051
:101AE0005E02F0905F02A70196016091A8157091C7
:101AF000A9158091AA159091AB150E94394B8823A6
:101B000041F0C092A815D092A915E092AA15F092C2
:101B1000AB1565E470E080E090E00E948203909352
:101B2000A7158093A61523E030E030933D20209345
:101B30003C2043E050E0BE01675F7F4F0E9471038D
:101B40002091940230919502409196025091970213
:101B50006091900270919102809192029091930213
:101B60000E94FD4C6091F0027091F102E984FA84C8
:101B700090E018160CF060C180E00E94714B20E0EC
:101B800030E040E054E30E94374D4B015C01B70167
:101B900090E080E00E94714B9B01AC01C501B40153
:101BA0000E94374D209148023091490240914A02EB
:101BB00050914B020E94374D6093562070935720EE
:101BC000809358209093592020915620309157208F
:101BD000409158205091592060919802709199023B
:101BE00080919A0290919B020E94374D22E93DE735
:101BF00045E85FE30E94374D27EB30EA47E150E4C8
:101C00000E94C24A6B017C0120E030E0A9010E94E1
:101C1000394B87FD30C1C0926A20D0926B20E09290
:101C20006C20F0926D2020914E2030914F204091F9
:101C300050205091512060919C0270919D028091A2
:101C40009E0290919F020E94374D60935A2070939C
:101C50005B2080935C2090935D2020E138E442E893
:101C60005FE30E94374D25EB3BE84DE050E40E94D6
:101C7000C14A6B017C0120E030E0A9010E94394B90
:101C800087FD02C1C0927220D0927320E09274202E
:101C9000F0927520C0905802D0905902E0905A02FC
:101CA000F0905B02A70196016091B4157091B51593
:101CB0008091B6159091B7150E94394B882341F059
:101CC000C092B415D092B515E092B615F092B71542
:101CD00064E470E080E090E00E9482039093B3158A
:101CE0008093B21523E030E030933D2020933C20D8
:101CF00043E050E0BE01675F7F4F0E947103209177
:101D0000A0023091A1024091A2025091A3026091E1
:101D100090027091910280919202909193020E94A0
:101D2000FD4CE984FA846091F2027091F30290E034
:101D300018160CF0B2C080E00E94714B20E030E039
:101D400040E054E30E94374D4B015C01B70190E045
:101D500080E00E94714B9B01AC01C501B4010E945F
:101D6000374D2091500230915102409152025091D2
:101D700053020E94374D60935E2070935F208093E2
:101D800060209093612020915E2030915F204091EF
:101D90006020509161206091A4027091A502809111
:101DA000A6029091A7020E94374D2AEC37ED45E834
:101DB0005FE30E94374D26EE35EE49EC5FE30E946B
:101DC000C24A6B017C0120E030E0A9010E94394B3E
:101DD00087FD82C0C0926E20D0926F20E09270206A
:101DE000F0927120809103208F3118F48F5F8093DF
:101DF00003208FEF9FEFDC01809326169093271628
:101E0000A0932816B09329168091022081116DC0ED
:101E100081E08093022081E090E0A0E0B0E0809338
:101E20002A1690932B16A0932C16B0932D168AE9A0
:101E300099E9A9E9BEE302C180E00E94714B20E06C
:101E400030E040E054E30E94374D4B015C01B701A4
:101E500090E080E00E94714B9B01AC01C501B40190
:101E60000E94374D20914C0230914D0240914E021C
:101E700050914F029FCE10926A2010926B201092C8
:101E80006C2010926D20CFCE109272201092732091
:101E90001092742010927520FDCE80E00E94714B4C
:101EA00020E030E040E054E30E94374D4B015C01FC
:101EB000B70190E080E00E94714B9B01AC01C5012D
:101EC000B4010E94374D2091540230915502409147
:101ED0005602509157024DCF10926E2010926F20F3
:101EE00010927020109271207DCF80912A169091CF
:101EF0002B16A0912C16B0912D160197A109B109AE
:101F000088309105A105B10508F0DFC6FC018827DE
:101F1000E357F04F8F4F0C946356950FC414F11490
:101F200022156B15B415EB151C168AE999E9A9E978
:101F3000BEE38093762090937720A0937820B0938F
:101F4000792080906A2090906B20A0906C20B090B7
:101F50006D20C0907220D0907320E0907420F0909B
:101F6000752020E030E048EC51E4C501B4010E9446
:101F7000394B87FF74C020E030E040EA51E4C701EC
:101F8000B6010E94394B87FF2DC020E030E048ECBD
:101F900051E460916E2070916F208091702090913B
:101FA00071200E94394B87FD02C00C94941A82E084
:101FB00090E0A0E0B0E080932A1690932B16A093B7
:101FC0002C16B0932D1610920320109276201092AA
:101FD0007720109278201092792084E799EAA2E481
:101FE000B0EC83C420E030E040EA51E4C701B60120
:101FF0000E94FD4C87FD33C020E030E048EC51E406
:1020000060916E2070916F2080917020909171206E
:102010000E94394B87FF23C089E090E0A0E0B0E048
:1020200080932A1690932B16A0932C16B0932D16FE
:102030001092032080E090E0A0E0BFE38093762040
:1020400090937720A0937820B093792010927A20F3
:1020500010927B2010927C2010927D2046C020E0C0
:1020600030E040EA51E4C701B6010E94394B87FFD6
:10207000D3C385E090E0A0E0B0E080932A1690936F
:102080002B16A0932C16B0932D16109203201092AD
:10209000762010927720109278201092792010925A
:1020A0007A2010927B2010927C2010927D200E943A
:1020B00084056093A6207093A7208093A820909316
:1020C000A92031DB20E030E0A9010E94394B8111C9
:1020D0009EC380E090E0A0E8BFEB80931C16909335
:1020E0001D16A0931E16B0931F1640907620509098
:1020F0007720609078207090792080907A2090905E
:102100007B20A0907C20B0907D20209168023091AF
:10211000690240916A0250916B02C301B2010E94B0
:10212000374D20E030E0A9010E94C24A6B017C01DA
:1021300020917002309171024091720250917302AD
:10214000C501B4010E94374D9B01AC01C701B60126
:102150000E94C24A6B017C01C0926220D09263202F
:10216000E0926420F092652020916C0230916D0223
:1021700040916E0250916F02C301B2010E94374D2F
:1021800020E030E0A9010E94C24A2B013C012091CD
:102190007402309175024091760250917702C50128
:1021A000B4010E94374D9B01AC01C301B2010E94F2
:1021B000C24A4B015C018092662090926720A092F7
:1021C0006820B09269202091141630911516409124
:1021D000161650911716C701B6010E94C14A6B012D
:1021E0007C01C0921416D0921516E0921616F09249
:1021F0001716209118163091191640911A16509101
:102200001B16C501B4010E94C14A4B015C018092BA
:10221000181690921916A0921A16B0921B162091B9
:102220000002309101024091020250910302C70165
:10223000B6010E94374D2091081630910916409141
:102240000A1650910B160E94C14A20912C0230911F
:102250002D0240912E0250912F020E94374D2B01EA
:102260003C014092822050928320609284207092A0
:1022700085202091340230913502409136025091F0
:102280003702C701B6010E94374D209104163091E4
:10229000051640910616509107160E94C24AA301E6
:1022A00092010E94C24A6B017C01C0927E20D092B2
:1022B0007F20E0928020F0928120209104023091D2
:1022C00005024091060250910702C501B4010E9427
:1022D000374D2091101630911116409112165091E1
:1022E00013160E94C14A2091300230913102409170
:1022F0003202509133020E94374D2B013C01409233
:102300008E2050928F206092902070929120209188
:1023100038023091390240913A0250913B02C50196
:10232000B4010E94374D20910C1630910D1640914A
:102330000E1650910F160E94C24AA30192010E94EC
:10234000C24A609386207093872080938820909360
:10235000892080903C0290903D02A0903E02B09077
:102360003F02A5019401C701B6010E94FD4C181659
:102370000CF00AC58092A2209092A320A092A420E3
:10238000B092A5202091A2203091A3204091A420BA
:102390005091A5206091B4027091B5028091B6026F
:1023A0009091B7020E94374D0E94AE4B6093A220DD
:1023B0007093A3208093A4209093A5200E94B91E1F
:1023C000882309F4FAC41092A2201092A32010923C
:1023D000A4201092A520C090A220D090A320E0902D
:1023E000A420F090A52020E030E0A901C701B601AB
:1023F0000E94394B87FF03C5C701B60190580E9460
:10240000454BEE24FF24E61AF70A80908620909030
:102410008720A0908820B090892040904002509062
:1024200041026090420270904302A3019201C501F3
:10243000B4010E94FD4C18160CF0E7C44092A22093
:102440005092A3206092A4207092A5202091A220F7
:102450003091A3204091A4205091A5206091C0020A
:102460007091C1028091C2029091C3020E94374DC7
:102470000E94AE4B6093A2207093A3208093A4206F
:102480009093A5200E94B91E882309F4D7C4109206
:10249000A2201092A3201092A4201092A520809038
:1024A000A2209090A320A090A420B090A52020E08E
:1024B00030E0A901C501B4010E94394B87FFE0C497
:1024C000C501B40190580E94454BCC24DD24C61AA6
:1024D000D70A67E070E080E090E00E947F015C0135
:1024E0009093D7158093D6156091E0027091E10228
:1024F0006C157D0544F06091E2027091E3026C1569
:102500007D050CF4B601072E000C880B990B0E9478
:10251000734B2B013C0120E030E04FE753E40E9475
:10252000394B18160CF4B2C44092A2205092A3204A
:102530006092A4207092A52020E030E0A901609173
:10254000A2207091A3208091A4209091A5200E94A8
:10255000FD4C87FF08C01092A2201092A320109279
:10256000A4201092A5204091A2205091A320609118
:10257000A4207091A520C5010E94480165E070E08B
:1025800080E090E00E947F015C019093CF158093E2
:10259000CE156091E4027091E5026E157F0544F05E
:1025A0006091E6027091E7026E157F050CF4B701A9
:1025B000072E000C880B990B0E94734B2B013C01DA
:1025C00020E030E04FE753E40E94394B18160CF43A
:1025D0006AC44092A2205092A3206092A4207092DC
:1025E000A52020E030E0A9016091A2207091A320F5
:1025F0008091A4209091A5200E94FD4C87FF08C0E7
:102600001092A2201092A3201092A4201092A52034
:102610004091A2205091A3206091A4207091A52008
:10262000C5010E94480168E070E080E090E00E94EF
:102630007F015C019093C7158093C6156091E802F5
:102640007091E9026C157D0544F06091EA02709189
:10265000EB026C157D050CF4B60177FF03C0719594
:1026600061957109072E000C880B990B0E94734B22
:102670002B013C0120E030E04FE753E40E94394B4E
:1026800018160CF41DC44092A2205092A320609210
:10269000A4207092A52020E030E0A9016091A22042
:1026A0007091A3208091A4209091A5200E94FD4CC0
:1026B00087FF08C01092A2201092A3201092A4209D
:1026C0001092A5204091A2205091A3206091A420B7
:1026D0007091A520C5010E94480166E070E080E08D
:1026E00090E00E947F015C019093BF158093BE151E
:1026F0006091EC027091ED026E157F0544F06091DF
:10270000EE027091EF026E157F050CF4B70177FFB2
:1027100003C0719561957109072E000C880B990B08
:102720000E94734B2B013C0120E030E04FE753E463
:102730000E94394B18160CF4D0C34092A22050923C
:10274000A3206092A4207092A52020E030E0A9018F
:102750006091A2207091A3208091A4209091A52047
:102760000E94FD4C87FF08C01092A2201092A32067
:102770001092A4201092A5204091A2205091A32055
:102780006091A4207091A520C5010E94480161E0DC
:1027900080914402909145028C159D0509F460E0FA
:1027A00089E00E946A0361E08091460290914702AD
:1027B0008E159F0509F460E084E00E946A03C090D2
:1027C0008620D0908720E0908820F090892080900B
:1027D000400290904102A0904202B0904302A501B5
:1027E0009401C701B6010E94FD4C18160CF082C37B
:1027F000A5019401C701B6010E94C14A60938620D9
:102800007093872080938820909389208BC380E0E9
:1028100090E0A0E8BFE361CC20E030E040EF51E47D
:10282000C501B4010E94394B87FF27C020E030E08A
:1028300040EA51E4C501B4010E94FD4C87FD1DC072
:1028400084E090E0A0E0B0E080932A1690932B16ED
:10285000A0932C16B0932D168DEC9CECACE4BEE34B
:102860008093762090937720A0937820B09379205E
:102870008BED9FE0A9ECBEEB38C0C0906E20D090ED
:102880006F20E0907020F090712020E030E040EF69
:1028900051E4C701B6010E94394B87FF2FC020E0E9
:1028A00030E040EA51E4C701B6010E94FD4C87FDCB
:1028B00025C088E090E0A0E0B0E080932A169093D5
:1028C0002B16A0932C16B0932D168DEC9CECACE43B
:1028D000BEE38093762090937720A0937820B093E6
:1028E00079208BED9FE0A9ECBEE380937A20909352
:1028F0007B20A0937C20B0937D20F7CB20E030E0BC
:1029000040EA51E4C501B4010E94394B87FF19C068
:1029100083E090E0A0E0B0E080932A1690932B161D
:10292000A0932C16B0932D1610927620109277203B
:1029300010927820109279208BED9FE0A9E4BFEBF4
:10294000D4CF20E030E040EA51E4C701B6010E9454
:10295000394B87FFCACB87E090E0A0E0B0E08093DE
:102960002A1690932B16A0932C16B0932D16109226
:1029700076201092772010927820109279208BED9B
:102980009FE0A9E4BFE3B1CF1092762010927720A8
:10299000109278201092792020E030E048EC51E449
:1029A00060917220709173208091742090917520B5
:1029B0000E94394B87FF0FC082E090E0A0E0B0E0BA
:1029C00080932A1690932B16A0932C16B0932D1655
:1029D0001092032002CB809103208A3008F485CB2B
:1029E0001ACA1092762010927720109278201092B6
:1029F0007920C0906A20D0906B20E0906C20F090FD
:102A00006D2020E030E040EA51E4C701B6010E94A9
:102A1000FD4C87FF00CA20E030E040EA51E4C701E6
:102A2000B6010E94394B87FF60CB83E090E0A0E0C5
:102A3000B0E080932A1690932B16A0932C16B09397
:102A40002D167ACF8DEC9CECACE4BEE3809376201F
:102A500090937720A0937820B0937920C0906A203B
:102A6000D0906B20E0906C20F0906D2020E030E062
:102A700040EF51E4C701B6010E94FD4C87FFCBC96E
:102A800020E030E040EA51E4C701B6010E94394B32
:102A900087FDC1C920E030E040EF51E4C701B60135
:102AA0000E94394B87FF21CB20E030E040EA51E41F
:102AB000C701B6010E94FD4C87FD17CB84E090E072
:102AC000A0E0B0E080932A1690932B16A0932C16CA
:102AD000B0932D16CDCE10927620109277201092C2
:102AE00078201092792020E030E048EC51E46091A9
:102AF00072207091732080917420909175200E94B3
:102B0000FD4C18160CF487C9809103208A3008F414
:102B1000ECCA86E090E0A0E0B0E080932A169093A3
:102B20002B16A0932C16B0932D16109203202BED8C
:102B30003FE049E450E460911C1670911D168091AD
:102B40001E1690911F160E94374D20E030E040E89D
:102B50005EE30E94374D60937A2070937B208093D0
:102B60007C2090937D20C1CA10927620109277200D
:102B70001092782010927920809103208431C8F03F
:102B800085E090E0A0E0B0E080932A1690932B16A9
:102B9000A0932C16B0932D161092032010927A2039
:102BA00010927B2010927C2010927D200E94840540
:102BB00088CA20E030E048EC51E4609172207091C6
:102BC000732080917420909175200E94394B1816C3
:102BD0000CF48BCA9ECF1092762010927720109220
:102BE000782010927920C0906E20D0906F20E090D5
:102BF0007020F090712020E030E040EA51E4C701FD
:102C0000B6010E94FD4C87FF06C920E030E040EA93
:102C100051E4C701B6010E94394B87FF66CA87E0BD
:102C200090E0A0E0B0E080932A1690932B16A0933A
:102C30002C16B0932D16A3CE8DEC9CECACE4BEE329
:102C40008093762090937720A0937820B09379207A
:102C5000C0906E20D0906F20E0907020F090712096
:102C600020E030E040EF51E4C701B6010E94FD4C86
:102C700087FFD1C820E030E040EA51E4C701B60147
:102C80000E94394B87FDC7C820E030E040EF51E497
:102C9000C701B6010E94394B87FF27CA20E030E008
:102CA00040EA51E4C701B6010E94FD4C87FD1DCAF0
:102CB00088E090E0A0E0B0E080932A1690932B1675
:102CC000A0932C16B0932D160CCE80E090E0A0E0DF
:102CD000BFE38093762090937720A0937820B093E1
:102CE0007920809103208A3008F095C8C0906A202E
:102CF000D0906B20E0906C20F0906D2020E030E0D0
:102D000040E451E4C701B6010E94FD4C1816FCF4E2
:102D100020E030E040E451E460916E2070916F203B
:102D200080917020909171200E94FD4C18167CF4C7
:102D300089E090E0A0E0B0E080932A1690932B16F3
:102D4000A0932C16B0932D16109203207FC920E07B
:102D500030E040E451E4C701B6010E94394B181637
:102D60000CF4C3C920E030E040E451E460916E20EF
:102D700070916F2080917020909171200E94394B4A
:102D800018160CF014C9B1C9809024029090250245
:102D9000A0902602B0902702A5019401C701B601B8
:102DA0000E94394B87FDE6CAC092A220D092A32090
:102DB000E092A420F092A520E5CA6091A220709133
:102DC000A3208091A4209091A5208ED78111FBCAC9
:102DD0006091A2207091A3208091A4209091A520C1
:102DE00020E030E040E857E40E94C84B6093A22006
:102DF0007093A3208093A4209093A520ECCAC701D0
:102E0000B6010E94454B7B0100CB409028025090B8
:102E1000290260902A0270902B02A3019201C50141
:102E2000B4010E94394B87FD09CB8092A220909279
:102E3000A320A092A420B092A52008CB6091A2204C
:102E40007091A3208091A4209091A5204DD781114D
:102E50001ECB6091A2207091A3208091A42090911C
:102E6000A52020E030E040E857E40E94C84B609382
:102E7000A2207093A3208093A4209093A5200FCB31
:102E8000C501B4010E94454B6B0123CB80E090E06B
:102E9000AFE7B3E48093A2209093A320A093A42053
:102EA000B093A52049CB80E090E0AFE7B3E48093F6
:102EB000A2209093A320A093A420B093A52091CB0F
:102EC00080E090E0AFE7B3E48093A2209093A3204A
:102ED000A093A420B093A520DECB80E090E0AFE7E4
:102EE000B3E48093A2209093A320A093A420B09356
:102EF000A5202BCC8090280290902902A0902A0235
:102F0000B0902B02A5019401C701B6010E94FD4CAF
:102F100087FD6ECC10928620109287201092882018
:102F200010928920209118163091191640911A1686
:102F300050911B16609108027091090280910A025B
:102F400090910B020E94374D4B015C01209086202E
:102F5000309087204090882050908920C090C402F3
:102F6000D090C502E090C602F090C702A70196017A
:102F7000C201B1010E94FD4C6090F802181614F0D5
:102F80006090F902A7019601C501B4010E94FD4CB1
:102F90007090FA02181614F07090FB02A7019601C7
:102FA000C201B1010E94394B8823C9F1671037C0B3
:102FB0008091640290916502A0916602B0916702CF
:102FC0008093862090938720A0938820B0938920B7
:102FD000C0907E20D0907F20E0908020F0908120D3
:102FE00080903C0290903D02A0903E02B0903F0243
:102FF000A5019401C701B6010E94FD4C1816C4F446
:10300000A5019401C701B6010E94C14A60937E20C8
:1030100070937F20809380209093812021C08092A4
:10302000862090928720A0928820B0928920D0CFCD
:103030008090240290902502A0902602B090270252
:10304000A5019401C701B6010E94FD4C87FDD8CFB0
:1030500010927E2010927F2010928020109281206A
:10306000209114163091151640911616509117168E
:1030700060910C0270910D0280910E0290910F02EE
:103080000E94374D60938A2070938B2080938C2010
:1030900090938D204090E8155090E9156090EA15C6
:1030A0007090EB154092A2205092A3206092A42031
:1030B0007092A5202091EC153091ED154091EE1500
:1030C0005091EF152B873C874D875E872093922088
:1030D0003093932040939420509395208091F01545
:1030E0009091F115A091F215B091F3158F87988BFF
:1030F000A98BBA8B8093962090939720A0939820C9
:10310000B09399208090282090902920A0902A2088
:10311000B0902B20C501B4010E943D4B209134207A
:103120003091352040913620509137202B8B3C8BAD
:103130004D8B5E8BC0908802D0908902E0908A020D
:10314000F0908B020E94374DA70196010E94374DE7
:10315000A30192010E94C24A6093E8157093E91599
:103160008093EA159093EB15C501B4010E949A4D26
:103170009B01AC016B897C898D899E890E94374DAA
:10318000A70196010E94374D2B853C854D855E85B4
:103190000E94C24A6093EC157093ED158093EE1572
:1031A0009093EF15209138203091392040913A20AA
:1031B00050913B206091CC027091CD028091CE0263
:1031C0009091CF020E94374DA70196010E94374D82
:1031D0002F85388949895A890E94C24A6093F0151F
:1031E0007093F1158093F2159093F31544EF55E128
:1031F00062E570E28EE490E2BFD568EF75E18AEA9D
:1032000090E20E94DB3D80919E2090919F20A091B2
:10321000A020B091A1208093FC159093FD15A09360
:10322000FE15B093FF1580912C2090912D20A09138
:103230002E20B0912F208093141690931516A093F2
:103240001616B093171680919A2090919B20A0910A
:103250009C20B0919D208093001690930116A0931E
:103260000216B09303168091302090913120A091E6
:103270003220B09133208093181690931916A093A2
:103280001A16B0931B1640907E2050907F206090BD
:10329000802070908120C090C802D090C902E09038
:1032A000CA02F090CB02A7019601C301B2010E94AD
:1032B000FD4CA090F402181614F0A090F502209195
:1032C0008A2030918B2040918C2050918D20C70115
:1032D000B6010E94394BB090F60287FFB090F7021A
:1032E000A7019601C301B2010E94394B882391F0D6
:1032F000AB1010C08091600290916102A0916202B7
:10330000B091630280938A2090938B20A0938C20AD
:10331000B0938D2020918A2030918B2040918C2079
:1033200050918D206091AC027091AD028091AE02FF
:103330009091AF020E94374D2091041630910516EE
:1033400040910616509107160E94C24A60930416D7
:10335000709305168093061690930716209182208D
:103360003091832040918420509185206091B0025B
:103370007091B1028091B2029091B3020E94374DD8
:10338000209108163091091640910A1650910B169B
:103390000E94C24A609308167093091680930A1619
:1033A00090930B16209186203091872040918820A1
:1033B000509189206091B8027091B9028091BA024F
:1033C0009091BB020E94374D20910C1630910D1642
:1033D00040910E1650910F160E94C24A60930C162F
:1033E00070930D1680930E1690930F1620918E20D9
:1033F00030918F2040919020509191206091BC029B
:103400007091BD028091BE029091BF020E94374D23
:1034100020911016309111164091121650911316EA
:103420000E94C24A60931016709311168093121670
:1034300090931316C090340ED090350EE090360E57
:10344000F090370E3FEFC31AD30AE30AF30AC09293
:10345000340ED092350EE092360EF092370EC11433
:10346000D104E104F10499F48091380E9091390E61
:10347000A0913A0EB0913B0E0196A11DB11D809313
:10348000380E9093390EA0933A0EB0933B0E809075
:103490003C0E90903D0EA0903E0EB0903F0E60917D
:1034A000380E7091390E80913A0E90913B0E0E9429
:1034B000714BA50194010E94374D20E030E040E8B7
:1034C0005FE40E94374D2B013C01C701B6010E9409
:1034D000714BA50194010E94374D9B01AC01C301C2
:1034E000B2010E94C24A6093300E7093310E8093F5
:1034F000320E9093330E66960FB6F894DEBF0FBE71
:10350000CDBFDF91CF911F910F91FF90EF90DF9092
:10351000CF90BF90AF909F908F907F906F905F9073
:103520004F903F902F90089520E030E040EA51E422
:10353000C701B6010E94FD4C87FD02C00C94FC0F30
:103540000C9439104F925F926F927F92AF92BF921C
:10355000DF92EF92FF920F931F93CF93DF9384E05C
:1035600090E08BD3EAE1FEE08BE2DF011D928A95C9
:10357000E9F780E090E0A0E2B1E486A397A3A0A7DA
:10358000B1A78AE097EDA3E2BCE382A393A3A4A32F
:10359000B5A38DE19DE3ADEABAE584839583A68367
:1035A000B7838BEA90E3ACE1B2E280879187A28790
:1035B000B38783E29EE5AEE6BCEB84879587A6875A
:1035C000B78784E39DE8AAEBBEE1808B918BA28B49
:1035D000B38BAEE0BEE0B383A283ECEDFDE01196C9
:1035E000FC93EE938DE09DE09183808393838283AF
:1035F0009583848397838683918780879387828747
:103600009587848797878687918B808B938B828B16
:10361000958B848B978B868B918F808F938F828FE6
:10362000958F848F978F868F91A380A393A382A376
:1036300095A384A397A386A391A780A793A782A706
:1036400095A784A797A786A791AB80AB8EE29EE053
:1036500015969C938E9314978EE19EE013969C93FF
:103660008E93129780E39EE017969C938E93169705
:10367000E0E1F0E282EADF011D928A95E9F7C0EA13
:10368000D5E180E79AE0FE019C0111922150304083
:10369000E1F7DD24D394D092042080E0A82E82E0CC
:1036A000B82E80915C0290915D02A0915E02B09173
:1036B0005F0288879987AA87BB87412C512C3201EA
:1036C000439449825A826B827C8265E470E080E098
:1036D00090E00E94C6039F838E83DD821C86D09279
:1036E00005208091580290915902A0915A02B09100
:1036F0005B028C8B9D8BAE8BBF8B4D865E866F86FF
:10370000788A64E470E080E090E00E94C6039B8BBE
:103710008A8BD98A18AAD0920B2049AA5AAA6BAAD6
:103720007CAAE12CF12C8701A801970167E070E0E9
:1037300080E090E00E94C3019FAB8EABDDAA18A68B
:10374000D0920A2049A65AA66BA67CA6A80197018A
:1037500065E070E080E090E00E94C3019FA78EA723
:10376000DDA618A2D092092049A25AA26BA27CA27F
:10377000A801970168E070E080E090E00E94C3013A
:103780009FA38EA3DDA2188ED0920820498E5A8E58
:103790006B8E7C8EA801970166E070E080E090E07F
:1037A0000E94C3019F8F8E8FDD8E1092E015D09204
:1037B00007204092E1155092E2156092E315709255
:1037C000E41561E089E00E946203D092E51518AE2D
:1037D000D092062049AE5AAE6BAE7CAE61E084E07A
:1037E0000E946203DDAE80918C0290918D02A091C7
:1037F0008E02B0918F028093E8159093E915A09303
:10380000EA15B093EB158093EC159093ED15A0930A
:10381000EE15B093EF158093F0159093F115A093EA
:10382000F215B093F315E092F415F092F5150093AC
:10383000F6151093F715E092F815F092F91500932C
:10384000FA151093FB15D50150964D915D916D9130
:103850007C9153974093FC155093FD156093FE1592
:103860007093FF158091A8029091A902A091AA02DD
:10387000B091AB028093141690931516A093161670
:10388000B0931716409300165093011660930216DA
:10389000709303168093181690931916A0931A1616
:1038A000B0931B16F501848D958DA68DB78D8093F1
:1038B000041690930516A0930616B09307168489F4
:1038C0009589A689B7898093081690930916A093C5
:1038D0000A16B0930B1680A191A1A2A1B3A1809367
:1038E0000C1690930D16A0930E16B0930F16808DA4
:1038F000918DA28DB38D8093101690931116A09385
:103900001216B093131684EC99E0E9E4F3E0AEE309
:10391000B6E101900D920197E1F78FEF9FEFDC0187
:103920008093261690932716A0932816B0932916F5
:10393000109203201092022010922A1610922B1639
:1039400010922C1610922D16E0921C16F0921D1655
:1039500000931E1610931F16E0927620F0927720A7
:103960000093782010937920E0927A20F0927B20C7
:1039700000937C2010937D2087E090E0A0E0B0E0F1
:1039800080932E1690932F16A0933016B093311675
:10399000D0920C2082E897EBA1E3B4E48093321636
:1039A00090933316A0933416B0933516D0920D2011
:1039B00085EE95E5AAE9B5E1809336169093371622
:1039C000A0933816B093391685EB9BE3A2E1BFE1D3
:1039D00080933A1690933B16A0933C16B0933D16F5
:1039E000D0920E20D0920F20DF91CF911F910F9196
:1039F000FF90EF90DF90BF90AF907F906F905F90BF
:103A00004F9008958091A01581111FC081E080938F
:103A1000A0158091A1159091A215A091A315B09128
:103A2000A4150197A105B10581F48091A5158823FE
:103A300061F065E470E080E090E00E948203909382
:103A4000A7158093A6150E94E9038091AC158111FA
:103A50001FC081E08093AC158091AD159091AE159B
:103A6000A091AF15B091B0150197A105B10581F4F2
:103A70008091B115882361F064E470E080E090E00B
:103A80000E9482039093B3158093B2150E94E903BC
:103A90008091D01581112EC081E08093D015809146
:103AA000D1159091D215A091D315B091D41501974D
:103AB000A105B105F9F48091D5158823D9F067E007
:103AC00070E080E090E00E947F019093D715809392
:103AD000D61540E050E0BA010E94480167E070E06E
:103AE00080E090E00E947F019093D7158093D615D7
:103AF0000E9414028091C81581112EC081E080932C
:103B0000C8158091C9159091CA15A091CB15B09197
:103B1000CC150197A105B105F9F48091CD15882345
:103B2000D9F065E070E080E090E00E947F01909322
:103B3000CF158093CE1540E050E0BA010E944801B5
:103B400065E070E080E090E00E947F019093CF15E7
:103B50008093CE150E9414028091C01581112EC051
:103B600081E08093C0158091C1159091C215A091FC
:103B7000C315B091C4150197A105B105F9F4809161
:103B8000C5158823D9F068E070E080E090E00E94DD
:103B90007F019093C7158093C61540E050E0BA01AD
:103BA0000E94480168E070E080E090E00E947F01A0
:103BB0009093C7158093C6150E9414028091B81582
:103BC00081112EC081E08093B8158091B915909134
:103BD000BA15A091BB15B091BC150197A105B1050F
:103BE000F9F48091BD158823D9F066E070E080E09B
:103BF00090E00E947F019093BF158093BE1540E036
:103C000050E0BA010E94480166E070E080E090E078
:103C10000E947F019093BF158093BE150E941402ED
:103C20008091E015811103C081E08093E0158091BF
:103C3000D815811103C081E08093D815089560E004
:103C400070E080E89FE7089560E070E080E89FE71B
:103C5000089560E070E080E89FEF089560E070E014
:103C600080E89FEF089560E070E080EC9FEF08959A
:103C700060E070E080EC9FEF0895F5DF6093BE2078
:103C80007093BF208093C0209093C120F1DF609398
:103C9000B2207093B3208093B4209093B520CFDFEF
:103CA0006093BA207093BB208093BC209093BD207A
:103CB000CBDF6093B6207093B7208093B8209093A9
:103CC000B920C7DF6093C2207093C3208093C420C3
:103CD0009093C520C3DF6093C6207093C720809364
:103CE000C8209093C9200895CF92DF92EF92FF925F
:103CF000CF936B017C01AC019B016091BA20709164
:103D0000BB208091BC209091BD200E94394BC1E026
:103D1000882371F0A70196016091C2207091C320A1
:103D20008091C4209091C5200E94394B8111C0E040
:103D30008C2FCF91FF90EF90DF90CF9008950F934D
:103D40001F938B019C010027112720783F770115D5
:103D5000110520483F4749F4AB01BC016F77772735
:103D600081E0452B462B472B09F480E01F910F91F2
:103D70000895E5CF0C9460480C947D484F925F9273
:103D80006F927F928F929F92AF92BF92CF92DF926B
:103D9000EF92FF920F931F93F8944090510E509022
:103DA000520E6090530E7090540EC090450ED090FD
:103DB000460EE090470EF090480E452B09F0A4C047
:103DC0009B01AC01241935094609570929013A011B
:103DD00000914D0E10914E0E20914F0E3091500ECD
:103DE00048015901840C951CA61CB71C801691062D
:103DF000A206B306A0F40091490E10914A0E20913C
:103E00004B0E30914C0E0F5F1F4F2F4F3F4F0093C3
:103E1000490E10934A0E20934B0E30934C0E809215
:103E20004D0E90924E0EA0924F0EB092500E0091F9
:103E3000490E10914A0E20914B0E30914C0E8092FB
:103E4000550E9092560EA092570EB092580E0093B7
:103E5000590E10935A0E20935B0E30935C0E6093B4
:103E6000510E7093520E8093530E9093540EA0E116
:103E7000B7E2A30192010E946B566C0D7D1D8E1D51
:103E80009F1D6093450E7093460E8093470E90934E
:103E9000480E0091FC021091FD022091FE0230912B
:103EA000FF020F3F1F4F2F4F3F4FF1F00091FC02D9
:103EB0001091FD022091FE023091FF020E3F1F4F34
:103EC0002F4F3F4F89F0C090FC02D090FD02E09050
:103ED000FE02F090FF0221E08C149D04AE04BF04AA
:103EE00008F420E02093610E78941F910F91FF90C9
:103EF000EF90DF90CF90BF90AF909F908F907F908A
:103F00006F905F904F9008954B015C018418950865
:103F1000A608B708A3019201261B370B480B590BC3
:103F20006415750586059705D0F082169306A406DC
:103F3000B50640F420E030E0A90181149104A10409
:103F4000B10491F4A0E1B7E20E946B56A70196017B
:103F5000261B370B480B590BCA01B901C5CF821676
:103F60009306A406B50670F7A0E1B7E2A501940197
:103F70000E946B566C0D7D1D8E1D9F1DB5CFFECE14
:103F8000CF93DF9300D01F92CDB7DEB71C821B8288
:103F90001A82198210925D0E10925E0E10925F0EC0
:103FA0001092600EBE016F5F7F4FCE0103960E949C
:103FB000B83C69817A818B819C810E94A2350097EF
:103FC00061F4BE016F5F7F4FCE0103960E94C43C37
:103FD00069817A818B819C812ED50F900F900F90F3
:103FE0000F90DF91CF910895FF920F931F93CF937E
:103FF000DF93082F60E070E0CB010E942450FF2483
:10400000F3940E948B34EC01892B89F010E0CE3FB1
:104010008FEFD80769F0002361F160E070E0CB0119
:104020000E94245081E090E0892B59F322C011E0D6
:1040300025D5EC01892B21F0CE3F8FEFD80759F71A
:1040400011111EC011E0229609F410E00E943B34C9
:10405000EC01892B21F0CE3F8FEFD807E1F611114B
:1040600011C011E0CE3F8FEFD80709F410E0011125
:104070000BC0CE01DF91CF911F910F91FF9008955A
:1040800011E0E4CF11E0F3CF60E070E0CB010E94DB
:1040900024501F25812F90E0C7CFCF93DF938091CD
:1040A000610E882321F060E070E0CB014CD635D65C
:1040B000D0E0C0E0892B71F06AE070E080E090E031
:1040C0000E94245081E090DF28D62196C03D27E051
:1040D000D20781F727D60E94F6351092790E1092FA
:1040E000780E1092720E1092730E1092740E10923F
:1040F000750E10926E0E10926F0E1092700E10923E
:10410000710E10926A0E10926B0E10926C0E10923D
:104110006D0E1092660E1092670E1092680E10923D
:10412000690E1092620E1092630E1092640E10923D
:10413000650E4EEF5FEF6FEF7FEF4093FC02509301
:10414000FD026093FE027093FF021092610EE5E59E
:10415000FEE028E0DF011D922A95E9F71092510E4A
:104160001092520E1092530E1092540E10924D0E49
:1041700010924E0E10924F0E1092500E1092490E49
:1041800010924A0E10924B0E10924C0E1092450E49
:104190001092460E1092470E1092480EDF91CF916A
:1041A00008951092850E1092860E1092870E10922E
:1041B000880E1092840E80918D0E90918E0E9093A9
:1041C000830E8093820E1092810E1092800E1092B8
:1041D0007C0E10927D0E10927E0E10927F0E109229
:1041E0008A0E1092890E90E080E00895CF92DF92BF
:1041F000EF92FF920F931F93CF938C01892B09F0BD
:1042000055C020918D0E30918E0E8091820E90912E
:10421000830E40918D0E50918E0E5093830E4093DD
:10422000820E2817390781F01092810E1092800EAD
:1042300010927C0E10927D0E10927E0E10927F0EC8
:1042400010928A0E1092890E80918D0E90918E0E92
:10425000019761F58091890E90918A0E892B21F446
:1042600080910003811112C08091890E90918A0E75
:104270000197E1F480917C0E90917D0EA0917E0ECD
:10428000B0917F0E0197A105B10581F410927C0ECB
:1042900010927D0E10927E0E10927F0E10920003EF
:1042A00082E090E090938A0E8093890E80918D0E2B
:1042B00090918E0E019709F01CC18091A30E9091F0
:1042C000A40E8017910709F014C180919F0E909160
:1042D000A00EA091A10EB091A20E009709F409C101
:1042E00020919E0E21110DC040919F0E5091A00E65
:1042F0006091A10E7091A20E452B462B472B09F41D
:10430000F8C02091890E30918A0E2230310509F0D3
:10431000F0C02091800E2111ECC0FC01C080D18042
:10432000E280F3808091840E882309F4D3C08091C9
:10433000900E9091910E892B09F4FDC02091900E62
:104340003091910E81E02230310509F080E020911A
:10435000900E3091910EC1E02130310549F020914D
:10436000900E3091910EC1E02230310509F0C0E08D
:10437000882309F456C020919A0E30919B0E4091EB
:104380009C0E50919D0EC701B6010E94FD4C87FD09
:1043900014C020919A0E30919B0E40919C0E50912A
:1043A0009D0E6091850E7091860E8091870E909182
:1043B000880E0E94394B87FD22C020919A0E3091C1
:1043C0009B0E40919C0E50919D0EC701B6010E941C
:1043D000FD4C181634F520919A0E30919B0E4091A9
:1043E0009C0E50919D0E6091850E7091860E80916D
:1043F000870E9091880E0E94394B811112C08091D6
:10440000920E9091930EA091940EB091950E892BDF
:104410008A2B8B2B19F481E08093810E81E08093AD
:10442000800ECC2309F456C020919A0E30919B0E39
:1044300040919C0E50919D0EC701B6010E94394BD0
:1044400087FF14C020919A0E30919B0E40919C0ED4
:1044500050919D0E6091850E7091860E8091870E11
:104460009091880E0E94FD4C87FF22C020919A0EE9
:1044700030919B0E40919C0E50919D0EC701B6014C
:104480000E94394B811126C020919A0E30919B0ECB
:1044900040919C0E50919D0E6091850E7091860EFC
:1044A0008091870E9091880E0E94FD4C181694F40E
:1044B0008091920E9091930EA091940EB091950ED2
:1044C000892B8A2B8B2B19F481E08093810E81E05C
:1044D0008093800E81E09091800E911180E0809316
:1044E000840EC092850ED092860EE092870EF092D6
:1044F000880E012B09F067C18091890E90918A0E78
:10450000892BD9F410928F0E1092800E80910003A7
:10451000882379F082E090E090938A0E8093890E50
:104520001092000320918D0E30918E0E81E0232B8E
:10453000E9F080E01BC081E00ACF10920003809177
:104540008F0E882349F01092810E10928A0E1092DD
:10455000890E10928F0EEDCF80918D0E90918E0E60
:10456000892BE1F08091800E1092800E2091890EAF
:1045700030918A0E2230310509F45EC088F421158D
:10458000310509F448C02130310509F4F3C0109217
:10459000810E1092800E10928F0E38C081E0E6CF0F
:1045A0002330310509F4B1C02430310581F7409141
:1045B0007C0E50917D0E60917E0E70917F0E4115A4
:1045C00051056105710561F0415051096109710999
:1045D00040937C0E50937D0E60937E0E70937F0E01
:1045E00040917C0E50917D0E60917E0E70917F0EF9
:1045F000452B462B472BD9F420918B0E30918C0EF6
:104600002130310509F046C01092810E10928A0EB9
:104610001092890E0CC080910003882341F082E043
:1046200090E090938A0E8093890E1092000310926E
:104630007A0E8091810ECEC08823C9F38091920EAC
:104640009091930EA091940EB091950E18161906A4
:104650001A061B060CF07DC080918D0E90918E0E77
:10466000019709F076C08091920E9091930EA091DF
:10467000940EB091950E80937C0E90937D0EA09336
:104680007E0EB0937F0E83E090E090938A0E80932D
:10469000890ECDCF4091960E5091970E6091980E55
:1046A0007091990E452B462B472BA9F01092810E45
:1046B0008091960E9091970EA091980EB091990EC0
:1046C00080937C0E90937D0EA0937E0EB0937F0E10
:1046D00081E090E0DACF882399F0809101039091F6
:1046E0000203A0910303B091040380937C0E909386
:1046F0007D0EA0937E0EB0937F0E84E090E0C5CF38
:104700001092810E82E090E0C0CF80917C0E90915B
:104710007D0EA0917E0EB0917F0E0097A105B10590
:1047200059F00197A109B10980937C0E90937D0EF9
:10473000A0937E0EB0937F0E80917C0E90917D0EA3
:10474000A0917E0EB0917F0E892B8A2B8B2B09F0C6
:104750006ECF8091010390910203A0910303B09169
:104760000403892B8A2B8B2B09F44ECF81E0809395
:10477000810EB3CF40917C0E50917D0E60917E0EE4
:1047800070917F0E411551056105710561F0415031
:1047900051096109710940937C0E50937D0E60931D
:1047A0007E0E70937F0E40917C0E50917D0E609135
:1047B0007E0E70917F0E452B462B472B09F037CF8D
:1047C0008111C7CF9FCF80917A0E882309F431CF12
:1047D00080917B0ECF911F910F91FF90EF90DF9012
:1047E000CF9008951092850E1092860E1092870E2B
:1047F0001092880E1092840E10928A0E1092890EDA
:104800001092830E1092820E1092A40E1092A30E9C
:104810001092810E1092800E10927C0E10927D0EDE
:1048200010927E0E10927F0E10927B0E10927A0ED6
:1048300010929F0E1092A00E1092A10E1092A20E36
:1048400010929E0E10929A0E10929B0E10929C0E39
:1048500010929D0E88EE93E0A0E0B0E080930103FB
:1048600090930203A0930303B09304031092960E57
:104870001092970E1092980E1092990E1092920E1E
:104880001092930E1092940E1092950E1092910E1B
:104890001092900E81E08093000310928F0E109280
:1048A0008E0E10928D0E10928C0E10928B0E90E048
:1048B00080E0089580918D0E90918E0E892B19F5D0
:1048C00080910003882351F080918F0E811106C0E2
:1048D00081E080937B0E80937A0E089520918F0E55
:1048E0003091000381E090E0332311F090E080E00C
:1048F00030E082239323892B21F010927B0E81E0FC
:10490000EACF10927A0E089582E090E0FA01918346
:1049100080838FEF9FEF0895CF93DF93EA01009795
:1049200011F00E9416371982188290E080E0DF9122
:10493000CF910895DB01009719F48FEF8C930895C0
:104940002EEF2C93FC013F96EF30F10508F034C0B8
:104950008827E255FB4D8F4F0C946356DA24D824F8
:10496000D624D424D224CE24D024CC24CA24C824AF
:10497000C524C124BD24C324DC2480E311968C9378
:10498000089589E2FBCF82E2F9CF11961C92089537
:1049900083E2F4CF81E2F2CF81E1F0CF87E2EECF84
:1049A0008AE2ECCF80E1EACF84E2E8CF88E2E6CF8A
:1049B00086E2E4CF81E3E2CF80E2E0CF8091B10EE6
:1049C0009091B20E08959093B20E8093B10E089517
:1049D0008091B00E08959091B00E892B8093B00E07
:1049E0000895982F90958091B00E89238093B00EF2
:1049F00008958091AF0E08958091AD0E9091AE0E06
:104A000008956115710559F0FB0130E020E070E078
:104A100060E02417350719F06115710511F0CB011D
:104A20000895A081B181A817B90709F4BF012F5FCC
:104A30003F4F3696EECF8091B30E81111CC060D2ED
:104A400066D29093A60E8093A50E0E94222F0E94FC
:104A5000342F9093AA0E8093A90E0E94A3330E9434
:104A6000AA339093A80E8093A70E81E08093B30E93
:104A700090E080E0089584EF9FEF08958F929F92D9
:104A8000AF92BF92CF92DF92EF92FF920F931F935C
:104A9000CF93DF9300D000D000D01F92CDB7DEB708
:104AA0001A86198618861F821E821D821C821B820E
:104AB0001A8219828091B30E07EF1FEF882309F441
:104AC0009CC08E010D5F1F4F9E012B5F3F4FAE01BB
:104AD000495F5F4FBE01675F7F4F90E080E00E94BB
:104AE00027358C01009721F00596029708F0DBC06E
:104AF00029853A852115310509F402C1ED80FE8032
:104B00004B815C81B701640F751F8F819885861773
:104B1000970708F4F5C0E20EF31ED7019C91903C74
:104B200009F07FC04230510508F47BC011968C918A
:104B30004091B10E5091B20E452B09F49CC0913FAB
:104B400008F071C02CE1290F2D3008F48BC02DE244
:104B5000290F203108F489C0903C21F48150823023
:104B600008F483C088E3890F8B3008F481C09AE988
:104B7000C92E94E2D92EE4E8F4E26D817E81AE0183
:104B80004F5F5F4F89859A8519955C01C114D104E7
:104B9000A1F189809A808114910479F18B819C81A3
:104BA0008815990508F487C010E000E04B815C810E
:104BB00070E060E0C7010E948D5601151105E9F40F
:104BC00049815A8169857A858D819E81680F791F17
:104BD000C501F6011995E980FA800D811E812F81AA
:104BE000388549855A856FEF7FEF81E090E00E941C
:104BF000C2348C01892B09F056C0C8012A960FB621
:104C0000F894DEBF0FBECDBFDF91CF911F910F9102
:104C1000FF90EF90DF90CF90BF90AF909F908F90DC
:104C2000089580E085CF30E020E0220F331FF901A6
:104C3000EB55F14F0190F081E02D309709F497CFBB
:104C4000892F90E01995009709F491CFDC01129615
:104C5000ED91FC9113971496CD90DC90309709F06C
:104C60008CCF1FC021E030E0E0CF22E030E0DDCF8C
:104C700023E030E0DACFD12CC12CECE8F4E29F3F06
:104C800009F07BCFE091A50EF091A60E309721F4AC
:104C9000C90104EF1FEF0CC08FEF90E0199500974A
:104CA000A9F604EF1FEF89859A85009709F4A5CF2F
:104CB0000E941637A2CF0E94F1358C0189859A8512
:104CC0000E94163770E060E0C4010E948A35988720
:104CD0008F830E94BF349E838D836F817885611599
:104CE000710559F0C8010E94A2389A87898706EF9A
:104CF0001FEF892B09F058CF59CF08EF1FEF56CF80
:104D000008EF1FEFD0CF2091B30E222319F020E03F
:104D10000C94392F87EF9FEF08958091B10E9091F9
:104D2000B20E08950E94AF330E940933F5D0E5EA30
:104D3000FEE088E0DF011D928A95E9F71092B30E3C
:104D400090E080E008950C94673121E040E050E06D
:104D5000BA010C94392F86E090E0FA0191838083A8
:104D600090E080E0089547E050E060E17DE049CECA
:104D7000DF92EF92FF920F931F93CF93DF938A01FD
:104D8000EC01C60FD71FE090B70EF090B80ED98097
:104D90000E94D935D816190678F082E090E0F80123
:104DA000918380838EEF9FEFDF91CF911F910F91C1
:104DB000FF90EF90DF900895EF2841F482E090E0BB
:104DC000F8019183808384EF9FEFEECF89818093F8
:104DD000B60E90E00196F8019183808390E080E028
:104DE000E3CFCF93DF93EA010E941832882321F0AA
:104DF0000E94E6350E94193282E090E09983888310
:104E00008BEF9FEFDF91CF910895CF93DF93EB016D
:104E100086E0FB0111928A95E9F78FEF8883D8DD50
:104E20008983E7DD8A83E8DD9D838C83DF91CF91E1
:104E30000895CF93DF93EA010E941B32811109C0CC
:104E400082E090E09983888385EF9FEFDF91CF9197
:104E5000089590E080E0B7DD81E090E09983888359
:104E600090E080E0F3CF0F931F93CF93DF93EA019D
:104E70008C01060F171F0E941B3281110BC082E0AC
:104E800090E09983888385EF9FEFDF91CF911F9109
:104E90000F910895F8018181823038F082E090E02E
:104EA000998388838EEF9FEFF0CF81E090E08BDDD8
:104EB00088E090E09983888390E080E0E6CFCF930C
:104EC000DF930097D1F4EB01FB01329686E0DF011E
:104ED0001D928A95E9F78FEF888385E089831A828E
:104EE0000E94D9358B830E94D8359D838C8381E0C5
:104EF0008E838F83DF91CF910895DF91CF911ACD6B
:104F000083EB96E29093B50E8093B40E0895809152
:104F1000B40E9091B50E08951092B50E1092B40E85
:104F200008958091B70E9091B80E0895411105C073
:104F3000611571058105910561F06093B70E70935D
:104F4000B80E8093B90E9093BA0E4093BB0E81E0D9
:104F5000089580E00895FF920F931F93CF93DF93FE
:104F60008A01EC01C60FD71FF9800E94D935F816C7
:104F7000190668F082E090E0F801918380838EEF5B
:104F80009FEFDF91CF911F910F91FF9008956C815A
:104F90007D818E819F814B81C9DF811108C082E0B4
:104FA00090E0F8019183808384EF9FEFEACF8981BD
:104FB0008093B60E90E00196F8019183808390E093
:104FC00080E0DFCFCF93DF93EA01FC01E60FF71F0C
:104FD00064817581868197814381A8DF811109C031
:104FE00082E090E09983888384EF9FEFDF91CF91F7
:104FF000089581E090E09983888390E080E0F6CF87
:10500000E7EBFEE04081518162817381480F511DC1
:10501000611D711D40835183628373830895CF9313
:10502000C091B60E4C2F50E06091B70E7091B80E43
:1050300001960E9484568C2FE3DF1092B60ECF911A
:105040000895009799F48091B70E9091B80E2FEFC4
:10505000FB012083892B59F02091B60E30E02F5FA1
:105060003F4F2417350719F4CB01D9CF63CC0895EE
:10507000009799F48091B70E9091B80E2FEFFB0135
:105080002083892B59F02091B60E30E02F5F3F4FDF
:105090002417350719F4CB01C2CF4CCC089523E176
:1050A000AC01249FC001259F900D1124E091C00EFA
:1050B000F091C10EE80FF91F23813481225031098C
:1050C00081E02230310508F080E008950F931F93AE
:1050D000CF93DF930091C20E1091C30ED0E0C0E0D9
:1050E00080E00C171D0749F491E0811190E0892FB1
:1050F000DF91CF911F910F9108958111F5CFCE01CE
:10510000CEDF2196EECFA091C00EB091C10E1097C8
:1051100029F12091C20E3091C30E82179307F0F44B
:1051200053E1589F9001599F300D1124A20FB31FD6
:10513000ED91FC911197309789F012968C91681738
:1051400068F48BE0689FE00DF11D1124808191814E
:10515000892B21F081E09281491708F080E00895C1
:105160009C0143E1429FC001439F900D1124E091B7
:10517000C00EF091C10EE80FF91F8385823091F4C3
:1051800081E090E0658176814091050350910603AE
:105190006417750711F490E080E0892B19F081E025
:1051A000232B09F080E00895EF92FF920F931F9355
:1051B000CF93DF93EA01FC01E60FF71F0281138111
:1051C000E480F5804F2D6E2DC8019DDF81110DC04B
:1051D00082E090E0998388838EEF9FEFDF91CF91FB
:1051E0001F910F91FF90EF900895C80158DF882319
:1051F00039F082E090E09983888388EF9FEFEECFCB
:1052000010930C0300930B03E0920D03F0920E0336
:1052100081E090E09983888390E080E0DFCFCF92B7
:10522000DF92EF92FF920F931F93CF93DF937A0158
:10523000EC01C60FD71FC0900B03D0900C03009158
:105240000D0310910E03412F602FC6015CDF811109
:1052500010C082E090E0F701918380838AEF9FEF96
:10526000DF91CF911F910F91FF90EF90DF90CF9042
:105270000895C60114DF882341F082E090E0F70131
:105280009183808388EF9FEFEBCF4C815D816E81AE
:105290007F819A8189818F3F41F082E090E0F70120
:1052A000918380838EEF9FEFDBCFE3E1EC9D900154
:1052B000ED9D300D1124E091C00EF091C10EE20F72
:1052C000F31F0190F081E02D2BE0029FE00DF11D16
:1052D00011240190F081E02D27E0129FE00DF11DD7
:1052E0001124808391838B818283438354836583DC
:1052F00076831F5F10930E0381E090E0F7019183A6
:10530000808390E080E0ACCFEF92FF920F931F93E9
:10531000CF93DF937A018C01060F171FC091C00E47
:10532000D091C10E209781F021E030E0F801828118
:1053300093814091C20E5091C30E8417950710F0CF
:1053400030E020E0232B71F482E090E0F7019183BC
:1053500080838EEF9FEFDF91CF911F910F91FF9090
:10536000EF90089543E1489F9001499F300D11242B
:10537000C20FD31F94DE882341F082E090E0F70152
:105380009183808388EF9FEFE6CFF80124813581F8
:1053900020383105C8F687818111D6CF4181842F0D
:1053A00090E08F7E009741F082E090E0F7019183DA
:1053B000808386EF9FEFCFCF4F833E832D8326815F
:1053C00028871986223010F421E0288721E030E078
:1053D000F70131832083BFCF88E090E0FA01918309
:1053E000808390E080E00895FB018FEF808381E16E
:1053F00081838FEF9FEF9383828380E890E0958392
:105400008483168217820895FB018FEF808391E0D9
:10541000918382839383848384E3858381E090E016
:10542000978386830895DF92EF92FF920F931F93E5
:10543000CF93DF93EA01FC01E60FF71F81818130F2
:1054400071F082E090E0998388838FEF9FEFDF9186
:10545000CF911F910F91FF90EF90DF90089582817F
:105460009381D4802581E680F7800091C00E109151
:10547000C10E0115110539F482E090E0998388830B
:105480008CEF9FEFE4CF4091C20E5091C30E841772
:10549000950738F082E090E0998388838EEF9FEF44
:1054A000D6CF892B39F082E090E09983888386EF0C
:1054B0009FEFCDCF8D2D8D7FB1F72130A1F781E00A
:1054C000D11006C091E0E916F10431F080E004C08B
:1054D000E2E0EE16F104D0F3882329F390E080E0B7
:1054E000DEDD882339F082E090E09983888388EFBD
:1054F0009FEFADCFF801D38681E08487F686E586FD
:10550000108A178681E090E09983888390E080E09C
:105510009ECF4CE050E06AE37DE073CA8F929F9289
:10552000BF92CF92DF92EF92FF920F931F93CF9390
:10553000DF93EA01FC01E60FF71F8281938104816A
:10554000B580E091C00EF091C10E309791F482E0E9
:1055500090E0998388838CEF9FEFDF91CF911F912B
:105560000F91FF90EF90DF90CF90BF909F908F9022
:1055700008952091C20E3091C30E8217930738F020
:1055800082E090E0998388838EEF9FEFE6CF23E15E
:10559000289F6001299FD00C1124EC0DFD1DE08097
:1055A000F180E114F10499F28281081748F78BE049
:1055B000089F80011124E00EF11EF7018081918186
:1055C000892B29F6BB20E1F2F7E0BF9E40011124B0
:1055D000C4010E94DD36F70191838083E091C00E03
:1055E000F091C10EEC0DFD1D0190F081E02DE00F5A
:1055F000F11F80819181009739F482E090E09983D6
:1056000088838DEF9FEFA9CFA40170E060E00E9436
:105610008D568091C00E9091C10EC80ED91EF60114
:1056200080819181080F191FF801B28281E090E01A
:105630009983888390E080E090CFAF92BF92CF9221
:10564000DF92FF920F931F93CF93DF93EA01FC0148
:10565000E60FF71F82819381F4800091C00E1091B4
:10566000C10E0115110581F482E090E099838883D1
:105670008CEF9FEFDF91CF911F910F91FF90DF9003
:10568000CF90BF90AF9008952091C20E3091C30E7D
:105690008217930738F082E090E0998388838EEF39
:1056A0009FEFE8CF2FEF2F0D2C3FA8F723E1289F86
:1056B0006001299FD00C11240C0D1D1DF801808163
:1056C0009181892B89F6FBE0FF9E50011124C501D1
:1056D0000E94DD36F80191838083E091C00EF09145
:1056E000C10EEC0DFD1D80819181009739F482E09F
:1056F00090E0998388838DEF9FEFBCCFA50170E088
:1057000060E00E948D56E091C00EF091C10EEC0D4C
:10571000FD1DF28281E090E09983888390E080E033
:10572000A9CFCF92DF92EF92FF920F931F93CF9367
:10573000DF93860F971FFC01028113818091C00EB9
:105740009091C10E892B81F082E090E0FA01918363
:1057500080838CEF9FEFDF91CF911F910F91FF908E
:10576000EF90DF90CF900895C801B0E0A0E00197DE
:10577000A109B1098F3F9F4FA105B10540F082E01B
:1057800090E0FA01918380838EEF9FEFE4CF7A015E
:1057900083E1809F6001819FD00C1124C6010E948B
:1057A000DD36EC01009741F482E090E0F70191834F
:1057B00080838DEF9FEFCFCFA60170E060E00E9465
:1057C0008D56D093C10EC093C00E1093C30E00939C
:1057D000C20E90E080E02FEF3FEF41E061E070E02B
:1057E0008017910741F481E090E0F7019183808375
:1057F00090E080E0B0CF3A8B298B1B864C877E8768
:105800006D87188A1F8601966396EACFCF92DF9242
:10581000EF92FF920F931F93CF93DF93EC01D12C64
:10582000C12C10E000E0F12CE12C6A816017110618
:1058300009F0CCF483E0689FB0011124AE014F5E03
:105840005F4FC7010E944237009721F02FEF3FEFD3
:105850003A8B298BDF91CF911F910F91FF90EF90A1
:10586000DF90CF900895E881F981EC0DFD1D438113
:1058700054818D859E85489F9001499F300D589F8A
:10588000300D1124C90101960115110519F44F813C
:1058900044FD049661E070E00E948A35E816F9063E
:1058A00008F47C010F5F1F4F8BE0C80ED11CBDCFE9
:1058B000F8942091BE0E3091BF0E81E02115310584
:1058C00009F080E0232B09F0789408952F923F92FD
:1058D0004F925F926F927F928F929F92AF92BF9200
:1058E000CF92DF92EF92FF920F931F93CF93DF93AC
:1058F0003C01660E771EF301828193814C01B12C2D
:10590000A12CC091C00ED091C10E209769F021E06A
:1059100030E06091C20E7091C30E8617970710F0A9
:1059200030E020E0232BD1F482E090E0FA01918373
:1059300080838EEF9FEFDF91CF911F910F91FF90AA
:10594000EF90DF90CF90BF90AF909F908F907F901F
:105950006F905F904F903F902F90089580920F032B
:1059600090921003A0921103B092120363E1689F1A
:105970009001699F300D1124C20FD31FF301818163
:10598000833040F082E090E0FA019183808386EFDB
:105990009FEFD1CF2A012B813C81232BF1F4288169
:1059A00039819F8191FF2EC0232B09F46FC0209174
:1059B000C50E9A81422F490F5527551FBA0141E064
:1059C00050E06138710514F050E040E0452B09F4D7
:1059D0005DC02A87920F9093C50E8150823008F4E3
:1059E00081C066DF882309F4D8C0F301818181304A
:1059F00009F48DC008F47BC0823009F4C6C090E081
:105A000080E0ADC0232B09F441C02091C40E9A81DF
:105A1000E22FE90FFF27FF1F41E050E0ED3FF105C6
:105A200014F050E040E0452B89F12A87920F9093C3
:105A3000C40ED3CFA081B181A20FB31F11966C9178
:105A4000060F111D0196295F3F4F8417950794F3A8
:105A50008D859E85089F1001099F300C189F300C82
:105A60001124C114D104D1F48F8184FF17C00E9486
:105A7000D835F5E02F0E311C21E08215930508F48E
:105A800020E0A701455F5F4F21110EC082E090E04A
:105A9000F2019183808387EF9FEF4DCF0E94D8352D
:105AA0002FEF221A320AE8CF88819981E80EF91E79
:105AB000F70114830383FFEFCF1ADF0A7A018A818B
:105AC0008C151D0409F00CF48CCFE881F981EE0DE2
:105AD000FF1D428150E030E020E010E000E090E067
