:100000002BC100000C94513C0C947C3C0C94A73CFC
:100010000C94D23C0C94FD3C0C94283D0C94533D24
:100020000C947E3D4AC1000048C1000046C100005A
:1000300044C1000042C1000040C100003EC10000B8
:100040003CC100003AC1000038C1000036C10000C8
:1000500034C1000032C1000030C100000C94A93D41
:100060002CC100000C94A5410C94DB4126C100007A
:1000700024C1000022C1000020C100001EC10000F8
:100080001CC100001AC1000018C1000016C1000008
:100090000C9431420C94674210C100000EC1000064
:1000A0000CC100000AC1000008C1000006C1000028
:1000B00004C1000002C1000000C10000FEC0000039
:1000C000FCC00000FAC000000C940D360C94BD4238
:1000D0000C94F342F2C000000C9449430C947F430B
:1000E000ECC00000084AD73B3BCE016E84BCBFFD8C
:1000F000C12F3D6C74319ABD56833DDA3D00C77FF8
:1001000011BED9E4BB4C3E916BAAAABE0000008090
:100110003F05A84CCDB2D44EB93836A9020C50B91F
:10012000918688083CA6AAAA2ABE000000803F004B
:1001300000000A0B02090C0D0E0807030401000061
:1001400000000000000000000000000000000000AF
:10015000000000000000000000000000121110006C
:10016000000000000000000000000000000000008F
:1001700000000000000001021020200808102040AC
:10018000102040800201020108040201010204085B
:1001900010204080804020100804020180040201E9
:1001A0008040201008040201080402010102040832
:1001B000102040800102040810204080050505053C
:1001C000070508080808020202020A0A08080404CF
:1001D00004040101010101010101030303030303FD
:1001E0000303040707070C0C0C0C0C0C0C0C02028C
:1001F000020206060606060606060B0B0B0B0B0B89
:100200000B0B000020002300260029002C002F00EB
:100210003200000100000301060109010000220074
:10022000250028002B002E003100340002010000C0
:10023000050108010B0100002100240027002A000D
:100240002D003000330001010000040107010A0104
:10025000044290421C43A84311241FBECFEFD1E2B9
:10026000DEBFCDBF00E00CBF14E0A0E0B2E0EEECDA
:10027000F8E800E00BBF02C007900D92A031B10773
:10028000D9F72BE0A0E1B4E001C01D92A13AB2077A
:10029000E1F711E0CCE2D1E000E006C021970109CE
:1002A000802FFE010E943444C832D10780E0080745
:1002B000A9F70E942E370C946544A2CECF92DF920C
:1002C000EF92FF92CF93882351F16A017B01CFEF28
:1002D000C80F20E030E0A901CB01B6010E947E38B2
:1002E00087FF11C0C701B60190580E94F0389B01EA
:1002F000AC016C2F70E090E080E0CF91FF90EF9028
:10030000DF90CF90B2C0C701B6010E94EB388C2FAE
:10031000CF91FF90EF90DF90CF900C94B03ECF91B3
:10032000FF90EF90DF90CF9008950F931F938B0174
:100330009C0183E036952795179507958A95D1F707
:10034000005F1B4F462F477021E030E0F90102C0EB
:10035000EE0FFF1F4A95E2F7AF01F8012081242339
:10036000CB010196211102C090E080E01F910F9116
:1003700008950F931F938B019C0183E03695279579
:10038000179507958A95D1F7677081E090E001C0D5
:10039000880F6A95EAF7F801E05FFB4F2081452B53
:1003A00031F48095822380831F910F910895822BD1
:1003B000FACF2F923F924F925F926F927F928F92DD
:1003C0009F92AF92BF92CF92DF92EF92FF920F93E4
:1003D0001F93CF93DF93D62EC72E782E692E490117
:1003E0005A01280161E08D2D0E94EA3FCD2DDC2DC0
:1003F0008E010F5F1F4FA8016D2D7C2D872D962D2F
:10040000B8DF20E030E0A901C201B7010E94CD3A77
:10041000181664F4C201B7010E94F0382B01C5011F
:10042000B4010E94F038A201CE0123D0C801DF91AF
:10043000CF911F910F91FF90EF90DF90CF90BF90E1
:10044000AF909F908F907F906F905F904F903F9074
:100450002F900895882341F08150682F70E090E03C
:1004600080E050E040E085CF0895862FB9010C94DC
:10047000B03E9C01FC01E05DFE4FE491E150E231B1
:10048000E0F4F0E08827E85BFD4F8F4F0C94344494
:100490005A02610264027B0290025D02A502B1026F
:1004A000B502CC02E102F6020D0322035D0237031E
:1004B0004E03630384B5806884BD60E0822F0C9492
:1004C000264084B58062F8CF809180008C7F826066
:1004D0008093800080918100807E8061682B609392
:1004E000810050938700409386008091800080684F
:1004F00080938000E2CF809180008C7F8260809327
:10050000800080918100807E8061682B60938100F3
:100510005093870040938600809180008062E8CFEE
:10052000809180008C7F8260809380008091810028
:10053000807E8061682B6093810050938700409398
:100540008600809180008860D3CF8091B000806861
:100550008093B0008091B100887F682B6093B100D8
:10056000ACCF8091B0008062F3CF809190008C7FFF
:1005700082608093900080919100807E8061682BE2
:100580006093910050939700409396008091900063
:1005900080688093900091CF809190008C7F8260E2
:1005A0008093900080919100807E8061682B6093A1
:1005B0009100509397004093960080919000806244
:1005C000E8CF809190008C7F826080939000809132
:1005D0009100807E8061682B60939100509397001A
:1005E00040939600809190008860D3CF8091A000C6
:1005F0008C7F82608093A0008091A100807E8061CA
:10060000682B6093A1005093A7004093A6008091AF
:10061000A00080688093A00050CF8091A0008C7FC4
:1006200082608093A0008091A100807E8061682B11
:100630006093A1005093A7004093A6008091A00072
:100640008062E8CF8091A0008C7F82608093A000C0
:100650008091A100807E8061682B6093A1005093FF
:10066000A7004093A6008091A0008860D3CF80911E
:1006700020018C7F82608093200180912101807E07
:100680008061682B609321015093270140932601DC
:10069000809120018068809320010FCF80912001FC
:1006A0008C7F82608093200180912101807E806117
:1006B000682B60932101509327014093260180917C
:1006C00020018062E8CF809120018C7F826080933E
:1006D000200180912101807E8061682B609321013F
:1006E0005093270140932601809120018860D3CF49
:1006F000611102C00C94EA3F6130E1F362E0FACF8D
:10070000662319F061E00C94264060E0FCCF90E095
:1007100080E008950F931F93009709F489C0611535
:10072000710509F485C000912003109121032091E7
:100730002203309123030E3F1F4F2F4F3F4F09F0ED
:1007400068C04FEF5FEFBA0140932003509321033D
:10075000609322037093230340912003509121035F
:100760006091220370912303DC011296ED91FC91BC
:1007700080819181A281B3818093A9049093AA047E
:10078000A093AB04B093AC0484819581A681B7811A
:100790008093A5049093A604A093A704B093A80403
:1007A00080859185A285B3858093A1049093A2044E
:1007B000A093A304B093A40484859585A685B785EA
:1007C00080939D0490939E04A0939F04B093A004F3
:1007D0001092990410929A0410929B0410929C0417
:1007E0000E946B1880E998E190931A048093190491
:1007F00090931C0480931B040E945A17009731F4B5
:1008000021E030E03093AE042093AD041F910F91AE
:10081000089500912003109121032091220330912B
:100820002303DB010D931D932D933C93139794CFDA
:100830008FEF9FEFEBCF8F929F92AF92BF92CF92AD
:10084000DF92EF92FF921F93CF93DF934B015C01F6
:100850001091B00482E090E09093AE048093AD04D8
:1008600081149104A104B10441F48091B004811178
:1008700004C08091AF04C1E08111C0E0C12CD12C33
:1008800076018091B004811106C08091AF0481117E
:1008900002C0CC23D9F083E090E09093AE04809323
:1008A000AD04CC2381F1CCE9DFEF111102C00E942D
:1008B000F41BCE01DF91CF911F91FF90EF90DF905D
:1008C000CF90BF90AF909F908F9008956AE070E0B6
:1008D00080E090E00E94183E80E1C80E87E2D81EBA
:1008E000E11CF11C8FEF88169806A806B80631F0B7
:1008F000C1E08C149D04AE04BF0408F0C0E080E0A9
:100900000E948E17BECFD0E0C0E0CFCFCF92DF9253
:10091000EF92FF920F931F93CF93DF938F3F910539
:1009200011F008F051C02091AD043091AE04233095
:10093000310539F02091AD043091AE0421303105FC
:1009400031F424E030E03093AE042093AD046A012A
:100950007B01EC0182309105A8F011E0AE01C701E6
:10096000B6010E945917AB01BC01CE011123F9F069
:10097000DF91CF911F910F91FF90EF90DF90CF907B
:100980000C941D1E8C01000F111F075E1B4FD80118
:100990008D919C91892B09F30E94271E0297E9F6FD
:1009A000D801ED91FC91CE011995182FD7CF0E9457
:1009B0003F1E90E080E0DF91CF911F910F91FF905B
:1009C000EF90DF90CF9008958FEF9FEFF4CF80E00E
:1009D0000C948E17CF93DF9386E090E09093AE0453
:1009E0008093AD040E94E717EC01E9E1F4E084E0B4
:1009F000DF011D928A95E9F70E948C1B1092AE04CC
:100A00001092AD04CE01DF91CF9108958091AF0493
:100A100008958091980408956093200370932103B2
:100A2000809322039093230390E080E008952F9217
:100A30003F924F925F926F927F928F929F92AF926E
:100A4000BF92CF92DF92EF92FF920F931F93CF93BB
:100A5000DF93CDB7DEB7CB54D1090FB6F894DEBF24
:100A60000FBECDBF26967FAF6EAF269728965FAF9D
:100A70004EAF28973E8B2D8B2C96FFAEEEAE2C976B
:100A8000FB01E150F04CEE0FFF1FEE0FFF1FE80FD0
:100A9000F91F80809180A280B3808F8A988EA98E62
:100AA000BA8EB501A401442777FD439555276627E3
:100AB000772729964FAF2997F901E150F04CEE0FB7
:100AC000FF1FEE0FFF1F2896AEACBFAC2897EA0DB4
:100AD000FB1DC080D180E280F380CB8EDC8EED8E5A
:100AE000FE8EB701A601442777FD4395552766275B
:100AF00077272A964FAF2A97188B0F87F80130E097
:100B000020E02C96EEACFFAC2C972E153F050CF494
:100B10003FC022969FAF8EAF22971A8B098B312C44
:100B2000212C812C912C540183948D829E82AF8242
:100B3000B88626968EAC9FAC2697281439047CF193
:100B400029969FAC29972A96AFAC2A9730E020E0EF
:100B500041E050E060E070E09A10F5C1C55BDF4F06
:100B60000FB6F894DEBF0FBECDBFDF91CF911F91BE
:100B70000F91FF90EF90DF90CF90BF90AF909F903C
:100B80008F907F906F905F904F903F902F9008953F
:100B900011921192119211922F5F3F4FB2CF229674
:100BA000EEADFFAD229781919191A191B1912296E5
:100BB000FFAFEEAF22978F88988CA98CBA8CB7FEC6
:100BC00023C04D815E816F81788541505109610953
:100BD00071095A016B01A81AB90ACA0ADB0AD601BF
:100BE000C50121E0CD80DE80EF80F8848C159D0565
:100BF000AE05BF0508F020E0822E912CB12CA12C6F
:100C00008D829E82AF82B8865D01CC24DD24A8A2AD
:100C1000B9A2CAA2DBA29C01AD01442755272CA38F
:100C20003DA34EA35FA32C96EEADFFAD2C97E2192A
:100C3000F3098D889E888E169F060CF4F401289681
:100C4000AEACBFAC28972496BFAEAEAE2497C98891
:100C5000DA88DC8ACB8A1E861D86812C912C540171
:100C6000839489869A86AB86BC86812C912C54010C
:100C7000CD84DE84CE16DF0604F1F7FF02C0F0E07B
:100C8000E0E0E20DF31D2C96EEACFFAC2C97EE15D8
:100C9000FF0554F4EE0FFF1FEE0FFF1FE00FF11FD3
:100CA00080829182A282B3822FEF221A320AE989CE
:100CB000FA893496FA8BE98B3CCF2496AEADBFAD62
:100CC0002497CD90DD90ED90FD902496BFAFAEAF10
:100CD00024972B8D3C8D4D8D5E8D57FF22C08985CD
:100CE0009A85AB85BC850197A109B109AC01BD010D
:100CF0004C195D096E097F096A017B0181E0298534
:100D00003A854B855C85C216D306E406F50608F0E5
:100D100080E0482F50E070E060E049875A876B8799
:100D20007C87B7018827992768A779A78AA79BA7F7
:100D3000EE24FF2428A139A14AA15BA1C701B60175
:100D40000E9403442B013C012CA13DA14EA15FA1B7
:100D500068A579A58AA59BA50E9403446CA77DA7D9
:100D60008EA79FA7AB89BC894D915D916D917D91B7
:100D7000BC8BAB8BDB01CA01880D991DAA1DBB1D65
:100D800089839A83AB83BC8391E09F8F29813A81C9
:100D90004B815C81281539054A055B0508F01F8EDB
:100DA0002CA13DA14EA15FA1C701B6010E94034441
:100DB0006B017C0189809A80AB80BC808C0C9D1C6F
:100DC000AE1CBF1C89829A82AB82BC8252019924DC
:100DD000882488AA99AAAAAABBAA29813A814B8108
:100DE0005C81280D391D4A1D5B1D2CAB3DAB4EAB04
:100DF0005FAB8CA49DA4AEA4BFA454019924882405
:100E000088AE99AEAAAEBBAE280D391D4A1D5B1D3A
:100E10002CAF3DAF4EAF5FAFAB89BC8914972D931C
:100E20003D934D935C93139728A139A14AA15BA1EF
:100E300068A579A58AA59BA50E9403449F8C690D8E
:100E4000711D811D911D230166247724460E571EB6
:100E5000681E791E2CA53DA54EA55FA54A01AA24B2
:100E6000BB24840C951CA61CB71C81E090E0A0E07C
:100E7000B0E049815A816B817C814C155D056E051E
:100E80007F0518F080E090E0DC01880D991DAA1D17
:100E9000BB1D41E050E060E070E088A899A8AAA8D6
:100EA000BBA8CCA8DDA8EEA8FFA8C814D904EA0402
:100EB000FB0418F040E050E0BA01840F951FA61F14
:100EC000B71F812C912C54018394C8ACD9ACEAACE7
:100ED000FBAC2CAD3DAD4EAD5FAD2C153D054E05CB
:100EE0005F0518F0812C912C5401880E991EAA1EC2
:100EF000BB1E4D855E854F5F5F4F5E874D87B8CEC9
:100F0000EF85F889C190D190E190F190F88BEF874F
:100F1000DB01CA010197A109B1098C199D09AE092C
:100F2000BF09349780839183A283B383E1E0841760
:100F30009507A607B70708F0E0E04E2F50E070E0F5
:100F400060E02F5F3F4F2C968EAC9FAC2C972815FE
:100F50003905B4F203CE2F923F924F925F926F9277
:100F60007F928F929F92AF92BF92CF92DF92EF9239
:100F7000FF920F931F93CF93DF9300D01F92CDB7B3
:100F8000DEB78B015C834B83FB01E150F04CEE0F2D
:100F9000FF1FEE0FFF1FE80FF91F40815181628193
:100FA000738177FD27C04C01B12CA12CC12CD12C11
:100FB0007601A016B10664F5F401619171918191F9
:100FC00091914F010E941C394B815C810E94DA3A59
:100FD0009B01AC01C701B6010E94B8376B017C01CF
:100FE0002B813C81205E3F4F3C832B833FEFA31A34
:100FF000B30ADFCF9A838983312C212C81E090E0E2
:10100000A0E0B0E0C12CD12C760120163106CCF046
:10101000C701B6010F900F900F900F90DF91CF9105
:101020001F910F91FF90EF90DF90CF90BF90AF9006
:101030009F908F907F906F905F904F903F902F90F8
:101040000895E981FA814190519061907190FA83FD
:10105000E983409450946094709453014201880E47
:10106000991EAA1EBB1EC501B4010E941C394B81EA
:101070005C810E94DA3A9B01AC01C701B6010E9473
:10108000B7376B017C0181E084149504A604B70492
:1010900008F080E090E0B0E0A0E02B813C81205E91
:1010A0003F4F3C832B833FEF231A330AAECF8F92FF
:1010B0009F92AF92BF92CF92DF92EF92FF92CF9327
:1010C000DF936B017C0149015A010E945716882366
:1010D00099F06091930B7091940B8091950B909186
:1010E000960BDF91CF91FF90EF90DF90CF90BF9064
:1010F000AF909F908F900895C501B4010E9457163C
:101100008111E7CFC701B6010E9412168823E1F1D1
:10111000C501B4010E9412168823B1F120E030E02D
:10112000A901C701B6010E94CD3ACFEFDFEF181633
:1011300014F4C1E0D0E020E030E0A901C501B40121
:101140000E94CD3A6FEF7FEF181614F461E070E063
:10115000072E000C880B990B0E941E396B017C0135
:10116000BE01DD0F880B990B0E941E39A701960165
:10117000DF91CF91FF90EF90DF90CF90BF90AF9035
:101180009F908F900C942B3820E030E0A901C5018E
:10119000B4010E947E38811116C020E030E0A90120
:1011A000C701B6010E94CD3A181694F020E030E055
:1011B000A901C701B6010E947E3887FD0EC060E01C
:1011C00070E0CB018ECFA5019401C701B601D0CF4D
:1011D0006BED7FE089EC9FE384CF6BED7FE089ECE2
:1011E0009FEB7FCF2F923F924F925F926F927F92B1
:1011F0008F929F92AF92BF92CF92DF92EF92FF9227
:101200000F931F93CF93DF93CDB7DEB76C970FB6D5
:10121000F894DEBF0FBECDBF8091470B9091480B75
:10122000A091490BB0914A0B8093EB0A9093EC0A82
:10123000A093ED0AB093EE0A80914B0B90914C0B6A
:10124000A0914D0BB0914E0B8093EF0A9093F00A52
:10125000A093F10AB093F20A80914F0B9091500B3A
:10126000A091510BB091520B8093F30A9093F40A22
:10127000A093F50AB093F60A63E57BE08FE09BE06C
:101280000E9446358091FC029091FD02A091FE02E1
:10129000B091FF0289839A83AB83BC8380910F0B4B
:1012A0009091100BA091110BB091120B8D839E8326
:1012B000AF83B887B2E0EB2EF12C0BEC1AE021E003
:1012C00030E0AE014B5F5F4F61E070E0CE01019610
:1012D000AEDB8091000390910103A0910203B091D5
:1012E000030389839A83AB83BC838091130B909112
:1012F000140BA091150BB091160B8D839E83AF83B9
:10130000B88703ED1AE021E030E0AE014B5F5F4F9C
:1013100061E070E0CE0101968ADB88E0EBECFAE058
:10132000ABEDBAE001900D928A95E1F788E0F80103
:10133000A3EEBAE001900D928A95E1F750E040E00B
:1013400062E070E084EF92E006DE20E030E040E80A
:1013500050E40E940E3B6B017C01C092AF0AD09218
:10136000B00AE092B10AF092B20A50E040E062E0C6
:1013700070E08BED9AE0EFDD20E030E040E05AE2F3
:101380000E940E3BA70196010E940E3B698B7A8B4F
:101390008B8B9C8B2091570B3091580B4091590BA4
:1013A00050915A0B0E94B7374B015C018092F70AAB
:1013B0009092F80AA092F90AB092FA0A50E040E03E
:1013C00062E070E083EE9AE0C6DD20E030E040E0CD
:1013D0005AE20E940E3BA70196010E940E3B6D8BC4
:1013E0007E8B8F8B988F20915B0B30915C0B4091A3
:1013F0005D0B50915E0B0E94B7376B017C01C09270
:10140000FB0AD092FC0AE092FD0AF092FE0A2091BB
:10141000A8023091A9024091AA025091AB02C501E5
:10142000B4010E940E3B20E030E0A9010E94B837D1
:101430002B013C012091B0023091B1024091B202E7
:101440005091B302C701B6010E940E3B9B01AC0153
:10145000C301B2010E94B8376093FF0A7093000B7A
:101460008093010B9093020B2091AC023091AD025E
:101470004091AE025091AF02C501B4010E940E3BF3
:1014800020E030E0A9010E94B8374B015C012091B7
:10149000B4023091B5024091B6025091B702C70133
:1014A000B6010E940E3B9B01AC01C501B4010E9434
:1014B000B8376093030B7093040B8093050B9093E4
:1014C000060B8DEC9CECACE4BEE38093AB0A9093EE
:1014D000AC0AA093AD0AB093AE0AC0905F0BD09057
:1014E000600BE090610BF090620B20E030E040E890
:1014F0005FE3C701B6010E94CD3A87FD43C420E0F7
:1015000030E040E85FE3C701B6010E94B83760935E
:101510005F0B7093600B8093610B9093620BC09094
:101520005F0BD090600BE090610BF090620B20E0BD
:1015300030E040E85FE3C701B6010E94B83720E021
:1015400030E040EC50E40E947E3818160CF457C48A
:10155000C701B6010E94EB384B012091EB0A309194
:10156000EC0A4091ED0A5091EE0A29873A874B87A1
:101570005C87FB017996EE0FFF1FEE0FFF1FE05017
:10158000FE4F60817181828193810E94B7372B0168
:101590003C018091EF0A9091F00AA091F10AB0917C
:1015A000F20A8D879E87AF87B88B9FE1890E911CC9
:1015B000F401EE0FFF1FEE0FFF1FE050FE4F2D85D1
:1015C0003E854F85588960817181828193810E9417
:1015D000B7374B015C01A3019201C301B2010E9424
:1015E0000E3B2B013C01A5019401C501B4010E94F1
:1015F0000E3B9B01AC01C301B2010E94B8370E94AF
:101600007B3B2B013C012AE939E949E95EE30E9471
:101610007E3887FDC4C34092AF0A5092B00A6092F0
:10162000B10A7092B20AC0925F0BD092600BE09246
:10163000610BF092620B8092B30A9092B40AA0926E
:10164000B50AB092B60AC701B6010E94EB386B0129
:10165000FB017996EE0FFF1FEE0FFF1FE050FE4FCC
:1016600029853A854B855C85608171818281938172
:101670000E94B7374B015C01BFE1CB0ED11CF601D4
:10168000EE0FFF1FEE0FFF1FE050FE4F2D853E8532
:101690004F85588960817181828193810E94B7371B
:1016A000A501940104DD6093AF0A7093B00A8093A2
:1016B000B10A9093B20A2091F30A3091F40A409152
:1016C000F50A5091F60A6091AF0A7091B00A8091C4
:1016D000B10A9091B20A0E94B7376093AF0A709333
:1016E000B00A8093B10A9093B20A209140023091DF
:1016F000410240914202509143020E940E3B2091D0
:10170000630B3091640B4091650B5091660B0E9406
:10171000B8376B017C01C092B30AD092B40AE09250
:10172000B50AF092B60A80904C0290904D02A090BB
:101730004E02B0904F02A50194010E94CD3A1816B6
:101740000CF06EC38092B70A9092B80AA092B90AC0
:10175000B092BA0A4090AB0A5090AC0A6090AD0AC1
:101760007090AE0AC090B70AD090B80AE090B90A5B
:10177000F090BA0A209198023091990240919A0211
:1017800050919B02C301B2010E940E3B20E030E069
:10179000A9010E94B8374B015C012091A002309151
:1017A000A1024091A2025091A302C701B6010E947A
:1017B0000E3B9B01AC01C501B4010E94B8374B013F
:1017C0005C018092070B9092080BA092090BB092DB
:1017D0000A0B20919C0230919D0240919E025091F3
:1017E0009F02C301B2010E940E3B20E030E0A9013C
:1017F0000E94B8372B013C012091A4023091A50230
:101800004091A6025091A702C701B6010E940E3B6B
:101810009B01AC01C301B2010E94B8376B017C018E
:10182000C0920B0BD0920C0BE0920D0BF0920E0BB2
:101830002091770B3091780B4091790B50917A0B76
:10184000C501B4010E94B7374B015C018092770B50
:101850009092780BA092790BB0927A0B20917B0B2F
:1018600030917C0B40917D0B50917E0BC701B601EE
:101870000E94B7376B017C01C0927B0BD0927C0B2E
:10188000E0927D0BF0927E0B2091000230910102DC
:101890004091020250910302C501B4010E940E3B27
:1018A00020916B0B30916C0B40916D0B50916E0B36
:1018B0000E94B737209138023091390240913A02A4
:1018C00050913B020E940E3B2B013C014092AB0A1F
:1018D0005092AC0A6092AD0A7092AE0A2091440216
:1018E000309145024091460250914702C501B40132
:1018F0000E940E3B2091670B3091680B4091690B61
:1019000050916A0B0E94B837A30192010E94B83728
:101910004B015C01CB01D5018093B70A9093B80AC3
:10192000A093B90AB093BA0A20910402309105023B
:101930004091060250910702C701B6010E940E3B7A
:101940002091730B3091740B4091750B5091760B75
:101950000E94B73720913C0230913D0240913E02F7
:1019600050913F020E940E3B2B013C014092C30A62
:101970005092C40A6092C50A7092C60A2091480229
:101980003091490240914A0250914B02C701B60181
:101990000E940E3B20916F0B3091700B4091710BA8
:1019A0005091720B0E94B837A30192010E94B83780
:1019B0006093BB0A7093BC0A8093BD0A9093BE0AE1
:1019C000C0905002D0905102E0905202F090530229
:1019D0009601A701B401C5010E94CD3A181694F0F2
:1019E000C0903002D0903102E0903202F090330289
:1019F0009601A701B401C5010E947E3887FD02C08F
:101A0000640175012091D4023091D5024091D60233
:101A10005091D702B601C7010E940E3B0E9459396E
:101A20006B017C010E945716811113C2C701B601D8
:101A30000E94121681110DC220E030E040E857E408
:101A4000C701B6010E9473396B017C0120E030E0D0
:101A5000A9010E947E3887FFFFC1C701B6019058D7
:101A60000E94F038EE24FF24E61AF70A6090BB0AC1
:101A70007090BC0A8090BD0A9090BE0AA09054025B
:101A8000B0905502C0905602D09057029501A60121
:101A9000B301C4010E94CD3A181694F0A09034020C
:101AA000B0903502C0903602D09037029501A60161
:101AB000B301C4010E947E3887FD02C05301640156
:101AC0002091E0023091E1024091E2025091E30264
:101AD000B501C6010E940E3B0E9459394B015C01C1
:101AE0000E9457168111BEC1C501B4010E94121691
:101AF0008111B8C120E030E040E857E4C501B401ED
:101B00000E9473394B015C0120E030E0A9010E9482
:101B10007E3887FFAAC1C501B40190580E94F038F1
:101B2000CC24DD24C61AD70A67E070E080E090E09C
:101B30000E9495015C019093360B8093350B609168
:101B40000403709105036C157D0544F06091060354
:101B5000709107036C157D050CF4B601072E000C7F
:101B6000880B990B0E941E392B013C0120E030E0CC
:101B70004FE753E40E947E3818160CF47CC120E035
:101B800030E0A901C301B2010E94CD3A87FD7AC1BC
:101B9000B301A201C5010E945E0165E070E080E032
:101BA00090E00E9495015C0190932E0B80932D0B89
:101BB00060910803709109036E157F0544F06091F0
:101BC0000A0370910B036E157F050CF4B701072E05
:101BD000000C880B990B0E941E392B013C0120E060
:101BE00030E04FE753E40E947E3818160CF44EC1E3
:101BF00020E030E0A901C301B2010E94CD3A87FD87
:101C00004CC1B301A201C5010E945E0168E070E011
:101C100080E090E00E9495015C019093260B8093F8
:101C2000250B60910C0370910D036C157D0544F03C
:101C300060910E0370910F036C157D050CF4B601D5
:101C400077FF03C0719561957109072E000C880B11
:101C5000990B0E941E392B013C0120E030E04FE738
:101C600053E40E947E3818160CF41BC120E030E0CB
:101C7000A901C301B2010E94CD3A87FD19C1B30188
:101C8000A201C5010E945E0166E070E080E090E084
:101C90000E9495015C0190931E0B80931D0B609137
:101CA0001003709111036E157F0544F060911203CB
:101CB000709113036E157F050CF4B70177FF03C015
:101CC000719561957109072E000C880B990B0E9484
:101CD0001E392B013C0120E030E04FE753E40E9425
:101CE0007E3818160CF4E8C020E030E0A901C301EA
:101CF000B2010E94CD3A87FDE6C0B301A201C50141
:101D00000E945E0161E080915802909159028C1509
:101D10009D0509F460E089E00E94800361E0809104
:101D20005A0290915B028E159F0509F460E084E0F1
:101D30000E948003C090BB0AD090BC0AE090BD0A0C
:101D4000F090BE0A8090540290905502A0905602E6
:101D5000B0905702A5019401C701B6010E94CD3A87
:101D600018160CF0B4C0A5019401C701B6010E9479
:101D7000B7376093BB0A7093BC0A8093BD0A9093F7
:101D8000BE0ABDC080E090E0A0E8BFE380935F0B97
:101D90009093600BA093610BB093620BC0CB20E0DB
:101DA00030E040EC50E4C701B6010E947E381816BE
:101DB0000CF431CC20E030E040E85FE3C701B6012D
:101DC0000E94B8376B017C010E94EB384B01FB018C
:101DD0007996EE0FFF1FEE0FFF1FE050FE4F298593
:101DE0003A854B855C8560817181828193810E94F7
:101DF000B7372B013C01AFE18A0E911CD9CB109271
:101E0000AF0A1092B00A1092B10A1092B20A109260
:101E1000AB0A1092AC0A1092AD0A1092AE0A4BCCEB
:101E200080902C0290902D02A0902E02B0902F0254
:101E3000A5019401C701B6010E947E3887FD82CCBE
:101E4000C092B70AD092B80AE092B90AF092BA0AE0
:101E500081CCC12CD12C7601C701B6010E94F0388B
:101E60007B0104CE812C912C5401C501B4010E9448
:101E7000F0386B0159CE412C512C3FE7632E33E4EF
:101E8000732E86CE412C512C320182CE412C512C06
:101E90002FE7622E23E4722EB4CE412C512C320156
:101EA000B0CE412C512C9FE7692E93E4792EE7CEDA
:101EB000412C512C3201E3CE412C512C8FE7682E5E
:101EC00083E4782E1ACF412C512C320116CF80900A
:101ED000340290903502A0903602B0903702A501EE
:101EE0009401C701B6010E94CD3A87FD3CCF109204
:101EF000BB0A1092BC0A1092BD0A1092BE0A209131
:101F00007B0B30917C0B40917D0B50917E0B60914F
:101F100008027091090280910A0290910B020E94BE
:101F20000E3B4B015C012090BB0A3090BC0A4090F4
:101F3000BD0A5090BE0AC090E402D090E502E09045
:101F4000E602F090E702A7019601C201B1010E94EA
:101F5000CD3A60901C03181614F060901D03A70181
:101F60009601C501B4010E94CD3A70901E03181667
:101F700014F070901F03A7019601C201B1010E94E5
:101F80007E388823C9F1671037C080916402909130
:101F90006502A0916602B09167028093BB0A90939C
:101FA000BC0AA093BD0AB093BE0AC090B70AD090F5
:101FB000B80AE090B90AF090BA0A80905002909066
:101FC0005102A0905202B0905302A5019401C701A2
:101FD000B6010E94CD3A1816C4F4A5019401C701B8
:101FE000B6010E94B7376093B70A7093B80A80931E
:101FF000B90A9093BA0A21C08092BB0A9092BC0A97
:10200000A092BD0AB092BE0AD0CF809030029090CC
:102010003102A0903202B0903302A5019401C701B1
:10202000B6010E94CD3A87FDD8CF1092B70A109220
:10203000B80A1092B90A1092BA0A2091770B30911F
:10204000780B4091790B50917A0B60910C02709152
:102050000D0280910E0290910F020E940E3B609340
:10206000BF0A7093C00A8093C10A9093C20AC090BD
:10207000B30AD090B40AE090B50AF090B60A809006
:102080004C0290904D02A0904E02B0904F02A501DC
:102090009401C701B6010E94CD3A18167CF4A5013F
:1020A0009401C701B6010E94B7376093B30A7093D9
:1020B000B40A8093B50A9093B60A18C080902C0297
:1020C00090902D02A0902E02B0902F02A5019401B5
:1020D000C701B6010E94CD3A87FDE1CF1092B30A45
:1020E0001092B40A1092B50A1092B60A209110020A
:1020F0003091110240911202509113026091AF0A87
:102100007091B00A8091B10A9091B20A0E940E3B80
:102110006093AF0A7093B00A8093B10A9093B20AA9
:102120002091470B3091480B4091490B50914A0B3D
:102130002D873E874F87588B40904B0B50904C0B10
:1021400060904D0B70904E0B4092C70A5092C80A97
:102150006092C90A7092CA0A80914F0B9091500BFD
:10216000A091510BB091520B898F9A8FAB8FBC8F7E
:102170008090F30A9090F40AA090F50AB090F60AC5
:10218000C501B4010E9482382091FF0A3091000BF2
:102190004091010B5091020B29873A874B875C874E
:1021A000C090B802D090B902E090BA02F090BB02A1
:1021B0000E940E3BA70196010E940E3B2D853E8595
:1021C0004F8558890E94B8376093470B7093480B2E
:1021D0008093490B90934A0BC501B4010E94713B57
:1021E0009B01AC0169857A858B859C850E940E3B9D
:1021F000A70196010E940E3BA30192010E94B837ED
:1022000060934B0B70934C0B80934D0B90934E0B44
:102210002091030B3091040B4091050B5091060B5C
:102220006091F0027091F1028091F2029091F302BC
:102230000E940E3BA70196010E940E3B298D3A8D0C
:102240004B8D5C8D0E94B83760934F0B7093500B91
:102250008093510B9093520B63E57BE08FE09BE002
:102260000E947035C0905F0BD090600BE090610BC6
:10227000F090620B20E030E040EC50E4C701B60182
:102280000E947E3887FF10C020E030E040E85FE326
:10229000C701B6010E94B73760935F0B7093600B64
:1022A0008093610B9093620B4090B30A5090B40AF4
:1022B0006090B50A7090B60AC090EC02D090ED0222
:1022C000E090EE02F090EF02A7019601C301B20187
:1022D0000E94CD3AA0901403181614F0A090150394
:1022E0002091AF0A3091B00A4091B10A5091B20AE0
:1022F000C701B6010E947E38B090160387FFB090E8
:102300001703A7019601C301B2010E947E388823FA
:1023100091F0AB1010C080915C0290915D02A09191
:102320005E02B0915F028093AF0A9093B00AA093CF
:10233000B10AB093B20A2091AF0A3091B00A40912D
:10234000B10A5091B20A6091C4027091C5028091A5
:10235000C6029091C7020E940E3B2091630B309100
:10236000640B4091650B5091660B0E94B8376093E7
:10237000630B7093640B8093650B9093660B898954
:102380009A89AB89BC898093570B9093580BA09383
:10239000590BB0935A0B8091F70A9091F80AA091CB
:1023A000F90AB091FA0A8093770B9093780BA09377
:1023B000790BB0937A0B2D893E894F89588D2093E4
:1023C0005B0B30935C0B40935D0B50935E0B8091E5
:1023D000FB0A9091FC0AA091FD0AB091FE0A80933D
:1023E0007B0B90937C0BA0937D0BB0937E0B409066
:1023F000B70A5090B80A6090B90A7090BA0AC090B3
:10240000E802D090E902E090EA02F090EB02A70126
:102410009601C301B2010E94CD3AA090180318168C
:1024200014F0A09019032091BF0A3091C00A409186
:10243000C10A5091C20AC701B6010E947E38B0900D
:102440001A0387FFB0901B03A7019601C301B201D5
:102450000E947E38882391F0AB1010C080916002FA
:1024600090916102A0916202B09163028093BF0AD1
:102470009093C00AA093C10AB093C20A2091BF0AE8
:102480003091C00A4091C10A5091C20A6091CC02B9
:102490007091CD028091CE029091CF020E940E3BAE
:1024A0002091670B3091680B4091690B50916A0B3A
:1024B0000E94B8376093670B7093680B8093690B29
:1024C00090936A0B2091AB0A3091AC0A4091AD0A0F
:1024D0005091AE0A6091D0027091D1028091D202E7
:1024E0009091D3020E940E3B20916B0B30916C0BAC
:1024F00040916D0B50916E0B0E94B83760936B0B3F
:1025000070936C0B80936D0B90936E0B2091BB0AB4
:102510003091BC0A4091BD0A5091BE0A6091D80228
:102520007091D9028091DA029091DB020E940E3BF9
:1025300020916F0B3091700B4091710B5091720B89
:102540000E94B83760936F0B7093700B8093710B80
:102550009093720B2091C30A3091C40A4091C50A2E
:102560005091C60A6091DC027091DD028091DE021A
:102570009091DF020E940E3B2091730B3091740BFF
:102580004091750B5091760B0E94B8376093730B96
:102590007093740B8093750B9093760BC0906B04C3
:1025A000D0906C04E0906D04F0906E043FEFC31A7D
:1025B000D30AE30AF30AC0926B04D0926C04E0924F
:1025C0006D04F0926E04C114D104E104F10499F495
:1025D00080916F0490917004A0917104B091720485
:1025E0000196A11DB11D80936F0490937004A09378
:1025F0007104B09372048090730490907404A0905E
:102600007504B090760460916F04709170048091AD
:102610007104909172040E941C39A50194010E94DA
:102620000E3B20E030E040E85FE40E940E3B2B01CF
:102630003C01C701B6010E941C39A50194010E940A
:102640000E3B9B01AC01C301B2010E94B8376093FD
:102650006704709368048093690490936A046C968D
:102660000FB6F894DEBF0FBECDBFDF91CF911F91A3
:102670000F91FF90EF90DF90CF90BF90AF909F9021
:102680008F907F906F905F904F903F902F90089524
:102690008F929F92AF92BF92DF92EF92FF920F9331
:1026A0001F93CF93DF9384E090E085D2E1E5F4E0DF
:1026B0008BE2DF011D928A95E9F780E090E0A0E2CD
:1026C000B1E486A397A3A0A7B1A78AE097EDA3E200
:1026D000BCE382A393A3A4A3B5A384EA94E4A3EEEA
:1026E000BCEF84839583A683B7838CE997E2ACE73C
:1026F000B2E280879187A287B3878BE297E3AAE54E
:10270000BEE384879587A687B78781E19BE9ABE421
:10271000B7EA808B918BA28BB38BA5E4B4E0B38333
:10272000A283EDE1F4E01196FC93EE9389E693E049
:102730009183808393838283958384839783868325
:1027400091878087938782879587848797878687F5
:10275000918B808B938B828B958B848B978B868BC5
:10276000918F808F938F828F958F848F978F868F95
:1027700091A380A393A382A395A384A397A386A3E5
:1027800085E694E015969C938E93149785E594E0E6
:1027900013969C938E93129787E694E017969C93DA
:1027A0008E931697EBEAFAE08CE6DF011D928A958C
:1027B000E9F7C7E1DBE080E7FE0111928A95E9F7CE
:1027C000DD24D394D092860B812C912C54018394D8
:1027D000898E9A8EAB8EBC8EE12CF12C8701A801DC
:1027E000970167E070E080E090E00E94D9019F8F40
:1027F0008E8FDD8E188AD092850B898A9A8AAB8A51
:10280000BC8AA801970165E070E080E090E00E943A
:10281000D9019F8B8E8BDD8A1886D092840B898696
:102820009A86AB86BC86A801970168E070E080E0DC
:1028300090E00E94D9019F878E87DD861882D09212
:10284000830B89829A82AB82BC82A801970166E0E1
:1028500070E080E090E00E94D9019F838E83DD824A
:1028600018A6D092820B89A69AA6ABA6BCA661E058
:1028700089E00E947803DDA618A2D092810B89A27C
:102880009AA2ABA2BCA261E084E00E947803DDA220
:10289000E0E0F2E08091BC029091BD02A091BE0206
:1028A000B091BF0288AB99ABAAABBBAB8CAB9DAB75
:1028B000AEABBFAB88AF99AFAAAFBBAFECAEFDAECE
:1028C0000EAF1FAF8091C0029091C102A091C202D1
:1028D000B091C30280935F0B9093600BA093610B48
:1028E000B093620B80A191A1A2A1B3A18093630BCD
:1028F0009093640BA093650BB093660B4489558944
:10290000668977894093570B5093580B6093590B06
:1029100070935A0B8091C8029091C902A091CA028B
:10292000B091CB028093770B9093780BA093790BA7
:10293000B0937A0B40935B0B50935C0B60935D0BF1
:1029400070935E0B80937B0B90937C0BA0937D0B1D
:10295000B0937E0B84A195A1A6A1B7A18093670B2C
:102960009093680BA093690BB0936A0B808D918D47
:10297000A28DB38D80936B0B90936C0BA0936D0B1A
:10298000B0936E0B80A591A5A2A5B3A580936F0B04
:102990009093700BA093710BB093720B848D958DF7
:1029A000A68DB78D8093730B9093740BA093750BCA
:1029B000B093760BDF91CF911F910F91FF90EF9025
:1029C000DF90BF90AF909F908F90089580912F0BD4
:1029D00081112EC081E080932F0B8091300B90915C
:1029E000310BA091320BB091330B0197A105B105CA
:1029F000F9F48091340B8823D9F067E070E080E02F
:102A000090E00E9495019093360B8093350B40E047
:102A100050E0BA010E945E0167E070E080E090E063
:102A20000E9495019093360B8093350B0E942A02E9
:102A30008091270B81112EC081E08093270B80911C
:102A4000280B9091290BA0912A0BB0912B0B019789
:102A5000A105B105F9F480912C0B8823D9F065E02C
:102A600070E080E090E00E94950190932E0B80939F
:102A70002D0B40E050E0BA010E945E0165E070E07D
:102A800080E090E00E94950190932E0B80932D0B97
:102A90000E942A0280911F0B81112EC081E0809339
:102AA0001F0B8091200B9091210BA091220BB091D4
:102AB000230B0197A105B105F9F48091240B88231C
:102AC000D9F068E070E080E090E00E94950190937A
:102AD000260B8093250B40E050E0BA010E945E0176
:102AE00068E070E080E090E00E9495019093260BF2
:102AF0008093250B0E942A028091170B81112EC012
:102B000081E08093170B8091180B9091190BA09185
:102B10001A0BB0911B0B0197A105B105F9F4809137
:102B20001C0B8823D9F066E070E080E090E00E9402
:102B3000950190931E0B80931D0B40E050E0BA016D
:102B40000E945E0166E070E080E090E00E949501E6
:102B500090931E0B80931D0B0E942A0280913F0BC5
:102B6000811103C081E080933F0B8091370B81116D
:102B700003C081E08093370B089560E070E080E847
:102B80009FE7089560E070E080E89FE7089560E0C7
:102B900070E080E89FEF089560E070E080E89FEFCC
:102BA000089560E070E080EC9FEF089560E070E0D1
:102BB00080EC9FEF0895F5DF6093930B7093940B77
:102BC0008093950B9093960BF1DF6093870B709336
:102BD000880B8093890B90938A0BCFDF60938F0BC8
:102BE0007093900B8093910B9093920BCBDF60933B
:102BF0008B0B70938C0B80938D0B90938E0BC7DF98
:102C00006093970B7093980B8093990B90939A0B0A
:102C1000C3DF60939B0B70939C0B80939D0B9093F1
:102C20009E0B0895CF92DF92EF92FF92CF936B01AC
:102C30007C01AC019B0160918F0B7091900B809196
:102C4000910B9091920B0E947E38C1E0882371F025
:102C5000A70196016091970B7091980B8091990B49
:102C600090919A0B0E947E388111C0E08C2FCF91F9
:102C7000FF90EF90DF90CF9008950F931F938B01FB
:102C80009C010027112720783F7701151105204866
:102C90003F4749F4AB01BC016F77772781E0452BB3
:102CA000462B472B09F480E01F910F910895E5CF43
:102CB0004F925F926F927F928F929F92AF92BF924C
:102CC000CF92DF92EF92FF920F931F93F894409070
:102CD00088045090890460908A0470908B04C0909E
:102CE0007C04D0907D04E0907E04F0907F04452B1E
:102CF00009F0A4C09B01AC01241935094609570904
:102D000029013A01009184041091850420918604E0
:102D10003091870448015901840C951CA61CB71CEE
:102D200080169106A206B306A0F4009180041091CB
:102D3000810420918204309183040F5F1F4F2F4F35
:102D40003F4F0093800410938104209382043093BA
:102D500083048092840490928504A0928604B092A9
:102D600087040091800410918104209182043091A5
:102D7000830480928C0490928D04A0928E04B09271
:102D80008F04009390041093910420939204309345
:102D90009304609388047093890480938A049093C9
:102DA0008B04A0E1B7E2A30192010E943C446C0DA8
:102DB0007D1D8E1D9F1D60937C0470937D04809308
:102DC0007E0490937F0400912003109121032091B1
:102DD0002203309123030F3F1F4F2F4F3F4FF1F03E
:102DE00000912003109121032091220330912303AD
:102DF0000E3F1F4F2F4F3F4F89F0C0902003D090C0
:102E00002103E0902203F090230321E08C149D0421
:102E1000AE04BF0408F420E02093980478941F9136
:102E20000F91FF90EF90DF90CF90BF90AF909F9069
:102E30008F907F906F905F904F9008954B015C0151
:102E400084189508A608B708A3019201261B370B22
:102E5000480B590B6415750586059705D0F0821649
:102E60009306A406B50640F420E030E0A9018114E1
:102E70009104A104B10491F4A0E1B7E20E943C44A2
:102E8000A7019601261B370B480B590BCA01B90144
:102E9000C5CF82169306A406B50670F7A0E1B7E287
:102EA000A50194010E943C446C0D7D1D8E1D9F1D4B
:102EB000B5CFFECECF93DF9300D01F92CDB7DEB754
:102EC0001C821B821A82198210929404109295041B
:102ED0001092960410929704BE016F5F7F4FCE014F
:102EE00003960E944E3469817A818B819C810E9475
:102EF0003C2D009761F4BE016F5F7F4FCE010396BA
:102F00000E945A3469817A818B819C812ED50F90E1
:102F10000F900F900F90DF91CF910895FF920F9334
:102F20001F93CF93DF93082F60E070E0CB010E94E6
:102F3000183EFF24F3940E94252CEC01892B89F084
:102F400010E0CE3F8FEFD80769F0002361F160E019
:102F500070E0CB010E94183E81E090E0892B59F38C
:102F600022C011E025D5EC01892B21F0CE3F8FEF57
:102F7000D80759F711111EC011E0229609F410E08C
:102F80000E94D52BEC01892B21F0CE3F8FEFD80783
:102F9000E1F6111111C011E0CE3F8FEFD80709F40F
:102FA00010E001110BC0CE01DF91CF911F910F9165
:102FB000FF90089511E0E4CF11E0F3CF60E070E0FE
:102FC000CB010E94183E1F25812F90E0C7CFCF93E1
:102FD000DF9380919804882321F060E070E0CB01BA
:102FE0004CD635D6D0E0C0E0892B71F06AE070E0B5
:102FF00080E090E00E94183E81E090DF28D6219684
:10300000C03D27E0D20781F727D60E94902D10926D
:10301000B0041092AF041092A9041092AA04109266
:10302000AB041092AC041092A5041092A604109266
:10303000A7041092A8041092A1041092A204109266
:10304000A3041092A40410929D0410929E04109266
:103050009F041092A0041092990410929A04109266
:103060009B0410929C044EEF5FEF6FEF7FEF409355
:103070002003509321036093220370932303109243
:103080009804ECE8F4E028E0DF011D922A95E9F7C6
:10309000109288041092890410928A0410928B0472
:1030A0001092840410928504109286041092870472
:1030B0001092800410928104109282041092830472
:1030C00010927C0410927D0410927E0410927F0472
:1030D000DF91CF9108951092BC041092BD0410921C
:1030E000BE041092BF041092BB048091C40490915E
:1030F000C5049093BA048093B9041092B804109256
:10310000B7041092B3041092B4041092B504109254
:10311000B6041092C1041092C00490E080E00895BB
:10312000CF92DF92EF92FF920F931F93CF938C0178
:10313000892B09F055C02091C4043091C5048091B9
:10314000B9049091BA044091C4045091C5045093BD
:10315000BA044093B9042817390781F01092B804D3
:103160001092B7041092B3041092B4041092B504F4
:103170001092B6041092C1041092C0048091C4044D
:103180009091C504019761F58091C0049091C104AC
:10319000892B21F480912403811112C08091C004F5
:1031A0009091C1040197E1F48091B3049091B4042B
:1031B000A091B504B091B6040197A105B10581F4C1
:1031C0001092B3041092B4041092B5041092B60495
:1031D0001092240382E090E09093C1048093C00495
:1031E0008091C4049091C504019709F01CC180919D
:1031F000DA049091DB048017910709F014C18091E3
:10320000D6049091D704A091D804B091D904009726
:1032100009F409C12091D50421110DC04091D604B3
:103220005091D7046091D8047091D904452B462B56
:10323000472B09F4F8C02091C0043091C10422301A
:10324000310509F0F0C02091B7042111ECC0FC0158
:10325000C080D180E280F3808091BB04882309F490
:10326000D3C08091C7049091C804892B09F4FDC094
:103270002091C7043091C80481E02230310509F063
:1032800080E02091C7043091C804C1E021303105AD
:1032900049F02091C7043091C804C1E022303105C3
:1032A00009F0C0E0882309F456C02091D104309180
:1032B000D2044091D3045091D404C701B6010E94B6
:1032C000CD3A87FD14C02091D1043091D2044091B1
:1032D000D3045091D4046091BC047091BD048091DA
:1032E000BE049091BF040E947E3887FD22C02091C9
:1032F000D1043091D2044091D3045091D404C70139
:10330000B6010E94CD3A181634F52091D1043091BF
:10331000D2044091D3045091D4046091BC047091C4
:10332000BD048091BE049091BF040E947E3881113B
:1033300012C08091C9049091CA04A091CB04B091AD
:10334000CC04892B8A2B8B2B19F481E08093B80451
:1033500081E08093B704CC2309F456C02091D104B6
:103360003091D2044091D3045091D404C701B601E6
:103370000E947E3887FF14C02091D1043091D2047E
:103380004091D3045091D4046091BC047091BD0469
:103390008091BE049091BF040E94CD3A87FF22C065
:1033A0002091D1043091D2044091D3045091D4049F
:1033B000C701B6010E947E38811126C02091D10438
:1033C0003091D2044091D3045091D4046091BC0454
:1033D0007091BD048091BE049091BF040E94CD3ACB
:1033E000181694F48091C9049091CA04A091CB045A
:1033F000B091CC04892B8A2B8B2B19F481E080931C
:10340000B80481E08093B70481E09091B7049111F2
:1034100080E08093BB04C092BC04D092BD04E092D3
:10342000BE04F092BF04012B09F067C18091C00473
:103430009091C104892BD9F41092C6041092B7045C
:1034400080912403882379F082E090E09093C10476
:103450008093C004109224032091C4043091C504C9
:1034600081E0232BE9F080E01BC081E00ACF1092BD
:1034700024038091C604882349F01092B804109266
:10348000C1041092C0041092C604EDCF8091C40410
:103490009091C504892BE1F08091B7041092B70494
:1034A0002091C0043091C1042230310509F45EC07E
:1034B00088F42115310509F448C02130310509F49B
:1034C000F3C01092B8041092B7041092C60438C02A
:1034D00081E0E6CF2330310509F4B1C02430310555
:1034E00081F74091B3045091B4046091B504709198
:1034F000B604411551056105710561F0415051094E
:10350000610971094093B3045093B4046093B50406
:103510007093B6044091B3045091B4046091B50423
:103520007091B604452B462B472BD9F42091C20449
:103530003091C3042130310509F046C01092B8041F
:103540001092C1041092C0040CC0809124038823FF
:1035500041F082E090E09093C1048093C004109207
:1035600024031092B1048091B804CEC08823C9F31B
:103570008091C9049091CA04A091CB04B091CC046D
:10358000181619061A061B060CF07DC08091C4049B
:103590009091C504019709F076C08091C90490917B
:1035A000CA04A091CB04B091CC048093B30490934F
:1035B000B404A093B504B093B60483E090E0909374
:1035C000C1048093C004CDCF4091CD045091CE046E
:1035D0006091CF047091D004452B462B472BA9F066
:1035E0001092B8048091CD049091CE04A091CF04A4
:1035F000B091D0048093B3049093B404A093B50425
:10360000B093B60481E090E0DACF882399F08091FE
:10361000250390912603A0912703B091280380935E
:10362000B3049093B404A093B504B093B60484E0BB
:1036300090E0C5CF1092B80482E090E0C0CF8091B6
:10364000B3049091B404A091B504B091B60400976E
:10365000A105B10559F00197A109B1098093B304FF
:103660009093B404A093B504B093B6048091B304CE
:103670009091B404A091B504B091B604892B8A2B23
:103680008B2B09F06ECF8091250390912603A0919A
:103690002703B0912803892B8A2B8B2B09F44ECF5B
:1036A00081E08093B804B3CF4091B3045091B40447
:1036B0006091B5047091B60441155105610571051D
:1036C00061F041505109610971094093B30450936D
:1036D000B4046093B5047093B6044091B304509160
:1036E000B4046091B5047091B604452B462B472B6A
:1036F00009F037CF8111C7CF9FCF8091B1048823C4
:1037000009F431CF8091B204CF911F910F91FF90B6
:10371000EF90DF90CF9008951092BC041092BD04FA
:103720001092BE041092BF041092BB041092C10408
:103730001092C0041092BA041092B9041092DB04E3
:103740001092DA041092B8041092B7041092B304E5
:103750001092B4041092B5041092B6041092B20400
:103760001092B1041092D6041092D7041092D8048B
:103770001092D9041092D5041092D1041092D20460
:103780001092D3041092D40488EE93E0A0E0B0E04D
:103790008093250390932603A0932703B0932803D7
:1037A0001092CD041092CE041092CF041092D00447
:1037B0001092C9041092CA041092CB041092CC0447
:1037C0001092C8041092C70481E0809324031092E1
:1037D000C6041092C5041092C4041092C30410923F
:1037E000C20490E080E008958091C4049091C504E3
:1037F000892B19F580912403882351F08091C60408
:10380000811106C081E08093B2048093B1040895D1
:103810002091C6043091240381E090E0332311F01D
:1038200090E080E030E082239323892B21F01092F6
:10383000B20481E0EACF1092B104089582E090E0F2
:10384000FA01918380838FEF9FEF0895CF93DF93E9
:10385000EA01009711F00E94B02E1982188290E0C0
:1038600080E0DF91CF910895DB01009719F48FEF8D
:103870008C9308952EEF2C93FC013F96EF30F105C9
:1038800008F034C08827E85BF34E8F4F0C94344423
:10389000741C721C701C6E1C6C1C681C6A1C661CE0
:1038A000641C621C5F1C5B1C571C5D1C761C80E347
:1038B00011968C93089589E2FBCF82E2F9CF11969D
:1038C0001C92089583E2F4CF81E2F2CF81E1F0CF40
:1038D00087E2EECF8AE2ECCF80E1EACF84E2E8CF64
:1038E00088E2E6CF86E2E4CF81E3E2CF80E2E0CF78
:1038F0008091E8049091E90408959093E9048093FD
:10390000E80408958091E70408959091E704892BD5
:103910008093E7040895982F90958091E704892378
:103920008093E70408958091E60408958091E4046B
:103930009091E50408956115710559F0FB0130E09F
:1039400020E070E060E02417350719F0611571057B
:1039500011F0CB010895A081B181A817B90709F42E
:10396000BF012F5F3F4F3696EECF8091EA04811161
:103970001CC060D266D29093DD048093DC040E9468
:10398000BC260E94CE269093E1048093E0040E941E
:103990003D2B0E94442B9093DF048093DE0481E052
:1039A0008093EA0490E080E0089584EF9FEF08950B
:1039B0008F929F92AF92BF92CF92DF92EF92FF923F
:1039C0000F931F93CF93DF9300D000D000D01F92AE
:1039D000CDB7DEB71A86198618861F821E821D8211
:1039E0001C821B821A8219828091EA0407EF1FEF62
:1039F000882309F49CC08E010D5F1F4F9E012B5F31
:103A00003F4FAE01495F5F4FBE01675F7F4F90E060
:103A100080E00E94C12C8C01009721F0059602974E
:103A200008F0DBC029853A852115310509F402C16A
:103A3000ED80FE804B815C81B701640F751F8F8123
:103A400098858617970708F4F5C0E20EF31ED70194
:103A50009C91903C09F07FC04230510508F47BC036
:103A600011968C914091E8045091E904452B09F49A
:103A70009CC0913F08F071C02CE1290F2D3008F453
:103A80008BC02DE2290F203108F489C0903C21F42D
:103A90008150823008F483C088E3890F8B3008F4AA
:103AA00081C094E3C92E9CE1D92EEEE1FCE16D8149
:103AB0007E81AE014F5F5F4F89859A8519955C01C4
:103AC000C114D104A1F189809A808114910479F103
:103AD0008B819C818815990508F487C010E000E06F
:103AE0004B815C8170E060E0C7010E945E4401157B
:103AF0001105E9F449815A8169857A858D819E8114
:103B0000680F791FC501F6011995E980FA800D81CA
:103B10001E812F81388549855A856FEF7FEF81E0BF
:103B200090E00E945C2C8C01892B09F056C0C801E2
:103B30002A960FB6F894DEBF0FBECDBFDF91CF91AE
:103B40001F910F91FF90EF90DF90CF90BF90AF90BB
:103B50009F908F90089580E085CF30E020E0220F85
:103B6000331FF901E452FB4F0190F081E02D3097B3
:103B700009F497CF892F90E01995009709F491CF18
:103B8000DC011296ED91FC9113971496CD90DC9088
:103B9000309709F08CCF1FC021E030E0E0CF22E069
:103BA00030E0DDCF23E030E0DACFD12CC12CE6E2EB
:103BB000FCE19F3F09F07BCFE091DC04F091DD0454
:103BC000309721F4C90104EF1FEF0CC08FEF90E094
:103BD00019950097A9F604EF1FEF89859A8500973C
:103BE00009F4A5CF0E94B02EA2CF0E948B2D8C018C
:103BF00089859A850E94B02E70E060E0C4010E9421
:103C0000242D98878F830E94592C9E838D836F81EA
:103C100078856115710559F0C8010E943C309A877A
:103C2000898706EF1FEF892B09F058CF59CF08EF8E
:103C30001FEF56CF08EF1FEFD0CF2091EA042223C9
:103C400019F020E00C94D32687EF9FEF0895809120
:103C5000E8049091E90408950E94492B0E94A32A48
:103C6000F5D0ECEDF4E088E0DF011D928A95E9F7EC
:103C70001092EA0490E080E008950C94012921E07C
:103C800040E050E0BA010C94D32686E090E0FA01BF
:103C90009183808390E080E0089547E050E06CE6F7
:103CA00073E049CEDF92EF92FF920F931F93CF9371
:103CB000DF938A01EC01C60FD71FE090EE04F0906D
:103CC000EF04D9800E94732DD816190678F082E08F
:103CD00090E0F801918380838EEF9FEFDF91CF9189
:103CE0001F910F91FF90EF90DF900895EF2841F41E
:103CF00082E090E0F8019183808384EF9FEFEECF24
:103D000089818093ED0490E00196F801918380838E
:103D100090E080E0E3CFCF93DF93EA010E94B229E5
:103D2000882321F00E94802D0E94B32982E090E038
:103D3000998388838BEF9FEFDF91CF910895CF9385
:103D4000DF93EB0186E0FB0111928A95E9F78FEF93
:103D50008883D8DD8983E7DD8A83E8DD9D838C83D2
:103D6000DF91CF910895CF93DF93EA010E94B529A7
:103D7000811109C082E090E09983888385EF9FEFED
:103D8000DF91CF91089590E080E0B7DD81E090E091
:103D90009983888390E080E0F3CF0F931F93CF93B4
:103DA000DF93EA018C01060F171F0E94B5298111CC
:103DB0000BC082E090E09983888385EF9FEFDF91CD
:103DC000CF911F910F910895F8018181823038F0D1
:103DD00082E090E0998388838EEF9FEFF0CF81E0BF
:103DE00090E08BDD88E090E09983888390E080E02C
:103DF000E6CFCF93DF930097D1F4EB01FB0132962E
:103E000086E0DF011D928A95E9F78FEF888385E0D0
:103E100089831A820E94732D8B830E94722D9D8349
:103E20008C8381E08E838F83DF91CF910895DF9122
:103E3000CF911ACD8DE49EE19093EC048093EB0436
:103E400008958091EB049091EC0408951092EC0495
:103E50001092EB0408958091EE049091EF04089580
:103E6000411105C0611571058105910561F06093EF
:103E7000EE047093EF048093F0049093F104409368
:103E8000F20481E0089580E00895FF920F931F935C
:103E9000CF93DF938A01EC01C60FD71FF9800E94F0
:103EA000732DF816190668F082E090E0F80191830E
:103EB00080838EEF9FEFDF91CF911F910F91FF9045
:103EC00008956C817D818E819F814B81C9DF811135
:103ED00008C082E090E0F8019183808384EF9FEF37
:103EE000EACF89818093ED0490E00196F8019183F7
:103EF000808390E080E0DFCFCF93DF93EA01FC0185
:103F0000E60FF71F64817581868197814381A8DF61
:103F1000811109C082E090E09983888384EF9FEF4C
:103F2000DF91CF91089581E090E09983888390E0BC
:103F300080E0F6CFEEEEF4E0408151816281738142
:103F4000480F511D611D711D40835183628373832E
:103F50000895CF93C091ED044C2F50E06091EE0492
:103F60007091EF0401960E9455448C2FE3DF10926C
:103F7000ED04CF910895009799F48091EE0490910B
:103F8000EF042FEFFB012083892B59F02091ED04E2
:103F900030E02F5F3F4F2417350719F4CB01D9CFFD
:103FA00063CC0895009799F48091EE049091EF040A
:103FB0002FEFFB012083892B59F02091ED0430E095
:103FC0002F5F3F4F2417350719F4CB01C2CF4CCCDC
:103FD000089523E1AC01249FC001259F900D112479
:103FE000E091F704F091F804E80FF91F2381348180
:103FF0002250310981E02230310508F080E0089537
:104000000F931F93CF93DF930091F9041091FA045B
:10401000D0E0C0E080E00C171D0749F491E0811169
:1040200090E0892FDF91CF911F910F910895811119
:10403000F5CFCE01CEDF2196EECFA091F704B0915F
:10404000F804109729F12091F9043091FA048217AD
:104050009307F0F453E1589F9001599F300D1124BC
:10406000A20FB31FED91FC911197309789F0129632
:104070008C91681768F48BE0689FE00DF11D1124A6
:1040800080819181892B21F081E09281491708F08C
:1040900080E008959C0143E1429FC001439F900D41
:1040A0001124E091F704F091F804E80FF91F8385DB
:1040B000823091F481E090E065817681409129031E
:1040C00050912A036417750711F490E080E0892B62
:1040D00019F081E0232B09F080E00895EF92FF9220
:1040E0000F931F93CF93DF93EA01FC01E60FF71FB5
:1040F00002811381E480F5804F2D6E2DC8019DDF74
:1041000081110DC082E090E0998388838EEF9FEF4C
:10411000DF91CF911F910F91FF90EF900895C8010B
:1041200058DF882339F082E090E09983888388EF14
:104130009FEFEECF1093300300932F03E0923103F3
:10414000F092320381E090E09983888390E080E0F0
:10415000DFCFCF92DF92EF92FF920F931F93CF9317
:10416000DF937A01EC01C60FD71FC0902F03D090C8
:1041700030030091310310913203412F602FC601AB
:104180005CDF811110C082E090E0F70191838083B1
:104190008AEF9FEFDF91CF911F910F91FF90EF90EA
:1041A000DF90CF900895C60114DF882341F082E0AC
:1041B00090E0F7019183808388EF9FEFEBCF4C81F4
:1041C0005D816E817F819A8189818F3F41F082E09C
:1041D00090E0F701918380838EEF9FEFDBCFE3E1E7
:1041E000EC9D9001ED9D300D1124E091F704F091CC
:1041F000F804E20FF31F0190F081E02D2BE0029F05
:10420000E00DF11D11240190F081E02D27E0129FB7
:10421000E00DF11D1124808391838B818283438380
:104220005483658376831F5F1093320381E090E0AF
:10423000F7019183808390E080E0ACCFEF92FF9212
:104240000F931F93CF93DF937A018C01060F171FF3
:10425000C091F704D091F804209781F021E030E07C
:10426000F801828193814091F9045091FA048417F6
:10427000950710F030E020E0232B71F482E090E00D
:10428000F701918380838EEF9FEFDF91CF911F9194
:104290000F91FF90EF90089543E1489F9001499F4F
:1042A000300D1124C20FD31F94DE882341F082E029
:1042B00090E0F7019183808388EF9FEFE6CFF801CC
:1042C0002481358120383105C8F687818111D6CF08
:1042D0004181842F90E08F7E009741F082E090E052
:1042E000F7019183808386EF9FEFCFCF4F833E838B
:1042F0002D83268128871986223010F421E0288713
:1043000021E030E0F70131832083BFCF88E090E0E7
:10431000FA019183808390E080E00895FB018FEFA4
:10432000808381E181838FEF9FEF9383828380E895
:1043300090E095838483168217820895FB018FEFA6
:10434000808391E0918382839383848384E3858354
:1043500081E090E0978386830895DF92EF92FF9249
:104360000F931F93CF93DF93EA01FC01E60FF71F32
:104370008181813071F082E090E0998388838FEFB2
:104380009FEFDF91CF911F910F91FF90EF90DF9002
:10439000089582819381D4802581E680F780009101
:1043A000F7041091F8040115110539F482E090E04A
:1043B000998388838CEF9FEFE4CF4091F90450916B
:1043C000FA048417950738F082E090E09983888397
:1043D0008EEF9FEFD6CF892B39F082E090E0998362
:1043E000888386EF9FEFCDCF8D2D8D7FB1F7213064
:1043F000A1F781E0D11006C091E0E916F10431F097
:1044000080E004C0E2E0EE16F104D0F3882329F343
:1044100090E080E0DEDD882339F082E090E099834F
:10442000888388EF9FEFADCFF801D38681E0848742
:10443000F686E586108A178681E090E09983888366
:1044400090E080E09ECF4CE050E066E973E073CAF4
:104450008F929F92BF92CF92DF92EF92FF920F9333
:104460001F93CF93DF93EA01FC01E60FF71F8281D0
:1044700093810481B580E091F704F091F8043097BE
:1044800091F482E090E0998388838CEF9FEFDF9135
:10449000CF911F910F91FF90EF90DF90CF90BF9041
:1044A0009F908F9008952091F9043091FA0482171B
:1044B000930738F082E090E0998388838EEF9FEF36
:1044C000E6CF23E1289F6001299FD00C1124EC0D39
:1044D000FD1DE080F180E114F10499F2828108175A
:1044E00048F78BE0089F80011124E00EF11EF701D0
:1044F00080819181892B29F6BB20E1F2F7E0BF9EF4
:1045000040011124C4010E94772EF701918380831A
:10451000E091F704F091F804EC0DFD1D0190F0819D
:10452000E02DE00FF11F80819181009739F482E046
:1045300090E0998388838DEF9FEFA9CFA40170E06D
:1045400060E00E945E448091F7049091F804C80EE8
:10455000D91EF60180819181080F191FF801B282DE
:1045600081E090E09983888390E080E090CFAF92E3
:10457000BF92CF92DF92FF920F931F93CF93DF935F
:10458000EA01FC01E60FF71F82819381F48000911C
:10459000F7041091F8040115110581F482E090E010
:1045A000998388838CEF9FEFDF91CF911F910F91BB
:1045B000FF90DF90CF90BF90AF9008952091F904C5
:1045C0003091FA048217930738F082E090E09983E3
:1045D00088838EEF9FEFE8CF2FEF2F0D2C3FA8F7AA
:1045E00023E1289F6001299FD00C11240C0D1D1D73
:1045F000F80180819181892B89F6FBE0FF9E5001B3
:104600001124C5010E94772EF80191838083E091E7
:10461000F704F091F804EC0DFD1D80819181009765
:1046200039F482E090E0998388838DEF9FEFBCCFCF
:10463000A50170E060E00E945E44E091F704F09113
:10464000F804EC0DFD1DF28281E090E099838883EF
:1046500090E080E0A9CFCF92DF92EF92FF920F938C
:104660001F93CF93DF93860F971FFC010281138165
:104670008091F7049091F804892B81F082E090E01A
:10468000FA01918380838CEF9FEFDF91CF911F918F
:104690000F91FF90EF90DF90CF900895C801B0E0A8
:1046A000A0E00197A109B1098F3F9F4FA105B10576
:1046B00040F082E090E0FA01918380838EEF9FEFDB
:1046C000E4CF7A0183E1809F6001819FD00C1124A7
:1046D000C6010E94772EEC01009741F482E090E041
:1046E000F701918380838DEF9FEFCFCFA60170E01C
:1046F00060E00E945E44D093F804C093F7041093E6
:10470000FA040093F90490E080E02FEF3FEF41E0DE
:1047100061E070E08017910741F481E090E0F701DB
:104720009183808390E080E0B0CF3A8B298B1B8609
:104730004C877E876D87188A1F8601966396EACF1D
:10474000CF92DF92EF92FF920F931F93CF93DF935D
:10475000EC01D12CC12C10E000E0F12CE12C6A819D
:104760006017110609F0CCF483E0689FB0011124B2
:10477000AE014F5E5F4FC7010E94DC2E009721F013
:104780002FEF3FEF3A8B298BDF91CF911F910F9144
:10479000FF90EF90DF90CF900895E881F981EC0DC4
:1047A000FD1D438154818D859E85489F9001499FC1
:1047B000300D589F300D1124C901019601151105C6
:1047C00019F44F8144FD049661E070E00E94242DAD
:1047D000E816F90608F47C010F5F1F4F8BE0C80E46
:1047E000D11CBDCFF8942091F5043091F60481E0FE
:1047F0002115310509F080E0232B09F07894089504
:104800002F923F924F925F926F927F928F929F92E0
:10481000AF92BF92CF92DF92EF92FF920F931F93CE
:10482000CF93DF933C01660E771EF3018281938163
:104830004C01B12CA12CC091F704D091F804209721
:1048400069F021E030E06091F9047091FA04861774
:10485000970710F030E020E0232BD1F482E090E0C5
:10486000FA01918380838EEF9FEFDF91CF911F91AB
:104870000F91FF90EF90DF90CF90BF90AF909F90FF
:104880008F907F906F905F904F903F902F90089502
:104890008092330390923403A0923503B092360392
:1048A00063E1689F9001699F300D1124C20FD31FEF
:1048B000F3018181833040F082E090E0FA0191833E
:1048C000808386EF9FEFD1CF2A012B813C81232B60
:1048D000F1F4288139819F8191FF2EC0232B09F4A7
:1048E0006FC02091FC049A81422F490F5527551F14
:1048F000BA0141E050E06138710514F050E040E049
:10490000452B09F45DC02A87920F9093FC048150D7
:10491000823008F481C066DF882309F4D8C0F3012F
:104920008181813009F48DC008F47BC0823009F4A4
:10493000C6C090E080E0ADC0232B09F441C02091B7
:10494000FB049A81E22FE90FFF27FF1F41E050E0AF
:10495000ED3FF10514F050E040E0452B89F12A8746
:10496000920F9093FB04D3CFA081B181A20FB31F0C
:1049700011966C91060F111D0196295F3F4F841708
:10498000950794F38D859E85089F1001099F300C33
:10499000189F300C1124C114D104D1F48F8184FFED
:1049A00017C00E94722DF5E02F0E311C21E08215F8
:1049B000930508F420E0A701455F5F4F21110EC069
:1049C00082E090E0F2019183808387EF9FEF4DCFEB
:1049D0000E94722D2FEF221A320AE8CF8881998126
:1049E000E80EF91EF70114830383FFEFCF1ADF0AE5
:1049F0007A018A818C151D0409F00CF48CCFE881B2
:104A0000F981EE0DFF1D428150E030E020E010E022
:104A100000E090E080E0B3CFF12CE12CD12CC12C50
:104A2000E8CF81E090E09C838B83EADA882309F465
:104A300080CF81E090E00E947D1C80E40E948B1C6E
:104A400078CF89899A89019661F083E090E09C8310
:104A50008B8382E090E00E947D1C80E40E94851C94
:104A600068CF8D819E812091290330912A0382177E
:104A70009307D1F460912D0370912E03AE014F5E28
:104A80005F4F80912B0390912C030E94FB2F009786
:104A9000E1F2789422E030E0F20131832083892B27
:104AA00099F08DEF9FEFE1CE89288A288B2869F64F
:104AB000892B59F6CE0144DE188A1F86E8CF82E0A2
:104AC00090E09C838B8335CF90E080E0CECE82E077
:104AD00090E0F2019183808385EF9FEFC6CE8F92A5
:104AE0009F92AF92BF92CF92DF92EF92FF920F937D
:104AF0001F93CF93DF93EA018C01060F171FF80174
:104B00008181833098F082E090E09983888386EFFA
:104B10009FEFDF91CF911F910F91FF90EF90DF906A
:104B2000CF90BF90AF909F908F9008958091F704A1
:104B30009091F804892B61F081E090E02091F904D4
:104B40003091FA04232B11F490E080E0892B39F4A2
:104B500082E090E0998388838EEF9FEFDACF42DE88
:104B6000882309F4DFC0F8018181813009F495C000
:104B7000E8F0823099F42091F9043091FA04E09140
:104B8000F704F091F80490E080E041E050E028174D
:104B9000390709F0BDC034DA811117C0789481E07B
:104BA00090E09983888390E080E0B3CF2091F9046E
:104BB0003091FA04E091F704F091F80490E080E07D
:104BC00041E050E02817390741F481E090E00E946D
:104BD0007D1C80E40E948B1CE1CF63817481672B74
:104BE00011F05483438301967396ECCFE091F70460
:104BF000F091F804E00FF11F238134812230310558
:104C0000D9F4218932892F3F3F4FB1F42581368174
:104C10004091290350912A032417350761F5AF010C
:104C20004F5E5F4F60912D0370912E0380912B0397
:104C300090912C030E94FB2FEFEFCE1ADE0AEE0AB2
:104C4000FE0A0D5E1F4F4091F9045091FA0470E086
:104C500060E0C416D506E606F7063CF5009731F28B
:104C60007894892B09F49BCF82E090E09983888324
:104C70008DEF9FEF4ECFC114D104E104F104E1F6B2
:104C8000232BD1F6CF015CDDE091F704F091F8041D
:104C9000E00FF11F108A1786CFCF10E000E090E000
:104CA00080E0C12CD12C7601CECF0097C9F610E060
:104CB00000E0812C912C540183E0E82EF12C1AC0E5
:104CC000E091F704F091F804E00FF11F83819481E3
:104CD000029749F4F482E38282E090E00E947D1C16
:104CE00080E40E94851CFFEF8F1A9F0AAF0ABF0A5B
:104CF0000D5E1F4F8091F9049091FA04B0E0A0E09E
:104D000088169906AA06BB06DCF290E080E0A8CFE0
:104D1000638174816230710511F454834383019679
:104D2000739635CF82E090E09983888385EF9FEF7B
:104D3000F0CE0097B9F48FEFFB018083209133030D
:104D40003091340343E1429FC001439F900D1124F1
:104D5000E091F704F091F804E80FF91F8285FB0158
:104D6000818308950C94341C88E090E0FA019183CB
:104D7000808390E080E008951092F6041092F5048C
:104D8000E7EFF4E086E0DF011D928A95E9F783E220
:104D900092E29093F4048093F30408958091F304D5
:104DA0009091F40408952F923F924F925F926F92E8
:104DB0007F928F929F92AF92BF92CF92DF92EF92AB
:104DC000FF920F931F93CF93DF93CDB7DEB760971A
:104DD0000FB6F894DEBF0FBECDBFF894E091F50496
:104DE000F091F6043196F093F604E093F50478948C
:104DF000A091F704B091F804BA83A983109709F43D
:104E0000FAC1E091F904F091FA04EF2B09F4F3C12F
:104E100028874B875C876D877E879A878987B88BC1
:104E2000AF87312C212CF12C512C412C8091F9048D
:104E30009091FA042816390610F4FF2029F1F8940D
:104E40008091F5049091F60401979093F604809375
:104E5000F5047894C20160960FB6F894DEBF0FBED9
:104E6000CDBFDF91CF911F910F91FF90EF90DF9019
:104E7000CF90BF90AF909F908F907F906F905F90FA
:104E80004F903F902F900895B10190E080E088D43A
:104E9000682EEF85F889878181FD3DC083819481EB
:104EA0000397C9F5258136813C832B8389859A85B3
:104EB0002817390781F5C101EDD8782E8823A9F18B
:104EC000AF85B8891F968D919C915097019621E0EE
:104ED0001D964D915C918417950709F020E02F8372
:104EE000B12CA12CEF85F88982818A151B0419F059
:104EF00014F0FF20E9F0F885FF2309F46CC1AF85B9
:104F0000B88950961C921E921F97662021F0B1011D
:104F100090E080E047D4FFEF2F1A3F0A2F853889B1
:104F20002D5E3F4F388B2F8781CFB1E0BF83D8CF25
:104F3000C0D49E838D83E885EE23E9F0772009F4C1
:104F40003CC1AF85B8891F968D919C91892B79F0D2
:104F5000BBE0BA9DC001BB9D900D1124AF85B889FF
:104F6000ED91FC91E80FF91F85819681F9D6BFEF8D
:104F7000AB1ABB0AB7CF81E0772039F0EF85F8890B
:104F800027853089232B09F080E0F82EE12CA1142D
:104F9000B10439F4AF85B8891796EC90E4FAEE24A1
:104FA000E0F8BBE0BA9D6001BB9DD00C11248823C2
:104FB00009F424C1AF85B889ED91FC911197EC0DEE
:104FC000FD1D438154811D962D913C91429FC0014E
:104FD000439F900D529F900D1124E1105DC00196EA
:104FE0009087878361E070E0878190852DD5EF857C
:104FF000F88921893289008111810C0D1D1D2F3FF7
:10500000320709F44BC0BC01C9010E943C30D801F1
:1050100016969C938E931597AF85B889ED91FC9168
:105020001197EC0DFD1D058116810115110509F47F
:10503000CDC0ED81FE810E0F1F1F1A968C918A0D37
:10504000D8018C93E1102FC00F5F1F4FAF85B88937
:10505000ED91FC91EC0DFD1D12870187AF85B8899C
:10506000ED91FC91EC0DFD1D85819681892B09F454
:10507000A4C08091290390912A032B813C81281799
:10508000390709F465C0772011F001851285912C4C
:10509000812C1A8219824AC00596A2CF28D6F8011F
:1050A00096838583B9CF8B859C85AD85BE85F801B8
:1050B00081839283A383B4830B5F1F4FC7CFE080AC
:1050C000F180E80CF91CD70113966D917C9114972F
:1050D0008C918F3F09F473C0E1E0F0E002C0EE0F65
:1050E000FF1F8A95E2F7CF01092E000CAA0BBB0B1C
:1050F000FB01408151816281738184239523A62322
:10510000B72321E0892B8A2B8B2B09F420E0D801CF
:105110002C93D70111968C91080F111DE981FA810A
:105120003196FA83E983F7E08F0E911CAF85B88939
:10513000ED91FC91EC0DFD1D828129813A81821750
:10514000130611F00CF0BBCF772011F01287018706
:105150003F81332391F1AF85B889ED91FC91EC0D3E
:10516000FD1D61E070E0878190856ED4AF85B889C0
:10517000ED91FC91EC0DFD1DE780F0844581568199
:10518000E1E0F0E0662011F0F0E0E0E00D811E814A
:105190009C01B101882799278E1B9F0B8DD32C0171
:1051A000892B59F0EF85F88980819181C80ED91E2D
:1051B000D60115968D919C91D3D5F12CD8CEF701BF
:1051C000418150E0C8010E945544A3CF86EF482E8C
:1051D00055245A94CCCEEF85F8898785908901961D
:1051E000908B8787258536858217930709F08DCEAA
:1051F000108A17868ACE512C412C21CE10E000E077
:105200002DCF2F923F924F925F926F927F928F920B
:105210009F92AF92BF92CF92DF92EF92FF920F9345
:105220001F93CF93DF938091F7049091F80410E0DF
:1052300000E0892BA9F0D6DA0AEF1FEF882381F06E
:105240002090F9043090FA04C091F704D091F8044A
:10525000D12CC12C10E000E02C143D04A9F478946A
:10526000C801DF91CF911F910F91FF90EF90DF90D8
:10527000CF90BF90AF909F908F907F906F905F90F6
:105280004F903F902F900895C6010E944A20882396
:1052900009F18B819C810397E9F48F859889892B8B
:1052A000C9F0B60190E080E07BD221E030E08823B5
:1052B00011F030E020E044245524421A530AB12C66
:1052C000A12C912C812C8A818815190409F038F4BD
:1052D000188A1F864FEFC41AD40A6396BDCFE8819F
:1052E000F981EA0DFB1D85819681892BA1F161E091
:1052F00070E087819085A8D33C01DBD28C01E881E6
:10530000F981EA0DFB1D8185928525813681200F6B
:10531000311FAC01421B530B9A0147815085421B40
:10532000530B70E060E00E945E44E881F981EA0D71
:10533000FB1DE780F084458156819301B601C201CF
:10534000BBD28C01892B39F0E881F981EA0DFB1D74
:105350008581968105D55FEF851A950A8BE0A80EA9
:10536000B11CB1CF3FCA789408952F923F924F92CB
:105370005F926F927F929F92AF92BF92CF92DF9295
:10538000EF92FF920F931F93CF93DF9300D000D043
:10539000CDB7DEB70091F7041091F80499249394E7
:1053A0000115110509F43EC0A090F904B090FA046B
:1053B00019DA982E8823B1F11092F8041092F704AC
:1053C0001092FA041092F9041092FB041092FC045B
:1053D0008FEF9FEFDC018093330390933403A0930E
:1053E0003503B093360378947FD31E830D83C12C8D
:1053F000D12C7601C501B0E0A0E089839A83AB830C
:10540000BC8322242A94322C89819A81AB81BC816D
:10541000C816D906EA06FB06F4F0C801A1D480E458
:105420000E948B1C892D26960FB6F894DEBF0FBE06
:10543000CDBFDF91CF911F910F91FF90EF90DF9043
:10544000CF90BF90AF909F907F906F905F904F9064
:105450003F902F900895AD81BE8115968D919C91BE
:1054600016972091290330912A0382179307D1F4CC
:1054700051968D919C91EED5ED81FE818081918137
:10548000B12CA12C412C512C3201892B89F5BFEF75
:10549000CB1ADB0AEB0AFB0AED81FE817396FE83D1
:1054A000ED83B2CFC114D104E104F10429F7892BB3
:1054B00019F7ED81FE81818992898F3F980709F064
:1054C00029D5AD81BE8152963C922E925197D4CF70
:1054D0008A0D9B1DDC018D919C91009709F040D4B1
:1054E000BFEF4B1A5B0A6B0A7B0AEBE0AE0EB11CF6
:1054F000AD81BE818D919C91119712964C9150E097
:1055000070E060E044165506660677060CF328D472
:10551000BECFCF93DF93EA0128DF811109C082E07B
:1055200090E09983888385EF9FEFDF91CF91089575
:1055300081E090E00E947D1C81E090E09983888367
:1055400090E080E0F2CF11DF1092F4041092F304A7
:10555000089542E050E06EED73E00C949B1CFF92C6
:105560000F931F93CF93DF938A01EC01C60FD71FD0
:10557000F980B9D20897F816190671F068F082E040
:1055800090E0F801918380838EEF9FEFDF91CF91C0
:105590001F910F91FF9008956C817D818E819F8175
:1055A0004B810E94301F811108C082E090E0F80119
:1055B0009183808384EF9FEFE9CFF9800E942B1FB6
:1055C0004F2D50E0BE01685F7F4F0E945544898196
:1055D0000E949A1F81E090E0F8019183808390E01F
:1055E00080E0D4CFDF92EF92FF920F931F93CF937F
:1055F000DF938A01EC01C60FD71F0E942B1F7C018D
:10560000D98071D2DD2059F0029721E030E0D81620
:10561000190619F010F030E020E0232B79F482E035
:1056200090E0F801918380838EEF9FEFDF91CF911F
:105630001F910F91FF90EF90DF900895EF2841F4B4
:1056400082E090E0F8019183808384EF9FEFEECFBA
:10565000F9800E942B1F4F2D50E0BE016E5F7F4FDF
:105660000E94554489810E949A1F81E090E0F801D0
:105670009183808390E080E0D9CF89EA9AE2909389
:10568000FE048093FD0408958091FD049091FE0432
:1056900008950895FC0111821082938382830895F6
:1056A000DB011D921C92DC011296ED91FC91139787
:1056B0007183608313967C936E9312970895FC0117
:1056C00080819181DB018D939C93A081B1811097A2
:1056D00041F08D919C9191838083892B11F4F38308
:1056E000E2830895FC0180819181DB018D939C937D
:1056F000892B11F473836283718360830895FC01A5
:1057000011821082938382830895CF93DF931F9237
:105710001F92CDB7DEB71A821982F894BE016F5F6F
:105720007F4F84E095E0CBDF89819A81009709F073
:1057300017D389819A81892B89F7BE016F5F7F4FCB
:1057400088E095E0BCDF89819A81009709F008D351
:1057500089819A81892B89F778940F900F90DF9136
:10576000CF910895CF93DF931F921F92CDB7DEB7ED
:105770001A821982F894BE016F5F7F4F80E095E036
:105780009EDF89819A81009709F0EAD289819A8106
:10579000892B89F778940F900F90DF91CF9108951E
:1057A00081E0089590E080E00895EF92FF920F93DA
:1057B0001F93CF93DF931F921F92CDB7DEB71A824C
:1057C00019828091FF0407EF1FEF8823A1F1F8945D
:1057D000BE016F5F7F4F88E095E071DF789489812B
:1057E0009A81EE24E394F12C892B51F4F894BE01B4
:1057F0006F5F7F4F84E095E062DF7894F12CE12CBD
:1058000089819A810EEF1FEF0097A9F0FC01428178
:10581000538164E070E076D68C01892B61F0F894B6
:1058200069817A81C701880F991F880F991F8C5F42
:105830009A4F58DF7894C8010F900F90DF91CF9165
:105840001F910F91FF90EF9008950F931F93CF93A7
:10585000DF9300D01F92CDB7DEB71C821B821A8265
:1058600019828091FF0407EF1FEF8823C1F0AE017A
:105870004D5F5F4F64E070E0CE010196B6D68C01BB
:10588000892B69F4E981FA818B819C8193838283DE
:10589000F89469817A8180E095E002DF7894C8010C
:1058A0000F900F900F900F90DF91CF911F910F915C
:1058B0000895BBD7049608958F929F92AF92BF929E
:1058C000CF92DF92EF92FF920F931F93CF93DF93CC
:1058D0001F921F92CDB7DEB71A821982BC016F5F8B
:1058E0007F4F6330710598F0AA24AA94BA2CC501A1
:1058F0000F900F90DF91CF911F910F91FF90EF903C
:10590000DF90CF90BF90AF909F908F9008954115FA
:10591000510551F3480159018A016C01CADF88150C
:10592000990511F7E114F104F9F28E0D9F1DA816E7
:10593000B906D0F28091FF048823F1F0F894B50104
:10594000645071099701AE014F5F5F4FC801049623
:10595000E1D65C01892B71F489819A81F8019383E6
:105960008283C601880F991F880F991FB8018C5F29
:105970009A4F96DE7894BBCF87EFA82EBB24BA94BB
:10598000B6CFAF92BF92CF92DF92EF92FF920F937A
:105990001F93CF93DF931F921F92CDB7DEB71A826A
:1059A0001982892B09F047C06115710509F443C0BC
:1059B0004115510509F43FC02115310509F43BC0DB
:1059C00001151105C1F18091FF048823B9F1790116
:1059D0006A015B01F894BE016F5F7F4F80E095E044
:1059E0006EDE789489819A81009759F1DC011296D4
:1059F0006D917C91A8010496A6D68C01E981FA816B
:105A0000D501ED93FC93828193810496F6019183F5
:105A100080834FDFD7018D939C93C8010F900F9027
:105A2000DF91CF911F910F91FF90EF90DF90CF907A
:105A3000BF90AF9008950FEF1FEFEFCF07EF1FEF6D
:105A4000ECCF0EEF1FEFE9CFCF93DF93EC01672B85
:105A500071F4F4D68C179D0760F0E7D62496C80F32
:105A6000D91FE6D68C0F9D1FDF91CF910895E3D605
:105A7000F1CF90E080E0F8CF0F931F93CF93DF93A7
:105A80002091FF0421112BC08B01EC0184E095E0F3
:105A900001DE88E095E0FEDD80E095E0FBDD97D05B
:105AA0000097C1F4CBD670E060E0CEDF47E353E06F
:105AB00062E070E081D1009769F4809137039091A2
:105AC0003803CED6B801CE0103D5009719F421E0F2
:105AD0002093FF04DF91CF911F910F91089584EFE0
