:100000002CC100000C941A400C9445400C94704094
:100010000C949B400C94C6400C94F1400C941C41F1
:100020000C9447414BC1000049C1000047C100008A
:1000300045C1000043C1000041C100003FC10000B4
:100040003DC100003BC1000039C1000037C10000C4
:1000500035C1000033C1000031C100000C94724171
:100060002DC100000C949D450C94D34527C1000080
:1000700025C1000023C1000021C100001FC10000F4
:100080001DC100001BC1000019C1000017C1000004
:100090000C9429460C945F4611C100000C94623107
:1000A0000DC100000BC1000009C1000007C1000024
:1000B00005C1000003C1000001C10000FFC0000035
:1000C000FDC00000FBC000000C94903A0C94B546B3
:1000D0000C94EB46F3C000000C9441470C94774716
:1000E000EDC00000084AD73B3BCE016E84BCBFFD8B
:1000F000C12F3D6C74319ABD56833DDA3D00C77FF8
:1001000011BED9E4BB4C3E916BAAAABE0000008090
:100110003F05A84CCDB2D44EB93836A9020C50B91F
:10012000918688083CA6AAAA2ABE000000803F004B
:1001300000000A0B02090C0D0E0807030401000061
:1001400000000000000000000000000000000000AF
:10015000000000000000000000000000121110006C
:10016000000000000000000000000000000000008F
:1001700000000000000001021020200808102040AC
:10018000102040800201020108040201010204085B
:1001900010204080804020100804020180040201E9
:1001A0008040201008040201080402010102040832
:1001B000102040800102040810204080050505053C
:1001C000070508080808020202020A0A08080404CF
:1001D00004040101010101010101030303030303FD
:1001E0000303040707070C0C0C0C0C0C0C0C02028C
:1001F000020206060606060606060B0B0B0B0B0B89
:100200000B0B000020002300260029002C002F00EB
:100210003200000100000301060109010000220074
:10022000250028002B002E003100340002010000C0
:10023000050108010B0100002100240027002A000D
:100240002D003000330001010000040107010A0104
:10025000553AFC4588461447A04711241FBECFEFEE
:10026000D1E2DEBFCDBF00E00CBF1DE0A0E0B2E0F8
:10027000EEE9F0E900E00BBF02C007900D92A43751
:10028000B107D9F72CE1A4E7BDE001C01D92A93F59
:10029000B207E1F711E0CDE2D1E000E006C021971E
:1002A0000109802FFE010E942C48C832D10780E04E
:1002B0000807A9F70E94343B0C944D48A1CECF9378
:1002C000DF93882349F0EB0181500E948542998396
:1002D0008883DF91CF910895FB0111821082F9CFBD
:1002E0000F931F938B019C0183E0369527951795FB
:1002F00007958A95D1F70358124F462F477021E092
:1003000030E0F90102C0EE0FFF1F4A95E2F7AF019E
:10031000F80120812423CB010196211102C090E035
:1003200080E01F910F9108950F931F938B019C0103
:1003300083E036952795179507958A95D1F76770CD
:1003400081E090E001C0880F6A95EAF7F801E35870
:10035000F24F2081452B31F48095822380831F91B9
:100360000F910895822BFACFCF92DF92EF92FF92F6
:10037000CF93DF936B017C0160E086E3C816D10464
:10038000E104F10490F486E38C0D0E94E243E6015F
:100390002196AE01C701B601C7DFCE01DF91CF9133
:1003A000FF90EF90DF90CF9008958C2DEECF8823B3
:1003B00041F08150682F70E090E080E050E040E034
:1003C000B3CF0895611102C00C94E2436130E1F3B0
:1003D00062E0FACF662319F061E00C941E4460E0FD
:1003E000FCCFCF92DF92EF92FF92CF93882351F10F
:1003F0006A017B01CFEFC80F20E030E0A901CB01FB
:10040000B6010E94473C87FF11C0C701B601905852
:100410000E94BB3C9B01AC016C2F70E090E080E03F
:10042000CF91FF90EF90DF90CF90B2C0C701B6019F
:100430000E94B63C8C2FCF91FF90EF90DF90CF9031
:100440000C94A842CF91FF90EF90DF90CF90089549
:100450000F931F938B019C0183E036952795179589
:1004600007958A95D1F70C58124F462F477021E017
:1004700030E0F90102C0EE0FFF1F4A95E2F7AF012D
:10048000F80120812423CB010196211102C090E0C4
:1004900080E01F910F9108950F931F938B019C0192
:1004A00083E036952795179507958A95D1F767705C
:1004B00081E090E001C0880F6A95EAF7F801EC58F6
:1004C000F24F2081452B31F48095822380831F9148
:1004D0000F910895822BFACF2F923F924F925F9205
:1004E0006F927F928F929F92AF92BF92CF92DF9244
:1004F000EF92FF920F931F93CF93DF93D62EC72EC9
:10050000782E692E49015A01280161E08D2D0E9443
:10051000E243CD2DDC2D8E010F5F1F4FA8016D2D05
:100520007C2D872D962DB8DF20E030E0A901C20197
:10053000B7010E94983E181664F4C201B7010E94E8
:10054000BB3C2B01C501B4010E94BB3CA201CE0102
:1005500023D0C801DF91CF911F910F91FF90EF90B1
:10056000DF90CF90BF90AF909F908F907F906F90D3
:100570005F904F903F902F900895882341F08150D5
:10058000682F70E090E080E050E040E085CF089573
:10059000862FB9010C94A8429C01FC01E05DFE4F3E
:1005A000E491E150E231E0F4F0E08827E552FD4FBC
:1005B0008F4F0C942C48ED02F402F7020E03230334
:1005C000F0023803440348035F0374038903A00364
:1005D000B503F002CA03E103F60384B5806884BD65
:1005E00060E0822F0C941E4484B58062F8CF809125
:1005F00080008C7F82608093800080918100807E6B
:100600008061682B6093810050938700409386003F
:1006100080918000806880938000E2CF809180008C
:100620008C7F82608093800080918100807E8061D9
:10063000682B6093810050938700409386008091DF
:1006400080008062E8CF809180008C7F8260809300
:10065000800080918100807E8061682B60938100A2
:100660005093870040938600809180008860D3CFAC
:100670008091B00080688093B0008091B100887F45
:10068000682B6093B100ACCF8091B0008062F3CF53
:10069000809190008C7F8260809390008091910087
:1006A000807E8061682B6093910050939700409307
:1006B00096008091900080688093900091CF809107
:1006C00090008C7F82608093900080919100807E6A
:1006D0008061682B6093910050939700409396003F
:1006E000809190008062E8CF809190008C7F826042
:1006F0008093900080919100807E8061682B609350
:1007000091005093970040939600809190008860EC
:10071000D3CF8091A0008C7F82608093A0008091D5
:10072000A100807E8061682B6093A1005093A70098
:100730004093A6008091A00080688093A00050CFD5
:100740008091A0008C7F82608093A0008091A100A6
:10075000807E8061682B6093A1005093A700409336
:10076000A6008091A0008062E8CF8091A0008C7FDD
:1007700082608093A0008091A100807E8061682BC0
:100780006093A1005093A7004093A6008091A00021
:100790008860D3CF809120018C7F8260809320017C
:1007A00080912101807E8061682B609321015093AC
:1007B00027014093260180912001806880932001C9
:1007C0000FCF809120018C7F8260809320018091E7
:1007D0002101807E8061682B609321015093270165
:1007E00040932601809120018062E8CF8091200112
:1007F0008C7F82608093200180912101807E8061C6
:10080000682B60932101509327014093260180912A
:1008100020018860D3CF2F923F924F925F926F92C8
:100820007F928F929F92AF92BF92CF92DF92EF9280
:10083000FF920F931F93CF93DF93809111129091AA
:100840001212A0911312B091141284309105A105D7
:10085000B10509F068C0609115127091161280916F
:100860001712909118122DE133EF41E050E00E94F1
:100870000A4849015A019B01AC01A7EAB1E40E9470
:1008800043486B017C01A4E1BBE0A50194010E94F7
:100890004348C616D706E806F906C0F56C197D0967
:1008A0008E099F0960957095809590959F776093CC
:1008B000151270931612809317129093181260916C
:1008C00015127091161280911712909118120E94B1
:1008D000E73C20E030E040E050E30E94D93E4B018D
:1008E0005C01C501B401DF91CF911F910F91FF9081
:1008F000EF90DF90CF90BF90AF909F908F907F90C0
:100900006F905F904F903F902F900895C61AD70A2E
:10091000E80AF90AC0921512D0921612E092171244
:10092000F0921812CCCF0597A105B10509F4DDC1ED
:100930001DEA212E15E1312E0DED1BE181E7482E38
:1009400085E1582E612C712CEFEBFCE1C090E11B8E
:10095000D090E21BE090E31BF090E41B2FEFC21A53
:10096000D20AE20AF20A61E7C61662E0D606E1049C
:10097000F10408F4C0C081E292E1DC0114962D91EB
:100980003D914D915C91179704965F77CD90DD90E6
:10099000ED90FC90CC24DD24EE24A0E8FA22C22ABB
:1009A000D32AE42AF52AB701A601769567955795CB
:1009B0004795B1E0CB22DD24CD2841F0CFED4C2787
:1009C000C0EB5C27C8E06C27C9E97C27EC012497C1
:1009D0009C01205D394FD901CD90DD90ED90FC90C8
:1009E0004C255D256E257F25488359836A837B834B
:1009F0002816390611F6ADEAB5E1CD90DD90ED90FF
:100A0000FC901397CC24DD24EE24C0E8FC2214963D
:100A10004D915D916D917C9117977F77C42AD52A6E
:100A2000E62AF72AB701A601769567955795479567
:100A3000D1E0CD22DD24CD2841F02FED422720EB5F
:100A4000522728E0622729E97227CD018C5893406C
:100A5000EC01C880D980EA80FB804C255D256E259D
:100A60007F254D935D936D937D930A171B0729F6A0
:100A70008091DD1B9091DE1BA091DF1BB091E01BEC
:100A800088279927AA27B0784091211250912212E5
:100A900060912312709124127F77842B952BA62BC3
:100AA000B72BAC01BD017695679557954795817039
:100AB0009927892B41F0DFED4D27D0EB5D27D8E05A
:100AC0006D27D9E97D278091511890915218A091F6
:100AD0005318B091541884279527A627B7278093D9
:100AE000DD1B9093DE1BA093DF1BB093E01BC12C9A
:100AF000D12C7601C394D601AF5ABF4FAA0FBB1FAA
:100B0000AA0FBB1FA752BF4E8D909D90AD90BC9079
:100B1000C092E11BD092E21BE092E31BF092E41B37
:100B2000B501A401DBE07695679557954795DA9571
:100B3000D1F784269526A626B726D501C40127E03D
:100B4000880F991FAA1FBB1F2A95D1F78078967529
:100B5000AC72BD7988269926AA26BB26D501C40188
:100B60003FE0880F991FAA1FBB1F3A95D1F788272E
:100B70009927A67CBF7E88259925AA25BB25AC018F
:100B8000BD01C2E17695679557954795CA95D1F70E
:100B900084279527A627B72781939193A193B19393
:100BA00087EC9CE18E179F0709F0D0CE6091BF1CA7
:100BB0007091C01C8091C11C9091C21CE5E096957B
:100BC000879577956795EA95D1F70E94E73C20E0F5
:100BD00030E040E85CE40E94D93E4B015C0160914A
:100BE000C31C7091C41C8091C51C9091C61CF6E07A
:100BF0009695879577956795FA95D1F70E94E73C8A
:100C00009B01AC01C501B4010E946E3B20E030E0C5
:100C100040E055E20E94D93E4B015C0120E030E00B
:100C2000A9010E94473C81115CCE91E0C91AD1080C
:100C3000E108F108A0E7CA16A2E0DA06E104F1042F
:100C400080F4E1E2F2E181919191A191B191892B3E
:100C50008A2B8B2B09F078CEC1EEDBE1CE17DF07B4
:100C600091F74092211250922212609223127092B8
:100C70002412E5E2F2E1C12CD12C7601C39481E784
:100C800095E1A0E0B0E09C01AD016EE1569547957D
:100C9000379527956A95D1F7282739274A275B2763
:100CA00065E679E887E09CE60E94FB47DC01CB0122
:100CB0008C0D9D1DAE1DBF1D81939193A193B1938A
:100CC000DFEFCD1ADD0AED0AFD0A20E7C21622E0A9
:100CD000D206E104F104B9F6C092E11BD092E21B06
:100CE000E092E31BF092E41B2FCE20911912309179
:100CF0001A1240911B1250911C126DEC7DE081E0A4
:100D000090E00E94FB47695779428D4E9F4F0091BA
:100D10001D1210911E1220911F1230912012680195
:100D20007901BDE0CC0CDD1CEE1CFF1CBA95D1F79F
:100D3000C026D126E226F32697018601C1E1369529
:100D4000279517950795CA95D1F7C026D126E22693
:100D5000F32697018601D5E0000F111F221F331FD4
:100D6000DA95D1F70C251D252E253F256093191204
:100D700070931A1280931B1290931C1200931D12F1
:100D800010931E1220931F1230932012600F711FB8
:100D9000821F931F0E94E73C20E030E040E85FE2C2
:100DA0009CCD4F925F926F927F928F929F92AF9263
:100DB000BF92CF92DF92EF92FF92CF93DF9300D05A
:100DC0001F92CDB7DEB79A8389831092B71C109219
:100DD000B81C1092B91C1092BA1CDC01CD90DD90A9
:100DE000ED90FC9046015701E894B7F820E030E020
:100DF000A901C501B4010E94983E18160CF06DC0FF
:100E00008092B71C9092B81CA092B91CB092BA1CE8
:100E1000C12CD12C80E8E82E8FE3F82EA981BA816D
:100E200014968D919D910D90BC91A02D89839A83EC
:100E3000AB83BC832C013D01E89477F88090B71C0C
:100E40009090B81CA090B91CB090BA1CA30192015C
:100E5000C501B4010E94473C87FF4DC0A301920128
:100E6000C501B4010E944E3C4B015C01AC019B01E9
:100E7000C701B6010E94D93EA50194010E94D93E46
:100E800020E030E040E85FE30E946E3B4092B71CF8
:100E90005092B81C6092B91C7092BA1C0E94463FD6
:100EA0002091B71C3091B81C4091B91C5091BA1CCC
:100EB0000E94D93E0F900F900F900F90DF91CF912D
:100EC000FF90EF90DF90CF90BF90AF909F908F906A
:100ED0007F906F905F904F90089520E030E0A901DF
:100EE000C701B6010E944E3C9B01AC010E94D93E55
:100EF0006B017C0193CFA501940169817A818B817B
:100F00009C810E944E3C9B01AC010E94D93EA701EE
:100F100096010E946E3BC2CF2F923F924F925F92FA
:100F20006F927F928F929F92AF92BF92CF92DF92F9
:100F3000EF92FF920F931F93CF93DF9300D000D0D7
:100F40001F921F92CDB7DEB798878F838B011A014E
:100F50003E832D83DC01CD90DD90ED90FC90FB0174
:100F600080809180A280B380A5019401C701B60161
:100F70000E94473C811112C0D80114962D913D91D9
:100F80004D915C911797EF81F88564817581868119
:100F900097810E94473C882309F4A7C1A7019601C5
:100FA000C501B4010E946D3B6B017C01C092AB1C7A
:100FB000D092AC1CE092AD1CF092AE1C8091151C3E
:100FC0009091161CA091171CB091181C89839A83CC
:100FD000AB83BC839C01AD01D8016D917D918D9156
:100FE0009C910E946D3BA70196010E94D93E2B0166
:100FF0003C014092AF1C5092B01C6092B11C7092A8
:10100000B21CA7019601C701B6010E94D93E4B014F
:101010005C018092B31C9092B41CA092B51CB0925B
:10102000B61CEF81F8852481358146815781D8012E
:1010300014966D917D918D919C9117970E946D3BB7
:101040006B017C01C092AB1CD092AC1CE092AD1C39
:10105000F092AE1C2091191C30911A1C40911B1C5F
:1010600050911C1CF80164817581868197810E94D2
:101070006D3BA70196010E94D93EA30192010E94F7
:101080006E3B2B013C01A7019601C701B6010E94EE
:10109000D93EA50194010E946E3B9B01AC01C301A6
:1010A000B2010E944E3C6B017C01C092AB1CD092FD
:1010B000AC1CE092AD1CF092AE1C20E030E040E8A9
:1010C0005FE30E94983E1816BCF0D8018D909D9069
:1010D000AD90BC9020E030E0A901C701B6010E94AC
:1010E000473C87FF93C08092AF1C9092B01CA092A7
:1010F000B11CB092B21C0EC0EF81F8858081918145
:10110000A281B3818093AF1C9093B01CA093B11CBB
:10111000B093B21C8090AF1C9090B01CA090B11CFA
:10112000B090B21CA501940169817A818B819C8168
:101130000E946D3B6093411C7093421C8093431C42
:101140009093441CD1018D929D92AD92BC921397C5
:1011500020E030E040E85FE3C701B6010E94983E1E
:1011600018160CF07AC0EF81F88584819581A681EC
:10117000B7818093AF1C9093B01CA093B11CB09327
:10118000B21CC090AF1CD090B01CE090B11CF0908D
:10119000B21CA70196016091191C70911A1C8091D4
:1011A0001B1C90911C1C0E946D3B6093451C70930E
:1011B000461C8093471C9093481CD1011496CD92F5
:1011C000DD92ED92FC92179781E49CE1EADDED81DE
:1011D000FE81608371838283938328960FB6F8948F
:1011E000DEBF0FBECDBFDF91CF911F910F91FF905A
:1011F000EF90DF90CF90BF90AF909F908F907F90B7
:101200006F905F904F903F902F900895EF81F885F9
:101210002081318142815381C701B6010E94D93EAC
:101220002B013C01A701960160E070E080E89FE39C
:101230000E946D3BA50194010E94D93E9B01AC0127
:10124000C301B2010E946E3B6093AF1C7093B01C4F
:101250008093B11C9093B21C5DCFD80114968D90F1
:101260009D90AD90BC90179720E030E0A901C70198
:10127000B6010E94473C87FF09C08092AF1C909244
:10128000B01CA092B11CB092B21C7BCFC090AB1C22
:10129000D090AC1CE090AD1CF090AE1CEF81F885B6
:1012A0002481358146815781C701B6010E94D93E0C
:1012B0002B013C01A701960160E070E080E89FE30C
:1012C0000E946D3BA50194010E94D93E9B01AC0197
:1012D000C301B2010E946E3B6093AF1C7093B01CBF
:1012E0008093B11C9093B21C4CCFD101CD92DD9272
:1012F000ED92FC921397EF81F88520813181428134
:1013000053816091151C7091161C8091171C90914F
:10131000181C0E946D3B6093411C7093421C80938B
:10132000431C9093441CEF81F88584819581A681AC
:10133000B781F10184839583A683B783AF81B88594
:1013400014962D913D914D915C9117976091191CC8
:1013500070911A1C80911B1C90911C1C0E946D3B6B
:101360006093451C7093461C8093471C9093481CC7
:101370002BCF2F923F924F925F926F927F928F92DC
:101380009F92AF92BF92CF92DF92EF92FF920F9314
:101390001F93CF93DF9300D01F92CDB7DEB78B01A1
:1013A0005C834B83FB01E150F04CEE0FFF1FEE0F0F
:1013B000FF1FE80FF91F408151816281738177FD22
:1013C00027C04C01B12CA12CC12CD12C7601A01628
:1013D000B10664F5F40161917191819191914F0190
:1013E0000E94E73C4B815C810E94A53E9B01AC01C1
:1013F000C701B6010E946E3B6B017C012B813C81D1
:10140000205E3F4F3C832B833FEFA31AB30ADFCF0D
:101410009A838983312C212C81E090E0A0E0B0E018
:10142000C12CD12C760120163106CCF0C701B601B3
:101430000F900F900F900F90DF91CF911F910F9110
:10144000FF90EF90DF90CF90BF90AF909F908F90E4
:101450007F906F905F904F903F902F900895E9811B
:10146000FA814190519061907190FA83E9834094A0
:1014700050946094709453014201880E991EAA1EE4
:10148000BB1EC501B4010E94E73C4B815C810E94F8
:10149000A53E9B01AC01C701B6010E946D3B6B01EB
:1014A0007C0181E084149504A604B70408F080E070
:1014B00090E0B0E0A0E02B813C81205E3F4F3C8378
:1014C0002B833FEF231A330AAECF2F923F924F92D6
:1014D0005F926F927F928F929F92AF92BF92CF92C4
:1014E000DF92EF92FF920F931F93CF93DF93CDB7CD
:1014F000DEB7CB54D1090FB6F894DEBF0FBECDBF17
:1015000026967FAF6EAF269728965FAF4EAF28978F
:101510003E8B2D8B2C96FFAEEEAE2C97FB01E1504F
:10152000F04CEE0FFF1FEE0FFF1FE80FF91F80803A
:101530009180A280B3808F8A988EA98EBA8EB501D1
:10154000A401442777FD43955527662777272996D9
:101550004FAF2997F901E150F04CEE0FFF1FEE0F4E
:10156000FF1F2896AEACBFAC2897EA0DFB1DC080CC
:10157000D180E280F380CB8EDC8EED8EFE8EB701C3
:10158000A601442777FD43955527662777272A9696
:101590004FAF2A97188B0F87F80130E020E02C9688
:1015A000EEACFFAC2C972E153F050CF43FC02296F5
:1015B0009FAF8EAF22971A8B098B312C212C812C57
:1015C000912C540183948D829E82AF82B886269698
:1015D0008EAC9FAC2697281439047CF129969FACD9
:1015E00029972A96AFAC2A9730E020E041E050E0FE
:1015F00060E070E09A10F5C1C55BDF4F0FB6F8945C
:10160000DEBF0FBECDBFDF91CF911F910F91FF9035
:10161000EF90DF90CF90BF90AF909F908F907F9092
:101620006F905F904F903F902F900895119211927C
:10163000119211922F5F3F4FB2CF2296EEADFFADC8
:10164000229781919191A191B1912296FFAFEEAF36
:1016500022978F88988CA98CBA8CB7FE23C04D81B5
:101660005E816F81788541505109610971095A0184
:101670006B01A81AB90ACA0ADB0AD601C50121E022
:10168000CD80DE80EF80F8848C159D05AE05BF050A
:1016900008F020E0822E912CB12CA12C8D829E820C
:1016A000AF82B8865D01CC24DD24A8A2B9A2CAA26B
:1016B000DBA29C01AD01442755272CA33DA34EA3DB
:1016C0005FA32C96EEADFFAD2C97E219F3098D8840
:1016D0009E888E169F060CF4F4012896AEACBFAC23
:1016E00028972496BFAEAEAE2497C988DA88DC8AE4
:1016F000CB8A1E861D86812C912C54018394898669
:101700009A86AB86BC86812C912C5401CD84DE84D4
:10171000CE16DF0604F1F7FF02C0F0E0E0E0E20DD4
:10172000F31D2C96EEACFFAC2C97EE15FF0554F490
:10173000EE0FFF1FEE0FFF1FE00FF11F808291825F
:10174000A282B3822FEF221A320AE989FA893496EB
:10175000FA8BE98B3CCF2496AEADBFAD2497CD90EC
:10176000DD90ED90FD902496BFAFAEAF24972B8D0A
:101770003C8D4D8D5E8D57FF22C089859A85AB8546
:10178000BC850197A109B109AC01BD014C195D09E6
:101790006E097F096A017B0181E029853A854B85C5
:1017A0005C85C216D306E406F50608F080E0482FF3
:1017B00050E070E060E049875A876B877C87B7010B
:1017C0008827992768A779A78AA79BA7EE24FF24D3
:1017D00028A139A14AA15BA1C701B6010E94FB471C
:1017E0002B013C012CA13DA14EA15FA168A579A5CB
:1017F0008AA59BA50E94FB476CA77DA78EA79FA7E4
:10180000AB89BC894D915D916D917D91BC8BAB8B0A
:10181000DB01CA01880D991DAA1DBB1D89839A830E
:10182000AB83BC8391E09F8F29813A814B815C819E
:10183000281539054A055B0508F01F8E2CA13DA12E
:101840004EA15FA1C701B6010E94FB476B017C015D
:1018500089809A80AB80BC808C0C9D1CAE1CBF1C08
:1018600089829A82AB82BC8252019924882488AAF8
:1018700099AAAAAABBAA29813A814B815C81280D29
:10188000391D4A1D5B1D2CAB3DAB4EAB5FAB8CA431
:101890009DA4AEA4BFA454019924882488AE99AE17
:1018A000AAAEBBAE280D391D4A1D5B1D2CAF3DAF46
:1018B0004EAF5FAFAB89BC8914972D933D934D9389
:1018C0005C93139728A139A14AA15BA168A579A5CA
:1018D0008AA59BA50E94FB479F8C690D711D811DE8
:1018E000911D230166247724460E571E681E791E1B
:1018F0002CA53DA54EA55FA54A01AA24BB24840CB6
:10190000951CA61CB71C81E090E0A0E0B0E04981E6
:101910005A816B817C814C155D056E057F0518F041
:1019200080E090E0DC01880D991DAA1DBB1D41E0FF
:1019300050E060E070E088A899A8AAA8BBA8CCA84D
:10194000DDA8EEA8FFA8C814D904EA04FB0418F027
:1019500040E050E0BA01840F951FA61FB71F812CED
:10196000912C54018394C8ACD9ACEAACFBAC2CAD3F
:101970003DAD4EAD5FAD2C153D054E055F0518F034
:10198000812C912C5401880E991EAA1EBB1E4D85D8
:101990005E854F5F5F4F5E874D87B8CEEF85F889D4
:1019A000C190D190E190F190F88BEF87DB01CA01F3
:1019B0000197A109B1098C199D09AE09BF09349796
:1019C00080839183A283B383E1E084179507A60700
:1019D000B70708F0E0E04E2F50E070E060E02F5FC6
:1019E0003F4F2C968EAC9FAC2C9728153905B4F23E
:1019F00003CECF92DF92EF92FF920F931F93FA01E3
:101A0000EE0FFF1FEE0FFF1FDC01AE0FBF1FE60F33
:101A1000F71F141615064CF090E080E01F910F910F
:101A2000FF90EF90DF90CF90089541505109FE90C4
:101A3000EE90DE90CE903291229112910291C016DA
:101A4000D106E206F30629F38FEF9FEF0C151D0573
:101A50002E053F0518F781E090E0E0CFCADF892F1F
:101A6000881F8827881F08952F923F924F925F9278
:101A70006F927F928F929F92AF92BF92CF92DF929E
:101A8000EF92FF920F931F93CF93DF9300D000D07C
:101A9000CDB7DEB7DA01E5E0B695A795EA95E1F7AF
:101AA000FB01E150F04CEE0FFF1FEE0FFF1FE80FA0
:101AB000F91F80809180A280B380BB0C8808982C8D
:101AC00054013D010A171B070CF438017901D12C90
:101AD000C12CC614D70464F1F30177FE02C0F0E014
:101AE000E0E0A017B1070CF075C04F715527A60FA5
:101AF000B71FB801A017B1070CF4BD016E1B7F0B17
:101B0000DF01AA0FBB1FAA0FBB1F41155105D1F45E
:101B10003D01620E731E50E040E0461757070CF47B
:101B20008DC077FF02C070E060E0E60FF71F52C083
:101B3000F70111921192119211927F01FFEFCF1ACA
:101B4000DF0AC7CF1C0129014A0E5B1E5A82498257
:101B50001E821D82C12CD12C760180E290E03C01D6
:101B6000641A750A7C826B82AD81BE81A617B707A5
:101B7000CCF177FF02C070E060E0E60FF71FE017DE
:101B8000F1070CF072C0DF01AA0FBB1FAA0FBB1F29
:101B9000A20FB31F80E290E0841B950B04C0F69463
:101BA000E794D794C7948A95D2F72401350104C0ED
:101BB000440C551C661C771C4A95D2F7B301A20150
:101BC000C428D52AE628F72ACD92DD92ED92FC9220
:101BD00013973196DF01AA0FBB1FAA0FBB1FA20FDD
:101BE000B31F40C0260137010B8004C07694679470
:101BF000579447940A94D2F7D101CD90DD90ED909F
:101C0000FD901D01D701C601042E04C0880F991F45
:101C1000AA1FBB1F0A94D2F7482A592A6A2A7B2A8C
:101C2000A981BA814D925D926D927D92BA83A9830A
:101C30008D819E8101969E838D8396CFDC01CD9010
:101C4000DD90ED90FD90CD01D301CD92DD92ED922E
:101C5000FD923D014F5F5F4F60CF8D929D92AD929F
:101C6000BD923196E017F107C4F326960FB6F894AB
:101C7000DEBF0FBECDBFDF91CF911F910F91FF90BF
:101C8000EF90DF90CF90BF90AF909F908F907F901C
:101C90006F905F904F903F902F900895FA0161935D
:101CA00071938193919381E090E0821793070CF0F8
:101CB000089511921192119211920196F6CFFC01A2
:101CC00091E08091890D811190E091830895CF92E8
:101CD000DF92EF92FF926B017C019F7720E030E072
:101CE00040E859E50E94473C87FF2BC020E030E0E8
:101CF00040E05FE3C701B6010E94983E87FD0EC039
:101D000020E030E040E05FE3C701B6010E946E3B97
:101D1000FF90EF90DF90CF900C94243D20E030E0D6
:101D200040E05FEBC701B6010E94983E181684F4AC
:101D300020E030E0A901C701B6010E94D93E6B0145
:101D40007C01C701B601FF90EF90DF90CF9008951E
:101D500020E030E040E05FE3C701B6010E946D3B48
:101D6000FF90EF90DF90CF900C94343C8F929F9235
:101D7000AF92BF92CF92DF92EF92FF92CF93DF9319
:101D80006B017C0149015A010E94392E882399F088
:101D90006091EB1C7091EC1C8091ED1C9091EE1CFD
:101DA000DF91CF91FF90EF90DF90CF90BF90AF90F9
:101DB0009F908F900895C501B4010E94392E811122
:101DC000E7CFC701B6010E94F42D8823E1F1C501D8
:101DD000B4010E94F42D8823B1F120E030E0A90184
:101DE000C701B6010E94983ECFEFDFEF181614F43A
:101DF000C1E0D0E020E030E0A901C501B4010E94BB
:101E0000983E6FEF7FEF181614F461E070E0072E34
:101E1000000C880B990B0E94E93C6B017C01BE0110
:101E2000DD0F880B990B0E94E93CA7019601DF9119
:101E3000CF91FF90EF90DF90CF90BF90AF909F90A9
:101E40008F900C94E13B20E030E0A901C501B40182
:101E50000E94473C811116C020E030E0A901C70173
:101E6000B6010E94983E181694F020E030E0A901D7
:101E7000C701B6010E94473C87FD0EC060E070E0DC
:101E8000CB018ECFA5019401C701B601D0CF6BED78
:101E90007FE089EC9FE384CF6BED7FE089EC9FEBE3
:101EA0007FCF2F923F924F925F926F927F928F924D
:101EB0009F92AF92BF92CF92DF92EF92FF920F93D9
:101EC0001F93CF93DF93CDB7DEB7A0970FB6F894EB
:101ED000DEBF0FBECDBF8091890D8F5F853008F0CA
:101EE00041C38093890D8091D5119091D611A09115
:101EF000D711B091D8118093151C9093161CA09304
:101F0000171CB093181C8091D9119091DA11A091EF
:101F1000DB11B091DC118093191C90931A1CA093D3
:101F20001B1CB0931C1C8091DD119091DE11A091BF
:101F3000DF11B091E01180931D1C90931E1CA093A3
:101F40001F1CB093201C41EE51E167E57CE183E565
:101F50009CE10E943A2E65EE71E187ED9CE10E94C2
:101F6000292F8091240390912503A0912603B091FD
:101F7000270389879A87AB87BC878091D71C90916C
:101F8000D81CA091D91CB091DA1C8D839E83AF839D
:101F9000B887F2E0EF2EF12C07EC1CE121E030E0F5
:101FA000AE014B5F5F4F61E070E0CE0109968DDAC4
:101FB00050E040E062E070E08CE193E0DAD920E0AC
:101FC00030E040E850E40E94D93E6B017C01C092B1
:101FD000971CD092981CE092991CF0929A1C50E0A9
:101FE00040E062E070E0C801C4D920E030E040E0A9
:101FF0005AE20E94D93EA70196010E94D93E609301
:10200000931C7093941C8093951C9093961C8091C4
:10201000280390912903A0912A03B0912B0389876B
:102020009A87AB87BC878091DB1C9091DC1CA091C8
:10203000DD1CB091DE1C8D839E83AF83B887A2E048
:10204000EA2EF12C0FEC1CE121E030E0AE014B5FF9
:102050005F4F61E070E0CE01099637DA50E040E072
:1020600062E070E0C80185D920E030E040E05AE24B
:102070000E94D93E2091971C3091981C4091991C48
:1020800050919A1C0E94D93E6B017C01C092971C12
:10209000D092981CE092991CF0929A1C2091E91120
:1020A0003091EA114091EB115091EC116091931C29
:1020B0007091941C8091951C9091961C0E946D3B90
:1020C0004B015C0180929F1C9092A01CA092A11CCD
:1020D000B092A21C2091ED113091EE114091EF11C0
:1020E0005091F011C701B6010E946D3B6B017C015C
:1020F000C092A31CD092A41CE092A51CF092A61C36
:102100002091AC023091AD024091AE025091AF02ED
:10211000C501B4010E94D93E4B015C012091B4027B
:102120003091B5024091B6025091B702C701B60195
:102130000E94D93E9B01AC01C501B4010E946E3BD7
:102140006093A71C7093A81C8093A91C9093AA1C51
:10215000C090151CD090161CE090171CF090181C15
:102160008090880290908902A0908A02B0908B02A1
:102170002DEC3CEC4CE45EE3C501B4010E946E3BE7
:102180009B01AC01C701B6010E94473C18160CF434
:10219000ECC12DEC3CEC4CE45EE3C501B4010E94C3
:1021A0006D3B9B01AC01C701B6010E94983E87FDC3
:1021B000DCC1C090191CD0901A1CE0901B1CF09040
:1021C0001C1C8090980290909902A0909A02B09066
:1021D0009B022DEC3CEC4CE45EE3C501B4010E9493
:1021E0006E3B9B01AC01C701B6010E94473C18162B
:1021F0000CF4BBC12DEC3CEC4CE45EE3C501B40136
:102200000E946D3B9B01AC01C701B6010E94983E44
:1022100087FDABC11092831C1092841C1092851C08
:102220001092861C2FEF3FEF388F2F8BC0906C02DF
:10223000D0906D02E0906E02F0906F02A7019601BF
:10224000609171117091721180917311909174115C
:102250000E94473C882341F0C0927111D0927211C4
:10226000E0927311F092741165E470E080E090E008
:102270000E9470019093701180936F1123E030E001
:1022800030934A1C2093491C43E050E0BE01635F39
:102290007F4F0E945F012091C8023091C902409196
:1022A000CA025091CB026091C4027091C502809124
:1022B000C6029091C7020E94983E60913E037091C1
:1022C0003F030D851E8590E018160CF05DC180E07F
:1022D0000E94E73C20E030E040E054E30E94D93E19
:1022E0006B017C01B80190E080E00E94E73C9B011B
:1022F000AC01C701B6010E94D93E2091580230912D
:10230000590240915A0250915B020E94D93E60935B
:10231000871C7093881C8093891C90938A1C209141
:10232000871C3091881C4091891C50918A1C6091B7
:10233000CC027091CD028091CE029091CF020E948A
:10234000D93E22E93DE745E85FE30E94D93E27EB0D
:1023500030EA47E150E40E946E3B6B017C0120E0D3
:1023600030E0A9010E94473C87FD2DC1C0925B1C53
:10237000D0925C1CE0925D1CF0925E1C2091531C7C
:102380003091541C4091551C5091561C6091D002C4
:102390007091D1028091D2029091D3020E94D93ED5
:1023A00020E138E442E85FE30E94D93E25EB3BE8B8
:1023B0004DE050E40E946D3B6B017C0120E030E079
:1023C000A9010E94473C87FD07C1C092631CD092BF
:1023D000641CE092651CF092661CC0906802D0906C
:1023E0006902E0906A02F0906B02A7019601609189
:1023F0007D1170917E1180917F11909180110E94CA
:10240000473C882341F0C0927D11D0927E11E0922A
:102410007F11F092801164E470E080E090E00E940F
:10242000700190937C1180937B1123E030E0309316
:102430004A1C2093491C43E050E0BE01635F7F4F7C
:102440000E945F012091D4023091D5024091D602C2
:102450005091D7026091C4027091C5028091C6026A
:102460009091C7020E94983E0D851E8560914003A1
:102470007091410390E018160CF0B7C080E00E9404
:10248000E73C20E030E040E054E30E94D93E6B019D
:102490007C01B80190E080E00E94E73C9B01AC0128
:1024A000C701B6010E94D93E2091600230916102BD
:1024B00040916202509163020E94D93E60938B1C4E
:1024C00070938C1C80938D1C90938E1C20918B1C80
:1024D00030918C1C40918D1C50918E1C6091D802C3
:1024E0007091D9028091DA029091DB020E94D93E6C
:1024F0002AEC37ED45E85FE30E94D93E26EE35EE43
:1025000049EC5FE30E946E3B6B017C0120E030E010
:10251000A9010E94473C87FD87C0C0925F1CD092F2
:10252000601CE092611CF092621C8091E71B8F316D
:1025300018F48F5F8093E71B8091E61B81117DC0AB
:1025400081E08093E61B8093E51B10926F1C109234
:10255000701C1092711C1092721C8DEC9CECACE4FF
:10256000BEE313C11092890DBECC8AE999E9A9E9AD
:10257000BEE38093831C9093841CA093851CB0932E
:10258000861C188E1F8A52CE80E00E94E73C20E015
:1025900030E040E054E30E94D93E6B017C01B80179
:1025A00090E080E00E94E73C9B01AC01C701B601CE
:1025B0000E94D93E20915C0230915D0240915E0202
:1025C00050915F02A2CE10925B1C10925C1C109284
:1025D0005D1C10925E1CD2CE1092631C1092641C83
:1025E0001092651C1092661CF8CE80E00E94E73CB9
:1025F00020E030E040E054E30E94D93E6B017C01D2
:10260000B80190E080E00E94E73C9B01AC01C7016B
:10261000B6010E94D93E209164023091650240913A
:1026200066025091670248CF10925F1C1092601CA6
:102630001092611C1092621C78CFE091E51BE15072
:10264000E83008F063C4F0E08827E65DFC4E8F4F69
:102650000C942C483213B715EC1520167816C416B6
:1026600006173A1710926F1C1092701C1092711C72
:102670001092721C8DEC9CECACE4BEE38093671C62
:102680009093681CA093691CB0936A1C80905B1C9B
:1026900090905C1CA0905D1CB0905E1CC090631C70
:1026A000D090641CE090651CF090661C20E030E047
:1026B00048EC51E4C501B4010E94473C87FF76C055
:1026C00020E030E040EA51E4C701B6010E94473CF7
:1026D00087FF2CC020E030E048EC51E460915F1CA3
:1026E0007091601C8091611C9091621C0E94473C1B
:1026F00087FD02C00C94952782E08093E51B109221
:10270000E71B80E090E0A0E8BFE380936F1C90930C
:10271000701CA093711CB093721C1092671C1092D5
:10272000681C1092691C10926A1C4AC220E030E0BA
:1027300040EA51E4C701B6010E94983E87FD36C0C9
:1027400020E030E048EC51E460915F1C7091601C27
:102750008091611C9091621C0E94473C87FF26C0BB
:1027600089E08093E51B1092E71B80E090E0A0E8F1
:10277000BFE380936F1C9093701CA093711CB09367
:10278000721C80E090E0A0E0BFE38093671C909310
:10279000681CA093691CB0936A1C10926B1C109269
:1027A0006C1C10926D1C10926E1C49C020E030E031
:1027B00040EA51E4C701B6010E94473C87FF2BC1A4
:1027C00085E08093E51B1092E71B80E090E0A0E895
:1027D000BFE380936F1C9093701CA093711CB09307
:1027E000721C1092671C1092681C1092691C109247
:1027F0006A1C10926B1C10926C1C10926D1C109233
:102800006E1C0E940B046093BB1C7093BC1C8093D5
:10281000BD1C9093BE1C5BDA20E030E0A9010E9451
:10282000473C8111F3C080E090E0A0E8BFEB8093CB
:10283000091290930A12A0930B12B0930C12C0903D
:102840004C02D0904D02E0904E02F0904F02A70152
:102850009601609125117091261180912711909118
:1028600028110E94473C882341F0C0922511D09244
:102870002611E0922711F0922811C0905002D090BA
:102880005102E0905202F0905302A701960160912C
:102890001D1170911E1180911F11909120110E94A5
:1028A000473C882341F0C0921D11D0921E11E09246
:1028B0001F11F0922011C0905402D0905502E09068
:1028C0005602F0905702A701960160912111709174
:1028D000221180912311909124110E94473C88235A
:1028E00041F0C0922111D0922211E0922311F09276
:1028F000241179E4C72E71E1D72E0CE712E0E9E646
:10290000AE2EE1E1BE2E7801D6014D905D906D9026
:102910007D906D01F70121913191419151917F019C
:10292000C301B2010E94473C811157C3AC14BD04DE
:1029300059F75BE4E52E5CE1F52E6CE9A62E62E02A
:10294000B62E6701D8016D917D918D919D918D017C
:102950000E94392E91E0811190E0F60191936F0170
:10296000A016B10679F725EF3BE18FE49CE1EBE49B
:10297000FCE110E000E04191442329F0438144232D
:1029800011F00F5F1F4F8E179F07A9F781E050E0EE
:1029900040E0D7019D917D01992369F013969C91A8
:1029A000992349F0E1E0F0E0EC0FFD1FE40FF51F83
:1029B00080834F5F5F4F8F5F853059F7DE0111963F
:1029C000A8014A0F5B1FCD014817590709F027C31B
:1029D0007801EE0CFF1CEE0CFF1C97012B50344EBF
:1029E0008A179B0709F42FC3ED9144E0E402F0013C
:1029F0001124E857FD4F4081518162817381F901B3
:102A000041935193619371939F01EACF80E090E0ED
:102A1000A0E8BFE30CCF20E030E040EF51E4C50177
:102A2000B4010E94473C87FF1EC020E030E040EA2E
:102A300051E4C501B4010E94983E87FD14C084E0B2
:102A40008093E51B80E090E0A0E8BFE380936F1CDB
:102A50009093701CA093711CB093721C8BED9FE03F
:102A6000A9ECBEEB55C0C0905F1CD090601CE090FC
:102A7000611CF090621C20E030E040EF51E4C7019F
:102A8000B6010E94473C87FF1EC020E030E040EACC
:102A900051E4C701B6010E94983E87FD14C088E04A
:102AA0008093E51B80E090E0A0E8BFE380936F1C7B
:102AB0009093701CA093711CB093721C8BED9FE0DF
:102AC000A9ECBEE325C020E030E040EA51E4C501B6
:102AD000B4010E94473C87FF24C083E08093E51B3C
:102AE00080E090E0A0E8BFE380936F1C9093701C9F
:102AF000A093711CB093721C1092671C1092681CFA
:102B00001092691C10926A1C8BED9FE0A9E4BFEB48
:102B100080936B1C90936C1CA0936D1CB0936E1CE7
:102B20008ECE20E030E040EA51E4C701B6010E94B9
:102B3000473C87FF84CE87E08093E51B80E090E0F0
:102B4000A0E8BFE380936F1C9093701CA093711C4E
:102B5000B093721C1092671C1092681C1092691C32
:102B600010926A1C8BED9FE0A9E4BFE3D1CF80E017
:102B700090E0A0E8BFE380936F1C9093701CA0933B
:102B8000711CB093721C1092671C1092681C1092FA
:102B9000691C10926A1C20E030E048EC51E460911E
:102BA000631C7091641C8091651C9091661C0E944E
:102BB000473C87FF0AC082E08093E51B1092E71B29
:102BC00084E799EAA2E4B0ECA3CF8091E71B8A30B6
:102BD00008F435CE81E0B7CC80E090E0A0E8BFE318
:102BE00080936F1C9093701CA093711CB093721C07
:102BF0001092671C1092681C1092691C10926A1C3B
:102C0000C0905B1CD0905C1CE0905D1CF0905E1C42
:102C100020E030E040EA51E4C701B6010E94983E4E
:102C200087FFD8CF20E030E040EA51E4C701B60189
:102C30000E94473C87FF03CE83E08093E51B64CF6F
:102C400080E090E0A0E8BFE380936F1C9093701C3D
:102C5000A093711CB093721C8DEC9CECACE4BEE3B1
:102C60008093671C9093681CA093691CB0936A1CA6
:102C7000C0905B1CD0905C1CE0905D1CF0905E1CD2
:102C800020E030E040EF51E4C701B6010E94983ED9
:102C900087FD0CC081E08093E51B10926F1C1092A1
:102CA000701C1092711C1092721C77CD20E030E0E5
:102CB00040EA51E4C701B6010E94473C87FDEACFD4
:102CC00020E030E040EF51E4C701B6010E94473CEC
:102CD00087FFB5CD20E030E040EA51E4C701B601FE
:102CE0000E94983E87FDABCD84E08093E51BB6CE75
:102CF00080E090E0A0E8BFE380936F1C9093701C8D
:102D0000A093711CB093721C1092671C1092681CE7
:102D10001092691C10926A1C20E030E048EC51E4EB
:102D20006091631C7091641C8091651C9091661C7D
:102D30000E94983E18160CF44DCF8091E71B8A3004
:102D400008F47DCD86E08093E51B1092E71B2BED08
:102D50003FE049E450E46091091270910A128091B9
:102D60000B1290910C120E94D93E20E030E040E816
:102D70005EE30E94D93E60936B1C70936C1C809341
:102D80006D1C90936E1C5BCD80E090E0A0E8BFE3EB
:102D900080936F1C9093701CA093711CB093721C55
:102DA0001092671C1092681C1092691C10926A1C89
:102DB0008091E71B8431C0F085E08093E51B109281
:102DC000E71B10926B1C10926C1C10926D1C1092E1
:102DD0006E1C0E940B046093731C7093741C809390
:102DE000751C9093761C17CD20E030E048EC51E440
:102DF0006091631C7091641C8091651C9091661CAD
:102E00000E94473C18160CF41ACD9CCF80E090E04D
:102E1000A0E8BFE380936F1C9093701CA093711C7B
:102E2000B093721C1092671C1092681C1092691C5F
:102E300010926A1CC0905F1CD090601CE090611CD6
:102E4000F090621C20E030E040EA51E4C701B60196
:102E50000E94983E87FFBECE20E030E040EA51E479
:102E6000C701B6010E94473C87FFE9CC87E0809309
:102E7000E51B78CE80E090E0A0E8BFE380936F1C74
:102E80009093701CA093711CB093721C8DEC9CEC01
:102E9000ACE4BEE38093671C9093681CA093691C0C
:102EA000B0936A1CC0905F1CD090601CE090611CC5
:102EB000F090621C20E030E040EF51E4C701B60121
:102EC0000E94983E87FFE6CE20E030E040EA51E4E1
:102ED000C701B6010E94473C87FDDCCE20E030E010
:102EE00040EF51E4C701B6010E94473C87FFA7CCE1
:102EF00020E030E040EA51E4C701B6010E94983E6C
:102F000087FD9DCC88E08093E51BD8CD80E090E0E4
:102F1000A0E8BFE380936F1C9093701CA093711C7A
:102F2000B093721C80E090E0A0E0BFE38093671C48
:102F30009093681CA093691CB0936A1C8091E71B56
:102F40008A3008F047CEC0905B1CD0905C1CE090AB
:102F50005D1CF0905E1C20E030E040E451E4C701CD
:102F6000B6010E94983E1816B4F420E030E040E428
:102F700051E460915F1C7091601C8091611C909184
:102F8000621C0E94983E181634F489E08093E51B79
:102F90001092E71B02CC20E030E040E451E4C7018E
:102FA000B6010E94473C18160CF449CC20E030E0F2
:102FB00040E451E460915F1C7091601C8091611C41
:102FC0009091621C0E94473C18160CF438CC82E0A9
:102FD0008093E51B1092E71BA0CBC301B2010E94B6
:102FE000392E882351F0F7013497608171818281F5
:102FF00093810E94392E811199CC80E2ECE7F2E0B6
:10300000A9E4B1E101900D928A95E1F71092311196
:103010001092321110923311109234118ACCFC01AB
:103020007191CF0164E07602F0011124E858FD4F60
:10303000C080D180E280F380F901C192D192E19207
:10304000F1929F01C1CC0115110509F002C4109243
:10305000731C1092741C1092751C1092761C1092A6
:103060009B1C10929C1C10929D1C10929E1C4F89C0
:10307000588DBA01550F880B990B0E94E93C6B01E2
:103080007C012091DC023091DD024091DE02509102
:10309000DF020E94983E181614F00C94B023809121
:1030A0006F1C9091701CA091711CB091721C809348
:1030B000771C9093781CA093791CB0937A1C209174
:1030C000E0023091E1024091E2025091E30260910E
:1030D000771C7091781C8091791C90917A1C0E94C9
:1030E000983E181614F00C94D4232091700230915D
:1030F0007102409172025091730260916F1C709145
:10310000701C8091711C9091721C0E94983E181640
:1031100014F00C94BA238091671C9091681CA091C4
:10312000691CB0916A1C8093211C9093221CA0936F
:10313000231CB093241C80916B1C90916C1CA0915B
:103140006D1CB0916E1C8093251C9093261CA0933F
:10315000271CB093281C4090211C5090221C60908A
:10316000231C7090241C8090251C9090261CA090FD
:10317000271CB090281C20919C0230919D02409108
:103180009E0250919F02C301B2010E94D93E6B0181
:103190007C012091A4023091A5024091A602509199
:1031A000A702C501B4010E94D93E9B01AC01C70131
:1031B000B6010E946E3B20910112309102124091A3
:1031C0000312509104120E946D3B6B017C01C0926E
:1031D000731CD092741CE092751CF092761C2091A6
:1031E000A0023091A1024091A2025091A302C3011A
:1031F000B2010E94D93E2B013C012091A8023091DE
:10320000A9024091AA025091AB02C501B4010E94EB
:10321000D93E9B01AC01C301B2010E946E3B2091DB
:1032200005123091061240910712509108120E9427
:103230006D3B4B015C0180929B1C90929C1CA09268
:103240009D1CB0929E1C2091000230910102409181
:10325000020250910302C701B6010E94D93E20919B
:10326000F5113091F6114091F7115091F8110E942B
:103270006D3B20912C0230912D0240912E025091F5
:103280002F020E94D93E2B013C014092831C509298
:10329000841C6092851C7092861C209134023091AF
:1032A00035024091360250913702C701B6010E94A3
:1032B000D93E2091F1113091F2114091F3115091CA
:1032C000F4110E946E3BA30192010E946E3B6B01C0
:1032D0007C01C0927F1CD092801CE092811CF092F5
:1032E000821C209104023091050240910602509107
:1032F0000702C501B4010E94D93E2091FD11309111
:10330000FE114091FF11509100120E946D3B2091DF
:1033100030023091310240913202509133020E94CA
:10332000D93E2B013C0140927B1C50927C1C609248
:103330007D1C70927E1C20913802309139024091A0
:103340003A0250913B02C501B4010E94D93E20913E
:10335000F9113091FA114091FB115091FC110E942A
:103360006E3BA30192010E946E3B60938F1C709391
:10337000901C8093911C9093921C80903C029090A2
:103380003D02A0903E02B0903F02A5019401C7010A
:10339000B6010E94983E181614F00C94EE23809209
:1033A000771C9092781CA092791CB0927A1C209184
:1033B000771C3091781C4091791C50917A1C609157
:1033C000F0027091F1028091F2029091F3020E945A
:1033D000D93E0E94243D6093771C7093781C8093A3
:1033E000791C90937A1C0E94392E882311F40C9436
:1033F0000A241092771C1092781C1092791C10925B
:103400007A1CC090771CD090781CE090791CF090CA
:103410007A1C20E030E0A901C701B6010E94473CB8
:1034200087FD02C00C942F24C701B60190580E945A
:10343000BB3C00271127061B170BC0908F1CD09098
:10344000901CE090911CF090921C80904002909013
:103450004102A0904202B0904302A5019401C7012D
:10346000B6010E94983E181614F00C9436248092EF
:10347000771C9092781CA092791CB0927A1C2091B3
:10348000771C3091781C4091791C50917A1C609186
:10349000FC027091FD028091FE029091FF020E9459
:1034A000D93E0E94243D6093771C7093781C8093D2
:1034B000791C90937A1C0E94392E882311F40C9465
:1034C00052241092771C1092781C1092791C109242
:1034D0007A1CC090771CD090781CE090791CF090FA
:1034E0007A1C20E030E0A901C701B6010E94473CE8
:1034F00087FD02C00C947724C701B60190580E9442
:10350000BB3CEE24FF24E61AF70A67E070E080E097
:1035100090E00E9428026C019093D4118093D31103
:1035200060912C0370912D036E157F0544F060911E
:103530002E0370912F036E157F050CF4B701072E33
:10354000000C880B990B0E94E93C4B015C0120E0C8
:1035500030E04FE753E40E94473C181614F40C94F3
:103560007E248092771C9092781CA092791CB09255
:103570007A1C20E030E0A9016091771C7091781CE2
:103580008091791C90917A1C0E94983E87FF08C018
:103590001092771C1092781C1092791C10927A1C51
:1035A0004091771C5091781C6091791C70917A1C25
:1035B000C6010E94F10165E070E080E090E00E94A9
:1035C00028026C019093CC118093CB116091300351
:1035D000709131036017710744F06091320370916C
:1035E0003303601771070CF4B801072E000C880B29
:1035F000990B0E94E93C4B015C0120E030E04FE771
:1036000053E40E94473C181614F40C948C248092C6
:10361000771C9092781CA092791CB0927A1C20E0C2
:1036200030E0A9016091771C7091781C8091791C21
:1036300090917A1C0E94983E87FF08C01092771CD8
:103640001092781C1092791C10927A1C4091771C71
:103650005091781C6091791C70917A1CC6010E946F
:10366000F10168E070E080E090E00E9428026C01C7
:103670009093C4118093C31160913403709135030A
:103680006E157F0544F060913603709137036E1517
:103690007F050CF4B70177FF03C07195619571093F
:1036A000072E000C880B990B0E94E93C4B015C0132
:1036B00020E030E04FE753E40E94473C181614F432
:1036C0000C949A248092771C9092781CA092791C7A
:1036D000B0927A1C20E030E0A9016091771C7091D3
:1036E000781C8091791C90917A1C0E94983E87FFEB
:1036F00008C01092771C1092781C1092791C1092BE
:103700007A1C4091771C5091781C6091791C7091C3
:103710007A1CC6010E94F10166E070E080E090E052
:103720000E9428026C019093BC118093BB116091A0
:103730003803709139036017710744F060913A03C0
:1037400070913B03601771070CF4B80177FF03C059
:10375000719561957109072E000C880B990B0E94D9
:10376000E93C4B015C0120E030E04FE753E40E946C
:10377000473C181614F40C94A8248092771C90925D
:10378000781CA092791CB0927A1C20E030E0A9014C
:103790006091771C7091781C8091791C90917A1CB3
:1037A0000E94983E87FF08C01092771C1092781CE8
:1037B0001092791C10927A1C4091771C5091781CC1
:1037C0006091791C70917A1CC6010E94F10161E040
:1037D00080914402909145028E159F0509F460E0A6
:1037E00089E00E94EA0161E08091460290914702DF
:1037F0008017910709F460E084E00E94EA01C0901C
:103800008F1CD090901CE090911CF090921C8090A6
:10381000400290904102A0904202B0904302A50164
:103820009401C701B6010E94983E181614F00C943A
:10383000B624A5019401C701B6010E946D3B6093B7
:103840008F1C7093901C8093911C9093921C0C94ED
:10385000D02420E030E0A901609131117091321143
:1038600080913311909134110E94473C811172C0B4
:103870008091F51B9091F61BA091F71BB091F81B5E
:103880008093291190932A11A0932B11B0932C119E
:10389000F701EB50F44E80819181A281B381809336
:1038A0002D1190932E11A0932F11B093301180E021
:1038B00090E0A0E8BFE38093311190933211A09380
:1038C0003311B0933411F1E0FF870130110509F095
:1038D00043C04091F51B5091F61B6091F71B70910E
:1038E000F81B4093731C5093741C6093751C709369
:1038F000761C4093291150932A1160932B117093D9
:103900002C118091F91B9091FA1BA091FB1BB09197
:10391000FC1B8093771C9093781CA093791CB09328
:103920007A1C80932D1190932E11A0932F11B09398
:1039300030114093351150933611609337117093C5
:1039400038118093391190933A11A0933B11B093A1
:103950003C11AFC21F86B9CF20E030E040E85FE302
:103960006091311170913211809133119091341125
:103970000E946E3B0E94B63CFB013197EE0FFF1F89
:10398000EE0FFF1FEB50F44EC080D180E280F38039
:10399000C092291CD0922A1CE0922B1CF0922C1C65
:1039A000600F711F660F771F660F771FFB01EF50C7
:1039B000F44E80819181A281B38180932D1C9093DC
:1039C0002E1CA0932F1CB093301C80912911909134
:1039D0002A11A0912B11B0912C118093211C90934E
:1039E000221CA093231CB093241C80912D11909134
:1039F0002E11A0912F11B09130118093251C90931E
:103A0000261CA093271CB093281C23E73CE149E225
:103A100051E169E27CE181E29CE10E948C0720E0B7
:103A200030E040E85FE36091311170913211809194
:103A30003311909134110E946E3B0E94B63C6B0191
:103A4000FB013197EE0FFF1FEE0FFF1FEB50F44EFF
:103A500020813181428153816091291170912A1115
:103A600080912B1190912C110E946D3B6093211C31
:103A70007093221C8093231C9093241CC00ED11E93
:103A8000F601EE0FFF1FEE0FFF1FEF50F44E2081E7
:103A900031814281538160912D1170912E1180915D
:103AA0002F11909130110E946D3B6093251C7093F3
:103AB000261C8093271C9093281C81E29CE10E9485
:103AC000D1066093771C7093781C8093791C909337
:103AD0007A1C20E030E040E85FE3609131117091A2
:103AE000321180913311909134110E946E3B6B0121
:103AF0007C01C0929B1CD0929C1CE0929D1CF09279
:103B00009E1CB801012E000C880B990B0E94E93C09
:103B100020E030E040E85FE30E946D3B6B8B7C8BE4
:103B20008D8B9E8BA701960160E070E080E89FE39B
:103B30000E946D3B2B893C894D895E890E946E3BBA
:103B40000E94B63C9B012150310938A32F8F312CA4
:103B5000212C8F8D98A1821593059CF1B101032C26
:103B6000000C880B990B0E94E93C20919B1C309122
:103B70009C1C40919D1C50919E1C0E946E3B6B01B1
:103B80007C01C0927F1CD092801CE092811CF0923C
:103B9000821C3F8531110FC32091211130912211D8
:103BA00040912311509124116091771C7091781CE1
:103BB0008091791C90917A1C0E94983E18160CF006
:103BC000FAC220E030E040E85FE36091311170918B
:103BD000321180913311909134110E946E3B0E94FA
:103BE000B63C6B01FB013197EE0FFF1FEE0FFF1F7D
:103BF000EB50F44E20813181428153812093731C1C
:103C00003093741C4093751C5093761C609129115D
:103C100070912A1180912B1190912C110E946D3B73
:103C20006093211C7093221C8093231C9093241C6E
:103C3000C00ED11EF601EE0FFF1FEE0FFF1FEF505B
:103C4000F44E208131814281538120939B1C30931B
:103C50009C1C40939D1C50939E1C60912D11709153
:103C60002E1180912F11909130110E946D3B609325
:103C7000251C7093261C8093271C9093281C81E29E
:103C80009CE10E94D1066093771C7093781C80930E
:103C9000791C90937A1CC0902911D0902A11E09041
:103CA0002B11F0902C11C092211CD092221CE0927A
:103CB000231CF092241CC0902D11D0902E11E09066
:103CC0002F11F0903011C092251CD092261CE0924A
:103CD000271CF092281C2091211130912211409133
:103CE0002311509124110E946D3B60937B1C7093B3
:103CF0007C1C80937D1C90937E1C8091311190914F
:103D00003211A0913311B091341180937F1C9093A4
:103D1000801CA093811CB093821CC0907B1CD0900F
:103D20007C1CE0907D1CF0907E1C20E030E0A9011E
:103D3000C701B6010E94473C87FF13C080907F1CDB
:103D40009090801CA090811CB090821CA5019401D1
:103D50006B897C898D899E890E94983E18160CF487
:103D600032C32091731C3091741C4091751C50918A
:103D7000761C6091211C7091221C8091231C9091D3
:103D8000241C0E946D3B6093291C70932A1C809315
:103D90002B1C90932C1C20919B1C30919C1C4091BF
:103DA0009D1C50919E1C6091251C7091261C809139
:103DB000271C9091281C0E946D3B60932D1C7093D2
:103DC0002E1C80932F1C9093301C89E29CE10E9452
:103DD000D1069B01AC01C701B6010E944E3C6B01AC
:103DE0007C01C092771CD092781CE092791CF092F2
:103DF0007A1C20E030E0A9010E94983E18160CF0D1
:103E0000A3C3A701960160E070E080E89FE30E94F1
:103E10006D3B4B015C012091731C3091741C4091EF
:103E2000751C5091761C0E94D93E2B013C012091BB
:103E3000211C3091221C4091231C5091241CC7014D
:103E4000B6010E94D93E9B01AC01C301B2010E94A0
:103E50006E3B6093351170933611809337119093B8
:103E6000381120919B1C30919C1C40919D1C5091BD
:103E70009E1CC501B4010E94D93E4B015C012091FA
:103E8000251C3091261C4091271C5091281CC701ED
:103E9000B6010E94D93E9B01AC01C501B4010E944C
:103EA0006E3B6093391170933A1180933B1190935C
:103EB0003C112091151C3091161C4091171C5091FB
:103EC000181C6091351170913611809137119091C5
:103ED00038110E946D3B6B017C012091191C3091BF
:103EE0001A1C40911B1C50911C1C6091391170913F
:103EF0003A1180913B1190913C110E946D3BA701BA
:103F000096010E94B60E20911D1C30911E1C4091FE
:103F10001F1C5091201C0E946D3B6B017C01C092C4
:103F2000731CD092741CE092751CF092761C9F77E3
:103F30002BED3FE049E450E40E94983E18160CF047
:103F400063C02BED3FE049E450E4C701B6010E9495
:103F50006E3B0E94392E882309F40FC38091EB1C1D
:103F60009091EC1CA091ED1CB091EE1C80939B1CD9
:103F700090939C1CA0939D1CB0939E1C20E030E06D
:103F8000A90160919B1C70919C1C80919D1C90913B
:103F90009E1C0E94473C811121C02BED3FE049E46B
:103FA00050E46091731C7091741C8091751C909109
:103FB000761C0E946E3B20E030E0A9010E94983EF2
:103FC000181664F48BED9FE0A9ECB0E480939B1C81
:103FD00090939C1CA0939D1CB0939E1C2BED3FE0E6
:103FE00049E450E460919B1C70919C1C80919D1C45
:103FF00090919E1C0E946D3B6093731C7093741C87
:104000008093751C9093761CC090731CD090741C88
:10401000E090751CF090761CC701B6010E943C3FF1
:104020009B01AC010E946E3B209121113091221125
:1040300040912311509124110E944E3C4B015C0190
:1040400080929B1C90929C1CA0929D1CB0929E1CE6
:10405000C701B6019F772BED3FE049E450E40E9491
:104060006D3B9F7720E030E040E852E30E94473C00
:1040700087FF17C0C501B4010E94392E882309F4B7
:104080001FC38091EB1C9091EC1CA091ED1CB09192
:10409000EE1C80939B1C90939C1CA0939D1CB09342
:1040A0009E1CC0909B1CD0909C1CE0909D1CF0908E
:1040B0009E1CC701B6019F7720911D1130911E11E2
:1040C00040911F11509120110E94983E18168CF5B6
:1040D000C701B6010E94392E882309F419C38091C3
:1040E000EB1C9091EC1CA091ED1CB091EE1C809308
:1040F000771C9093781CA093791CB0937A1C209124
:104100001D1130911E1140911F115091201160918D
:10411000771C7091781C8091791C90917A1C0E9478
:10412000D93E60939B1C70939C1C80939D1C909324
:104130009E1C8091251190912611A0912711B0917C
:1041400028118093731C9093741CA093751CB093DA
:10415000761C8091151C9091161CA091171CB09193
:10416000181C80933D1190933E11A0933F11B09382
:1041700040118091191C90911A1CA0911B1CB091A8
:104180001C1C8093411190934211A0934311B09352
:10419000441180911D1C90911E1CA0911F1CB09178
:1041A000201C8093451190934611A0934711B09322
:1041B00048110C943718C701B6010E94B63C4B0158
:1041C000FB013197EE0FFF1FEE0FFF1FEB50F44E78
:1041D000408051806280738020E030E040E85FE3FF
:1041E000C701B6010E946E3B0E94B63C6B8F7C8F6C
:1041F0008D8F9E8FEB8DFC8D3197EE0FFF1FEE0F95
:10420000FF1FEB50F44EC080D180E280F380A70105
:104210009601C301B2010E946D3B6093291C70930B
:104220002A1C80932B1C90932C1C4092311C509282
:10423000321C6092331C7092341CC092391CD09294
:104240003A1CE0923B1CF0923C1C800E911EF40143
:10425000EE0FFF1FEE0FFF1FEF50F44E8080918096
:10426000A280B38080927B1C90927C1CA0927D1CCB
:10427000B0927E1CCB8CDC8CC00ED11EF601EE0FF2
:10428000FF1FEE0FFF1FEF50F44EC080D180E28081
:10429000F380C0928F1CD092901CE092911CF092FF
:1042A000921CA7019601C501B4010E946D3B609369
:1042B0002D1C70932E1C80932F1C9093301C809289
:1042C000351C9092361CA092371CB092381CC092BC
:1042D0003D1CD0923E1CE0923F1CF092401C89E2B3
:1042E0009CE10E94D1069B01AC016091771C70910A
:1042F000781C8091791C90917A1C0E946E3B60938F
:10430000771C7093781C8093791C90937A1C2BE710
:104310003CE141E25CE169E37CE181E39CE10E94F4
:104320008C07C0907B1CD0907C1CE0907D1CF09092
:104330007E1C2091731C3091741C4091751C50910F
:10434000761CC701B6010E94473C87FF38C0C09267
:10435000731CD092741CE092751CF092761C8091B4
:10436000211C9091221CA091231CB091241C8093AD
:10437000291190932A11A0932B11B0932C118091A5
:10438000251C9091261CA091271CB091281C80937D
:104390002D1190932E11A0932F11B0933011809175
:1043A0007F1C9091801CA091811CB091821C8093F5
:1043B000311190933211A0933311B09334114FEF18
:1043C000241A340AC6CB20E030E040E85FE3C501A0
:1043D000B4010E946E3B6B017C01C0927F1CD092A5
:1043E000801CE092811CF092821C0E94B63C4B0122
:1043F000FB013197EE0FFF1FEE0FFF1FEB50F44E46
:1044000040805180628073804092211C5092221C17
:104410006092231C7092241C20E030E040E85FE3AF
:10442000C701B6010E946E3B0E94B63C6F87788B35
:10443000898B9A8BEF85F8893197EE0FFF1FEE0F6E
:10444000FF1FEB50F44EC080D180E280F380A701C3
:104450009601C301B2010E946D3B6093291C7093C9
:104460002A1C80932B1C90932C1CC092731CD092FE
:10447000741CE092751CF092761C800E911EF40163
:10448000EE0FFF1FEE0FFF1FEF50F44E60817181A2
:104490008281938160937B1C70937C1C80937D1C34
:1044A00090937E1C6093251C7093261C8093271C80
:1044B0009093281CCF84D888C00ED11EF601EE0F31
:1044C000FF1FEE0FFF1FEF50F44E2081318142811C
:1044D000538120939B1C30939C1C40939D1C5093B4
:1044E0009E1C0E946D3B60932D1C70932E1C80932C
:1044F0002F1C9093301C89E29CE10E94D1062091F0
:10450000771C3091781C4091791C50917A1C0E9444
:104510006E3B6093771C7093781C8093791C90930A
:104520007A1C209121113091221140912311509138
:1045300024110E946D3B60937B1C70937C1C8093C4
:104540007D1C90937E1CE9CB8091731C9091741C10
:10455000A091751CB091761C809335119093361103
:10456000A0933711B093381180919B1C90919C1CA3
:10457000A0919D1CB0919E1CE4C92BED3FE049E445
:1045800050E46091731C7091741C8091751C909123
:10459000761C0E946E3B0E94F42D8111DFCC2BED26
:1045A0003FE049E450E46091731C7091741C809169
:1045B000751C9091761C0E946E3B4B015C0120E0C3
:1045C00030E0A9010E94473C811109C010929B1C58
:1045D00010929C1C10929D1C10929E1CCFCC2BED17
:1045E0003FE049EC50E4C501B4010E943E3D2B017F
:1045F0003C0140929B1C50929C1C60929D1C7092AE
:104600009E1C20E030E0A9010E94473C8823F1F283
:104610002BED3FE049EC50E4C501B4010E944E3C53
:104620006B017C01E894F7F8C092771CD092781C5B
:10463000E092791CF0927A1C20E030E040E05FE3E9
:10464000C701B6010E946E3B0E94243D9B01AC0154
:10465000C701B6010E946D3B9B01AC015F772B8BBC
:104660003C8B4D8B5E8B20E030E040E855E2C7018B
:10467000B6010E94D93E9B01AC016B897C898D8972
:104680009E890E94983E18160CF0A0CF20E030E0E2
:10469000A901C501B4010E94473C87FF6FCC2BEDF7
:1046A0003FE049EC50E4C301B2010E946E3B6093CD
:1046B0009B1C70939C1C80939D1C90939E1C5ECCB5
:1046C000C0909B1CD0909C1CE0909D1CF0909E1C68
:1046D00020E030E0A901C701B6010E94473C87FFF6
:1046E00005C080E090E0A0E8BFEBD3CC20E030E054
:1046F000A901C701B6010E94983E18162CF480E06B
:1047000090E0A0E8BFE3C5CC80E090E0DC01C1CC44
:10471000C0909B1CD0909C1CE0909D1CF0909E1C17
:1047200020E030E0A901C701B6010E94473C87FFA5
:1047300005C080E090E0A0E8BFEBD9CC20E030E0FD
:10474000A901C701B6010E94983E18162CF480E01A
:1047500090E0A0E8BFE3CBCC80E090E0DC01C7CCE8
:10476000C092771CD092781CE092791CF0927A1C4F
:104770000C945F188091731C9091741CA091751C0F
:10478000B091761C8093211C9093221CA093231C33
:10479000B093241C80919B1C90919C1CA0919D1C0B
:1047A000B0919E1C0C94A3188091831C9091841C42
:1047B000A091851CB091861C8093211C9093221C93
:1047C000A093231CB093241C1092251C1092261C2D
:1047D0001092271C1092281C0C94AB188090240275
:1047E00090902502A0902602B0902702A501940186
:1047F000C701B6010E94473C87FF02C00C94CF1945
:10480000C092771CD092781CE092791CF0927A1CAE
:104810000C94D7196091771C7091781C8091791C49
:1048200090917A1C0E94F42D81110C94F9196091D9
:10483000771C7091781C8091791C90917A1C20E0F3
:1048400030E040E857E40E943E3D6093771C70934F
:10485000781C8093791C90937A1C0C94011AC701E0
:10486000B6010E94BB3C8B010C941D1A809028025B
:1048700090902902A0902A02B0902B02A5019401E9
:10488000C701B6010E94473C87FF02C00C94371A4B
:10489000C092771CD092781CE092791CF0927A1C1E
:1048A0000C943F1A6091771C7091781C8091791C50
:1048B00090917A1C0E94F42D81110C94611A6091E0
:1048C000771C7091781C8091791C90917A1C20E063
:1048D00030E040E857E40E943E3D6093771C7093BF
:1048E000781C8093791C90937A1C0C94691AC701E8
:1048F000B6010E94BB3C7B010C94851A80E090E0DD
:10490000AFE7B3E48093771C9093781CA093791C55
:10491000B0937A1C0C94B91A80E090E0AFE7B3E44E
:104920008093771C9093781CA093791CB0937A1C89
:104930000C940F1B80E090E0AFE7B3E48093771C0A
:104940009093781CA093791CB0937A1C0C946A1BEA
:1049500080E090E0AFE7B3E48093771C9093781CFD
:10496000A093791CB0937A1C0C94C51B80902802EC
:1049700090902902A0902A02B0902B02A5019401E8
:10498000C701B6010E94983E87FF02C00C94191C13
:1049900010928F1C1092901C1092911C1092921CDD
:1049A000209108023091090240910A0250910B02B5
:1049B00060919B1C70919C1C80919D1C90919E1CF1
:1049C0000E94D93E4B015C0140908F1C5090901C7E
:1049D0006090911C7090921CC0900003D0900103D5
:1049E000E0900203F0900303A7019601C301B20116
:1049F0000E94983E00914603181614F00091470358
:104A0000A7019601C501B4010E94983E1091480388
:104A1000181614F010914903A7019601C301B201C1
:104A20000E94473C8823C9F1011337C08091780266
:104A300090917902A0917A02B0917B0280938F1CB1
:104A40009093901CA093911CB093921CC0907F1CDB
:104A5000D090801CE090811CF090821C80903C02E1
:104A600090903D02A0903E02B0903F02A5019401BB
:104A7000C701B6010E94983E1816C4F4A50194011E
:104A8000C701B6010E946D3B60937F1C7093801C30
:104A90008093811C9093821C21C080928F1C9092E5
:104AA000901CA092911CB092921CD0CF80902402B6
:104AB00090902502A0902602B0902702A5019401B3
:104AC000C701B6010E94983E87FDD8CF10927F1C87
:104AD0001092801C1092811C1092821C2091731CD9
:104AE0003091741C4091751C5091761C60910C02A1
:104AF00070910D0280910E0290910F020E94D93E9A
:104B000060939B1C70939C1C80939D1C90939E1C97
:104B10004090D5115090D6116090D7117090D81157
:104B20004092771C5092781C6092791C70927A1C8B
:104B30008091D9119091DA11A091DB11B091DC1123
:104B40008B8B9C8BAD8BBE8B8093871C9093881C2A
:104B5000A093891CB0938A1C2091DD113091DE1145
:104B60004091DF115091E0112F8B388F498F5A8F70
:104B700020938B1C30938C1C40938D1C50938E1C67
:104B800080901D1C90901E1CA0901F1CB090201C9B
:104B9000C501B4010E944B3C2091A71C3091A81C78
:104BA0004091A91C5091AA1C2F87388B498B5A8B96
:104BB000C090BC02D090BD02E090BE02F090BF0257
:104BC0000E94D93EA70196010E94D93EA3019201FD
:104BD0000E946E3B6093D5117093D6118093D711CC
:104BE0009093D811C501B4010E943C3F9B01AC01D8
:104BF0006F85788989899A890E94D93EA701960193
:104C00000E94D93E2B893C894D895E890E946E3B6A
:104C10006093D9117093DA118093DB119093DC11BA
:104C200020919F1C3091A01C4091A11C5091A21C6E
:104C30006091B0027091B1028091B2029091B30282
:104C40000E94D93E4B015C012091A31C3091A41C11
:104C50004091A51C5091A61C6091B8027091B902B8
:104C60008091BA029091BB020E94D93E9B01AC0197
:104C7000C501B4010E946E3B2091080330910903E5
:104C800040910A0350910B030E94D93EA70196015F
:104C90000E94D93E2F89388D498D5A8D0E946E3BD6
:104CA0006093DD117093DE118093DF119093E0111A
:104CB00041EE51E167E57CE183E59CE1DDD765EEFE
:104CC00071E187ED9CE10E94542F8091931C90919B
:104CD000941CA091951CB091961C8093E91190931F
:104CE000EA11A093EB11B093EC1180919F1C90916D
:104CF000A01CA091A11CB091A21C809301129093C2
:104D00000212A0930312B09304128091971C909109
:104D1000981CA091991CB0919A1C8093ED119093CE
:104D2000EE11A093EF11B093F0118091A31C90911C
:104D3000A41CA091A51CB091A61C80930512909371
:104D40000612A0930712B093081280907F1C9090D7
:104D5000801CA090811CB090821CC0900403D09055
:104D60000503E0900603F0900703A7019601C50133
:104D7000B4010E94983E00914203181614F000916D
:104D8000430320919B1C30919C1C40919D1C509191
:104D90009E1CC701B6010E94473C1091440387FF47
:104DA00010914503A7019601C501B4010E94473C3B
:104DB000882391F0011310C08091740290917502C4
:104DC000A0917602B091770280939B1C90939C1CDB
:104DD000A0939D1CB0939E1C20919B1C30919C1C09
:104DE00040919D1C50919E1C6091E8027091E902D7
:104DF0008091EA029091EB020E94D93E2091F1113C
:104E00003091F2114091F3115091F4110E946E3BD8
:104E10006093F1117093F2118093F3119093F41158
:104E20002091831C3091841C4091851C5091861CDC
:104E30006091EC027091ED028091EE029091EF0290
:104E40000E94D93E2091F5113091F6114091F71151
:104E50005091F8110E946E3B6093F5117093F6111A
:104E60008093F7119093F81120918F1C3091901C32
:104E70004091911C5091921C6091F4027091F50246
:104E80008091F6029091F7020E94D93E2091F9118B
:104E90003091FA114091FB115091FC110E946E3B30
:104EA0006093F9117093FA118093FB119093FC11A8
:104EB00020917B1C30917C1C40917D1C50917E1C6C
:104EC0006091F8027091F9028091FA029091FB02D0
:104ED0000E94D93E2091FD113091FE114091FF11A9
:104EE000509100120E946E3B6093FD117093FE1171
:104EF0008093FF1190930012A0960FB6F894DEBF36
:104F00000FBECDBFDF91CF911F910F91FF90EF901A
:104F1000DF90CF90BF90AF909F908F907F906F90D9
:104F20005F904F903F902F90089520E030E040EA4E
:104F300051E4C701B6010E94983E87FD02C00C945F
:104F4000A0130C94E0134F925F926F927F928F9216
:104F50009F92AF92BF92CF92DF92EF92FF920F9308
:104F60001F93CF93DF93CDB7DEB762970FB6F89458
:104F7000DEBF0FBECDBFC0904802D0904902E09086
:104F80004A02F0904B02A70196016091891170913D
:104F90008A1180918B1190918C110E94473C88233B
:104FA00041F0C0928911D0928A11E0928B11F09257
:104FB0008C1166E370E080E090E00E9470019093B5
:104FC00088118093871143E050E0BE016F5E7F4FF0
:104FD0000E945F0120913C0330913D03A989BA8969
:104FE0000E9434486B017C0184E3C81683E3D80631
:104FF00083E8E80681E0F80678F522E030E0AE01CB
:105000004F5F5F4FC701B6010E944E0E02E010E0F5
:105010009E01275F3F4F41E050E062E070E0CE012B
:1050200001960E94340D42E050E062E37DE0CE0143
:1050300009960E942E0D882351F061E010E000E0F7
:10504000C114D10480E7E80681E0F80618F460E0B6
:1050500001E010E0F12C05C060E010E000E0FF246A
:10506000F3948DE00E94EA016F2D8BE00E94EA012B
:10507000C0900D12D0900E12E0900F12F09010120E
:10508000C701B6010E94E93C2B013C0120911403A9
:105090003091150340911603509117030E94473C2D
:1050A00087FF4FC0F7FC4DC080900C0390900D031C
:1050B000A0900E03B0900F0320E030E040E85FE3E3
:1050C000609110037091110380911203909113036A
:1050D0000E946D3B9B01AC01C301B2010E94983E4E
:1050E00087FD33C010920D1210920E1210920F1203
:1050F0001092101220E030E0A901C501B4010E9415
:10510000473C882319F061E0012B09F460E08CE052
:105110000E94EA0162960FB6F894DEBF0FBECDBFC3
:10512000DF91CF911F910F91FF90EF90DF90CF9083
:10513000BF90AF909F908F907F906F905F904F90B7
:105140000895812C912C5401B7CF8FEFC81AD80A3B
:10515000E80AF80AC0920D12D0920E12E0920F12D5
:10516000F0921012C7CF8F929F92AF92BF92EF92A0
:10517000FF920F931F93CF9384E090E0FED4E6E874
:10518000FDE084E0DF011D928A95E9F7E5EFFBE1A0
:105190008AEEDF011D928A95E9F7E9EDF0E18CE1F5
:1051A0009BE0DF019C011D9221503040E1F7C1E0FE
:1051B000C093E81B80916C0290916D02A0916E02E9
:1051C000B0916F028093711190937211A09373113B
:1051D000B0937411812C912C5401839480926A11A4
:1051E00090926B11A0926C11B0926D1165E470E019
:1051F00080E090E00E94B4019093701180936F1151
:10520000C0936E1110927511C093E91B80916802D2
:1052100090916902A0916A02B0916B0280937D1116
:1052200090937E11A0937F11B0938011809276119C
:1052300090927711A0927811B092791164E470E0A5
:1052400080E090E00E94B40190937C1180937B11E8
:10525000C0937A11C093F01B80914C0290914D0243
:10526000A0914E02B0914F02809325119093261188
:10527000A0932711B0932811809150029091510270
:10528000A0915202B091530280931D1190931E1170
:10529000A0931F11B0932011809154029091550258
:1052A000A0915602B0915702809321119093221140
:1052B000A0932311B09324118092D9109092DA1008
:1052C000A092DB10B092DC108091EB1C9091EC1C52
:1052D000A091ED1CB091EE1CE9E4F1E18193919372
:1052E000A193B19331E1E936F307C1F7109235117B
:1052F0001092361110923711109238111092391104
:1053000010923A1110923B1110923C1110923D11E3
:1053100010923E1110923F111092401110924111C3
:1053200010924211109243111092441110924511A3
:105330001092461110924711109248118093291132
:1053400090932A11A0932B11B0932C1180932D11BF
:1053500090932E11A0932F11B09330111092311110
:105360001092321110923311109234111092CD110B
:10537000C1E0C093EF1B812C912C54018394809247
:10538000CE119092CF11A092D011B092D111E12CF8
:10539000F12C8701A801970167E070E080E090E0C0
:1053A0000E946C029093D4118093D311C093D211B8
:1053B0001092C511C093EE1B8092C6119092C71136
:1053C000A092C811B092C911A801970165E070E0E0
:1053D00080E090E00E946C029093CC118093CB11FE
:1053E000C093CA111092BD11C093ED1B8092BE11E3
:1053F0009092BF11A092C011B092C111A801970163
:1054000068E070E080E090E00E946C029093C4112C
:105410008093C311C093C2111092B511C093EC1BBD
:105420008092B6119092B711A092B811B092B911B2
:10543000A801970166E070E080E090E00E946C02B5
:105440009093BC118093BB11C093BA111092951127
:10545000C093EB1B8092961190929711A092981195
:10546000B092991161E089E00E94E201C0939A1123
:1054700010928D11C093EA1B80928E1190928F1121
:10548000A0929011B092911161E084E00E94E2013B
:10549000C093921110928111C093F41B8091480225
:1054A00090914902A0914A02B0914B0280938911D8
:1054B00090938A11A0938B11B0938C1180928211DA
:1054C00090928311A0928411B092851166E370E0EE
:1054D00080E090E00E94B40190938811809387113E
:1054E000C09386111092AD11C093F31B8092AE1140
:1054F0009092AF11A092B011B092B11161E08DE025
:105500000E94E201C093B2111092A511C093F21B48
:105510008092A6119092A711A092A811B092A91101
:1055200061E08BE00E94E201C093AA1110920D127B
:1055300010920E1210920F121092101210929D11D2
:10554000C093F11B80929E1190929F11A092A01186
:10555000B092A11161E08CE00E94E201C093A2111F
:105560008091C0029091C102A091C202B091C30289
:105570008093D5119093D611A093D711B093D811E1
:105580008093D9119093DA11A093DB11B093DC11C1
:105590008093DD119093DE11A093DF11B093E011A1
:1055A000E092E111F092E2110093E3111093E41103
:1055B000E092E511F092E6110093E7111093E811E3
:1055C00040911002509111026091120270911302E9
:1055D0004093E9115093EA116093EB117093EC1131
:1055E0008091E4029091E502A091E602B091E70279
:1055F0008093011290930212A0930312B0930412AD
:105600004093ED115093EE116093EF117093F011F0
:105610008093051290930612A0930712B09308127C
:1056200080911C0290911D02A0911E02B0911F0258
:105630008093F1119093F211A093F311B093F411B0
:105640008091140290911502A0911602B091170258
:105650008093F5119093F611A093F711B093F81180
:105660008091200290912102A0912202B091230208
:105670008093F9119093FA11A093FB11B093FC1150
:105680008091180290911902A0911A02B0911B0208
:105690008093FD119093FE11A093FF11B09300121F
:1056A00084EC99E0EEE6F3E0A1E2B2E101900D9224
:1056B0000197E1F71092E71B1092E61B1092E51B91
:1056C000E0920912F0920A1200930B1210930C123E
:1056D000E092671CF092681C0093691C10936A1C8E
:1056E000E0926B1CF0926C1C00936D1C10936E1C6E
:1056F000E0926F1CF092701C0093711C1093721C4E
:1057000087E090E0A0E0B0E0809311129093121235
:10571000A0931312B093141282E897EBA1E3B4E4C0
:105720008093151290931612A0931712B09318122B
:1057300085EE95E5AAE9B5E18093191290931A12C6
:10574000A0931B12B0931C12A80197016091351110
:105750007091361180913711909138110E94D93E85
:1057600060933511709336118093371190933811EF
:1057700085EB9BE3A2E1BFE180931D1290931E1283
:10578000A0931F12B0932012A801970160913911C4
:1057900070913A1180913B1190913C110E94D93E39
:1057A0006093391170933A1180933B1190933C119F
:1057B000A801970160913D1170913E1180913F11B8
:1057C000909140110E94D93E60933D1170933E111B
:1057D00080933F1190934011A8019701609141116E
:1057E0007091421180914311909144110E94D93ED1
:1057F000609341117093421180934311909344112F
:10580000A80197016091451170914611809147114F
:10581000909148110E94D93E6093451170934611B2
:1058200080934711909348118091EB1C9091EC1C50
:10583000A091ED1CB091EE1C8093291190932A1138
:10584000A0932B11B0932C1180932D1190932E11B6
:10585000A0932F11B0933011A801970160913111DD
:105860007091321180913311909134110E94D93E80
:1058700060933111709332118093331190933411EE
:10588000CF911F910F91FF90EF90BF90AF909F909D
:105890008F9008958091691181111FC081E08093DC
:1058A000691180916A1190916B11A0916C11B09166
:1058B0006D110197A105B10581F480916E118823C6
:1058C00061F065E470E080E090E00E9470019093E8
:1058D000701180936F110E94D70180917511811111
:1058E0001FC081E08093751180917611909177119E
:1058F000A0917811B09179110197A105B10581F4BA
:1059000080917A11882361F064E470E080E090E097
:105910000E94700190937C1180937B110E94D701AB
:105920008091CD1181112EC081E08093CD118091A5
:10593000CE119091CF11A091D011B091D1110197BA
:10594000A105B105F9F48091D2118823D9F067E05F
:1059500070E080E090E00E9428029093D411809340
:10596000D31140E050E0BA010E94F10167E070E01D
:1059700080E090E00E9428029093D4118093D3118C
:105980000E94BD028091C51181112EC081E08093DB
:10599000C5118091C6119091C711A091C811B09105
:1059A000C9110197A105B105F9F48091CA118823A5
:1059B000D9F065E070E080E090E00E9428029093CA
:1059C000CC118093CB1140E050E0BA010E94F1016C
:1059D00065E070E080E090E00E9428029093CC1196
:1059E0008093CB110E94BD028091BD1181112EC008
:1059F00081E08093BD118091BE119091BF11A09163
:105A0000C011B091C1110197A105B105F9F48091C0
:105A1000C2118823D9F068E070E080E090E00E9435
:105A200028029093C4118093C31140E050E0BA0162
:105A30000E94F10168E070E080E090E00E9428029E
:105A40009093C4118093C3110E94BD028091B5113F
:105A500081112EC081E08093B5118091B611909193
:105A6000B711A091B811B091B9110197A105B10575
:105A7000F9F48091BA118823D9F066E070E080E0F3
:105A800090E00E9428029093BC118093BB1140E0EB
:105A900050E0BA010E94F10166E070E080E090E021
:105AA0000E9428029093BC118093BB110E94BD02FA
:105AB00080919511811103C081E0809395118091AF
:105AC0008D11811103C081E080938D11809181112E
:105AD00081111FC081E0809381118091821190918A
