:1000000014C100000C9432170C945D170C948817DF
:100010000C94B3170C94DE170C9409180C94341834
:100020000C945F1833C1000031C100002FC10000E3
:100030002DC100002BC1000029C1000027C1000014
:1000400025C1000023C1000021C100001FC1000024
:100050001DC100001BC1000019C100000C948A18CA
:1000600015C100000C942B1C0C94611C0FC10000E6
:100070000DC100000BC1000009C1000007C1000054
:1000800005C1000003C1000001C10000FFC0000065
:100090000C94B71C0C94ED1CF9C00000F7C00000D4
:1000A000F5C00000F3C00000F1C00000EFC0000088
:1000B000EDC00000EBC00000E9C00000E7C0000098
:1000C000E5C00000E3C000000C9418130C94431D1D
:1000D0000C94791DDBC000000C94CF1D0C94051E00
:1000E000D5C0000005A84CCDB2D44EB93836A9020F
:1000F0000C50B9918688083CA6AAAA2ABE00000026
:10010000803F00000A0B02090C0D0E0807030401D2
:1001100000000000000000000000000000000000DF
:1001200000000000000000000000000000001211AC
:1001300010000000000000000000000000000000AF
:10014000000000000000000001021020200808103C
:100150002040102040800201020108040201010237
:100160000408102040808040201008040201800410
:10017000020180402010080402010804020101026B
:10018000040810204080010204081020408005056A
:100190000505070508080808020202020A0A0808FD
:1001A000040404040101010101010101030303032B
:1001B00003030303040707070C0C0C0C0C0C0C0CBA
:1001C0000202020206060606060606060B0B0B0BCB
:1001D0000B0B0B0B000020002300260029002C0035
:1001E0002F00320000010000030106010901000098
:1001F0002200250028002B002E00310034000201CF
:100200000000050108010B01000021002400270067
:100210002A002D0030003300010100000401070115
:100220000A018A1C161DA21D2E1E11241FBECFEF0F
:10023000D1E2DEBFCDBF00E00CBF13E0A0E0B2E032
:10024000E8EBFDE300E00BBF02C007900D92AC337A
:10025000B107D9F726E0ACE3B3E001C01D92AF3897
:10026000B207E1F711E0C5E1D1E000E006C0219757
:100270000109802FFE010E94B91EC131D10780E023
:100280000807A9F70E947F130C94DA1EB9CECF920B
:10029000DF92EF92FF92CF93882351F16A017B01A5
:1002A000CFEFC80F20E030E0A901CB01B6010E94DA
:1002B0001B1487FF11C0C701B60190580E94271474
:1002C0009B01AC016C2F70E090E080E0CF91FF903B
:1002D000EF90DF90CF90B2C0C701B6010E94221408
:1002E0008C2FCF91FF90EF90DF90CF900C94361928
:1002F000CF91FF90EF90DF90CF9008950F931F93D1
:100300008B019C0183E036952795179507958A9573
:10031000D1F7045C1C4F462F477021E030E0F90113
:1003200002C0EE0FFF1F4A95E2F7AF01F8012081EE
:100330002423CB010196211102C090E080E01F919F
:100340000F9108950F931F938B019C0183E03695C5
:100350002795179507958A95D1F7677081E090E00A
:1003600001C0880F6A95EAF7F801E45CFC4F208130
:10037000452B31F48095822380831F910F9108953E
:10038000822BFACF2F923F924F925F926F927F9281
:100390008F929F92AF92BF92CF92DF92EF92FF9295
:1003A0000F931F93CF93DF93D62EC72E782E692EEF
:1003B00049015A01280161E08D2D0E94701ACD2D4E
:1003C000DC2D8E010F5F1F4FA8016D2D7C2D872D19
:1003D000962DB8DF20E030E0A901C201B7010E94EC
:1003E000DF15181664F4C201B7010E9427142B010F
:1003F000C501B4010E942714A201CE0123D0C80177
:10040000DF91CF911F910F91FF90EF90DF90CF90F0
:10041000BF90AF909F908F907F906F905F904F9024
:100420003F902F900895882341F08150682F70E00D
:1004300090E080E050E040E085CF0895862FB9013C
:100440000C9436199C01FC01EE5FFE4FE491E150E3
:10045000E231E0F4F0E08827EF5CFD4F8F4F0C9421
:10046000B91E43024A024D026402790246028E021C
:100470009A029E02B502CA02DF02F6020B0346028E
:10048000200337034C0384B5806884BD60E0822F6D
:100490000C94AC1A84B58062F8CF809180008C7F78
:1004A00082608093800080918100807E8061682BD3
:1004B0006093810050938700409386008091800074
:1004C000806880938000E2CF809180008C7F826082
:1004D0008093800080918100807E8061682B609392
:1004E0008100509387004093860080918000806255
:1004F000E8CF809180008C7F826080938000809123
:100500008100807E8061682B60938100509387001A
:1005100040938600809180008860D3CF8091B000A6
:1005200080688093B0008091B100887F682B6093D1
:10053000B100ACCF8091B0008062F3CF8091900089
:100540008C7F82608093900080919100807E80619A
:10055000682B609391005093970040939600809190
:10056000900080688093900091CF809190008C7F64
:1005700082608093900080919100807E8061682BE2
:100580006093910050939700409396008091900063
:100590008062E8CF809190008C7F82608093900091
:1005A00080919100807E8061682B609391005093D0
:1005B000970040939600809190008860D3CF8091FF
:1005C000A0008C7F82608093A0008091A100807E3B
:1005D0008061682B6093A1005093A7004093A60010
:1005E0008091A00080688093A00050CF8091A000EF
:1005F0008C7F82608093A0008091A100807E8061CA
:10060000682B6093A1005093A7004093A6008091AF
:10061000A0008062E8CF8091A0008C7F82608093F0
:10062000A0008091A100807E8061682B6093A10072
:100630005093A7004093A6008091A0008860D3CF7C
:10064000809120018C7F8260809320018091210124
:10065000807E8061682B6093210150932701409335
:100660002601809120018068809320010FCF809126
:1006700020018C7F82608093200180912101807E07
:100680008061682B609321015093270140932601DC
:10069000809120018062E8CF809120018C7F826070
:1006A0008093200180912101807E8061682B60937E
:1006B00021015093270140932601809120018860F9
:1006C000D3CF611102C00C94701A6130E1F362E083
:1006D000FACF662319F061E00C94AC1A60E0FCCF0D
:1006E0002F923F924F925F926F927F928F929F9242
:1006F000AF92BF92CF92DF92EF92FF920F931F9330
:10070000CF93DF9300D01F92CDB7DEB78B015C8310
:100710004B83FB01E150F04CEE0FFF1FEE0FFF1F6C
:10072000E80FF91F408151816281738177FD27C0F5
:100730004C01B12CA12CC12CD12C7601A016B106F4
:1007400064F5F40161917191819191914F010E9441
:1007500053144B815C810E94E5159B01AC01C701DC
:10076000B6010E94B7136B017C012B813C81205E96
:100770003F4F3C832B833FEFA31AB30ADFCF9A830B
:100780008983312C212C81E090E0A0E0B0E0C12CE5
:10079000D12C760120163106CCF0C701B6010F909E
:1007A0000F900F900F90DF91CF911F910F91FF90BD
:1007B000EF90DF90CF90BF90AF909F908F907F9001
:1007C0006F905F904F903F902F900895E981FA814C
:1007D0004190519061907190FA83E98340945094D4
:1007E0006094709453014201880E991EAA1EBB1E8C
:1007F000C501B4010E9453144B815C810E94E51530
:100800009B01AC01C701B6010E94B6136B017C01CC
:1008100081E084149504A604B70408F080E090E019
:10082000B0E0A0E02B813C81205E3F4F3C832B83D6
:100830003FEF231A330AAECF2F923F924F925F922F
:100840006F927F928F929F92AF92BF92CF92DF92E0
:10085000EF92FF920F931F93CF93DF93CDB7DEB745
:10086000CB54D1090FB6F894DEBF0FBECDBF26968C
:100870007FAF6EAF269728965FAF4EAF28973E8B1F
:100880002D8B2C96FFAEEEAE2C97FB01E150F04C79
:10089000EE0FFF1FEE0FFF1FE80FF91F8080918002
:1008A000A280B3808F8A988EA98EBA8EB501A401DA
:1008B000442777FD439555276627772729964FAF1D
:1008C0002997F901E150F04CEE0FFF1FEE0FFF1FCB
:1008D0002896AEACBFAC2897EA0DFB1DC080D18036
:1008E000E280F380CB8EDC8EED8EFE8EB701A6010A
:1008F000442777FD43955527662777272A964FAFDC
:100900002A97188B0F87F80130E020E02C96EEAC88
:10091000FFAC2C972E153F050CF43FC022969FAFDD
:100920008EAF22971A8B098B312C212C812C912C84
:10093000540183948D829E82AF82B88626968EACB7
:100940009FAC2697281439047CF129969FAC2997EF
:100950002A96AFAC2A9730E020E041E050E060E01A
:1009600070E09A10F5C1C55BDF4F0FB6F894DEBF9B
:100970000FBECDBFDF91CF911F910F91FF90EF90F0
:10098000DF90CF90BF90AF909F908F907F906F90AF
:100990005F904F903F902F90089511921192119275
:1009A00011922F5F3F4FB2CF2296EEADFFAD22974F
:1009B00081919191A191B1912296FFAFEEAF2297D3
:1009C0008F88988CA98CBA8CB7FE23C04D815E812C
:1009D0006F81788541505109610971095A016B0194
:1009E000A81AB90ACA0ADB0AD601C50121E0CD80DE
:1009F000DE80EF80F8848C159D05AE05BF0508F0FC
:100A000020E0822E912CB12CA12C8D829E82AF826F
:100A1000B8865D01CC24DD24A8A2B9A2CAA2DBA2BB
:100A20009C01AD01442755272CA33DA34EA35FA3F2
:100A30002C96EEADFFAD2C97E219F3098D889E88B8
:100A40008E169F060CF4F4012896AEACBFAC289726
:100A50002496BFAEAEAE2497C988DA88DC8ACB8AEA
:100A60001E861D86812C912C5401839489869A863A
:100A7000AB86BC86812C912C5401CD84DE84CE16AD
:100A8000DF0604F1F7FF02C0F0E0E0E0E20DF31D45
:100A90002C96EEACFFAC2C97EE15FF0554F4EE0F40
:100AA000FF1FEE0FFF1FE00FF11F80829182A282D5
:100AB000B3822FEF221A320AE989FA893496FA8B27
:100AC000E98B3CCF2496AEADBFAD2497CD90DD90A1
:100AD000ED90FD902496BFAFAEAF24972B8D3C8D4B
:100AE0004D8D5E8D57FF22C089859A85AB85BC856B
:100AF0000197A109B109AC01BD014C195D096E094D
:100B00007F096A017B0181E029853A854B855C85F7
:100B1000C216D306E406F50608F080E0482F50E040
:100B200070E060E049875A876B877C87B701882728
:100B3000992768A779A78AA79BA7EE24FF2428A155
:100B400039A14AA15BA1C701B6010E94881E2B01F1
:100B50003C012CA13DA14EA15FA168A579A58AA564
:100B60009BA50E94881E6CA77DA78EA79FA7AB8917
:100B7000BC894D915D916D917D91BC8BAB8BDB01FF
:100B8000CA01880D991DAA1DBB1D89839A83AB8359
:100B9000BC8391E09F8F29813A814B815C8128152C
:100BA00039054A055B0508F01F8E2CA13DA14EA119
:100BB0005FA1C701B6010E94881E6B017C0189807C
:100BC0009A80AB80BC808C0C9D1CAE1CBF1C8982A3
:100BD0009A82AB82BC8252019924882488AA99AA5D
:100BE000AAAABBAA29813A814B815C81280D391DB3
:100BF0004A1D5B1D2CAB3DAB4EAB5FAB8CA49DA4E3
:100C0000AEA4BFA454019924882488AE99AEAAAE9C
:100C1000BBAE280D391D4A1D5B1D2CAF3DAF4EAF3D
:100C20005FAFAB89BC8914972D933D934D935C9333
:100C3000139728A139A14AA15BA168A579A58AA526
:100C40009BA50E94881E9F8C690D711D811D911DA1
:100C5000230166247724460E571E681E791E2CA594
:100C60003DA54EA55FA54A01AA24BB24840C951C72
:100C7000A61CB71C81E090E0A0E0B0E049815A8159
:100C80006B817C814C155D056E057F0518F080E059
:100C900090E0DC01880D991DAA1DBB1D41E050E0CC
:100CA00060E070E088A899A8AAA8BBA8CCA8DDA895
:100CB000EEA8FFA8C814D904EA04FB0418F040E029
:100CC00050E0BA01840F951FA61FB71F812C912CED
:100CD00054018394C8ACD9ACEAACFBAC2CAD3DADAF
:100CE0004EAD5FAD2C153D054E055F0518F0812C0E
:100CF000912C5401880E991EAA1EBB1E4D855E853F
:100D00004F5F5F4F5E874D87B8CEEF85F889C19002
:100D1000D190E190F190F88BEF87DB01CA01019748
:100D2000A109B1098C199D09AE09BF0934978083C7
:100D30009183A283B383E1E084179507A607B707E1
:100D400008F0E0E04E2F50E070E060E02F5F3F4F92
:100D50002C968EAC9FAC2C9728153905B4F203CE97
:100D60004F925F926F927F928F929F92AF92BF92BB
:100D7000CF92DF92EF92FF920F931F93CF93DF9367
:100D8000CDB7DEB7A8970FB6F894DEBF0FBECDBFC4
:100D90008091F7059091F805A091F905B091FA05B9
:100DA0008093310690933206A0933306B0933406B5
:100DB0008091FB059091FC05A091FD05B091FE0589
:100DC0008093350690933606A0933706B093380685
:100DD0008091FF0590910006A0910106B091020656
:100DE0008093390690933A06A0933B06B0933C0655
:100DF00063E076E08DE696E00E9459128091D00281
:100E00009091D102A091D202B091D302898B9A8B9A
:100E1000AB8BBC8B80916D0690916E06A0916F0696
:100E2000B09170068D8B9E8BAF8BB88F42E0E42E15
:100E3000F12C8E01075F1F4F21E030E0AE014B5EC9
:100E40005F4F61E070E0CE014196F6DC50E040E09B
:100E500062E070E088EC92E043DC20E030E040E8C3
:100E600050E40E9419166B017C01C0925D06D0927D
:100E70005E06E0925F06F092600650E040E062E0BD
:100E800070E0C8012DDC20E030E040E05AE20E9432
:100E90001916A70196010E941916609359067093BE
:100EA0005A0680935B0690935C068091D4029091E1
:100EB000D502A091D602B091D702898B9A8BAB8BC9
:100EC000BC8B8091710690917206A0917306B091CF
:100ED00074068D8B9E8BAF8BB88F52E0E52EF12C74
:100EE0000850110921E030E0AE014B5E5F4F61E038
:100EF00070E0CE014196A0DC50E040E062E070E09E
:100F0000C801EEDB20E030E040E05AE20E94191612
:100F100020915D0630915E0640915F06509160061B
:100F20000E9419166B017C01C0925D06D0925E068C
:100F3000E0925F06F0926006209107063091080665
:100F40004091090650910A066091590670915A061F
:100F500080915B0690915C060E94B6134B015C0188
:100F60008092690690926A06A0926B06B0926C0617
:100F700020910B0630910C0640910D0650910E0603
:100F8000C701B6010E94B613698F7A8F8B8F9C8F31
:100F90002091390630913A0640913B0650913C062B
:100FA00060919402709195028091960290919702BF
:100FB0000E94B61360933D0670933E0680933F06F1
:100FC00090934006209140023091410240914202AC
:100FD000509143020E94191620910F06309110067D
:100FE00040911106509112060E94B7136B017C01CB
:100FF000C0924106D0924206E0924306F092440627
:1010000040904C0250904D0260904E0270904F0202
:10101000A30192010E94DF1518160CF02AC340921A
:10102000490650924A0660924B0670924C062091F7
:1010300078023091790240917A0250917B02C50189
:10104000B4010E9419166B017C012091800230913D
:1010500081024091820250918302698D7A8D8B8D3D
:101060009C8D0E9419169B01AC01C701B6010E941C
:10107000B71369A37AA38BA39CA3409090025090CE
:1010800091026090920270909302C0904906D090B5
:101090004A06E0904B06F0904C0620916802309191
:1010A000690240916A0250916B02C301B2010E9431
:1010B00019164B015C012091700230917102409130
:1010C000720250917302C701B6010E9419169B016A
:1010D000AC01C501B4010E94B713209123063091E1
:1010E000240640912506509126060E94B6134B0116
:1010F0005C018092610690926206A0926306B092B3
:10110000640620916C0230916D0240916E02509104
:101110006F02C301B2010E9419162B013C012091FC
:101120007402309175024091760250917702C701A6
:10113000B6010E9419169B01AC01C301B2010E94C5
:10114000B713209127063091280640912906509127
:101150002A060E94B6136B017C01C0926506D092EC
:101160006606E0926706F0926806209100023091D0
:1011700001024091020250910302C501B4010E9494
:1011800019162091170630911806409119065091B2
:101190001A060E94B613209138023091390240910C
:1011A0003A0250913B020E9419162B013C014092D9
:1011B000490650924A0660924B0670924C06209166
:1011C0004402309145024091460250914702C501C8
:1011D000B4010E9419162091130630911406409113
:1011E0001506509116060E94B713A30192010E94A2
:1011F000B7135B018C01CB01D80180934506909316
:101200004606A0934706B093480620910402309109
:1012100005024091060250910702C701B6010E94E3
:10122000191620911F0630912006409121065091F9
:1012300022060E94B61320913C0230913D0240915B
:101240003E0250913F020E9419162B013C01409230
:1012500051065092520660925306709254062091A5
:1012600048023091490240914A0250914B02C70115
:10127000B6010E94191620911B0630911C06409160
:101280001D0650911E060E94B713A30192010E94F1
:10129000B71360934D0670934E0680934F0690935C
:1012A0005006C0905002D0905102E0905202F0904F
:1012B00053029601A701B501C8010E94DF15181657
:1012C00094F0C0903002D0903102E0903202F09061
:1012D00033029601A701B501C8010E941B1487FDC6
:1012E00002C0650178012091A8023091A9024091C5
:1012F000AA025091AB02B601C7010E9419160E94C2
:1013000090146B017C01E9D78111CCC1C701B601F2
:10131000A1D78111C7C120E030E040E857E4C70100
:10132000B6010E94AA146B017C0120E030E0A90103
:101330000E941B1487FFB9C1C701B60190580E94D3
:10134000271400271127061B170B80904D0690903D
:101350004E06A0904F06B0905006C0905402D09018
:101360005502E0905602F09057029601A701B40191
:10137000C5010E94DF15181694F0C0903402D09079
:101380003502E0903602F09037029601A701B401D1
:10139000C5010E941B1487FD02C0640175012091E4
:1013A000B4023091B5024091B6025091B702B60135
:1013B000C7010E9419160E9490146B017C018DD701
:1013C000811179C1C701B60145D7811174C120E0EF
:1013D00030E040E857E4C701B6010E94AA146B014F
:1013E0007C0120E030E0A9010E941B1487FF66C148
:1013F000C701B60190580E942714EE24FF24E61A74
:10140000F70A67E070E080E090E00E947E016C01E6
:101410009093E6058093E5056091D8027091D9021A
:101420006E157F0544F06091DA027091DB026E1553
:101430007F050CF4B701072E000C880B990B0E9456
:1014400055144B015C0120E030E04FE753E40E946B
:101450001B1418160CF438C120E030E0A901C501B6
:10146000B4010E94DF1587FF03C0812C912C540129
:10147000B501A401C6010E94470165E070E080E06B
:1014800090E00E947E016C019093DE058093DD0563
:101490006091DC027091DD026017710744F0609189
:1014A000DE027091DF02601771070CF4B801072E9D
:1014B000000C880B990B0E9455144B015C0120E035
:1014C00030E04FE753E40E941B1418160CF403C1DC
:1014D00020E030E0A901C501B4010E94DF1587FFBB
:1014E00003C0812C912C5401B501A401C6010E94B6
:1014F000470168E070E080E090E00E947E016C01AE
:101500009093D6058093D5056091E0027091E10239
:101510006E157F0544F06091E2027091E3026E1552
:101520007F050CF4B70177FF03C0719561957109D0
:10153000072E000C880B990B0E9455144B015C017F
:1015400020E030E04FE753E40E941B1418160CF41F
:10155000C9C020E030E0A901C501B4010E94DF1537
:1015600087FF03C0812C912C5401B501A401C60151
:101570000E94470166E070E080E090E00E947E01FA
:101580006C019093CE058093CD056091E40270913B
:10159000E5026017710744F06091E6027091E7027E
:1015A000601771070CF4B80177FF03C0719561955E
:1015B0007109072E000C880B990B0E9455144B01E2
:1015C0005C0120E030E04FE753E40E941B14181642
:1015D0000CF48FC020E030E0A901C501B4010E94E5
:1015E000DF1587FF03C0812C912C5401B501A401A4
:1015F000C6010E94470161E0809158029091590212
:101600008E159F0509F460E089E063D861E0809160
:101610005A0290915B028017910709F460E084E020
:1016200058D8C0904D06D0904E06E0904F06F090EE
:1016300050068090540290905502A0905602B090AF
:101640005702A5019401C701B6010E94DF151816C3
:101650000CF056C0A5019401C701B6010E94B61353
:1016600060934D0670934E0680934F0690935006FC
:101670005FC040902C0250902D0260902E0270901E
:101680002F02A3019201C701B6010E941B1487FD1E
:10169000C6CCC0924906D0924A06E0924B06F09220
:1016A0004C06C5CCC12CD12C7601C701B6010E94D5
:1016B00027148B014ACEC12CD12C7601C701B6016B
:1016C0000E9427147B019DCE812C912C3FE7A32EF5
:1016D00033E4B32ECDCE812C912C2FE7A22E23E420
:1016E000B22E02CF812C912C9FE7A92E93E4B92E24
:1016F0003CCF812C912C8FE7A82E83E4B82E76CF97
:101700008090340290903502A0903602B09037025B
:10171000A5019401C701B6010E94DF1587FD9ACF8C
:1017200010924D0610924E0610924F0610925006DF
:10173000209108023091090240910A0250910B0257
:1017400060916506709166068091670690916806C3
:101750000E9419164B015C0140904D0650904E06B8
:1017600060904F0670905006C090B802D090B902B9
:10177000E090BA02F090BB02A7019601C301B2014A
:101780000E94DF151091F002181614F01091F1026A
:10179000A7019601C501B4010E94DF150091F20274
:1017A000181614F00091F302A7019601C301B201CB
:1017B0000E941B148823C1F1011336C0809164027A
:1017C00090916502A0916602B091670280934D06E8
:1017D00090934E06A0934F06B0935006C0904506D6
:1017E000D0904606E0904706F09048068090500260
:1017F00090905102A0905202B0905302A501940122
:10180000C701B6010E94DF151816BCF4A5019401AA
:10181000C701B601ABD76093450670934606809327
:1018200047069093480621C080924D0690924E063E
:10183000A0924F06B0925006D1CF80903002909087
:101840003102A0903202B0903302A5019401C70189
:10185000B6010E94DF1587FDD9CF10924506109280
:101860004606109247061092480620916106309174
:101870006206409163065091640660910C0270917B
:101880000D0280910E0290910F020E941916609332
:101890006506709366068093670690936806C0900D
:1018A0004106D0904206E0904306F09044068090B6
:1018B0004C0290904D02A0904E02B0904F02A501B4
:1018C0009401C701B6010E94DF15181674F4A50132
:1018D0009401C701B6014AD760934106709342064E
:1018E000809343069093440618C080902C029090F9
:1018F0002D02A0902E02B0902F02A5019401C701E5
:10190000B6010E94DF1587FDE2CF109241061092CA
:101910004206109243061092440620911002309124
:101920001102409112025091130260913D06709194
:101930003E0680913F06909140060E9419166093E2
:101940003D0670933E0680933F069093400680913B
:10195000F7059091F805A091F905B091FA058DA3CE
:101960009EA3AFA3B8A78091FB059091FC05A09121
:10197000FD05B091FE058D8F9E8FAF8FB8A380932C
:10198000610690936206A0936306B093640640904C
:10199000FF0550900006609001067090020640928C
:1019A00055065092560660925706709258068090DF
:1019B000390690903A06A0903B06B0903C06C501CF
:1019C000B4013DD7C0908802D0908902E0908A028D
:1019D000F0908B0229A13AA14BA15CA10E9419169B
:1019E000A70196010E9419162DA13EA14FA158A54D
:1019F000BED66093F7057093F8058093F905909330
:101A0000FA05C501B4010E947C1629A13AA14BA197
:101A10005CA10E941916A70196010E9419162D8D2E
:101A20003E8D4F8D58A1A3D66093FB057093FC05A6
:101A30008093FD059093FE052091690630916A061A
:101A400040916B0650916C0660917C0270917D0212
:101A500080917E0290917F020E9419164B015C01D9
:101A60002091840230918502409186025091870234
:101A7000698D7A8D8B8D9C8D0E9419169B01AC010E
:101A8000C501B40174D62091C4023091C5024091C1
:101A9000C6025091C7020E941916A70196010E9422
:101AA0001916A301920163D66093FF057093000697
:101AB000809301069093020663E076E08DE696E05F
:101AC00022D58090410690904206A0904306B090A7
:101AD0004406C090C002D090C102E090C202F090D3
:101AE000C302A7019601C501B4010E94DF15109140
:101AF000E802181614F01091E90220913D06309189
:101B00003E0640913F0650914006C701B60193D66C
:101B10000091EA0287FF0091EB02A7019601C5013F
:101B2000B40189D6882391F0011310C080915C0222
:101B300090915D02A0915E02B0915F0280933D069C
:101B400090933E06A0933F06B093400620913D0639
:101B500030913E0640913F065091400660919802B8
:101B60007091990280919A0290919B020E9419169D
:101B700020910F06309110064091110650911206E7
:101B8000F6D560930F06709310068093110690931C
:101B900012068091590690915A06A0915B06B09169
:101BA0005C068093070690930806A0930906B093FD
:101BB0000A068091690690916A06A0916B06B09121
:101BC0006C068093230690932406A0932506B09379
:101BD000260680915D0690915E06A0915F06B09109
:101BE000600680930B0690930C06A0930D06B093AD
:101BF0000E06898D9A8DAB8DBC8D809327069093B0
:101C00002806A0932906B0932A0680904506909056
:101C10004606A0904706B0904806C090BC02D090FF
:101C2000BD02E090BE02F090BF02A7019601C5017F
:101C3000B401C5D71091EC02181614F01091ED0202
:101C400020916506309166064091670650916806BE
:101C5000C701B601F0D50091EE0287FF0091EF02B7
:101C6000A7019601C501B401E6D5882391F00113BF
:101C700010C08091600290916102A0916202B091C7
:101C800063028093650690936606A0936706B093FF
:101C9000680620916506309166064091670650916E
:101CA00068066091A0027091A1028091A2029091B9
:101CB000A302BFD720911306309114064091150658
:101CC0005091160654D560931306709314068093B2
:101CD0001506909316062091490630914A064091C8
:101CE0004B0650914C066091A4027091A502809120
:101CF000A6029091A7029DD7209117063091180651
:101D00004091190650911A0632D5609317067093C8
:101D100018068093190690931A0620914D0630916B
:101D20004E0640914F06509150066091AC02709162
:101D3000AD028091AE029091AF027BD720911B063D
:101D400030911C0640911D0650911E0610D56093DF
:101D50001B0670931C0680931D0690931E0620910F
:101D600051063091520640915306509154066091AD
:101D7000B0027091B1028091B2029091B30259D732
:101D800020911F0630912006409121065091220695
:101D9000EED460931F0670932006809321069093E3
:101DA0002206A8960FB6F894DEBF0FBECDBFDF9116
:101DB000CF911F910F91FF90EF90DF90CF90BF9048
:101DC000AF909F908F907F906F905F904F9008950D
:101DD0008F929F92AF92BF92DF92EF92FF920F93FA
:101DE0001F93CF93DF9384E090E0FDD110924603E0
:101DF00010924503E1E3F6E084E4DF011D928A9549
:101E0000E9F7C7ECD5E08AE6FE0111928A95E9F779
:101E1000DD24D394D0923006812C912C54018394EC
:101E2000898E9A8EAB8EBC8EE12CF12C8701A80195
:101E3000970167E070E080E090E00E94C2019F8F10
:101E40008E8FDD8E188AD0922F06898A9A8AAB8A65
:101E5000BC8AA801970165E070E080E090E00E94F4
:101E6000C2019F8B8E8BDD8A1886D0922E068986C2
:101E70009A86AB86BC86A801970168E070E080E096
:101E800090E00E94C2019F878E87DD861882D092E3
:101E90002D0689829A82AB82BC82A801970166E0F6
:101EA00070E080E090E00E94C2019F838E83DD821B
:101EB00018A6D0922C0689A69AA6ABA6BCA661E06D
:101EC00089E00E946103DDA618A2D0922B0689A2A8
:101ED0009AA2ABA2BCA261E084E00E946103DDA2F1
:101EE000E0E0F2E080918C0290918D02A0918E0250
:101EF000B0918F0288AB99ABAAABBBAB8CAB9DAB5F
:101F0000AEABBFAB88AF99AFAAAFBBAFECAEFDAE87
:101F10000EAF1FAF80A191A1A2A1B3A180930F0624
:101F200090931006A0931106B09312064489558928
:101F300066897789409307065093080660930906DF
:101F400070930A0680919C0290919D02A0919E023E
:101F5000B0919F028093230690932406A0932506B8
:101F6000B093260640930B0650930C0660930D0623
:101F700070930E068093270690932806A093290657
:101F8000B0932A0684A195A1A6A1B7A180931306B8
:101F900090931406A0931506B0931606808D918D2C
:101FA000A28DB38D8093170690931806A0931906FF
:101FB000B0931A0680A591A5A2A5B3A580931B0690
:101FC00090931C06A0931D06B0931E06848D958DDC
:101FD000A68DB78D80931F0690932006A0932106AF
:101FE000B0932206DF91CF911F910F91FF90EF9058
:101FF000DF90BF90AF909F908F9008958091DF0504
:1020000081112EC081E08093DF058091E0059091E1
:10201000E105A091E205B091E3050197A105B105A5
:10202000F9F48091E4058823D9F067E070E080E05E
:1020300090E00E947E019093E6058093E50540E0E4
:1020400050E0BA010E94470167E070E080E090E054
:102050000E947E019093E6058093E5050E9413029D
:102060008091D70581112EC081E08093D7058091A2
:10207000D8059091D905A091DA05B091DB050197BB
:10208000A105B105F9F48091DC058823D9F065E05C
:1020900070E080E090E00E947E019093DE058093E6
:1020A000DD0540E050E0BA010E94470165E070E0C4
:1020B00080E090E00E947E019093DE058093DD0534
:1020C0000E9413028091CF0581112EC081E0809380
:1020D000CF058091D0059091D105A091D205B09106
:1020E000D3050197A105B105F9F48091D4058823A2
:1020F000D9F068E070E080E090E00E947E0190936B
:10210000D6058093D50540E050E0BA010E94470112
:1021100068E070E080E090E00E947E019093D60538
:102120008093D5050E9413028091C70581112EC0AE
:1021300081E08093C7058091C8059091C905A09161
:10214000CA05B091CB050197A105B105F9F48091BD
:10215000CC058823D9F066E070E080E090E00E9432
:102160007E019093CE058093CD0540E050E0BA010A
:102170000E94470166E070E080E090E00E947E01EE
:102180009093CE058093CD050E9413028091EF05B8
:10219000811103C081E08093EF058091E7058111F3
:1021A00003C081E08093E705089560E070E080E877
:1021B0009FE7089560E070E080E89FE7089560E0A1
:1021C00070E080E89FEF089560E070E080E89FEFA6
:1021D000089560E070E080EC9FEF089560E070E0AB
:1021E00080EC9FEF0895F5DF60938106709382067F
:1021F0008093830690938406F1DF60937506709355
:1022000076068093770690937806CFDF60937D06FD
:1022100070937E0680937F0690938006CBDF609359
:10222000790670937A0680937B0690937C06C7DFCD
:102230006093850670938606809387069093880640
:10224000C3DF6093890670938A0680938B06909310
:102250008C060895CF92DF92EF92FF92CF936B019D
:102260007C01AC019B0160917D0670917E0680919E
:102270007F0690918006DFD2C1E0882369F0A70134
:1022800096016091850670918606809187069091EF
:102290008806D1D28111C0E08C2FCF91FF90EF90B2
:1022A000DF90CF9008950F931F938B019C0100271F
:1022B000112720783F770115110520483F4749F441
:1022C000AB01BC016F77772781E0452B462B472B6D
:1022D00009F480E01F910F910895E5CFCF93DF932C
:1022E0008091F4029091F5020E94D91AEC0180913C
:1022F000F6029091F7020E94D91A0197C1F48091D9
:10230000F8029091F902A091FA02B091FB02219794
:10231000C1F40196A11DB11D8093F8029093F902BA
:10232000A093FA02B093FB02DF91CF9108958091C0
:10233000F8029091F902A091FA02B091FB02CD2B24
:1023400041F30197A109B109E7CFCF93DF938091C2
:10235000FC029091FD020E94D91AEC018091FE02CC
:102360009091FF020E94D91A0197C1F48091000355
:1023700090910103A0910203B09103032197C1F44E
:102380000196A11DB11D8093000390930103A093BA
:102390000203B0930303DF91CF910895809100036E
:1023A00090910103A0910203B0910303CD2B41F35F
:1023B0000197A109B109E7CFCF93DF938091FE0286
:1023C0009091FF020E94D91AEC018091FC02909139
:1023D000FD020E94D91A0197C1F4809100039091E7
:1023E0000103A0910203B0910303CD2BC1F4019628
:1023F000A11DB11D8093000390930103A0930203DC
:10240000B0930303DF91CF910895809100039091E1
:102410000103A0910203B0910303219741F30197B7
:10242000A109B109E7CFCF93DF938091F602909194
:10243000F7020E94D91AEC018091F4029091F50202
:102440000E94D91A0197C1F48091F8029091F90283
:10245000A091FA02B091FB02CD2BC1F40196A11D0F
:10246000B11D8093F8029093F902A093FA02B09301
:10247000FB02DF91CF9108958091F8029091F902CB
:10248000A091FA02B091FB02219741F30197A109B3
:10249000B109E7CF02978431910540F48A5E9C4FE1
:1024A000FC018081082E000C990B08958FEF9FEF9F
:1024B0000895CF93DF93EC0120E030E040E85FE344
:1024C000FB016081718182819381B5D1811118C036
:1024D0008091F8029091F902A091FA02B091FB026A
:1024E00088839983AA83BB83809100039091010321
:1024F000A0910203B09103038C839D83AE83BF83BD
:10250000DF91CF910895CF93DF93EB0120E030E08E
:1025100040E85FE3688179818A819B818CD188233F
:1025200009F460C08091F4029091F50260E0D8D780
:102530008091F6029091F70260E0D2D78091FC0280
:102540009091FD0260E0CCD78091FE029091FF0255
:1025500060E0C6D78091F4029091F50261E0FCD76B
:102560008091F6029091F70261E0F6D78091FC022B
:102570009091FD0261E0F0D78091FE029091FF0200
:1025800061E0EAD78091F4029091F50283DF41E0A7
:1025900050E063E172E1EDD38091F6029091F70291
:1025A00079DF41E050E06EE671E1E3D38091FC0217
:1025B0009091FD026FDF41E050E06CED71E1D9D305
:1025C0008091FE029091FF0265DF41E050E065EAF4
:1025D00071E1CFD380E090E0A0E8BFE388839983E6
:1025E000AA83BB83DF91CF91089526E030E040E8D5
:1025F00055E260E070E090E080E000C0813091053D
:1026000071F01CF4892B39F008958230910551F056
:10261000039759F0089583E593E00C94CB1B80EF6A
:1026200093E0FBCF8DE894E0F8CF8AE295E0F5CF18
:102630001F920F920FB60F9211240BB60F922F9389
:102640003F934F935F936F937F938F939F93AF933A
:10265000BF93EF93FF938FE89DEF909325018093B5
:10266000240134D0FF91EF91BF91AF919F918F9151
:102670007F916F915F914F913F912F910F900BBE82
:102680000F900FBE0F901F9018958FE89DEF9093BD
:10269000250180932401A3E7B0E08C918E7F8C9379
:1026A000E0E2F1E080818C7F8083E1E2F1E08081F3
:1026B000877E808380818460808380818C7F80831B
:1026C0008C9181608C93089581E0089580914703F7
:1026D00091E0980F90934703882349F021E030E080
:1026E00030934903209348038093470308957894D7
:1026F0000E94B006F894809147038150F5CFCF93A4
:10270000DF9310928E0610928D064ED56EDFC0912B
:102710001403D0911503198218825ADBF894B5DF9F
:1027200081E028813981232B09F080E080938D0698
:102730007894789480918D06811107C05FDCF894BD
:1027400090E080E0DF91CF91089581E02881398188
:10275000232B09F480E080938E0690918E0681E011
:10276000911180E080938D06AFDFE4CF5058BB27F6
:10277000AA270ED0C2C18BD130F090D120F031F415
:102780009F3F11F41EF480C10EF4E095E7FB4DC1AC
:10279000E92FD5D180F3BA1762077307840795072D
:1027A00018F071F49EF504C20EF4E0950B2EBA2FCA
:1027B000A02D0B01B90190010C01CA01A001112447
:1027C000FF27591B99F0593F50F4503E68F11A16F3
:1027D000F040A22F232F342F4427585FF3CF469584
:1027E00037952795A795F0405395C9F77EF41F16A6
:1027F000BA0B620B730B840BBAF09150A1F0FF0F70
:10280000BB1F661F771F881FC2F70EC0BA0F621F5B
:10281000731F841F48F4879577956795B795F7954B
:102820009E3F08F0B3CF9395880F08F09927EE0FDD
:10283000979587950895D5D008F481E0089536D10D
:10284000E3956CC104D06894B111B3C108957FD1F0
:1028500088F09F5790F0B92F9927B751A0F0D1F089
:10286000660F771F881F991F1AF0BA95C9F712C013
:10287000B13081F09DD1B1E008959AC1672F782FD2
:102880008827B85F39F0B93FCCF38695779567957F
:10289000B395D9F73EF490958095709561957F4FEB
:1028A0008F4F9F4F0895E89409C097FB3EF4909591
:1028B0008095709561957F4F8F4F9F4F9923A9F019
:1028C000F92F96E9BB279395F695879577956795A8
:1028D000B795F111F8CFFAF4BB0F11F460FF1BC0EC
:1028E0006F5F7F4F8F4F9F4F16C0882311F096E97F
:1028F00011C0772321F09EE8872F762F05C066232D
:1029000071F096E8862F70E060E02AF09A95660FE5
:10291000771F881FDAF7880F9695879597F908959E
:1029200030D180F09F3740F491110EF042C160E049
:1029300070E080E89FEB089526F41B16611D711D61
:10294000811D79C093C0A3D018F011F0A7D038F43E
:102950009BC02FC1E92FF3D0B0F35523C9F3E7FB98
:102960006217730784079507A8F199F3E92FFF27EA
:1029700088232AF03197660F771F881FDAF7952F83
:102980005527442332F091505040220F331F441FEB
:10299000D2F7BB27E91BF50B621B730B840BB10944
:1029A000C1F222F4620F731F841FB11D31972AF008
:1029B000660F771F881FBB1FEFCF915050405AF012
:1029C00041F0882332F0660F771F881F91505040E6
:1029D000C1F793954BC08695779567959F5FD9F71B
:1029E000F8CF990F0008550FAA0BE0E8FEEF161676
:1029F0001706E807F907C0F012161306E407F507F3
:102A000098F0621B730B840B950B39F40A2661F066
:102A1000232B242B252B21F408950A2609F4A14009
:102A2000A6958FEF811D811D089597F99F6780E816
:102A300070E060E00895882371F4772321F09850C6
:102A4000872B762F07C0662311F499270DC090516C
:102A5000862B70E060E02AF09A95660F771F881F3A
:102A6000DAF7880F9695879597F908959F3F31F08B
:102A7000915020F4879577956795B795880F911DAC
:102A80009695879597F908959FEF80EC0895002417
:102A90000A941616170618060906089500240A94C3
:102AA00012161306140605060895EECF50D0E8F36B
:102AB000E894E0E0BB279F57F0F02AED3FE049ECB7
:102AC00006C0EE0FBB0F661F771F881F28F0B23AB3
:102AD00062077307840728F0B25A620B730B840BEA
:102AE000E3959A9572F7803830F49A95BB0F661F7C
:102AF000771F881FD2F79048BBCF092E0394000C94
:102B000011F4882352F0BB0F40F4BF2B11F460FF87
:102B100004C06F5F7F4F8F4F9F4F0895EF93E0FF8B
:102B200006C0A2EA2AED3FE049EC5FEB31DEE5DFCB
:102B30000F90039401FC9058E4EEF0E0E3C057FDE1
:102B40009058440F551F59F05F3F71F04795880F1B
:102B500097FB991F61F09F3F79F0879508951216B2
:102B600013061406551FF2CF4695F1DF08C016165E
:102B700017061806991FF1CF86957105610508940F
:102B80000895E5DFA0F0BEE7B91788F4BB279F38AA
:102B900060F41616B11D672F782F8827985FF7CF3E
:102BA000869577956795B11D93959639C8F30895E5
:102BB000E894BB2766277727CB0197F9089511DFA3
:102BC00008F48FEF089531CF51CFC1DFE8F3992397
:102BD000D9F3940F511DBBF39150504094F059F02C
:102BE000882332F0660F771F881F91505040C1F73D
:102BF0009E3F510544F7880F911D9695879597F94B
:102C000008955F3FACF0983E9CF0BB278695779582
:102C10006795B79508F4B1609395C1F7BB0F58F766
:102C200011F460FFE8CF6F5F7F4F8F4F9F4FE3CF6F
:102C3000C0CF0BD062CF2BDF28F030DF18F0952308
:102C400009F0F3CE21CF1124B4CF79DFA0F3959F03
:102C5000D1F3950F50E0551F629FF001729FBB2783
:102C6000F00DB11D639FAA27F00DB11DAA1F649F2F
:102C70006627B00DA11D661F829F2227B00DA11DE2
:102C8000621F739FB00DA11D621F839FA00D611D68
:102C9000221F749F3327A00D611D231F849F600D89
:102CA000211D822F762F6A2F11249F5750408AF0C2
:102CB000E1F088234AF0EE0FFF1FBB1F661F771F4E
:102CC000881F91505040A9F79E3F510570F0ADCE3E
:102CD00070CF5F3FECF3983EDCF386957795679570
:102CE000B795F795E7959F5FC1F7FE2B880F911D6C
:102CF0009695879597F908959F93D8DE0F9007FCD6
:102D0000EE5F0CCF9F938F937F936F93FF93EF931F
:102D10009B01AC018EDFEF91FF9105D02F913F9188
:102D20004F915F9186CFDF93CF931F930F93FF92C5
:102D3000EF92DF927B018C01689405C0DA2EEF01DF
:102D400084DFFE01E894A591259135914591559137
:102D5000AEF3EF011DDDFE019701A801DA9479F7CA
:102D6000DF90EF90FF900F911F91CF91DF91089529
:102D70000895883008F075C0E82FF0E0EE0FFF1FCF
:102D8000EC5FFC4F718360838150873008F03CC05A
:102D9000E82FF0E08827E153F94E8F4FEAC70C1770
:102DA000D616DE16EA16F716181725178091690051
:102DB0008C7F482B40936900E89A089580916900C0
:102DC000837F440F551F440F551F482B40936900C4
:102DD000E99A0895809169008F7C74E0440F551F33
:102DE0007A95E1F7482B40936900EA9A089580911B
:102DF00069008F7366E0440F551F6A95E1F7482B11
:102E000040936900EB9A089580916A008C7F482B6B
:102E100040936A00EC9A089580916A00837F440F82
:102E2000551F440F551F482B40936A00ED9A089593
:102E300080916A008F7C24E0440F551F2A95E1F7AA
:102E4000482B40936A00EE9A089580916A008F7330
:102E500096E0440F551F9A95E1F7482B40936A007E
:102E6000EF9A08951F920F920FB60F9211240BB68E
:102E70000F922F933F934F935F936F937F938F9313
:102E80009F93AF93BF93EF93FF93E0910803F0916B
:102E900009031995FF91EF91BF91AF919F918F9188
:102EA0007F916F915F914F913F912F910F900BBE4A
:102EB0000F900FBE0F901F9018951F920F920FB694
:102EC0000F9211240BB60F922F933F934F935F9362
:102ED0006F937F938F939F93AF93BF93EF93FF93E2
:102EE000E0910A03F0910B031995FF91EF91BF91C7
:102EF000AF919F918F917F916F915F914F913F9192
:102F00002F910F900BBE0F900FBE0F901F90189532
:102F10001F920F920FB60F9211240BB60F922F93A0
:102F20003F934F935F936F937F938F939F93AF9351
:102F3000BF93EF93FF93E0910C03F0910D0319956C
:102F4000FF91EF91BF91AF919F918F917F916F9181
:102F50005F914F913F912F910F900BBE0F900FBE3D
:102F60000F901F9018951F920F920FB60F92112479
:102F70000BB60F922F933F934F935F936F937F9373
:102F80008F939F93AF93BF93EF93FF93E0910E03C3
:102F9000F0910F031995FF91EF91BF91AF919F9120
:102FA0008F917F916F915F914F913F912F910F90F2
:102FB0000BBE0F900FBE0F901F9018951F920F928F
:102FC0000FB60F9211240BB60F922F933F934F938E
:102FD0005F936F937F938F939F93AF93BF93EF9381
:102FE000FF93E0910403F09105031995FF91EF9190
:102FF000BF91AF919F918F917F916F915F914F9111
:103000003F912F910F900BBE0F900FBE0F901F900E
:1030100018951F920F920FB60F9211240BB60F92B4
:103020002F933F934F935F936F937F938F939F93D0
:10303000AF93BF93EF93FF93E0910603F0910703E3
:103040001995FF91EF91BF91AF919F918F917F91D2
:103050006F915F914F913F912F910F900BBE0F9009
:103060000FBE0F901F9018951F920F920FB60F92E0
:1030700011240BB60F922F933F934F935F936F934F
:103080007F938F939F93AF93BF93EF93FF93E091C1
:103090001003F09111031995FF91EF91BF91AF913A
:1030A0009F918F917F916F915F914F913F912F9160
:1030B0000F900BBE0F900FBE0F901F9018951F9290
:1030C0000F920FB60F9211240BB60F922F933F93CE
:1030D0004F935F936F937F938F939F93AF93BF9320
:1030E000EF93FF93E0911203F09113031995FF9171
:1030F000EF91BF91AF919F918F917F916F915F9170
:103100004F913F912F910F900BBE0F900FBE0F90DC
:103110001F9018951F920F920FB60F9211242F93A4
:103120003F938F939F93AF93BF9380914B03909165
:103130004C03A0914D03B0914E0330914A0323E01C
:10314000230F2D3758F50196A11DB11D20934A0379
:1031500080934B0390934C03A0934D03B0934E0385
:1031600080914F0390915003A0915103B09152036D
:103170000196A11DB11D80934F0390935003A0931E
:103180005103B0935203BF91AF919F918F913F91A3
:103190002F910F900FBE0F901F90189526E8230FC8
:1031A0000296A11DB11DD2CF789484B5826084BDF2
:1031B00084B5816084BD85B5826085BD85B581603B
:1031C00085BDEEE6F0E0808181608083E1E8F0E09B
:1031D0001082808182608083808181608083E0E8CA
:1031E000F0E0808181608083E1EBF0E080818460A9
:1031F0008083E0EBF0E0808181608083E1E9F0E0B2
:10320000808182608083808181608083E0E9F0E05A
:10321000808181608083E1EAF0E080818260808348
:10322000808181608083E0EAF0E08081816080833A
:10323000E1E2F1E08081826080838081816080832F
:10324000E0E2F1E0808181608083EAE7F0E0808164
:1032500084608083808182608083808181608083BC
:103260008081806880831092C10008951F93CF935E
:10327000DF93182FEB0161E033D1209731F460E048
:10328000812FDF91CF911F9167C1CF3FD10511F4FD
:1032900061E0F6CFE12FF0E0EE5FFE4FE491E15008
:1032A000E23108F0B2C0F0E08827E75AF64E8F4FBF
:1032B00060C56B197319781982198C19051A96193A
:1032C0009E19A619B019BA19C419D319DD19051A0E
:1032D000E719F119FB1984B5806884BDC7BDDF917A
:1032E000CF911F91089584B5806284BDC8BDF7CF8A
:1032F00080918000806880938000D0938900C09383
:103300008800EDCF80918000806280938000D09310
:103310008B00C0938A00E3CF809180008860809307
:103320008000D0938D00C0938C00D9CF8091B000E5
:1033300080688093B000C093B300D1CF8091B0007B
:1033400080628093B000C093B400C9CF8091900098
:10335000806880939000D0939900C0939800BFCF6D
:1033600080919000806280939000D0939B00C093E6
:103370009A00B5CF80919000886080939000D093A0
:103380009D00C0939C00ABCF8091A000806880938B
:10339000A0008091A0008F7B8093A000D093A90013
:1033A000C093A8009CCF8091A00080628093A00071
:1033B000D093AB00C093AA0092CF8091A000886008
:1033C0008093A000D093AD00C093AC0088CF8091D3
:1033D0002001806880932001D0932901C0932801A7
:1033E0007ECF80912001806280932001D0932B01B9
:1033F000C0932A0174CF80912001886080932001BE
:10340000D0932D01C0932C016ACFC038D1050CF0A8
:103410003FCF35CF8150823108F059C0E82FF0E01E
:103420008827EB5EF54E8F4FA4C4351A391A271A38
:103430002D1A311A671A3C1A421A461A4C1A501A97
:10344000541A5A1A5E1A671A621A681A6C1A80910C
:1034500080008F77809380000895809180008F7D19
:10346000F9CF80918000877FF5CF84B58F7784BDB9
:10347000089584B58F7DFBCF8091B0008F778093C6
:10348000B00008958091B0008F7DF9CF80919000B9
:103490008F77809390000895809190008F7DF9CF71
:1034A00080919000877FF5CF8091A0008F778093E7
:1034B000A00008958091A0008F7DF9CF8091A00099
:1034C000877FF5CF809120018F7780932001089529
:1034D000809120018F7DF9CF80912001877FF5CFEA
:1034E000CF93DF9390E0FC01E85BFE4F249182577D
:1034F0009E4FFC0184918823C9F090E0880F991FAA
:10350000FC01E85FFD4FA591B491FC01E251FE4F33
:10351000C591D49161110DC09FB7F8948C912095FD
:1035200082238C938881282328839FBFDF91CF91AA
:103530000895623051F49FB7F8943C91822F8095A2
:1035400083238C93E8812E2BEFCF8FB7F894EC91E7
:103550002E2B2C938FBFEACF1F93CF93DF93282F6F
:1035600030E0F901EE5FFE4F8491F901E85BFE4F18
:10357000D491F901E257FE4FC491CC23A1F0162F4C
:10358000811148DFEC2FF0E0EE0FFF1FE251FE4FFC
:10359000A591B4918FB7F894EC91111108C0D09512
:1035A000DE23DC938FBFDF91CF911F910895DE2B37
:1035B000F8CFCF93DF93282F30E0F901EE5FFE4F75
:1035C0008491F901E85BFE4FD491F901E257FE4F77
:1035D000C491CC2399F081111DDFEC2FF0E0EE0FA8
:1035E000FF1FEC52FE4FA591B491EC91ED2381E0C9
:1035F00090E009F480E0DF91CF91089580E090E0C1
:10360000FACFFC01918D228D892F90E0805C9F4F35
:10361000821B91098F7399270895FC01918D828DEA
:10362000981731F0828DE80FF11D858D90E0089597
:103630008FEF9FEF0895FC01918D828D981761F0B7
:10364000A28DAE0FBF2FB11D5D968C91928D9F5FA5
:103650009F73928F90E008958FEF9FEF0895FC0184
:10366000538D448D252F30E0842F90E0821B930BE7
:10367000541710F0CF96089501970895FC01A48D7A
:10368000A80FB92FB11DA35ABF4F2C91848D90E084
:1036900001968F739927848FA689B7892C93A08967
:1036A000B1898C91837080648C93938D848D9813F1
:1036B00006C00288F389E02D80818F7D8083089584
:1036C000CF93DF93EC01888D8823B1F0AA89BB8961
:1036D000E889F9898C9185FD03C0808186FD0CC045
:1036E0000FB607FCF7CF8C9185FFF2CF808185FF65
:1036F000EDCFCE01C3DFEACFDF91CF910895EF92F6
:10370000FF920F931F93CF93DF93EC0181E0888F9B
:103710009B8D8C8D98131AC0E889F989808185FF6B
:1037200015C09FB7F894EE89FF896083E889F9890D
:1037300080818370806480839FBF81E090E0DF910F
:10374000CF911F910F91FF90EF900895F62E0B8D62
:1037500010E00F5F1F4F0F731127E02E8C8D8E111D
:103760000BC00FB607FCFACFE889F989808185FF85
:10377000F5CFCE0183DFF2CFEB8DEC0FFD2FF11DE6
:10378000E35AFF4FF0829FB7F8940B8FEA89FB89C9
:1037900080818062D0CFCF92DF92EF92FF921F9311
:1037A000CF93DF93EC016A017B01122FE889F9893D
:1037B00082E08083C11481EED806E104F10499F01F
:1037C00060E079E08DE390E0A7019601B0D221504E
:1037D0003109410951095695479537952795211586
:1037E00080E1380790F0E889F989108260E874E890
:1037F0008EE190E0A70196019AD22150310941094A
:1038000051095695479537952795EC85FD85308369
:10381000EE85FF852083188EEC89FD891083EA8967
:10382000FB89808180618083EA89FB89808188604F
:103830008083EA89FB89808180688083EA89FB89AB
:1038400080818F7D8083DF91CF911F91FF90EF90DA
:10385000DF90CF9008951F920F920FB60F92112410
:103860000BB60F922F938F939F93EF93FF93E0915B
:103870006303F09164038081E0916903F0916A032E
:1038800082FD1DC0908180916C038F5F8F732091AA
:103890006D03821741F0E0916C03F0E0ED5AFC4FAC
:1038A000958F80936C03FF91EF919F918F912F9152
:1038B0000F900BBE0F900FBE0F901F901895808138
:1038C000F2CF1F920F920FB60F9211240BB60F92E8
:1038D0002F933F934F935F936F937F938F939F9318
:1038E000AF93BF93EF93FF9383E593E0C7DEFF9120
:1038F000EF91BF91AF919F918F917F916F915F9168
:103900004F913F912F910F900BBE0F900FBE0F90D4
:103910001F901895E3E5F3E01382128288EE93E09E
:10392000A0E0B0E084839583A683B7838EE293E022
:103930009183808385EC90E09587848784EC90E088
:103940009787868780EC90E0918B808B81EC90E06C
:10395000938B828B82EC90E0958B848B86EC90E04D
:10396000978B868B118E128E138E148E08951F9254
:103970000F920FB60F9211240BB60F922F938F93C5
:103980009F93EF93FF93E0910004F09101048081F5
:10399000E0910604F091070482FD1DC090818091A2
:1039A00009048F5F8F7320910A04821741F0E09120
:1039B0000904F0E0E051FC4F958F80930904FF91DA
:1039C000EF919F918F912F910F900BBE0F900FBE93
:1039D0000F901F9018958081F2CF1F920F920FB613
:1039E0000F9211240BB60F922F933F934F935F9337
:1039F0006F937F938F939F93AF93BF93EF93FF93B7
:103A000080EF93E03BDEFF91EF91BF91AF919F91EB
:103A10008F917F916F915F914F913F912F910F9077
:103A20000BBE0F900FBE0F901F901895E0EFF3E0C4
:103A30001382128288EE93E0A0E0B0E08483958345
:103A4000A683B7838EE293E0918380838DEC90E030
:103A5000958784878CEC90E09787868788EC90E048
:103A6000918B808B89EC90E0938B828B8AEC90E039
:103A7000958B848B8EEC90E0978B868B118E128EBB
:103A8000138E148E08951F920F920FB60F92112469
:103A90000BB60F922F938F939F93EF93FF93E09129
:103AA0009D04F0919E048081E091A304F091A40410
:103AB00082FD1DC090818091A6048F5F8F7320913D
:103AC000A704821741F0E091A604F0E0E357FB4F12
:103AD000958F8093A604FF91EF919F918F912F91E5
:103AE0000F900BBE0F900FBE0F901F901895808106
:103AF000F2CF1F920F920FB60F9211240BB60F92B6
:103B00002F933F934F935F936F937F938F939F93E5
:103B1000AF93BF93EF93FF938DE894E0AFDDFF91F8
:103B2000EF91BF91AF919F918F917F916F915F9135
:103B30004F913F912F910F900BBE0F900FBE0F90A2
:103B40001F901895EDE8F4E01382128288EE93E05E
:103B5000A0E0B0E084839583A683B7838EE293E0F0
:103B60009183808385ED90E09587848784ED90E054
:103B70009787868780ED90E0918B808B81ED90E038
:103B8000938B828B82ED90E0958B848B86ED90E019
:103B9000978B868B118E128E138E148E08951F9222
:103BA0000F920FB60F9211240BB60F922F938F9393
:103BB0009F93EF93FF93E0913A05F0913B0580814D
:103BC000E0914005F091410582FD1DC090818091FA
:103BD00043058F5F8F7320914405821741F0E09178
:103BE0004305F0E0E65DFA4F958F80934305FF9122
:103BF000EF919F918F912F910F900BBE0F900FBE61
:103C00000F901F9018958081F2CF1F920F920FB6E0
:103C10000F9211240BB60F922F933F934F935F9304
:103C20006F937F938F939F93AF93BF93EF93FF9384
:103C30008AE295E023DDFF91EF91BF91AF919F91D3
:103C40008F917F916F915F914F913F912F910F9045
:103C50000BBE0F900FBE0F901F901895EAE2F5E093
:103C60001382128288EE93E0A0E0B0E08483958313
:103C7000A683B7838EE293E09183808385E391E00E
:103C80009587848784E391E09787868780E391E036
:103C9000918B808B81E391E0938B828B82E391E027
:103CA000958B848B86E391E0978B868B118E128E99
:103CB000138E148E0895AF92BF92CF92DF92EF923F
:103CC000FF920F931F93CF93DF936C017B018B01C6
:103CD000040F151FEB015E01AE18BF08C017D10716
:103CE00059F06991D601ED91FC910190F081E02DA0
:103CF000C6011995892B79F7C501DF91CF911F91E5
:103D00000F91FF90EF90DF90CF90BF90AF9008950C
:103D1000DB018F939F9335D0BF91AF91A29F800D10
:103D2000911DA39F900DB29F900D11240895A1E2C3
:103D30001A2EAA1BBB1BFD010DC0AA1FBB1FEE1F25
:103D4000FF1FA217B307E407F50720F0A21BB30B70
:103D5000E40BF50B661F771F881F991F1A9469F7EC
:103D600060957095809590959B01AC01BD01CF0148
:103D70000895EE0FFF1F881F8BBF0790F691E02D6F
:103D8000199409D0A59F900DB49F900DA49F800D0C
:103D9000911D11240895A29FB001B39FC001A39F5C
:103DA000700D811D1124911DB29F700D811D112474
:083DB000911D0895F894FFCF66
:103DB800000000000000000000802245008022452D
:103DC800A7DCC33C00000000000000000000000069
:103DD800000000000000000000000000DB0F49C0E8
:103DE80000007FC300007FC30000C8420000C84233
:103DF800E11A973F00C0044333B30443DB0F494043
:103E080000007F4300007F43000000000000000026
:103E180000000000000000000000803F0000803F1C
:103E2800CDCCCCBDCDCCCC3D0000003F0000A0C027
:103E38000000003F0000A0400AD7233C000000001B
:103E4800CDCC4C3E000000000AD7233C0000000007
:103E58000AD7233C0AD7233C52B85E3F0AD7233CF3
:103E68000AD7233C48E17A3F000000000000000028
:103E7800000000000000803F190000000000000062
:103E88005E73BE48DEBC8C48FF000100FF000100E5
:103E9800000001FF000001FF01FF01FF01FF01FF1A
:103EA80001FF01FF020003000000000012001300E0
:103EB80000000000B816B816B816B816B816B81626
:103EC800B816B81645030001FFFFFFFFFFFFFFFF0D
:103ED800FFFFFFFFFFFF05040302000000007F1B38
:0C3EE8005B1E2F1B601B011B1B1B0D1B16
:00000001FF
