:10000000D5C0000004C1000002C1000000C1000012
:10001000FEC00000FCC00000FAC00000F8C00000F4
:10002000F6C00000F4C00000F2C00000F0C0000004
:10003000EEC00000ECC00000EAC00000E8C0000014
:10004000E6C00000E4C00000E2C00000E0C0000024
:10005000DEC00000DCC00000DAC000000C94D8282C
:10006000D6C000000C94682B0C949E2BD0C00000CE
:10007000CEC00000CCC00000CAC00000C8C0000054
:10008000C6C00000C4C00000C2C00000C0C0000064
:100090000C94F42B0C942A2CBAC00000B8C00000B9
:1000A000B6C00000B4C00000B2C00000B0C0000084
:1000B000AEC00000ACC00000AAC00000A8C0000094
:1000C000A6C00000A4C000000C9431260C94802C23
:1000D0000C94B62C9CC000000C940C2D0C94422D5A
:1000E00096C00000010210202008081020401020B7
:1000F00040800201020108040201010204081020EC
:1001000040808040201008040201800402018040E9
:100110002010080402010804020101020408102052
:1001200040800102040810204080050505050705F0
:1001300008080808020202020A0A08080404040463
:10014000010101010101010103030303030303038F
:10015000040707070C0C0C0C0C0C0C0C020202021E
:1001600006060606060606060B0B0B0B0B0B0B0B07
:1001700000002200250028002B002E003100340052
:1001800002010000050108010B010000210024000C
:1001900027002A002D003000330001010000040177
:1001A00007010A01C72B532CDF2C6B2D11241FBE16
:1001B000CFEFD1E2DEBFCDBF00E00CBF12E0A0E088
:1001C000B2E0E4E5FCE500E00BBF02C007900D9251
:1001D000A63FB107D9F729E0A6EFB2E001C01D9212
:1001E000A136B207E1F710E0C6EDD0E000E006C0AE
:1001F00021970109802FFE010E94F72DC23DD107F2
:1002000080E00807A9F70E9433270C94282EF8CE27
:10021000CF93DF93882349F0EB0181500E94DF29BF
:1002200099838883DF91CF910895FB011182108219
:10023000F9CF0F931F938B019C0183E0369527958F
:10024000179507958A95D1F70A501D4F462F47708D
:1002500021E030E0F90102C0EE0FFF1F4A95E2F7FE
:10026000AF01F80120812423CB010196211102C0A6
:1002700090E080E01F910F9108950F931F938B01E1
:100280009C0183E036952795179507958A95D1F7B8
:10029000677081E090E001C0880F6A95EAF7F80185
:1002A000EA50FD4F2081452B31F4809582238083D5
:1002B0001F910F910895822BFACFCF92DF92EF9288
:1002C000FF92CF93DF936B017C0160E086E3C81659
:1002D000D104E104F10490F486E38C0D0E94022A1B
:1002E000E6012196AE01C701B601C7DFCE01DF915D
:1002F000CF91FF90EF90DF90CF9008958C2DEECFAF
:10030000882341F08150682F70E090E080E050E059
:1003100040E0B3CF089590E080E008950F931F93DD
:10032000009709F488C06115710509F484C0009133
:1003300038021091390220913A0230913B020E3F6F
:100340001F4F2F4F3F4F09F067C04FEF5FEFBA01CC
:10035000409338025093390260933A0270933B0203
:10036000409138025091390260913A0270913B02FB
:10037000DC011296ED91FC9180819181A281B38183
:100380008093710390937203A0937303B0937403EB
:1003900084819581A681B78180936D0390936E03CC
:1003A000A0936F03B093700380859185A285B38578
:1003B0008093690390936A03A0936B03B0936C03DB
:1003C00084859585A685B78580936503909366039C
:1003D000A0936703B09368031092610310926203C5
:1003E00010926303109264030E94210A86E49AE04B
:1003F000909300038093FF02909302038093010384
:100400000FD7009731F421E030E03093760320934A
:1004100075031F910F9108950091380210913902D0
:1004200020913A0230913B02DB010D931D932D93F5
:100430003C93139795CF8FEF9FEFEBCF8F929F92C7
:10044000AF92BF92CF92DF92EF92FF921F93CF9322
:10045000DF934B015C011091780382E090E0909370
:1004600076038093750381149104A104B10441F4CF
:1004700080917803811104C080917703C1E08111DC
:10048000C0E0C12CD12C760180917803811106C087
:1004900080917703811102C0CC23D9F083E090E0F2
:1004A0009093760380937503CC2379F1CCE9DFEF49
:1004B000111102C00E94AA0DCE01DF91CF911F91B0
:1004C000FF90EF90DF90CF90BF90AF909F908F9074
:1004D00008956AE070E080E090E00E94472980E1A2
:1004E000C80E87E2D81EE11CF11C8FEF8816980613
:1004F000A806B80631F0C1E08C149D04AE04BF0418
:1005000008F0C0E080E0C0D6BFCFD0E0C0E0D0CFE0
:10051000CF92DF92EF92FF920F931F93CF93DF93CF
:100520008F3F910511F008F050C020917503309174
:1005300076032330310539F020917503309176032D
:100540002130310531F424E030E0309376032093FC
:1005500075036A017B01EC0182309105A0F011E086
:10056000AE01C701B6015BD6AB01BC01CE011123C0
:10057000F9F0DF91CF911F910F91FF90EF90DF90F5
:10058000CF900C94D30F8C01000F111F01501D4F01
:10059000D8018D919C91892B11F30E94DD0F029758
:1005A000F1F6D801ED91FC91CE011995182FD8CF15
:1005B0000E94F50F90E080E0DF91CF911F910F91A5
:1005C000FF90EF90DF90CF9008958FEF9FEFF4CFE3
:1005D00080E05AC6CF93DF9386E090E09093760355
:1005E00080937503AAD6EC01EFEFF2E084E0DF011F
:1005F0001D928A95E9F70E94420D1092760310929F
:100600007503CE01DF91CF9108958091770308950E
:10061000809160030895609338027093390280934B
:100620003A0290933B0290E080E008952F923F922F
:100630004F925F926F927F928F929F92AF92BF92F2
:10064000CF92DF92EF92FF920F931F93CF93DF939E
:10065000CDB7DEB7E5970FB6F894DEBF0FBECDBFBE
:100660007FA76EA748AB59AB3DA72CA71DAB0CAB22
:10067000FE86ED861BAB0AABD80130E020E08D840E
:100680009E842815390514F18F83988710E000E0C7
:100690008EA49FA40815190504F1E5960FB6F894E9
:1006A000DEBF0FBECDBFDF91CF911F910F91FF90A5
:1006B000EF90DF90CF90BF90AF909F908F907F9002
:1006C0006F905F904F903F902F9008951D921D92D4
:1006D0001D921D922F5F3F4FD2CFEF81F885819100
:1006E0009191A191B191F887EF834D01AA24BB2488
:1006F000888A998AAA8ABB8A9C01AD01442755271A
:100700002C8B3D8B4E8B5F8B2D843E84201A310ABF
:10071000ECA5FDA5E215F3050CF41F01F8A9FD8376
:1007200089A88E82AAA8BBA8BC86AB861A86198621
:10073000C12CD12C760189849A848214930404F10B
:1007400037FE02C0312C212C200E311EAD84BE8418
:100750002A143B046CF4220C331C220C331CACA96D
:10076000BDA9A20DB31DCD92DD92ED92FC9213971F
:100770000F5F1F4FEAA9FBA93496FBABEAAB88CF0A
:10078000ED81FE814190519061907190FE83ED83E7
:100790004301AA24BB24888E998EAA8EBB8E662420
:1007A0007724288939894A895B89C301B2010E946B
:1007B000C62D4B015C012C893D894E895F89688D6E
:1007C000798D8A8D9B8D0E94C62D6C8F7D8F8E8F2B
:1007D0009F8FEB85FC8581919191A191B191FC87CF
:1007E000EB879C01AD012C0D3D1D4E1D5F1D298326
:1007F0003A834B835C83E1E02C153D054E055F0594
:1008000008F0E0E02C893D894E895F89C301B2017F
:100810000E94C62D2B013C0189819A81AB81BC814C
:10082000840D951DA61DB71D89839A83AB83BC8358
:10083000A4013327222728A339A34AA35BA36C0171
:100840007D01C20ED31EE41EF51E8C8D9D8DAE8DD6
:10085000BF8DDC01992788278CA39DA3AEA3BFA3DE
:100860008C0D9D1DAE1DBF1D88A799A7AAA7BBA76C
:10087000AB85BC85149728A539A54AA55BA52D9302
:100880003D934D935C9313974501AA24BB248E0E90
:10089000911CA11CB11C288939894A895B89688D02
:1008A000798D8A8D9B8D0E94C62D860E971EA81E5F
:1008B000B91E2C8D3D8D4E8D5F8DCA01AA27BB2799
:1008C000880E991EAA1EBB1E81E090E0A0E0B0E059
:1008D00029813A814B815C812415350546055705F0
:1008E00018F080E090E0DC01880D991DAA1DBB1D69
:1008F00041E050E060E070E088A099A0AAA0BBA011
:10090000C814D904EA04FB0418F040E050E0BA012E
:10091000840F951FA61FB71FC12CD12C7601C3943D
:100920008CA09DA0AEA0BFA028A539A54AA55BA517
:10093000281539054A055B0518F0C12CD12C760124
:10094000C80ED91EEA1EFB1EE985FA853196FA8784
:10095000E987F1CE2F923F924F925F926F927F92F2
:100960008F929F92AF92BF92CF92DF92EF92FF92BF
:100970000F931F93CF93DF9300D000D000D01F922E
:10098000CDB7DEB718015A0115E0B694A7941A95B1
:10099000E1F7B886AF82F0E0E0E0A616B7060CF00B
:1009A00081C0F501E20DF31D7A876987E617F70725
:1009B00014F4FA87E9874F715527EF81F885EE0F18
:1009C000FF1FEE0FFF1F41155105E9F48E0F9F1F0A
:1009D000A901F0E0E0E06F8178856E0F7F1FA984A8
:1009E000BA846A157B050CF05DC0DC01CD90DD900A
:1009F000ED90FD90CD01DA01CD92DD92ED92FD9268
:100A0000AD013196E8CF7C01EE0EFF1EFC82EB8239
:100A1000D7018D909D90AD90BC903A832983F0E0F2
:100A2000E0E000E210E07801E41AF50AFE82ED82CF
:100A300075016401042E04C0F694E794D794C7941A
:100A40000A94D2F731960F8118850E0F1F1FA984C3
:100A5000BA840A151B0574F1A616B706E4F4D5018D
:100A6000AA0FBB1FAA0FBB1FA80FB91F80E290E0FF
:100A70008C01041B150B8D919D910D90BC91A02DA7
:100A800004C0880F991FAA1FBB1F0A95D2F7C82A56
:100A9000D92AEA2AFB2AA981BA81CD92DD92ED9268
:100AA000FC921397DF01AA0FBB1FAA0FBB1FA20F57
:100AB000B31F2AC08F01000F111F000F111FAB8140
:100AC000BC810A0F1B1FD8018D909D90AD90BC90EA
:100AD000240135010D8004C0440C551C661C771C94
:100AE0000A94D2F7C428D528E628F728A981BA8124
:100AF000CD92DD92ED92FD92BA83A98399CF1D929A
:100B00001D921D921D923196E215F305C4F32A96AB
:100B10000FB6F894DEBF0FBECDBFDF91CF911F910E
:100B20000F91FF90EF90DF90CF90BF90AF909F908C
:100B30008F907F906F905F904F903F902F9008958F
:100B4000CF92DF92EF92FF920F931F93CF93DF9399
:100B5000CDB7DEB766970FB6F894DEBF0FBECDBF38
:100B6000C0900402D0900502E0900602F0900702C7
:100B7000A701960160914B0970914C0980914D0934
:100B800090914E090E94BB27882341F0C0924B09E7
:100B9000D0924C09E0924D09F0924E0965E470E064
:100BA00080E090E046DB90934A098093490943E056
:100BB00050E0BE016B5E7F4F2BDB20910C02309129
:100BC0000D0240910E0250910F0260910802709147
:100BD000090280910A0290910B020E942028209124
:100BE000340230913502AD89BE8918160CF0F1C07F
:100BF0000E94FF2D698B7A8B8B8B9C8B52E0E52EAC
:100C0000F12C8E01075F1F4F21E030E0AE014F5EF7
:100C10005F4F61E070E08CE292E008DD02E010E0FE
:100C200023E339E042E050E062E070E0CE01099653
:100C300091DE88E0E4E1F2E0DE01199601900D9288
:100C40008A95E1F788E0E3E3F9E0DE01119601908F
:100C50000D928A95E1F734E0E32EF12C03E119E0DF
:100C600022E030E043E359E062E070E084E192E0AA
:100C7000DDDCC0900002D0900102E0900202F09012
:100C80000302A7019601609157097091580980915C
:100C9000590990915A090E94BB27882341F0C092BC
:100CA0005709D0925809E0925909F0925A0964E420
:100CB00070E080E090E0BDDA90935609809355098A
:100CC00043E050E0BE016B5E7F4FA2DA209110023C
:100CD000309111024091120250911302609108026A
:100CE0007091090280910A0290910B020E942028C3
:100CF000AD89BE89209136023091370218160CF06A
:100D00007EC00E94FF2D698B7A8B8B8B9C8B22E09F
:100D1000E22EF12C8E010F5F1F4F21E030E0AE017B
:100D20004F5E5F4F61E070E080E392E07FDC02E0C5
:100D300010E02BE339E042E050E062E070E0CE01E9
:100D4000019608DE84E0E82EF12C03E219E022E0AF
:100D500030E04BE359E062E070E08CE192E066DC69
:100D600060913703709138038091390390913A0371
:100D70006F5F7F4F8F4F9F4F6093370370933803A0
:100D80008093390390933A030E94BF279B01AC01E3
:100D900060913B0370913C0380913D0390913E0331
:100DA0000E942428609333037093340380933503A7
:100DB0009093360366960FB6F894DEBF0FBECDBF94
:100DC000DF91CF911F910F91FF90EF90DF90CF9027
:100DD00008950E94FF2D698B7A8B8B8B9C8B42E050
:100DE000E42EF12C03E319E021E030E0AE014F5E88
:100DF0005F4F61E070E084E292E018DC1ACF0E945D
:100E0000FF2D698B7A8B8B8B9C8B92E0E92EF12CDA
:100E10008E01075F1F4F21E030E0AE014F5E5F4F54
:100E200061E070E088E292E001DC88E0F801ABE389
:100E3000B9E001900D928A95E1F784CFAF92BF920D
:100E4000CF92DF92EF92FF921F93CF93DF93EDE16A
:100E5000F3E080E090E0A0E8BFEB82A393A3A4A31B
:100E6000B5A38DEC9CECACE4BEE3868F978FA0A37A
:100E7000B1A382E690E8A6E8B0E084839583A683D8
:100E8000B78381E894E9ABE6B5ED80879187A287C7
:100E9000B38784E79FEEA3E7BEEA84879587A6879A
:100EA000B78783EB94E8A4EEB1E1808B918BA28BA2
:100EB000B38BA1E1B3E0B383A283E3E0F3E0119647
:100EC000FC93EE9382E692E0918380839383828306
:100ED000958384839783868391878087938782878E
:100EE0009587848781E393E015969C938E9314975E
:100EF00081E293E013969C938E93129783E393E0A1
:100F000017969C938E931697C3E4D9E0188280E0DD
:100F1000A82E82E0B82EF50184819581A681B78143
:100F200088879987AA87BB87C12CD12C7601C39467
:100F3000C982DA82EB82FC8265E470E080E090E0B6
:100F4000BCD99F838E8311E01D831C86F5018081AF
:100F50009181A281B3818C8B9D8BAE8BBF8BCD8613
:100F6000DE86EF86F88A64E470E080E090E0A5D940
:100F70009B8B8A8B198BDF91CF911F91FF90EF9004
:100F8000DF90CF90BF90AF90089580914309811179
:100F90001DC081E0809343098091440990914509E7
:100FA000A0914609B09147090197A105B10571F4D7
:100FB00080914809882351F065E470E080E090E07A
:100FC00038D990934A09809349099AD980914F0959
:100FD00081111DC081E080934F098091500990914B
:100FE0005109A0915209B09153090197A105B1058A
:100FF00071F480915409882351F064E470E080E03A
:1010000090E017D9909356098093550979C90895AE
:101010004F925F926F927F928F929F92AF92BF9208
:10102000CF92DF92EF92FF920F931F93F89440902C
:101030005003509051036090520370905303C0903E
:101040004403D0904503E0904603F0904703452BBE
:1010500009F0A6C09B01AC012419350946095709BE
:1010600029013A0100914C0310914D0320914E0348
:1010700030914F0348015901840C951CA61CB71CE4
:1010800080169106A206B306A0F4009148031091C1
:10109000490320914A0330914B030F5F1F4F2F4F9D
:1010A0003F4F009348031093490320934A03309322
:1010B0004B0380924C0390924D03A0924E03B0924A
:1010C0004F03009148031091490320914A03309146
:1010D0004B038092540390925503A0925603B09212
:1010E0005703009358031093590320935A033093E6
:1010F0005B0360935003709351038093520390936A
:101100005303A301920160E47DE083E090E00E943C
:10111000C62D6C0D7D1D8E1D9F1D60934403709325
:101120004503809346039093470300913802109142
:10113000390220913A0230913B020F3F1F4F2F4F4F
:101140003F4FF1F0009138021091390220913A029C
:1011500030913B020E3F1F4F2F4F3F4F89F0C09001
:101160003802D0903902E0903A02F0903B0221E040
:101170008C149D04AE04BF0408F420E020936003A7
:1011800078941F910F91FF90EF90DF90CF90BF90D8
:10119000AF909F908F907F906F905F904F90089549
:1011A0004B015C0184189508A608B708A3019201B9
:1011B000261B370B480B590B6415750586059705DB
:1011C000E0F082169306A406B50640F420E030E075
:1011D000A90181149104A104B104A1F460E47DE0AB
:1011E00083E090E00E94C62DA7019601261B370BD5
:1011F000480B590BCA01B901C3CF82169306A40646
:10120000B50660F7A501940160E47DE083E090E01D
:101210000E94C62D6C0D7D1D8E1D9F1DB1CFF8CE79
:10122000CF93DF9300D01F92CDB7DEB71C821B8215
:101230001A82198210925C0310925D0310925E0371
:1012400010925F03BE016F5F7F4FCE0103960E9435
:10125000022669817A818B819C810E94F21E00970F
:1012600061F4BE016F5F7F4FCE0103960E940E2690
:1012700069817A818B819C812ED50F900F900F9080
:101280000F90DF91CF910895FF920F931F93CF930B
:10129000DF93082F60E070E0CB010E944729FF2414
:1012A000F3940E94DB1DEC01892B89F010E0CE3F06
:1012B0008FEFD80769F0002361F160E070E0CB01A7
:1012C0000E94472981E090E0892B59F322C011E068
:1012D00025D5EC01892B21F0CE3F8FEFD80759F7A8
:1012E00011111EC011E0229609F410E00E948B1D1E
:1012F000EC01892B21F0CE3F8FEFD807E1F61111D9
:1013000011C011E0CE3F8FEFD80709F410E00111B2
:101310000BC0CE01DF91CF911F910F91FF900895E7
:1013200011E0E4CF11E0F3CF60E070E0CB010E9468
:1013300047291F25812F90E0C7CFCF93DF9380915E
:101340006003882321F060E070E0CB014CD635D6F5
:10135000D0E0C0E0892B71F06AE070E080E090E0BE
:101360000E94472981E090DF28D62196C03D27E0E2
:10137000D20781F727D60E94461F10927803109259
:1013800077031092710310927203109273031092FC
:10139000740310926D0310926E0310926F031092FB
:1013A00070031092690310926A0310926B031092FB
:1013B0006C031092650310926603109267031092FB
:1013C00068031092610310926203109263031092FB
:1013D00064034EEF5FEF6FEF7FEF4093380250935F
:1013E000390260933A0270933B0210926003E4E585
:1013F000F3E028E0DF011D922A95E9F710925003EF
:1014000010925103109252031092530310924C0306
:1014100010924D0310924E0310924F031092480306
:101420001092490310924A0310924B031092440306
:10143000109245031092460310924703DF91CF911B
:1014400008951092840310928503109286031092DF
:1014500087031092830380918C0390918D03909366
:101460008203809381031092800310927F03109275
:101470007B0310927C0310927D0310927E031092E6
:1014800089031092880390E080E00895CF92DF9264
:10149000EF92FF920F931F93CF938C01892B09F04A
:1014A00055C020918C0330918D03809181039091E0
:1014B000820340918C0350918D035093820340939B
:1014C00081032817390781F01092800310927F035F
:1014D00010927B0310927C0310927D0310927E0386
:1014E000109289031092880380918C0390918D0350
:1014F000019761F58091880390918903892B21F4EC
:1015000080913C02811112C08091880390918903DF
:101510000197E1F480917B0390917C03A0917D037E
:10152000B0917E030197A105B10581F410927B0370
:1015300010927C0310927D0310927E0310923C0265
:1015400082E090E0909389038093880380918C03DC
:1015500090918D03019709F01CC18091A203909195
:10156000A3038017910709F014C180919E03909105
:101570009F03A091A003B091A103009709F409C1B2
:1015800020919D0321110DC040919E0350919F0316
:101590006091A0037091A103452B462B472B09F4C2
:1015A000F8C020918803309189032230310509F079
:1015B000F0C020917F032111ECC0FC01C080D180DC
:1015C000E280F38080918303882309F4D3C0809163
:1015D0008F0390919003892B09F4FDC020918F0314
:1015E0003091900381E02230310509F080E02091B4
:1015F0008F0330919003C1E02130310549F02091F3
:101600008F0330919003C1E02230310509F0C0E032
:10161000882309F456C02091990330919A03409190
:101620009B0350919C03C701B6010E94202887FDAF
:1016300014C02091990330919A0340919B035091DB
:101640009C0360918403709185038091860390913F
:1016500087030E94BB2787FD22C020919903309108
:101660009A0340919B0350919C03C701B6010E94CD
:101670002028181634F52091990330919A0340914F
:101680009B0350919C03609184037091850380912A
:101690008603909187030E94BB27811112C080911D
:1016A000910390919203A0919303B0919403892B9D
:1016B0008A2B8B2B19F481E08093800381E0809347
:1016C0007F03CC2309F456C02091990330919A03EB
:1016D00040919B0350919C03C701B6010E94BB2718
:1016E00087FF14C02091990330919A0340919B0386
:1016F00050919C03609184037091850380918603CF
:10170000909187030E94202887FF22C0209199038F
:1017100030919A0340919B0350919C03C701B601FD
:101720000E94BB27811126C02091990330919A0312
:1017300040919B0350919C036091840370918503B9
:1017400080918603909187030E942028181694F4B4
:101750008091910390919203A0919303B09194038F
:10176000892B8A2B8B2B19F481E08093800381E0F5
:1017700080937F0381E090917F03911180E08093BB
:101780008303C0928403D0928503E0928603F09293
:101790008703012B09F067C1809188039091890329
:1017A000892BD9F410928E0310927F0380913C0212
:1017B000882379F082E090E09093890380938803F6
:1017C00010923C0220918C0330918D0381E0232BF9
:1017D000E9F080E01BC081E00ACF10923C028091CA
:1017E0008E03882349F0109280031092890310928F
:1017F000880310928E03EDCF80918C0390918D031E
:10180000892BE1F080917F0310927F032091880360
:10181000309189032230310509F45EC088F4211526
:10182000310509F448C02130310509F4F3C01092A4
:10183000800310927F0310928E0338C081E0E6CFC0
:101840002330310509F4B1C02430310581F74091CE
:101850007B0350917C0360917D0370917E03411561
:1018600051056105710561F0415051096109710926
:1018700040937B0350937C0360937D0370937E03BE
:1018800040917B0350917C0360917D0370917E03B6
:10189000452B462B472BD9F420918A0330918B039B
:1018A0002130310509F046C010928003109289035F
:1018B000109288030CC080913C02882341F082E0A2
:1018C00090E0909389038093880310923C021092D9
:1018D000790380918003CEC08823C9F3809191035E
:1018E00090919203A0919303B09194031816190656
:1018F0001A061B060CF07DC080918C0390918D031D
:10190000019709F076C08091910390919203A09184
:101910009303B091940380937B0390937C03A093F3
:101920007D03B0937E0383E090E0909389038093DE
:101930008803CDCF40919503509196036091970312
:1019400070919803452B462B472BA9F010928003EA
:101950008091950390919603A0919703B09198037D
:1019600080937B0390937C03A0937D03B0937E03CD
:1019700081E090E0DACF882399F080913D02909148
:101980003E02A0913F02B091400280937B0390936E
:101990007C03A0937D03B0937E0384E090E0C5CFE9
:1019A0001092800382E090E0C0CF80917B03909101
:1019B0007C03A0917D03B0917E030097A105B10542
:1019C00059F00197A109B10980937B0390937C039F
:1019D000A0937D03B0937E0380917B0390917C0361
:1019E000A0917D03B0917E03892B8A2B8B2B09F06C
:1019F0006ECF80913D0290913E02A0913F02B09146
:101A00004002892B8A2B8B2B09F44ECF81E08093E7
:101A10008003B3CF40917B0350917C0360917D03A1
:101A200070917E03411551056105710561F04150CA
:101A300051096109710940937B0350937C036093C2
:101A40007D0370937E0340917B0350917C036091F2
:101A50007D0370917E03452B462B472B09F037CF32
:101A60008111C7CF9FCF80917903882309F431CFAB
:101A700080917A03CF911F910F91FF90EF90DF90AB
:101A8000CF900895109284031092850310928603DC
:101A90001092870310928303109289031092880397
:101AA00010928203109281031092A3031092A2035A
:101AB0001092800310927F0310927B0310927C039C
:101AC00010927D0310927E0310927A031092790394
:101AD00010929E0310929F031092A0031092A103F4
:101AE00010929D031092990310929A0310929B03F7
:101AF00010929C0388EE93E0A0E0B0E080933D025A
:101B000090933E02A0933F02B0934002109295033F
:101B100010929603109297031092980310929103DB
:101B200010929203109293031092940310929003D8
:101B300010928F0381E080933C0210928E031092EA
:101B40008D0310928C0310928B0310928A0390E005
:101B500080E0089580918C0390918D03892B19F575
:101B600080913C02882351F080918E03811106C040
:101B700081E080937A0380937903089520918E0306
:101B800030913C0281E090E0332311F090E080E05E
:101B900030E082239323892B21F010927A0381E095
:101BA000EACF10927903089582E090E0FA019183E0
:101BB00080838FEF9FEF0895CF93DF93EA01009723
:101BC00011F00E9466201982188290E080E0DF9177
:101BD000CF910895DB01009719F48FEF8C9308954E
:101BE0002EEF2C93FC013F96EF30F10508F034C046
:101BF0008827E250F24F8F4F0C94F72D2A0E280EB3
:101C0000260E240E220E1E0E200E1C0E1A0E180E6C
:101C1000150E110E0D0E130E2C0E80E311968C93E3
:101C2000089589E2FBCF82E2F9CF11961C920895C4
:101C300083E2F4CF81E2F2CF81E1F0CF87E2EECF11
:101C40008AE2ECCF80E1EACF84E2E8CF88E2E6CF17
:101C500086E2E4CF81E3E2CF80E2E0CF8091B0037F
:101C60009091B10308959093B1038093B0030895C8
:101C70008091AF0308959091AF03892B8093AF03B8
:101C80000895982F90958091AF0389238093AF0397
:101C900008958091AE0308958091AC039091AD03B7
:101CA00008956115710559F0FB0130E020E070E006
:101CB00060E02417350719F06115710511F0CB01AB
:101CC0000895A081B181A817B90709F4BF012F5F5A
:101CD0003F4F3696EECF8091B20381111CC060D287
:101CE00066D29093A5038093A4030E9472180E9469
:101CF00084189093A9038093A8030E94F31C0E9468
:101D0000FA1C9093A7038093A60381E08093B2030B
:101D100090E080E0089584EF9FEF08958F929F9266
:101D2000AF92BF92CF92DF92EF92FF920F931F93E9
:101D3000CF93DF9300D000D000D01F92CDB7DEB795
:101D40001A86198618861F821E821D821C821B829B
:101D50001A8219828091B20307EF1FEF882309F4DA
:101D60009CC08E010D5F1F4F9E012B5F3F4FAE0148
:101D7000495F5F4FBE01675F7F4F90E080E00E9448
:101D8000771E8C01009721F00596029708F0DBC0C2
:101D900029853A852115310509F402C1ED80FE80BF
:101DA0004B815C81B701640F751F8F819885861701
:101DB000970708F4F5C0E20EF31ED7019C91903C02
:101DC00009F07FC04230510508F47BC011968C9118
:101DD0004091B0035091B103452B09F49CC0913F51
:101DE00008F071C02CE1290F2D3008F48BC02DE2D2
:101DF000290F203108F489C0903C21F481508230B1
:101E000008F483C088E3890F8B3008F481C09AEE10
:101E1000C92E9DE0D92EE4EDFDE06D817E81AE01FD
:101E20004F5F5F4F89859A8519955C01C114D10474
:101E3000A1F189809A808114910479F18B819C8130
:101E40008815990508F487C010E000E04B815C819B
:101E500070E060E0C7010E94212E01151105E9F430
:101E600049815A8169857A858D819E81680F791FA4
:101E7000C501F6011995E980FA800D811E812F8137
:101E8000388549855A856FEF7FEF81E090E00E94A9
:101E9000121E8C01892B09F056C0C8012A960FB674
:101EA000F894DEBF0FBECDBFDF91CF911F910F9190
:101EB000FF90EF90DF90CF90BF90AF909F908F906A
:101EC000089580E085CF30E020E0220F331FF90134
:101ED000EC55FC4F0190F081E02D309709F497CF3D
:101EE000892F90E01995009709F491CFDC011296A3
:101EF000ED91FC9113971496CD90DC90309709F0FA
:101F00008CCF1FC021E030E0E0CF22E030E0DDCF19
:101F100023E030E0DACFD12CC12CECEDFDE09F3F87
:101F200009F07BCFE091A403F091A503309721F451
:101F3000C90104EF1FEF0CC08FEF90E019950097D7
:101F4000A9F604EF1FEF89859A85009709F4A5CFBC
:101F50000E946620A2CF0E94411F8C0189859A852C
:101F60000E94662070E060E0C4010E94DA1E98873B
:101F70008F830E940F1E9E838D836F8178856115EC
:101F8000710559F0C8010E94F2219A87898706EFEE
:101F90001FEF892B09F058CF59CF08EF1FEF56CF0D
:101FA00008EF1FEFD0CF2091B203222319F020E0D9
:101FB0000C94891887EF9FEF08958091B00390915A
:101FC000B10308950E94FF1C0E94591CF5D0E4EA59
:101FD000F3E088E0DF011D928A95E9F71092B203E1
:101FE00090E080E008950C94B71A21E040E050E0C2
:101FF000BA010C94891886E090E0FA0191838083FD
:1020000090E080E0089547E050E065E672E049CE58
:10201000DF92EF92FF920F931F93CF93DF938A018A
:10202000EC01C60FD71FE090B603F090B703D9803C
:102030000E94291FD816190678F082E090E0F80176
:10204000918380838EEF9FEFDF91CF911F910F914E
:10205000FF90EF90DF900895EF2841F482E090E048
:10206000F8019183808384EF9FEFEECF8981809385
:10207000B50390E00196F8019183808390E080E0C1
:10208000E3CFCF93DF93EA010E94681B882321F0FE
:102090000E94361F0E94691B82E090E0998388832A
:1020A0008BEF9FEFDF91CF910895CF93DF93EB01FB
:1020B00086E0FB0111928A95E9F78FEF8883D8DDDE
:1020C0008983E7DD8A83E8DD9D838C83DF91CF916F
:1020D0000895CF93DF93EA010E946B1B811109C021
:1020E00082E090E09983888385EF9FEFDF91CF9125
:1020F000089590E080E0B7DD81E090E099838883E7
:1021000090E080E0F3CF0F931F93CF93DF93EA012A
:102110008C01060F171F0E946B1B81110BC082E000
:1021200090E09983888385EF9FEFDF91CF911F9196
:102130000F910895F8018181823038F082E090E0BB
:10214000998388838EEF9FEFF0CF81E090E08BDD65
:1021500088E090E09983888390E080E0E6CFCF9399
:10216000DF930097D1F4EB01FB01329686E0DF01AB
:102170001D928A95E9F78FEF888385E089831A821B
:102180000E94291F8B830E94281F9D838C8381E0DE
:102190008E838F83DF91CF910895DF91CF911ACDF8
:1021A00083E090E19093B4038093B303089580910A
:1021B000B3039091B40308951092B4031092B30343
:1021C00008958091B6039091B7030895411105C019
:1021D000611571058105910561F06093B6037093F7
:1021E000B7038093B8039093B9034093BA0381E097
:1021F000089580E00895FF920F931F93CF93DF938C
:102200008A01EC01C60FD71FF9800E94291FF8161A
:10221000190668F082E090E0F801918380838EEFE8
:102220009FEFDF91CF911F910F91FF9008956C81E7
:102230007D818E819F814B81C9DF811108C082E041
:1022400090E0F8019183808384EF9FEFEACF89814A
:102250008093B50390E00196F8019183808390E02C
:1022600080E0DFCFCF93DF93EA01FC01E60FF71F99
:1022700064817581868197814381A8DF811109C0BE
:1022800082E090E09983888384EF9FEFDF91CF9184
:10229000089581E090E09983888390E080E0F6CF14
:1022A000E6EBF3E04081518162817381480F511D5B
:1022B000611D711D40835183628373830895CF93A1
:1022C000C091B5034C2F50E06091B6037091B703F5
:1022D00001960E94182E8C2FE3DF1092B503CF9148
:1022E0000895009799F48091B6039091B7032FEF6A
:1022F000FB012083892B59F02091B50330E02F5F3B
:102300003F4F2417350719F4CB01D9CF63CC08957B
:10231000009799F48091B6039091B7032FEFFB01DA
:102320002083892B59F02091B50330E02F5F3F4F78
:102330002417350719F4CB01C2CF4CCC089523E103
:10234000AC01249FC001259F900D1124E091BF0393
:10235000F091C003E80FF91F238134812250310925
:1023600081E02230310508F080E008950F931F933B
:10237000CF93DF930091C1031091C203D0E0C0E07E
:1023800080E00C171D0749F491E0811190E0892F3E
:10239000DF91CF911F910F9108958111F5CFCE015B
:1023A000CEDF2196EECFA091BF03B091C00310976E
:1023B00029F12091C1033091C20382179307F0F4F1
:1023C00053E1589F9001599F300D1124A20FB31F64
:1023D000ED91FC911197309789F012968C916817C6
:1023E00068F48BE0689FE00DF11D112480819181DC
:1023F000892B21F081E09281491708F080E008954F
:102400009C0143E1429FC001439F900D1124E09144
:10241000BF03F091C003E80FF91F8385823091F468
:1024200081E090E0658176814091410250914202C5
:102430006417750711F490E080E0892B19F081E0B2
:10244000232B09F080E00895EF92FF920F931F93E2
:10245000CF93DF93EA01FC01E60FF71F028113819E
:10246000E480F5804F2D6E2DC8019DDF81110DC0D8
:1024700082E090E0998388838EEF9FEFDF91CF9188
:102480001F910F91FF90EF900895C80158DF8823A6
:1024900039F082E090E09983888388EF9FEFEECF58
:1024A0001093480200934702E0924902F0924A02D8
:1024B00081E090E09983888390E080E0DFCFCF9245
:1024C000DF92EF92FF920F931F93CF93DF937A01E6
:1024D000EC01C60FD71FC0904702D0904802009170
:1024E000490210914A02412F602FC6015CDF811121
:1024F00010C082E090E0F701918380838AEF9FEF24
:10250000DF91CF911F910F91FF90EF90DF90CF90CF
:102510000895C60114DF882341F082E090E0F701BE
:102520009183808388EF9FEFEBCF4C815D816E813B
:102530007F819A8189818F3F41F082E090E0F701AD
:10254000918380838EEF9FEFDBCFE3E1EC9D9001E1
:10255000ED9D300D1124E091BF03F091C003E20F17
:10256000F31F0190F081E02D2BE0029FE00DF11DA3
:1025700011240190F081E02D27E0129FE00DF11D64
:102580001124808391838B81828343835483658369
:1025900076831F5F10934A0281E090E0F7019183F8
:1025A000808390E080E0ACCFEF92FF920F931F9377
:1025B000CF93DF937A018C01060F171FC091BF03E1
:1025C000D091C003209781F021E030E0F8018281B2
:1025D00093814091C1035091C2038417950710F075
:1025E00030E020E0232B71F482E090E0F70191834A
:1025F00080838EEF9FEFDF91CF911F910F91FF901E
:10260000EF90089543E1489F9001499F300D1124B8
:10261000C20FD31F94DE882341F082E090E0F701DF
:102620009183808388EF9FEFE6CFF8012481358185
:1026300020383105C8F687818111D6CF4181842F9A
:1026400090E08F7E009741F082E090E0F701918367
:10265000808386EF9FEFCFCF4F833E832D832681EC
:1026600028871986223010F421E0288721E030E005
:10267000F70131832083BFCF88E090E0FA01918396
:10268000808390E080E00895FB018FEF808381E1FB
:1026900081838FEF9FEF9383828380E890E095831F
:1026A0008483168217820895FB018FEF808391E067
:1026B000918382839383848384E3858381E090E0A4
:1026C000978386830895DF92EF92FF920F931F9373
:1026D000CF93DF93EA01FC01E60FF71F8181813080
:1026E00071F082E090E0998388838FEF9FEFDF9114
:1026F000CF911F910F91FF90EF90DF90089582810D
:102700009381D4802581E680F7800091BF031091EA
:10271000C0030115110539F482E090E099838883A4
:102720008CEF9FEFE4CF4091C1035091C203841717
:10273000950738F082E090E0998388838EEF9FEFD1
:10274000D6CF892B39F082E090E09983888386EF99
:102750009FEFCDCF8D2D8D7FB1F72130A1F781E097
:10276000D11006C091E0E916F10431F080E004C018
:10277000E2E0EE16F104D0F3882329F390E080E044
:10278000DEDD882339F082E090E09983888388EF4A
:102790009FEFADCFF801D38681E08487F686E5868A
:1027A000108A178681E090E09983888390E080E02A
:1027B0009ECF4CE050E06FE872E073CA8F929F9218
:1027C000BF92CF92DF92EF92FF920F931F93CF931E
:1027D000DF93EA01FC01E60FF71F828193810481F8
:1027E000B580E091BF03F091C003309791F482E08F
:1027F00090E0998388838CEF9FEFDF91CF911F91B9
:102800000F91FF90EF90DF90CF90BF909F908F90AF
:1028100008952091C1033091C2038217930738F0C5
:1028200082E090E0998388838EEF9FEFE6CF23E1EB
:10283000289F6001299FD00C1124EC0DFD1DE08024
:10284000F180E114F10499F28281081748F78BE0D6
:10285000089F80011124E00EF11EF7018081918113
:10286000892B29F6BB20E1F2F7E0BF9E400111243D
:10287000C4010E942D20F70191838083E091BF0362
:10288000F091C003EC0DFD1D0190F081E02DE00FF3
:10289000F11F80819181009739F482E090E0998363
:1028A00088838DEF9FEFA9CFA40170E060E00E94C4
:1028B000212E8091BF039091C003C80ED91EF6014E
:1028C00080819181080F191FF801B28281E090E0A8
:1028D0009983888390E080E090CFAF92BF92CF92AF
:1028E000DF92FF920F931F93CF93DF93EA01FC01D6
:1028F000E60FF71F82819381F4800091BF0310914E
:10290000C0030115110581F482E090E0998388836A
:102910008CEF9FEFDF91CF911F910F91FF90DF9090
:10292000CF90BF90AF9008952091C1033091C20322
:102930008217930738F082E090E0998388838EEFC6
:102940009FEFE8CF2FEF2F0D2C3FA8F723E1289F13
:102950006001299FD00C11240C0D1D1DF8018081F0
:102960009181892B89F6FBE0FF9E50011124C5015E
:102970000E942D20F80191838083E091BF03F091A4
:10298000C003EC0DFD1D80819181009739F482E038
:1029900090E0998388838DEF9FEFBCCFA50170E015
:1029A00060E00E94212EE091BF03F091C003EC0D86
:1029B000FD1DF28281E090E09983888390E080E0C1
:1029C000A9CFCF92DF92EF92FF920F931F93CF93F5
:1029D000DF93860F971FFC01028113818091BF0353
:1029E0009091C003892B81F082E090E0FA019183FD
:1029F00080838CEF9FEFDF91CF911F910F91FF901C
:102A0000EF90DF90CF900895C801B0E0A0E001976B
:102A1000A109B1098F3F9F4FA105B10540F082E0A8
:102A200090E0FA01918380838EEF9FEFE4CF7A01EB
:102A300083E1809F6001819FD00C1124C6010E9418
:102A40002D20EC01009741F482E090E0F7019183A2
:102A500080838DEF9FEFCFCFA60170E060E00E94F2
:102A6000212ED093C003C093BF031093C2030093E1
:102A7000C10390E080E02FEF3FEF41E061E070E0C4
:102A80008017910741F481E090E0F7019183808302
:102A900090E080E0B0CF3A8B298B1B864C877E87F5
:102AA0006D87188A1F8601966396EACFCF92DF92D0
:102AB000EF92FF920F931F93CF93DF93EC01D12CF2
:102AC000C12C10E000E0F12CE12C6A8160171106A6
:102AD00009F0CCF483E0689FB0011124AE014F5E91
:102AE0005F4FC7010E949220009721F02FEF3FEF28
:102AF0003A8B298BDF91CF911F910F91FF90EF902F
:102B0000DF90CF900895E881F981EC0DFD1D4381A0
:102B100054818D859E85489F9001499F300D589F17
:102B2000300D1124C90101960115110519F44F81C9
:102B300044FD049661E070E00E94DA1EE816F90692
:102B400008F47C010F5F1F4F8BE0C80ED11CBDCF76
:102B5000F8942091BD033091BE0381E02115310529
:102B600009F080E0232B09F0789408952F923F928A
:102B70004F925F926F927F928F929F92AF92BF928D
:102B8000CF92DF92EF92FF920F931F93CF93DF9339
:102B90003C01660E771EF301828193814C01B12CBA
:102BA000A12CC091BF03D091C003209769F021E010
:102BB00030E06091C1037091C2038617970710F04F
:102BC00030E020E0232BD1F482E090E0FA01918301
:102BD00080838EEF9FEFDF91CF911F910F91FF9038
:102BE000EF90DF90CF90BF90AF909F908F907F90AD
:102BF0006F905F904F903F902F90089580924B027E
:102C000090924C02A0924D02B0924E0263E1689FF6
:102C10009001699F300D1124C20FD31FF3018181F0
:102C2000833040F082E090E0FA019183808386EF68
:102C30009FEFD1CF2A012B813C81232BF1F42881F6
:102C400039819F8191FF2EC0232B09F46FC0209101
:102C5000C4039A81422F490F5527551FBA0141E0FD
:102C600050E06138710514F050E040E0452B09F464
:102C70005DC02A87920F9093C4038150823008F47C
:102C800081C066DF882309F4D8C0F30181818130D7
:102C900009F48DC008F47BC0823009F4C6C090E00E
:102CA00080E0ADC0232B09F441C02091C3039A8179
:102CB000E22FE90FFF27FF1F41E050E0ED3FF10554
:102CC00014F050E040E0452B89F12A87920F909351
:102CD000C303D3CFA081B181A20FB31F11966C9112
:102CE000060F111D0196295F3F4F8417950794F336
:102CF0008D859E85089F1001099F300C189F300C10
:102D00001124C114D104D1F48F8184FF17C00E9413
:102D1000281FF5E02F0E311C21E08215930508F4E1
:102D200020E0A701455F5F4F21110EC082E090E0D7
:102D3000F2019183808387EF9FEF4DCF0E94281F80
:102D40002FEF221A320AE8CF88819981E80EF91E06
:102D5000F70114830383FFEFCF1ADF0A7A018A8118
:102D60008C151D0409F00CF48CCFE881F981EE0D6F
:102D7000FF1D428150E030E020E010E000E090E0F4
:102D800080E0B3CFF12CE12CD12CC12CE8CF81E035
:102D900090E09C838B83EADA882309F480CF81E07A
:102DA00090E00E94330E80E40E94410E78CF898922
:102DB0009A89019661F083E090E09C838B8382E0A6
:102DC00090E00E94330E80E40E943B0E68CF8D811C
:102DD0009E81209141023091420282179307D1F4E3
:102DE0006091450270914602AE014F5E5F4F809147
:102DF0004302909144020E94B1210097E1F278943D
:102E000022E030E0F20131832083892B99F08DEFAD
:102E10009FEFE1CE89288A288B2869F6892B59F6FD
:102E2000CE0144DE188A1F86E8CF82E090E09C83C2
:102E30008B8335CF90E080E0CECE82E090E0F2014F
:102E40009183808385EF9FEFC6CE8F929F92AF9242
:102E5000BF92CF92DF92EF92FF920F931F93CF9387
:102E6000DF93EA018C01060F171FF801818183307F
:102E700098F082E090E09983888386EF9FEFDF915E
:102E8000CF911F910F91FF90EF90DF90CF90BF9067
:102E9000AF909F908F9008958091BF039091C00351
:102EA000892B61F081E090E02091C1033091C20351
:102EB000232B11F490E080E0892B39F482E090E03C
:102EC000998388838EEF9FEFDACF42DE882309F45F
:102ED000DFC0F8018181813009F495C0E8F08230CB
:102EE00099F42091C1033091C203E091BF03F091A6
:102EF000C00390E080E041E050E02817390709F076
:102F0000BDC034DA811117C0789481E090E09983D4
:102F1000888390E080E0B3CF2091C1033091C20359
:102F2000E091BF03F091C00390E080E041E050E009
:102F30002817390741F481E090E00E94330E80E4C5
:102F40000E94410EE1CF63817481672B11F054839D
:102F5000438301967396ECCFE091BF03F091C003D9
:102F6000E00FF11F2381348122303105D9F421890A
:102F700032892F3F3F4FB1F4258136814091410284
:102F8000509142022417350761F5AF014F5E5F4F44
:102F900060914502709146028091430290914402F3
:102FA0000E94B121EFEFCE1ADE0AEE0AFE0A0D5E94
:102FB0001F4F4091C1035091C20370E060E0C416FE
:102FC000D506E606F7063CF5009731F27894892B92
:102FD00009F49BCF82E090E0998388838DEF9FEF87
:102FE0004ECFC114D104E104F104E1F6232BD1F654
:102FF000CF015CDDE091BF03F091C003E00FF11F52
:10300000108A1786CFCF10E000E090E080E0C12C5E
:10301000D12C7601CECF0097C9F610E000E0812CCC
:10302000912C540183E0E82EF12C1AC0E091BF03EB
:10303000F091C003E00FF11F83819481029749F45E
:10304000F482E38282E090E00E94330E80E40E94EA
:103050003B0EFFEF8F1A9F0AAF0ABF0A0D5E1F4F8C
:103060008091C1039091C203B0E0A0E08816990658
:10307000AA06BB06DCF290E080E0A8CF63817481F1
:103080006230710511F4548343830196739635CFF2
:1030900082E090E09983888385EF9FEFF0CE0097E0
:1030A000B9F48FEFFB01808320914B0230914C02E9
:1030B00043E1429FC001439F900D1124E091BF0363
:1030C000F091C003E80FF91F8285FB018183089509
:1030D0000C94EA0D88E090E0FA019183808390E0FF
:1030E00080E008951092BE031092BD03EFEBF3E071
:1030F00086E0DF011D928A95E9F789ED93E19093CF
:10310000BC038093BB0308958091BB039091BC03E3
:1031100008952F923F924F925F926F927F928F927B
:103120009F92AF92BF92CF92DF92EF92FF920F9356
:103130001F93CF93DF93CDB7DEB760970FB6F894A8
:10314000DEBF0FBECDBFF894E091BD03F091BE038A
:103150003196F093BE03E093BD037894A091BF0332
:10316000B091C003BA83A983109709F4FAC1E09122
:10317000C103F091C203EF2B09F4F3C128874B87F9
:103180005C876D877E879A878987B88BAF87312C5C
:10319000212CF12C512C412C8091C1039091C20320
:1031A0002816390610F4FF2029F1F8948091BD0308
:1031B0009091BE0301979093BE038093BD037894D2
:1031C000C20160960FB6F894DEBF0FBECDBFDF918F
:1031D000CF911F910F91FF90EF90DF90CF90BF9014
:1031E000AF909F908F907F906F905F904F903F90A7
:1031F0002F900895B10190E080E088D4682EEF858B
:10320000F889878181FD3DC0838194810397C9F549
:10321000258136813C832B8389859A852817390738
:1032200081F5C101EDD8782E8823A9F1AF85B88941
:103230001F968D919C915097019621E01D964D917E
:103240005C918417950709F020E02F83B12CA12C05
:10325000EF85F88982818A151B0419F014F0FF208C
:10326000E9F0F885FF2309F46CC1AF85B889509661
:103270001C921E921F97662021F0B10190E080E021
:1032800047D4FFEF2F1A3F0A2F8538892D5E3F4F15
:10329000388B2F8781CFB1E0BF83D8CFC0D49E8336
:1032A0008D83E885EE23E9F0772009F43CC1AF85F2
:1032B000B8891F968D919C91892B79F0BBE0BA9DBE
:1032C000C001BB9D900D1124AF85B889ED91FC9193
:1032D000E80FF91F85819681F9D6BFEFAB1ABB0ABB
:1032E000B7CF81E0772039F0EF85F88927853089DD
:1032F000232B09F080E0F82EE12CA114B10439F45D
:10330000AF85B8891796EC90E4FAEE24E0F8BBE0BC
:10331000BA9D6001BB9DD00C1124882309F424C1FF
:10332000AF85B889ED91FC911197EC0DFD1D43819E
:1033300054811D962D913C91429FC001439F900D59
:10334000529F900D1124E1105DC0019690878783F4
:1033500061E070E0878190852DD5EF85F88921891E
:103360003289008111810C0D1D1D2F3F320709F498
:103370004BC0BC01C9010E94F221D80116969C9352
:103380008E931597AF85B889ED91FC911197EC0D4F
:10339000FD1D058116810115110509F4CDC0ED81D2
:1033A000FE810E0F1F1F1A968C918A0DD8018C93E7
:1033B000E1102FC00F5F1F4FAF85B889ED91FC91D1
:1033C000EC0DFD1D12870187AF85B889ED91FC9149
:1033D000EC0DFD1D85819681892B09F4A4C0809197
:1033E0004102909142022B813C812817390709F450
:1033F00065C0772011F001851285912C812C1A82ED
:1034000019824AC00596A2CF28D6F80196838583F3
:10341000B9CF8B859C85AD85BE85F801818392836C
:10342000A383B4830B5F1F4FC7CFE080F180E80C0C
:10343000F91CD70113966D917C9114978C918F3F55
:1034400009F473C0E1E0F0E002C0EE0FFF1F8A95BF
:10345000E2F7CF01092E000CAA0BBB0BFB01408148
:1034600051816281738184239523A623B72321E0B0
:10347000892B8A2B8B2B09F420E0D8012C93D701C0
:1034800011968C91080F111DE981FA813196FA830A
:10349000E983F7E08F0E911CAF85B889ED91FC911F
:1034A000EC0DFD1D828129813A818217130611F0EE
:1034B0000CF0BBCF772011F0128701873F813323B7
:1034C00091F1AF85B889ED91FC91EC0DFD1D61E0A6
:1034D00070E0878190856ED4AF85B889ED91FC91BD
:1034E000EC0DFD1DE780F08445815681E1E0F0E0C0
:1034F000662011F0F0E0E0E00D811E819C01B10139
:10350000882799278E1B9F0B8DD32C01892B59F06F
:10351000EF85F88980819181C80ED91ED601159654
:103520008D919C91D3D5F12CD8CEF701418150E0FB
:10353000C8010E94182EA3CF86EF482E55245A9416
:10354000CCCEEF85F889878590890196908B878707
:10355000258536858217930709F08DCE108A178648
:103560008ACE512C412C21CE10E000E02DCF2F929D
:103570003F924F925F926F927F928F929F92AF9203
:10358000BF92CF92DF92EF92FF920F931F93CF9350
:10359000DF938091BF039091C00310E000E0892B7E
:1035A000A9F0D6DA0AEF1FEF882381F02090C1033B
:1035B0003090C203C091BF03D091C003D12CC12C65
:1035C00010E000E02C143D04A9F47894C801DF91C8
:1035D000CF911F910F91FF90EF90DF90CF90BF9010
:1035E000AF909F908F907F906F905F904F903F90A3
:1035F0002F900895C6010E940012882309F18B8143
:103600009C810397E9F48F859889892BC9F0B601CD
:1036100090E080E07BD221E030E0882311F030E0C0
:1036200020E044245524421A530AB12CA12C912C99
:10363000812C8A818815190409F038F4188A1F86AC
:103640004FEFC41AD40A6396BDCFE881F981EA0D21
:10365000FB1D85819681892BA1F161E070E0878156
:103660009085A8D33C01DBD28C01E881F981EA0D79
:10367000FB1D8185928525813681200F311FAC018C
:10368000421B530B9A0147815085421B530B70E03C
:1036900060E00E94212EE881F981EA0DFB1DE780A0
:1036A000F084458156819301B601C201BBD28C01E1
:1036B000892B39F0E881F981EA0DFB1D858196811E
:1036C00005D55FEF851A950A8BE0A80EB11CB1CF26
:1036D0003FCA789408952F923F924F925F926F92D3
:1036E0007F929F92AF92BF92CF92DF92EF92FF9222
:1036F0000F931F93CF93DF9300D000D0CDB7DEB7E9
:103700000091BF031091C0039924939401151105F2
:1037100009F43EC0A090C103B090C20319DA982EFC
:103720008823B1F11092C0031092BF031092C2031C
:103730001092C1031092C3031092C4038FEF9FEF46
:10374000DC0180934B0290934C02A0934D02B09306
:103750004E0278947FD31E830D83C12CD12C760129
:10376000C501B0E0A0E089839A83AB83BC832224A7
:103770002A94322C89819A81AB81BC81C816D906E2
:10378000EA06FB06F4F0C801A1D480E40E94410ED1
:10379000892D26960FB6F894DEBF0FBECDBFDF9100
:1037A000CF911F910F91FF90EF90DF90CF90BF903E
:1037B000AF909F907F906F905F904F903F902F9031
:1037C0000895AD81BE8115968D919C91169720919B
:1037D00041023091420282179307D1F451968D91A4
:1037E0009C91EED5ED81FE8180819181B12CA12C3F
:1037F000412C512C3201892B89F5BFEFCB1ADB0A02
:10380000EB0AFB0AED81FE817396FE83ED83B2CF56
:10381000C114D104E104F10429F7892B19F7ED81D2
:10382000FE81818992898F3F980709F029D5AD8162
:10383000BE8152963C922E925197D4CF8A0D9B1DF9
:10384000DC018D919C91009709F040D4BFEF4B1A99
:103850005B0A6B0A7B0AEBE0AE0EB11CAD81BE8148
:103860008D919C91119712964C9150E070E060E020
:1038700044165506660677060CF328D4BECFCF93C0
:10388000DF93EA0128DF811109C082E090E099838B
:10389000888385EF9FEFDF91CF91089581E090E0DD
:1038A0000E94330E81E090E09983888390E080E06D
:1038B000F2CF11DF1092BC031092BB03089542E0D7
:1038C00050E067ED72E00C94510EFF920F931F933E
:1038D000CF93DF938A01EC01C60FD71FF980B9D2CD
:1038E0000897F816190671F068F082E090E0F80188
:1038F000918380838EEF9FEFDF91CF911F910F9186
:10390000FF9008956C817D818E819F814B810E9403
:10391000E610811108C082E090E0F8019183808375
:1039200084EF9FEFE9CFF9800E94E1104F2D50E026
:10393000BE01685F7F4F0E94182E89810E9450113E
:1039400081E090E0F8019183808390E080E0D4CF23
:10395000DF92EF92FF920F931F93CF93DF938A0131
:10396000EC01C60FD71F0E94E1107C01D98071D2F3
:10397000DD2059F0029721E030E0D816190619F041
:1039800010F030E020E0232B79F482E090E0F801A1
:10399000918380838EEF9FEFDF91CF911F910F91E5
:1039A000FF90EF90DF900895EF2841F482E090E0DF
:1039B000F8019183808384EF9FEFEECFF9800E941E
:1039C000E1104F2D50E0BE016E5F7F4F0E94182E18
:1039D00089810E94501181E090E0F80191838083F9
:1039E00090E080E0D9CF8FE59CE19093C60380936F
:1039F000C50308958091C5039091C6030895089565
:103A0000FC0111821082938382830895DB011D9251
:103A10001C92DC011296ED91FC91139771836083E7
:103A200013967C936E9312970895FC018081918187
:103A3000DB018D939C93A081B181109741F08D9112
:103A40009C9191838083892B11F4F383E283089501
:103A5000FC0180819181DB018D939C93892B11F472
:103A600073836283718360830895FC0111821082E5
:103A7000938382830895CF93DF931F921F92CDB7D4
:103A8000DEB71A821982F894BE016F5F7F4F8CEC0B
:103A900093E0CBDF89819A81009709F017D3898160
:103AA0009A81892B89F7BE016F5F7F4F80ED93E08C
:103AB000BCDF89819A81009709F008D389819A81B6
:103AC000892B89F778940F900F90DF91CF9108950B
:103AD000CF93DF931F921F92CDB7DEB71A82198260
:103AE000F894BE016F5F7F4F88EC93E09EDF898181
:103AF0009A81009709F0EAD289819A81892B89F706
:103B000078940F900F90DF91CF91089581E0089500
:103B100090E080E00895EF92FF920F931F93CF9370
:103B2000DF931F921F92CDB7DEB71A821982809160
:103B3000C70307EF1FEF8823A1F1F894BE016F5F61
:103B40007F4F80ED93E071DF789489819A81EE2434
:103B5000E394F12C892B51F4F894BE016F5F7F4FF1
:103B60008CEC93E062DF7894F12CE12C89819A81CE
:103B70000EEF1FEF0097A9F0FC014281538164E032
:103B800070E074D68C01892B61F0F89469817A8198
:103B9000C701880F991F880F991F84539C4F58DFC6
:103BA0007894C8010F900F90DF91CF911F910F91E2
:103BB000FF90EF9008950F931F93CF93DF9300D062
:103BC0001F92CDB7DEB71C821B821A8219828091A8
:103BD000C70307EF1FEF8823C1F0AE014D5F5F4FB2
:103BE00064E070E0CE010196B4D68C01892B69F4B3
:103BF000E981FA818B819C8193838283F894698126
:103C00007A8188EC93E002DF7894C8010F900F90DE
:103C10000F900F90DF91CF911F910F910895B9D719
:103C2000049608958F929F92AF92BF92CF92DF92A7
:103C3000EF92FF920F931F93CF93DF931F921F92E8
:103C4000CDB7DEB71A821982BC016F5F7F4F633038
:103C5000710598F0AA24AA94BA2CC5010F900F9070
:103C6000DF91CF911F910F91FF90EF90DF90CF9058
:103C7000BF90AF909F908F9008954115510551F3DB
:103C8000480159018A016C01CADF8815990511F7AD
:103C9000E114F104F9F28E0D9F1DA816B906D0F2B9
:103CA0008091C7038823F1F0F894B501645071093D
:103CB0009701AE014F5F5F4FC8010496DFD65C01EC
:103CC000892B71F489819A81F80193838283C601DB
:103CD000880F991F880F991FB80184539C4F96DE57
:103CE0007894BBCF87EFA82EBB24BA94B6CFAF92FF
:103CF000BF92CF92DF92EF92FF920F931F93CF93D9
:103D0000DF931F921F92CDB7DEB71A821982892BDB
:103D100009F047C06115710509F443C0411551050B
:103D200009F43FC02115310509F43BC00115110507
:103D3000C1F18091C7038823B9F179016A015B0160
:103D4000F894BE016F5F7F4F88EC93E06EDE78944D
:103D500089819A81009759F1DC0112966D917C91CD
:103D6000A8010496A4D68C01E981FA81D501ED93CE
:103D7000FC93828193810496F601918380834FDFC7
:103D8000D7018D939C93C8010F900F90DF91CF9135
:103D90001F910F91FF90EF90DF90CF90BF90AF9069
:103DA00008950FEF1FEFEFCF07EF1FEFECCF0EEFF0
:103DB0001FEFE9CFCF93DF93EC01672B71F4F2D6BD
:103DC0008C179D0760F0E5D62496C80FD91FE4D65E
:103DD0008C0F9D1FDF91CF910895E1D6F1CF90E038
:103DE00080E0F8CF0F931F93CF93DF932091C70309
:103DF00021112BC08B01EC018CEC93E001DE80EDF6
:103E000093E0FEDD88EC93E0FBDD97D00097C1F4F2
:103E1000C9D670E060E0CEDF4FE452E062E070E0CF
:103E200081D1009769F480914F0290915002CCD6D5
:103E3000B801CE0101D5009719F421E02093C70302
:103E4000DF91CF911F910F91089584EF9FEFF8CFED
:103E5000A6C6A8C6CF93DF93A8D6EC01892B11F490
:103E60000ADE36DECE01DF91CF910895CF93DF9346
:103E70009CD6EC01892B09F4FEDDCE01DF91CF91B8
:103E8000089580914F02909150020895CF93DF934F
:103E90008091C703D0E0C0E08823D1F09AD6EC012E
:103EA000892BB1F4E8DD14DE80914F02909150022D
:103EB000E7D1E8D2EC01892B59F48CEC93E0D5DD05
:103EC00080ED93E0D2DD88EC93E0CFDD1092C70364
:103ED000CE01DF91CF910895EF92FF920F931F9340
:103EE000CF93DF93EC017A018B010F5F1F4F0E9D83
:103EF000A0010F9D500D1E9D500D112470E060E03B
:103F00000E94212E90E080E0F0E0E0E02FEFE81644
:103F1000F90639F4DF91CF911F910F91FF90EF9047
:103F200008951A8219822883309711F0D283C183B1
:103F30000196FE01C00FD11FEACFCF92DF92EF9220
:103F4000FF920F931F93CF93DF9301EE15E00C7F49
:103F500043E050E061E572E087E592E01AD481E544
:103F6000E82E82E0F82E97E5C92E92E0D92EC8E51A
:103F7000D6E0D7014D915D917D01F601619171917E
:103F80006F01198308835D834C835B834A837F833E
:103F90006E839B012F5F3F4F249FC001259F900D93
:103FA000349F900D1124998788870115110511F010
:103FB000C80192DF88859985080F191F2A96F7E5B1
:103FC000EF16F2E0FF06A9F6E6EDF3E088E092E0F6
:103FD000DF019C011D9221503040E1F71092D50382
:103FE0001092D403109277061092760610927B06F8
:103FF00010927A06109279061092780610927D0639
:1040000010927C0610927F0610927E061092810616
:1040100010928006109285061092840610928306F4
:1040200010928206109287061092860610928906D8
:104030001092880610925506109254061092570658
:104040001092560690E080E0DF91CF911F910F9182
:10405000FF90EF90DF90CF9008950097F1F0F894E3
:10406000A7E5B2E0E8E5F6E030E020E04D915D91B3
:1040700048175907A8F0428153814115510581F035
:104080008AE0829FF001839FF00D1124E85AF94FD6
:1040900080819181009759F4789490E080E00895B0
:1040A0002F5F3F4F3A962330310501F7F5CFDC0102
:1040B00011966D917C9171836083415051095383B6
:1040C0004283FC012193CF0178940895009749F130
:1040D000DC018E91853041F4E0915606F09157064F
:1040E0003097F9F0CD0119948530D8F4282F30E0BD
:1040F000F8948FEF8C938AE0829FF001839FF00DFC
:104100001124E85AF94F8081918112969C938E93E5
:104110001197B183A08382819381019693838283D7
:1041200078940895CF92DF92EF92FF920F931F93AE
:10413000CF93DF939C0189ED93E08C7F411551056E
:1041400009F49BC02115310509F497C0611571056B
:1041500009F493C07A01AB01B9016D5F7F4F6C7FA9
:104160009B012F5F3F4F249F8001259F100D349F9F
:10417000100D1124F8942091760630917706232BA8
:1041800059F420917E0630917F062115310569F1A1
:104190002017310708F058C0209180063091810621
:1041A000232B91F420917E0630917F06820F931F7E
:1041B00020918806309189062115310509F441C006
:1041C0002017310708F056C07894CFEFDFEF86EF65
:1041D0009FEFF701D183C083DF91CF911F910F91A2
:1041E000FF90EF90DF90CF900895C3E0D0E0C090B3
:1041F000D403D090D50325E032E02C193D092017D7
:10420000310710F32AE02C9FF0012D9FF00D1124AF
:10421000E85AF94F918380835583448353834283C3
:104220007783668311870087009709F055DE0C0DB0
:104230001D1D1093D5030093D403789490E080E083
:10424000C8CFC4E0D0E0D3CFC3E0D0E02AE02C9FB9
:10425000F0012D9FF00D1124E85AF94F91838083CE
:10426000558344835383428377836683009729F37E
:1042700033DEE3CFC4E0D0E0E9CF8FEF9FEFACCFE8
:104280009C010397029708F069C0F89484E09AE0D3
:10429000482F50E0241735070CF44DC091E08AE018
:1042A000829FF001839FF00D1124E85AF94F11828B
:1042B0001082158214821382128217821682992329
:1042C000B1F18091760690917706892BA9F420911F
:1042D0007E0630917F062115310571F08091D4035F
:1042E0009091D503821B930B9093D5038093D403B5
:1042F00010927F0610927E06809180069091810632
:10430000892BA9F420918806309189062115310561
:1043100071F08091D4039091D503821B930B9093FD
:10432000D5038093D403109289061092880678945E
:1043300090E080E00895949FF001959FF00D112486
:10434000E85AF94F40815181452B31F44085518520
:10435000452B11F481509CCF90E0A1CF8FEF9FEFC0
:1043600008954115510549F1009739F1611571051D
:1043700021F1F8942091540630915506232BB9F47D
:104380002091560630915706232B89F490935506B9
:10439000809354067093570660935606789425E0F0
:1043A00030E090E080E0FA01318320830895789432
:1043B0002FEF3FEF86EF9FEFF6CF8FEF9FEF089540
:1043C000059769F4F89410925506109254061092CD
:1043D000570610925606789490E080E008958FEF8B
:1043E0009FEF08956115710519F4F0E0E0E011C048
:1043F0008530910581F4E0915406F091550630978F
:10440000A1F3CB0101961995009779F3FC0185E0A2
:104410008193CF0108959C01235031092230310549
:1044200020F72AE0289FD001299FB00D1124A85A17
:10443000B94F2D913C911197232BB9F216962D91DE
:104440003C9117972617370780F2F89412962D9112
:104450003C9113972115310529F0ED91FC911197AD
:10446000309711F47894C1CF4181528111965C93B9
:104470004E932150310913963C932E9312978193BA
:104480007894C7CFEEEDF5E086E7DF011D928A95BF
:10449000E9F7E6EDF3E088E092E0DF019C011D9290
:1044A00021503040E1F71092D5031092D403E8E593
:1044B000F6E082E3DF011D928A95E9F7E4E5F6E094
:1044C00084E0DF011D928A95E9F790E080E008958D
:1044D000CF93DF93C0915D02D0915E02CF3FDC07A6
:1044E00059F420D490935E0280935D0297FF09C037
:1044F000D0935E02C0935D0284EF9FEFDF91CF9176
:10450000089590E080E0FACF8230910528F48093FE
:104510008A0690E080E008958FEF9FEF08954F9214
:104520005F926F927F92AF92BF92CF92DF92EF92A3
:10453000FF920F931F93CF93DF931F921F92CDB7DC
:10454000DEB71A821982009709F478C061157105E7
:1045500009F474C020915D0230915E0207EF1FEFF5
:104560002F3F3F4F09F444C06B015C01412C512C9B
:104570003201F12CE12C10E000E09E012F5F3F4F53
:10458000A6014E195F09B5016E0D7F1D80915D0278
:1045900090915E0226D4892B09F04AC089819A81C4
:1045A000009741F4E114F10429F420918A062223B2
:1045B00009F441C0E80EF91EEC14FD04C8F480E8CB
:1045C000481684E858068EE16806710418F560E024
:1045D00070E0CB015CD62AE0420E511C611C711CBC
:1045E0000A3F4FEF140721F0043F8FEF1807A1F4A3
:1045F000C8010F900F90DF91CF911F910F91FF9005
:10460000EF90DF90CF90BF90AF907F906F905F90D2
:104610004F90089501EF1FEF81E090E0013F2FEFF1
:10462000120711F090E080E0892B09F4A6CFE0CFCB
:1046300004EF1FEFDDCF0AEF1FEFDACF0FEF1FEF11
:10464000D7CF4F925F926F927F92AF92BF92CF92ED
:10465000DF92EF92FF920F931F93CF93DF931F92FE
:104660001F92CDB7DEB71A821982009709F478C07D
:104670006115710509F474C020915D0230915E02EC
:1046800007EF1FEF2F3F3F4F09F444C06B015C0160
:10469000412C512C3201F12CE12C10E000E09E0164
:1046A0002F5F3F4FA6014E195F09B5016E0D7F1DAB
:1046B00080915D0290915E024AD3892B09F04AC035
:1046C00089819A81009741F4E114F10429F4209141
:1046D0008A06222309F441C0E80EF91EEC14FD04F9
:1046E000C8F480E8481686E9580688E96806710427
:1046F00018F560E070E0CB01CAD52AE0420E511CEB
:10470000611C711C0E3F4FEF140721F0043F8FEF27
:104710001807A1F4C8010F900F90DF91CF911F915E
:104720000F91FF90EF90DF90CF90BF90AF907F9070
:104730006F905F904F90089502EF1FEF81E090E03F
:10474000023F2FEF120711F090E080E0892B09F46F
:10475000A6CFE0CF04EF1FEFDDCF0EEF1FEFDACFD4
:104760000FEF1FEFD7CF80915D0290915E028F3FD8
:10477000980749F0CFD2892B49F48FEF9FEF9093A0
:104780005E0280935D0290E080E0089584EF9FEFE9
:104790000895CF92DF92EF92FF920F931F93CF93E2
:1047A000DF9321E04115510509F020E04150510906
:1047B00021112CC0DC01FB01D12CC12C21E022C035
:1047C0003FEFC31AD30A7D010D911D91E701EA80E5
:1047D000FB80E016F106A8F420813181E280F380AD
:1047E000F182E08233832283ED90FC9011979D014A
:1047F00022503109E901F982E88211961C930E9347
:1048000020E03296C416D506D8F2D2CFDF91CF91F0
:104810001F910F91FF90EF90DF90CF900895FC01D2
:10482000680F791F90E080E0E617F70709F4089514
:104830002191820F911DF8CF20918B06211113C079
:1048400047DE009791F41092910610929006109214
:104850008F0610928E0610928D0610928C0621E023
:1048600020938B06089584EF9FEF0895AF92BF9237
:10487000CF92DF92EF92FF920F931F93CF93DF932C
:10488000009709F460C04630510508F45CC02091DF
:104890008B06C7EFDFEF222309F449C08C01060F16
:1048A000171FF801C080D180C114D10409F44EC093
:1048B00096012A5F3F4F4217530708F447C07C0117
:1048C000809190069091910693838283B6016C5FEC
:1048D0007F4F5801A60EB71EC801A1DFF5019183D5
:1048E000808364E070E0C8011ADEEC01892BF9F4E2
:1048F00081E090E009DEB601C801049610DEEC010B
:10490000892B91F462E070E0C50109DEEC01892B8E
:1049100059F4C701DBDB80919006909191060196D6
:10492000909391068093900690E080E0EDDDCE01BB
:10493000DF91CF911F910F91FF90EF90DF90CF907B
:10494000BF90AF900895CFEFDFEFF1CFC9EFDFEF6A
:10495000EECF6F927F928F929F92AF92BF92CF9243
:10496000DF92EF92FF920F931F93CF93DF9300D0CC
:104970001F92CDB7DEB7009709F47AC041155105F3
:1049800009F476C020918B0607EF1FEF222309F46C
:104990004DC03A017B015C0164E070E0CE010196FC
:1049A00050DE8C01892B09F041C009811A81011563
:1049B000110509F45AC0480186E0880E911CB70120
:1049C000680D791D80915F02909160020BDD6C0192
:1049D000009709F450C0A70170E060E00E94212E0A
:1049E00089819A81AB81BC81EC0CFD1CF70181931C
:1049F0009193A193B1937F0181E090E085DDB801AF
:104A0000C7011FDE892B31F562E070E0C701800F1E
:104A1000911F17DE8C01892BE9F490E080E074DDB2
:104A2000F501D182C082F30191828082C8010F908A
:104A30000F900F900F90DF91CF911F910F91FF90EA
:104A4000EF90DF90CF90BF90AF909F908F907F902E
:104A50006F90089590E080E057DDF501118210829B
:104A6000F30111821082C60131DB09EF1FEFDECFA7
:104A70000FEF1FEFDBCF06EF1FEFD8CF0097A1F0AE
:104A80004115510589F02115310571F0F90136966E
:104A90006E177F0748F0DC012D933C93DA01ED930C
:104AA000FC9390E080E008958FEF9FEF0895AF9220
:104AB000BF92CF92DF92EF92FF920F931F93CF930B
:104AC000DF93009709F45FC04115510509F45BC0FD
:104AD0006530710508F457C020918B06C7EFDFEFF2
:104AE000222391F1DC01CD90DC9011971296ED918B
:104AF000FC9196012A5F3F4FC9EFDFEF261737077A
:104B000019F5C0918C06D0918D06209749F521E0CA
:104B100030E030938D0620938C067A018C01F0935F
:104B20008F06E0938E065601B4E0AB0EB11CB501C2
:104B300076DE0A0D1B1DF801208131818217930753
:104B400029F5D701CD92DC92CE01DF91CF911F9153
:104B50000F91FF90EF90DF90CF90BF90AF900895AE
:104B600020918E0630918F062F5F3F4FCCEFDFEF05
:104B7000E217F30790F2CBEFDFEF2E173F0768F253
:104B8000D0E0C0E0CACFCFEFDFEFDECFC3EFDFEF83
:104B9000DBCF84E090E0089582E090E008958CEF10
:104BA0009FEF089580E290E0089510929106109290
:104BB000900610928F0610928E0610928D0610921B
:104BC0008C0690E080E008959093600280935F02ED
:104BD000089580918B06882391F0C5DD009789F4B4
:104BE000109291061092900610928F0610928E06E7
:104BF00010928D0610928C0610928B06089590E00C
:104C000080E00895009749F06115710531F0FC01CD
:104C100011821082FB01118210820895F3CF26E0E9
:104C200030E040E855E260E070E090E080E000C0F5
:104C30008130910569F01CF4892B39F00895823098
:104C4000910549F0039751F008958FE996E0E0C48B
:104C50008CE397E0FCCF89ED97E0F9CF86E798E009
:104C6000F6CF1F920F920FB60F9211240BB60F9230
:104C70002F933F934F935F936F937F938F939F9364
:104C8000AF93BF93EF93FF938BEC93EF909325013A
:104C900080932401B9D0FF91EF91BF91AF919F9183
:104CA0008F917F916F915F914F913F912F910F90D5
:104CB0000BBE0F900FBE0F901F9018958BEC93EFCB
:104CC0009093250180932401A3E7B0E08C918E7F1F
:104CD0008C93E0E2F1E080818C7F8083E1E2F1E07F
:104CE0008081877E808380818560808380818D7FC5
:104CF00080838C9181608C930895E3E7F0E080815C
:104D000090819E7F90838170089581E00895109234
:104D10009206089568EE73E080E090E0B8D290E0EB
:104D200080E0089526E030E040E050E16EE070E081
:104D300090E080E07DDF8FE996E0A0D3892B21F021
:104D40008FE996E0B5D3F7CF90E080E00895CF9259
:104D5000DF92EF92FF920F931F93CF93DF936B013C
:104D60007A01E901198218828FE996E087D3892BAD
:104D700069F18601CC24C39482E0D82E80919206FA
:104D8000811110C08FE996E093D30297B9F7C092D2
:104D90009206F801D1928F018881998101969983B9
:104DA0008883ECCF888199818E159F0578F48FE9EF
:104DB00096E07ED38F3F9807A9F3F80181938F0186
:104DC00088819981019699838883ECCF90E080E077
:104DD000DF91CF911F910F91FF90EF90DF90CF90D7
:104DE00008950F931F93CF93DF93EA0189018FE911
:104DF00096E09ED6F801D183C08390E080E0DF91F9
:104E0000CF911F910F910895CF92DF92EF92FF9271
:104E10008091930691E0980F90939306882369F010
:104E200021E030E03093950620939406809393061A
:104E3000FF90EF90DF90CF9008957894E091630217
:104E4000F0916402C28CD38CE48CF58C0E94A00596
:104E5000B701A60190E080E00E948802F89480915A
:104E600093068150E3CF0F931F93CF93DF9310925C
:104E7000600910925F0941D2D2DEC0916302D091E5
:104E80006402198218826FEF7FEFCB010E940B033F
:104E900070E060E090E080E00E948B01009709F0F4
:104EA0003AC00E941E07F8947894BE016E5D7F4F51
:104EB0008A819B810E948E01892B59F46FEF7FEFCD
:104EC000CB010E941E020E940503882311F081E09D
:104ED0008EA3F894F3DE0E940803882311F080E08B
:104EE00008C00E9405038111FACF81E09EA19111B3
:104EF000F6CF80935F0978940E942E0E8C017894EF
:104F000080915F0981110CC00E94C5070E94EA02CE
:104F1000F89490E080E0DF91CF911F910F91089578
:104F20000E94E8020E9408038823D9F081E0809360
:104F300060099091600981E0911180E080935F09A0
:104F4000809160098111D9DE0130110529F40E9498
:104F50002E0E892B09F4DBDE0E942E0E8C01D5DE8D
:104F6000CFCF0E9405038111E1CF81E09EA1911175
:104F7000DECF80E0DCCF40D008F481E00895E894F3
:104F800009C097FB3EF490958095709561957F4F91
:104F90008F4F9F4F9923A9F0F92F96E9BB2793953F
:104FA000F695879577956795B795F111F8CFFAF44F
:104FB000BB0F11F460FF1BC06F5F7F4F8F4F9F4F80
:104FC00016C0882311F096E911C0772321F09EE8DE
:104FD000872F762F05C0662371F096E8862F70E044
:104FE00060E02AF09A95660F771F881FDAF7880F1E
:104FF0009695879597F90895990F0008550FAA0B74
:10500000E0E8FEEF16161706E807F907C0F01216DB
:105010001306E407F50798F0621B730B840B950BDE
:1050200039F40A2661F0232B242B252B21F4089533
:105030000A2609F4A140A6958FEF811D811D0895D0
:10504000DBDF08F48FEF08950BD078C069D028F02B
:105050006ED018F0952309F05AC05FC01124A2C089
:105060007ED0A0F3959FD1F3950F50E0551F629F1E
:10507000F001729FBB27F00DB11D639FAA27F00DB1
:10508000B11DAA1F649F6627B00DA11D661F829FD8
:105090002227B00DA11D621F739FB00DA11D621FBD
:1050A000839FA00D611D221F749F3327A00D611DDA
:1050B000231F849F600D211D822F762F6A2F1124BC
:1050C0009F5750408AF0E1F088234AF0EE0FFF1F0F
:1050D000BB1F661F771F881F91505040A9F79E3F46
:1050E000510570F014C05EC05F3FECF3983EDCF3F6
:1050F000869577956795B795F795E7959F5FC1F783
:10510000FE2B880F911D9695879597F9089597F92D
:105110009F6780E870E060E008959FEF80EC08955D
:1051200000240A9416161706180609060895002486
:105130000A9412161306140605060895092E039400
:10514000000C11F4882352F0BB0F40F4BF2B11F474
:1051500060FF04C06F5F7F4F8F4F9F4F089557FDD3
:105160009058440F551F59F05F3F71F04795880FD5
:1051700097FB991F61F09F3F79F08795089512166C
:1051800013061406551FF2CF4695F1DF08C0161618
:1051900017061806991FF1CF8695710561050894C9
:1051A0000895E894BB2766277727CB0197F90895E0
:1051B0001F920F920FB60F9211242F933F938F934C
:1051C0009F93AF93BF938091970690919806A0917B
:1051D0009906B0919A063091960623E0230F2D3759
:1051E00058F50196A11DB11D209396068093970650
:1051F00090939806A0939906B0939A0680919B0687
:1052000090919C06A0919D06B0919E060196A11DCD
:10521000B11D80939B0690939C06A0939D06B0932E
:105220009E06BF91AF919F918F913F912F910F90CB
:105230000FBE0F901F90189526E8230F0296A11D10
:10524000B11DD2CF3FB7F89480919B0690919C06F8
:10525000A0919D06B0919E0626B5A89B05C02F3F44
:1052600019F00196A11DB11D3FBFBA2FA92F982F8C
:105270008827BC01CD01620F711D811D911D42E087
:10528000660F771F881F991F4A95D1F708958F924F
:105290009F92AF92BF92CF92DF92EF92FF926B01FB
:1052A0007C01D0DF4B015C01C114D104E104F104A5
:1052B000D9F06BD4C7DF681979098A099B09683E60
:1052C00073408105910580F321E0C21AD108E108FD
:1052D000F10888EE880E83E0981EA11CB11CC11451
:1052E000D104E104F10431F7FF90EF90DF90CF900B
:1052F000BF90AF909F908F900895789484B582600E
:1053000084BD84B5816084BD85B5826085BD85B569
:10531000816085BDEEE6F0E0808181608083E1E818
:10532000F0E0108280818260808380818160808350
:10533000E0E8F0E0808181608083E1EBF0E0808153
:1053400084608083E0EBF0E0808181608083E1E92C
:10535000F0E0808182608083808181608083E0E9E9
:10536000F0E0808181608083E1EAF0E0808182600A
:105370008083808181608083E0EAF0E080818160C9
:105380008083E1E2F1E080818260808380818160BE
:105390008083E0E2F1E0808181608083EAE7F0E0F1
:1053A000808184608083808182608083808181604D
:1053B00080838081806880831092C1000895863345
:1053C00008F0865320917B00982F9870277F922BAE
:1053D00090937B002091610290E4299F9001112419
:1053E0008770822B80937C0080917A008064809308
:1053F0007A0080917A0086FDFCCF809178009091B0
:1054000079000895CF93DF9390E0FC01EC51FF4FBA
:105410002491865D9E4FFC0184918823C9F090E021
:10542000880F991FFC01E657FE4FA591B491FC012E
:10543000E059FE4FC591D49161110DC09FB7F8940A
:105440008C91209582238C938881282328839FBF69
:10545000DF91CF910895623051F49FB7F8943C9159
:10546000822F809583238C93E8812E2BEFCF8FB7EB
:10547000F894EC912E2B2C938FBFEACFFC01918DE9
:10548000228D892F90E0805C9F4F821B91098F7342
:1054900099270895FC01918D828D981731F0828DA6
:1054A000E80FF11D858D90E008958FEF9FEF08952F
:1054B000FC01918D828D981761F0A28DAE0FBF2FE8
:1054C000B11D5D968C91928D9F5F9F73928F90E03E
:1054D00008958FEF9FEF0895FC01538D448D252F84
:1054E00030E0842F90E0821B930B541710F0CF967E
:1054F000089501970895FC01A48DA80FB92FB11D3F
:10550000A35ABF4F2C91848D90E001968F739927F9
:10551000848FA689B7892C93A089B1898C918370D7
:1055200080648C93938D848D981306C00288F389D0
:10553000E02D80818F7D80830895CF93DF93EC01F0
:10554000888D8823B1F0AA89BB89E889F9898C9173
:1055500085FD03C0808186FD0CC00FB607FCF7CF28
:105560008C9185FFF2CF808185FFEDCFCE01C3DF27
:10557000EACFDF91CF910895EF92FF920F931F939F
:10558000CF93DF93EC0181E0888F9B8D8C8D9813F6
:105590001AC0E889F989808185FF15C09FB7F89402
:1055A000EE89FF896083E889F9898081837080644E
:1055B00080839FBF81E090E0DF91CF911F910F9199
:1055C000FF90EF900895F62E0B8D10E00F5F1F4FA8
:1055D0000F731127E02E8C8D8E110BC00FB607FCB8
:1055E000FACFE889F989808185FFF5CFCE0183DF85
:1055F000F2CFEB8DEC0FFD2FF11DE35AFF4FF08240
:105600009FB7F8940B8FEA89FB8980818062D0CFA5
:10561000CF92DF92EF92FF921F93CF93DF93EC0133
:105620006A017B01122FE889F98982E08083C11425
:1056300081EED806E104F10499F060E079E08DE3B1
:1056400090E0A7019601B1D22150310941095109D9
:105650005695479537952795211580E1380790F0A5
:10566000E889F989108260E874E88EE190E0A7018A
:1056700096019BD221503109410951095695479510
:1056800037952795EC85FD853083EE85FF85208352
:10569000188EEC89FD891083EA89FB8980818061FD
:1056A0008083EA89FB89808188608083EA89FB891D
:1056B000808180688083EA89FB8980818F7D8083F7
:1056C000DF91CF911F91FF90EF90DF90CF900895E1
:1056D0001F920F920FB60F9211240BB60F922F93B9
:1056E0008F939F93EF93FF93E091AF06F091B006F5
:1056F0008081E091B506F091B60682FD1DC09081D3
:105700008091B8068F5F8F732091B906821741F0A0
:10571000E091B806F0E0E156F94F958F8093B80616
:10572000FF91EF919F918F912F910F900BBE0F9052
:105730000FBE0F901F9018958081F2CF1F920F928D
:105740000FB60F9211240BB60F922F933F934F93E6
:105750005F936F937F938F939F93AF93BF93EF93D9
:10576000FF938FE996E0C7DEFF91EF91BF91AF9174
:105770009F918F917F916F915F914F913F912F9169
:105780000F900BBE0F900FBE0F901F901895EFE972
:10579000F6E01382128288EE93E0A0E0B0E084830A
:1057A0009583A683B78387EE92E09183808385EC0F
:1057B00090E09587848784EC90E09787868780ECDB
:1057C00090E0918B808B81EC90E0938B828B82ECCC
:1057D00090E0958B848B86EC90E0978B868B118E76
:1057E000128E138E148E08951F920F920FB60F9281
:1057F00011240BB60F922F938F939F93EF93FF93E8
:10580000E0914C07F0914D078081E0915207F091B3
:10581000530782FD1DC09081809155078F5F8F7364
:1058200020915607821741F0E0915507F0E0E45CC3
:10583000F84F958F80935507FF91EF919F918F912E
:105840002F910F900BBE0F900FBE0F901F901895C9
:105850008081F2CF1F920F920FB60F9211240BB6D8
:105860000F922F933F934F935F936F937F938F93F9
:105870009F93AF93BF93EF93FF938CE397E03BDE4F
:10588000FF91EF91BF91AF919F918F917F916F9118
:105890005F914F913F912F910F900BBE0F900FBED4
:1058A0000F901F901895ECE3F7E01382128288EEB8
:1058B00093E0A0E0B0E084839583A683B78387EE6E
:1058C00092E0918380838DEC90E0958784878CECC7
:1058D00090E09787868788EC90E0918B808B89ECAD
:1058E00090E0938B828B8AEC90E0958B848B8EEC8E
:1058F00090E0978B868B118E128E138E148E0895E6
:105900001F920F920FB60F9211240BB60F922F9386
:105910008F939F93EF93FF93E091E907F091EA074C
:105920008081E091EF07F091F00782FD1DC090812A
:105930008091F2078F5F8F732091F307821741F0F8
:10594000E091F207F0E0E752F84F958F8093F2076D
:10595000FF91EF919F918F912F910F900BBE0F9020
:105960000FBE0F901F9018958081F2CF1F920F925B
:105970000FB60F9211240BB60F922F933F934F93B4
:105980005F936F937F938F939F93AF93BF93EF93A7
:10599000FF9389ED97E0AFDDFF91EF91BF91AF915C
:1059A0009F918F917F916F915F914F913F912F9137
:1059B0000F900BBE0F900FBE0F901F901895E9ED42
:1059C000F7E01382128288EE93E0A0E0B0E08483D7
:1059D0009583A683B78387EE92E09183808385EDDC
:1059E00090E09587848784ED90E09787868780EDA7
:1059F00090E0918B808B81ED90E0938B828B82ED98
:105A000090E0958B848B86ED90E0978B868B118E42
:105A1000128E138E148E08951F920F920FB60F924E
:105A200011240BB60F922F938F939F93EF93FF93B5
:105A3000E0918608F09187088081E0918C08F091D0
:105A40008D0882FD1DC0908180918F088F5F8F73BC
:105A500020919008821741F0E0918F08F0E0EA5819
:105A6000F74F958F80938F08FF91EF919F918F91C2
:105A70002F910F900BBE0F900FBE0F901F90189597
:105A80008081F2CF1F920F920FB60F9211240BB6A6
:105A90000F922F933F934F935F936F937F938F93C7
:105AA0009F93AF93BF93EF93FF9386E798E023DD37
:105AB000FF91EF91BF91AF919F918F917F916F91E6
:105AC0005F914F913F912F910F900BBE0F900FBEA2
:105AD0000F901F901895E6E7F8E01382128288EE87
